{
	"lib/allo-v2/contracts/core/libraries/Transfer.sol": {
		"Transfer": {
			"abi": [
				{
					"inputs": [],
					"name": "AMOUNT_MISMATCH",
					"type": "error"
				},
				{
					"inputs": [],
					"name": "NATIVE",
					"outputs": [
						{
							"internalType": "address",
							"name": "",
							"type": "address"
						}
					],
					"stateMutability": "view",
					"type": "function"
				}
			],
			"devdoc": {
				"author": "@thelostone-mc <aditya@gitcoin.co>, @0xKurt <kurt@gitcoin.co>, @codenamejason <jason@gitcoin.co>, @0xZakk <zakk@gitcoin.co>, @nfrgosselin <nate@gitcoin.co>",
				"details": "Handles the transfer of tokens to an address",
				"kind": "dev",
				"methods": {},
				"title": "Transfer contract",
				"version": 1
			},
			"evm": {
				"assembly": "    /* \"lib/allo-v2/contracts/core/libraries/Transfer.sol\":4513:7537  contract Transfer is Native {... */\n  mstore(0x40, 0x80)\n  callvalue\n  dup1\n  iszero\n  tag_1\n  jumpi\n  0x00\n  dup1\n  revert\ntag_1:\n  pop\n  dataSize(sub_0)\n  dup1\n  dataOffset(sub_0)\n  0x00\n  codecopy\n  0x00\n  return\nstop\n\nsub_0: assembly {\n        /* \"lib/allo-v2/contracts/core/libraries/Transfer.sol\":4513:7537  contract Transfer is Native {... */\n      mstore(0x40, 0x80)\n      callvalue\n      dup1\n      iszero\n      tag_1\n      jumpi\n      0x00\n      dup1\n      revert\n    tag_1:\n      pop\n      jumpi(tag_2, lt(calldatasize, 0x04))\n      shr(0xe0, calldataload(0x00))\n      dup1\n      0xa0cf0aea\n      eq\n      tag_3\n      jumpi\n    tag_2:\n      0x00\n      dup1\n      revert\n        /* \"lib/allo-v2/contracts/core/libraries/Native.sol\":4412:4487  address public constant NATIVE = 0xEeeeeEeeeEeEeeEeEeEeeEEEeeeeEeeeeeeeEEeE */\n    tag_3:\n      tag_4\n      tag_5\n      jump\t// in\n    tag_4:\n      mload(0x40)\n      tag_6\n      swap2\n      swap1\n      tag_7\n      jump\t// in\n    tag_6:\n      mload(0x40)\n      dup1\n      swap2\n      sub\n      swap1\n      return\n    tag_5:\n        /* \"lib/allo-v2/contracts/core/libraries/Native.sol\":4445:4487  0xEeeeeEeeeEeEeeEeEeEeeEEEeeeeEeeeeeeeEEeE */\n      0xeeeeeeeeeeeeeeeeeeeeeeeeeeeeeeeeeeeeeeee\n        /* \"lib/allo-v2/contracts/core/libraries/Native.sol\":4412:4487  address public constant NATIVE = 0xEeeeeEeeeEeEeeEeEeEeeEEEeeeeEeeeeeeeEEeE */\n      dup2\n      jump\t// out\n        /* \"#utility.yul\":7:133   */\n    tag_8:\n        /* \"#utility.yul\":44:51   */\n      0x00\n        /* \"#utility.yul\":84:126   */\n      0xffffffffffffffffffffffffffffffffffffffff\n        /* \"#utility.yul\":77:82   */\n      dup3\n        /* \"#utility.yul\":73:127   */\n      and\n        /* \"#utility.yul\":62:127   */\n      swap1\n      pop\n        /* \"#utility.yul\":7:133   */\n      swap2\n      swap1\n      pop\n      jump\t// out\n        /* \"#utility.yul\":139:235   */\n    tag_9:\n        /* \"#utility.yul\":176:183   */\n      0x00\n        /* \"#utility.yul\":205:229   */\n      tag_14\n        /* \"#utility.yul\":223:228   */\n      dup3\n        /* \"#utility.yul\":205:229   */\n      tag_8\n      jump\t// in\n    tag_14:\n        /* \"#utility.yul\":194:229   */\n      swap1\n      pop\n        /* \"#utility.yul\":139:235   */\n      swap2\n      swap1\n      pop\n      jump\t// out\n        /* \"#utility.yul\":241:359   */\n    tag_10:\n        /* \"#utility.yul\":328:352   */\n      tag_16\n        /* \"#utility.yul\":346:351   */\n      dup2\n        /* \"#utility.yul\":328:352   */\n      tag_9\n      jump\t// in\n    tag_16:\n        /* \"#utility.yul\":323:326   */\n      dup3\n        /* \"#utility.yul\":316:353   */\n      mstore\n        /* \"#utility.yul\":241:359   */\n      pop\n      pop\n      jump\t// out\n        /* \"#utility.yul\":365:587   */\n    tag_7:\n        /* \"#utility.yul\":458:462   */\n      0x00\n        /* \"#utility.yul\":496:498   */\n      0x20\n        /* \"#utility.yul\":485:494   */\n      dup3\n        /* \"#utility.yul\":481:499   */\n      add\n        /* \"#utility.yul\":473:499   */\n      swap1\n      pop\n        /* \"#utility.yul\":509:580   */\n      tag_18\n        /* \"#utility.yul\":577:578   */\n      0x00\n        /* \"#utility.yul\":566:575   */\n      dup4\n        /* \"#utility.yul\":562:579   */\n      add\n        /* \"#utility.yul\":553:559   */\n      dup5\n        /* \"#utility.yul\":509:580   */\n      tag_10\n      jump\t// in\n    tag_18:\n        /* \"#utility.yul\":365:587   */\n      swap3\n      swap2\n      pop\n      pop\n      jump\t// out\n\n    auxdata: 0xa2646970667358221220779892610161def5694fd6d98a0555e26cfb9c91846cb8f58080332a98b1babd64736f6c63430008130033\n}\n",
				"bytecode": {
					"linkReferences": {},
					"object": "608060405234801561001057600080fd5b5060eb8061001f6000396000f3fe6080604052348015600f57600080fd5b506004361060285760003560e01c8063a0cf0aea14602d575b600080fd5b60336047565b604051603e9190609c565b60405180910390f35b73eeeeeeeeeeeeeeeeeeeeeeeeeeeeeeeeeeeeeeee81565b600073ffffffffffffffffffffffffffffffffffffffff82169050919050565b6000608882605f565b9050919050565b609681607f565b82525050565b600060208201905060af6000830184608f565b9291505056fea2646970667358221220779892610161def5694fd6d98a0555e26cfb9c91846cb8f58080332a98b1babd64736f6c63430008130033",
					"opcodes": "PUSH1 0x80 PUSH1 0x40 MSTORE CALLVALUE DUP1 ISZERO PUSH2 0x10 JUMPI PUSH1 0x0 DUP1 REVERT JUMPDEST POP PUSH1 0xEB DUP1 PUSH2 0x1F PUSH1 0x0 CODECOPY PUSH1 0x0 RETURN INVALID PUSH1 0x80 PUSH1 0x40 MSTORE CALLVALUE DUP1 ISZERO PUSH1 0xF JUMPI PUSH1 0x0 DUP1 REVERT JUMPDEST POP PUSH1 0x4 CALLDATASIZE LT PUSH1 0x28 JUMPI PUSH1 0x0 CALLDATALOAD PUSH1 0xE0 SHR DUP1 PUSH4 0xA0CF0AEA EQ PUSH1 0x2D JUMPI JUMPDEST PUSH1 0x0 DUP1 REVERT JUMPDEST PUSH1 0x33 PUSH1 0x47 JUMP JUMPDEST PUSH1 0x40 MLOAD PUSH1 0x3E SWAP2 SWAP1 PUSH1 0x9C JUMP JUMPDEST PUSH1 0x40 MLOAD DUP1 SWAP2 SUB SWAP1 RETURN JUMPDEST PUSH20 0xEEEEEEEEEEEEEEEEEEEEEEEEEEEEEEEEEEEEEEEE DUP2 JUMP JUMPDEST PUSH1 0x0 PUSH20 0xFFFFFFFFFFFFFFFFFFFFFFFFFFFFFFFFFFFFFFFF DUP3 AND SWAP1 POP SWAP2 SWAP1 POP JUMP JUMPDEST PUSH1 0x0 PUSH1 0x88 DUP3 PUSH1 0x5F JUMP JUMPDEST SWAP1 POP SWAP2 SWAP1 POP JUMP JUMPDEST PUSH1 0x96 DUP2 PUSH1 0x7F JUMP JUMPDEST DUP3 MSTORE POP POP JUMP JUMPDEST PUSH1 0x0 PUSH1 0x20 DUP3 ADD SWAP1 POP PUSH1 0xAF PUSH1 0x0 DUP4 ADD DUP5 PUSH1 0x8F JUMP JUMPDEST SWAP3 SWAP2 POP POP JUMP INVALID LOG2 PUSH5 0x6970667358 0x22 SLT KECCAK256 PUSH24 0x9892610161DEF5694FD6D98A0555E26CFB9C91846CB8F580 DUP1 CALLER 0x2A SWAP9 0xB1 0xBA 0xBD PUSH5 0x736F6C6343 STOP ADDMOD SGT STOP CALLER "
				},
				"gasEstimates": {
					"creation": {
						"codeDepositCost": "47000",
						"executionCost": "99",
						"totalCost": "47099"
					},
					"external": {
						"NATIVE()": "356"
					},
					"internal": {
						"_getBalance(address,address)": "infinite",
						"_transferAmount(address,address,uint256)": "infinite",
						"_transferAmountFrom(address,struct Transfer.TransferData memory)": "infinite",
						"_transferAmountsFrom(address,struct Transfer.TransferData memory[] memory)": "infinite"
					}
				},
				"methodIdentifiers": {
					"NATIVE()": "a0cf0aea"
				}
			},
			"storageLayout": {
				"storage": [],
				"types": null
			},
			"userdoc": {
				"errors": {
					"AMOUNT_MISMATCH()": [
						{
							"notice": "Thrown when the amount of tokens sent does not match the amount of tokens expected"
						}
					]
				},
				"kind": "user",
				"methods": {
					"NATIVE()": {
						"notice": "Address of the native token"
					}
				},
				"notice": "A helper contract to transfer tokens within Allo protocol",
				"version": 1
			}
		}
	}
}