{
	"src/YeeterStrategy.sol": {
		"YeeterStrategy": {
			"abi": [
				{
					"inputs": [
						{
							"internalType": "address",
							"name": "_allo",
							"type": "address"
						}
					],
					"stateMutability": "nonpayable",
					"type": "constructor"
				},
				{
					"inputs": [],
					"name": "ALLOCATION_ACTIVE",
					"type": "error"
				},
				{
					"inputs": [],
					"name": "ALLOCATION_NOT_ACTIVE",
					"type": "error"
				},
				{
					"inputs": [],
					"name": "ALLOCATION_NOT_ENDED",
					"type": "error"
				},
				{
					"inputs": [],
					"name": "ALREADY_INITIALIZED",
					"type": "error"
				},
				{
					"inputs": [],
					"name": "AMOUNT_MISMATCH",
					"type": "error"
				},
				{
					"inputs": [],
					"name": "ANCHOR_ERROR",
					"type": "error"
				},
				{
					"inputs": [],
					"name": "ARRAY_MISMATCH",
					"type": "error"
				},
				{
					"inputs": [],
					"name": "INPUT_LENGTH_MISMATCH",
					"type": "error"
				},
				{
					"inputs": [],
					"name": "INVALID",
					"type": "error"
				},
				{
					"inputs": [],
					"name": "INVALID_ADDRESS",
					"type": "error"
				},
				{
					"inputs": [],
					"name": "INVALID_FEE",
					"type": "error"
				},
				{
					"inputs": [],
					"name": "INVALID_METADATA",
					"type": "error"
				},
				{
					"inputs": [],
					"name": "INVALID_REGISTRATION",
					"type": "error"
				},
				{
					"inputs": [],
					"name": "IS_APPROVED_STRATEGY",
					"type": "error"
				},
				{
					"inputs": [],
					"name": "MISMATCH",
					"type": "error"
				},
				{
					"inputs": [],
					"name": "NONCE_NOT_AVAILABLE",
					"type": "error"
				},
				{
					"inputs": [],
					"name": "NON_ZERO_VALUE",
					"type": "error"
				},
				{
					"inputs": [],
					"name": "NOOP",
					"type": "error"
				},
				{
					"inputs": [],
					"name": "NOT_APPROVED_STRATEGY",
					"type": "error"
				},
				{
					"inputs": [],
					"name": "NOT_ENOUGH_FUNDS",
					"type": "error"
				},
				{
					"inputs": [],
					"name": "NOT_IMPLEMENTED",
					"type": "error"
				},
				{
					"inputs": [],
					"name": "NOT_INITIALIZED",
					"type": "error"
				},
				{
					"inputs": [],
					"name": "NOT_PENDING_OWNER",
					"type": "error"
				},
				{
					"inputs": [],
					"name": "POOL_ACTIVE",
					"type": "error"
				},
				{
					"inputs": [],
					"name": "POOL_INACTIVE",
					"type": "error"
				},
				{
					"inputs": [],
					"name": "RECIPIENT_ALREADY_ACCEPTED",
					"type": "error"
				},
				{
					"inputs": [
						{
							"internalType": "address",
							"name": "recipientId",
							"type": "address"
						}
					],
					"name": "RECIPIENT_ERROR",
					"type": "error"
				},
				{
					"inputs": [],
					"name": "RECIPIENT_NOT_ACCEPTED",
					"type": "error"
				},
				{
					"inputs": [],
					"name": "REGISTRATION_ACTIVE",
					"type": "error"
				},
				{
					"inputs": [],
					"name": "REGISTRATION_NOT_ACTIVE",
					"type": "error"
				},
				{
					"inputs": [],
					"name": "UNAUTHORIZED",
					"type": "error"
				},
				{
					"inputs": [],
					"name": "ZERO_ADDRESS",
					"type": "error"
				},
				{
					"anonymous": false,
					"inputs": [
						{
							"indexed": true,
							"internalType": "address",
							"name": "recipientId",
							"type": "address"
						},
						{
							"indexed": false,
							"internalType": "uint256",
							"name": "amount",
							"type": "uint256"
						},
						{
							"indexed": false,
							"internalType": "address",
							"name": "token",
							"type": "address"
						},
						{
							"indexed": false,
							"internalType": "address",
							"name": "sender",
							"type": "address"
						}
					],
					"name": "Allocated",
					"type": "event"
				},
				{
					"anonymous": false,
					"inputs": [
						{
							"indexed": true,
							"internalType": "address",
							"name": "recipientId",
							"type": "address"
						},
						{
							"indexed": false,
							"internalType": "address",
							"name": "recipientAddress",
							"type": "address"
						},
						{
							"indexed": false,
							"internalType": "uint256",
							"name": "amount",
							"type": "uint256"
						},
						{
							"indexed": false,
							"internalType": "address",
							"name": "sender",
							"type": "address"
						}
					],
					"name": "Distributed",
					"type": "event"
				},
				{
					"anonymous": false,
					"inputs": [
						{
							"indexed": false,
							"internalType": "uint256",
							"name": "poolId",
							"type": "uint256"
						},
						{
							"indexed": false,
							"internalType": "bytes",
							"name": "data",
							"type": "bytes"
						}
					],
					"name": "Initialized",
					"type": "event"
				},
				{
					"anonymous": false,
					"inputs": [
						{
							"indexed": false,
							"internalType": "bool",
							"name": "active",
							"type": "bool"
						}
					],
					"name": "PoolActive",
					"type": "event"
				},
				{
					"anonymous": false,
					"inputs": [
						{
							"indexed": true,
							"internalType": "address",
							"name": "recipientId",
							"type": "address"
						},
						{
							"indexed": false,
							"internalType": "bytes",
							"name": "data",
							"type": "bytes"
						},
						{
							"indexed": false,
							"internalType": "address",
							"name": "sender",
							"type": "address"
						}
					],
					"name": "Registered",
					"type": "event"
				},
				{
					"inputs": [],
					"name": "NATIVE",
					"outputs": [
						{
							"internalType": "address",
							"name": "",
							"type": "address"
						}
					],
					"stateMutability": "view",
					"type": "function"
				},
				{
					"inputs": [
						{
							"internalType": "address[]",
							"name": "_recipientIds",
							"type": "address[]"
						},
						{
							"internalType": "uint256[]",
							"name": "_amounts",
							"type": "uint256[]"
						},
						{
							"internalType": "address",
							"name": "_token",
							"type": "address"
						}
					],
					"name": "allocate",
					"outputs": [],
					"stateMutability": "nonpayable",
					"type": "function"
				},
				{
					"inputs": [
						{
							"internalType": "bytes",
							"name": "_data",
							"type": "bytes"
						},
						{
							"internalType": "address",
							"name": "_sender",
							"type": "address"
						}
					],
					"name": "allocate",
					"outputs": [],
					"stateMutability": "payable",
					"type": "function"
				},
				{
					"inputs": [
						{
							"internalType": "address[]",
							"name": "_recipientIds",
							"type": "address[]"
						},
						{
							"internalType": "bytes",
							"name": "_data",
							"type": "bytes"
						},
						{
							"internalType": "address",
							"name": "_sender",
							"type": "address"
						}
					],
					"name": "distribute",
					"outputs": [],
					"stateMutability": "nonpayable",
					"type": "function"
				},
				{
					"inputs": [],
					"name": "getAllo",
					"outputs": [
						{
							"internalType": "contract IAllo",
							"name": "",
							"type": "address"
						}
					],
					"stateMutability": "view",
					"type": "function"
				},
				{
					"inputs": [
						{
							"internalType": "address[]",
							"name": "_recipientIds",
							"type": "address[]"
						},
						{
							"internalType": "bytes[]",
							"name": "_data",
							"type": "bytes[]"
						}
					],
					"name": "getPayouts",
					"outputs": [
						{
							"components": [
								{
									"internalType": "address",
									"name": "recipientAddress",
									"type": "address"
								},
								{
									"internalType": "uint256",
									"name": "amount",
									"type": "uint256"
								}
							],
							"internalType": "struct IStrategy.PayoutSummary[]",
							"name": "",
							"type": "tuple[]"
						}
					],
					"stateMutability": "view",
					"type": "function"
				},
				{
					"inputs": [],
					"name": "getPoolAmount",
					"outputs": [
						{
							"internalType": "uint256",
							"name": "",
							"type": "uint256"
						}
					],
					"stateMutability": "view",
					"type": "function"
				},
				{
					"inputs": [],
					"name": "getPoolId",
					"outputs": [
						{
							"internalType": "uint256",
							"name": "",
							"type": "uint256"
						}
					],
					"stateMutability": "view",
					"type": "function"
				},
				{
					"inputs": [
						{
							"internalType": "address",
							"name": "_recipientId",
							"type": "address"
						}
					],
					"name": "getRecipientStatus",
					"outputs": [
						{
							"internalType": "enum IStrategy.Status",
							"name": "",
							"type": "uint8"
						}
					],
					"stateMutability": "view",
					"type": "function"
				},
				{
					"inputs": [],
					"name": "getStrategyId",
					"outputs": [
						{
							"internalType": "bytes32",
							"name": "",
							"type": "bytes32"
						}
					],
					"stateMutability": "view",
					"type": "function"
				},
				{
					"inputs": [
						{
							"internalType": "uint256",
							"name": "_amount",
							"type": "uint256"
						}
					],
					"name": "increasePoolAmount",
					"outputs": [],
					"stateMutability": "nonpayable",
					"type": "function"
				},
				{
					"inputs": [
						{
							"internalType": "uint256",
							"name": "_poolId",
							"type": "uint256"
						},
						{
							"internalType": "bytes",
							"name": "_data",
							"type": "bytes"
						}
					],
					"name": "initialize",
					"outputs": [],
					"stateMutability": "nonpayable",
					"type": "function"
				},
				{
					"inputs": [],
					"name": "isPoolActive",
					"outputs": [
						{
							"internalType": "bool",
							"name": "",
							"type": "bool"
						}
					],
					"stateMutability": "view",
					"type": "function"
				},
				{
					"inputs": [
						{
							"internalType": "address",
							"name": "_allocator",
							"type": "address"
						}
					],
					"name": "isValidAllocator",
					"outputs": [
						{
							"internalType": "bool",
							"name": "",
							"type": "bool"
						}
					],
					"stateMutability": "view",
					"type": "function"
				},
				{
					"inputs": [
						{
							"internalType": "bytes",
							"name": "_data",
							"type": "bytes"
						},
						{
							"internalType": "address",
							"name": "_sender",
							"type": "address"
						}
					],
					"name": "registerRecipient",
					"outputs": [
						{
							"internalType": "address",
							"name": "recipientId",
							"type": "address"
						}
					],
					"stateMutability": "payable",
					"type": "function"
				},
				{
					"inputs": [
						{
							"internalType": "address",
							"name": "_token",
							"type": "address"
						},
						{
							"internalType": "address",
							"name": "_recipient",
							"type": "address"
						},
						{
							"internalType": "uint256",
							"name": "_amount",
							"type": "uint256"
						}
					],
					"name": "withdraw",
					"outputs": [],
					"stateMutability": "nonpayable",
					"type": "function"
				},
				{
					"stateMutability": "payable",
					"type": "receive"
				}
			],
			"devdoc": {
				"errors": {
					"ANCHOR_ERROR()": [
						{
							"details": "Thrown if the anchor creation fails"
						}
					],
					"NONCE_NOT_AVAILABLE()": [
						{
							"details": "Thrown when the nonce passed has been used or not available"
						}
					],
					"NOT_PENDING_OWNER()": [
						{
							"details": "Thrown when the 'msg.sender' is not the pending owner on ownership transfer"
						}
					]
				},
				"events": {
					"Allocated(address,uint256,address,address)": {
						"params": {
							"amount": "The amount allocated",
							"recipientId": "The ID of the recipient",
							"token": "The token allocated"
						}
					},
					"Distributed(address,address,uint256,address)": {
						"params": {
							"amount": "The amount distributed",
							"recipientAddress": "The recipient",
							"recipientId": "The ID of the recipient",
							"sender": "The sender"
						}
					},
					"Initialized(uint256,bytes)": {
						"params": {
							"data": "The data passed to the 'initialize' function",
							"poolId": "The ID of the pool"
						}
					},
					"PoolActive(bool)": {
						"params": {
							"active": "The status of the pool"
						}
					},
					"Registered(address,bytes,address)": {
						"params": {
							"data": "The data passed to the 'registerRecipient' function",
							"recipientId": "The ID of the recipient",
							"sender": "The sender"
						}
					}
				},
				"kind": "dev",
				"methods": {
					"allocate(bytes,address)": {
						"details": "The encoded '_data' will be determined by the strategy implementation. Only 'Allo' contract can      call this when it is initialized.",
						"params": {
							"_data": "The data to use to allocate to the recipient",
							"_sender": "The address of the sender"
						}
					},
					"distribute(address[],bytes,address)": {
						"details": "The encoded '_data' will be determined by the strategy implementation. Only 'Allo' contract can      call this when it is initialized.",
						"params": {
							"_data": "The data to use to distribute to the recipients",
							"_recipientIds": "The IDs of the recipients",
							"_sender": "The address of the sender"
						}
					},
					"getAllo()": {
						"returns": {
							"_0": "The Allo contract"
						}
					},
					"getPayouts(address[],bytes[])": {
						"details": "The encoded '_data' will be determined by the strategy implementation.",
						"params": {
							"_data": "The data to use to get the payout summary for the recipients",
							"_recipientIds": "The IDs of the recipients"
						},
						"returns": {
							"_0": "The payout summary for the recipients"
						}
					},
					"getPoolAmount()": {
						"returns": {
							"_0": "The balance of the pool"
						}
					},
					"getPoolId()": {
						"returns": {
							"_0": "The ID of the pool"
						}
					},
					"getRecipientStatus(address)": {
						"params": {
							"_recipientId": "The ID of the recipient"
						},
						"returns": {
							"_0": "The status of the recipient"
						}
					},
					"getStrategyId()": {
						"returns": {
							"_0": "The ID of the strategy"
						}
					},
					"increasePoolAmount(uint256)": {
						"details": "Increases the 'poolAmount' by '_amount'. Only 'Allo' contract can call this.",
						"params": {
							"_amount": "The amount to increase the pool by"
						}
					},
					"initialize(uint256,bytes)": {
						"params": {
							"_data": "The encoded data",
							"_poolId": "The ID of the pool"
						}
					},
					"isPoolActive()": {
						"returns": {
							"_0": "'true' if the pool is active, otherwise 'false'"
						}
					},
					"isValidAllocator(address)": {
						"details": "How the allocator is determined is up to the strategy implementation.",
						"params": {
							"_allocator": "The address to check if it is a valid allocator for the strategy."
						},
						"returns": {
							"_0": "'true' if the address is a valid allocator, 'false' otherwise"
						}
					},
					"registerRecipient(bytes,address)": {
						"details": "Registers a recipient and returns the ID of the recipient. The encoded '_data' will be determined by the      strategy implementation. Only 'Allo' contract can call this when it is initialized.",
						"params": {
							"_data": "The data to use to register the recipient",
							"_sender": "The address of the sender"
						},
						"returns": {
							"recipientId": "The recipientId"
						}
					},
					"withdraw(address,address,uint256)": {
						"params": {
							"_amount": "Amount to withdraw",
							"_recipient": "Address to send the funds to",
							"_token": "Token address"
						}
					}
				},
				"version": 1
			},
			"evm": {
				"assembly": "    /* \"src/YeeterStrategy.sol\":422:3269  contract YeeterStrategy is BaseStrategy {... */\n  mstore(0x40, 0xc0)\n    /* \"src/YeeterStrategy.sol\":522:590  constructor(address _allo) BaseStrategy(_allo, \"Yeeter Strategy\") {} */\n  callvalue\n  dup1\n  iszero\n  tag_1\n  jumpi\n  0x00\n  dup1\n  revert\ntag_1:\n  pop\n  mload(0x40)\n  sub(codesize, bytecodeSize)\n  dup1\n  bytecodeSize\n  dup4\n  codecopy\n  dup2\n  dup2\n  add\n  0x40\n  mstore\n  dup2\n  add\n  swap1\n  tag_2\n  swap2\n  swap1\n  tag_3\n  jump\t// in\ntag_2:\n    /* \"src/YeeterStrategy.sol\":562:567  _allo */\n  dup1\n    /* \"lib/allo-v2/contracts/strategies/BaseStrategy.sol\":5210:5345  constructor(address _allo, string memory _name) {... */\n  mload(0x40)\n  dup1\n  0x40\n  add\n  0x40\n  mstore\n  dup1\n  0x0f\n  dup2\n  mstore\n  0x20\n  add\n  0x5965657465722053747261746567790000000000000000000000000000000000\n  dup2\n  mstore\n  pop\n    /* \"lib/allo-v2/contracts/strategies/BaseStrategy.sol\":5281:5286  _allo */\n  dup2\n    /* \"lib/allo-v2/contracts/strategies/BaseStrategy.sol\":5268:5287  allo = IAllo(_allo) */\n  0xffffffffffffffffffffffffffffffffffffffff\n  and\n  0x80\n  dup2\n  0xffffffffffffffffffffffffffffffffffffffff\n  and\n  dup2\n  mstore\n  pop\n  pop\n    /* \"lib/allo-v2/contracts/strategies/BaseStrategy.sol\":5331:5336  _name */\n  dup1\n    /* \"lib/allo-v2/contracts/strategies/BaseStrategy.sol\":5320:5337  abi.encode(_name) */\n  add(0x20, mload(0x40))\n  tag_7\n  swap2\n  swap1\n  tag_8\n  jump\t// in\ntag_7:\n  mload(0x40)\n  0x20\n  dup2\n  dup4\n  sub\n  sub\n  dup2\n  mstore\n  swap1\n  0x40\n  mstore\n    /* \"lib/allo-v2/contracts/strategies/BaseStrategy.sol\":5310:5338  keccak256(abi.encode(_name)) */\n  dup1\n  mload\n  swap1\n  0x20\n  add\n  keccak256\n    /* \"lib/allo-v2/contracts/strategies/BaseStrategy.sol\":5297:5338  strategyId = keccak256(abi.encode(_name)) */\n  0xa0\n  dup2\n  dup2\n  mstore\n  pop\n  pop\n    /* \"lib/allo-v2/contracts/strategies/BaseStrategy.sol\":5210:5345  constructor(address _allo, string memory _name) {... */\n  pop\n  pop\n    /* \"src/YeeterStrategy.sol\":522:590  constructor(address _allo) BaseStrategy(_allo, \"Yeeter Strategy\") {} */\n  pop\n    /* \"src/YeeterStrategy.sol\":422:3269  contract YeeterStrategy is BaseStrategy {... */\n  jump(tag_10)\n    /* \"#utility.yul\":88:205   */\ntag_12:\n    /* \"#utility.yul\":197:198   */\n  0x00\n    /* \"#utility.yul\":194:195   */\n  dup1\n    /* \"#utility.yul\":187:199   */\n  revert\n    /* \"#utility.yul\":334:460   */\ntag_14:\n    /* \"#utility.yul\":371:378   */\n  0x00\n    /* \"#utility.yul\":411:453   */\n  0xffffffffffffffffffffffffffffffffffffffff\n    /* \"#utility.yul\":404:409   */\n  dup3\n    /* \"#utility.yul\":400:454   */\n  and\n    /* \"#utility.yul\":389:454   */\n  swap1\n  pop\n    /* \"#utility.yul\":334:460   */\n  swap2\n  swap1\n  pop\n  jump\t// out\n    /* \"#utility.yul\":466:562   */\ntag_15:\n    /* \"#utility.yul\":503:510   */\n  0x00\n    /* \"#utility.yul\":532:556   */\n  tag_29\n    /* \"#utility.yul\":550:555   */\n  dup3\n    /* \"#utility.yul\":532:556   */\n  tag_14\n  jump\t// in\ntag_29:\n    /* \"#utility.yul\":521:556   */\n  swap1\n  pop\n    /* \"#utility.yul\":466:562   */\n  swap2\n  swap1\n  pop\n  jump\t// out\n    /* \"#utility.yul\":568:690   */\ntag_16:\n    /* \"#utility.yul\":641:665   */\n  tag_31\n    /* \"#utility.yul\":659:664   */\n  dup2\n    /* \"#utility.yul\":641:665   */\n  tag_15\n  jump\t// in\ntag_31:\n    /* \"#utility.yul\":634:639   */\n  dup2\n    /* \"#utility.yul\":631:666   */\n  eq\n    /* \"#utility.yul\":621:684   */\n  tag_32\n  jumpi\n    /* \"#utility.yul\":680:681   */\n  0x00\n    /* \"#utility.yul\":677:678   */\n  dup1\n    /* \"#utility.yul\":670:682   */\n  revert\n    /* \"#utility.yul\":621:684   */\ntag_32:\n    /* \"#utility.yul\":568:690   */\n  pop\n  jump\t// out\n    /* \"#utility.yul\":696:839   */\ntag_17:\n    /* \"#utility.yul\":753:758   */\n  0x00\n    /* \"#utility.yul\":784:790   */\n  dup2\n    /* \"#utility.yul\":778:791   */\n  mload\n    /* \"#utility.yul\":769:791   */\n  swap1\n  pop\n    /* \"#utility.yul\":800:833   */\n  tag_34\n    /* \"#utility.yul\":827:832   */\n  dup2\n    /* \"#utility.yul\":800:833   */\n  tag_16\n  jump\t// in\ntag_34:\n    /* \"#utility.yul\":696:839   */\n  swap3\n  swap2\n  pop\n  pop\n  jump\t// out\n    /* \"#utility.yul\":845:1196   */\ntag_3:\n    /* \"#utility.yul\":915:921   */\n  0x00\n    /* \"#utility.yul\":964:966   */\n  0x20\n    /* \"#utility.yul\":952:961   */\n  dup3\n    /* \"#utility.yul\":943:950   */\n  dup5\n    /* \"#utility.yul\":939:962   */\n  sub\n    /* \"#utility.yul\":935:967   */\n  slt\n    /* \"#utility.yul\":932:1051   */\n  iszero\n  tag_36\n  jumpi\n    /* \"#utility.yul\":970:1049   */\n  tag_37\n  tag_12\n  jump\t// in\ntag_37:\n    /* \"#utility.yul\":932:1051   */\ntag_36:\n    /* \"#utility.yul\":1090:1091   */\n  0x00\n    /* \"#utility.yul\":1115:1179   */\n  tag_38\n    /* \"#utility.yul\":1171:1178   */\n  dup5\n    /* \"#utility.yul\":1162:1168   */\n  dup3\n    /* \"#utility.yul\":1151:1160   */\n  dup6\n    /* \"#utility.yul\":1147:1169   */\n  add\n    /* \"#utility.yul\":1115:1179   */\n  tag_17\n  jump\t// in\ntag_38:\n    /* \"#utility.yul\":1105:1179   */\n  swap2\n  pop\n    /* \"#utility.yul\":1061:1189   */\n  pop\n    /* \"#utility.yul\":845:1196   */\n  swap3\n  swap2\n  pop\n  pop\n  jump\t// out\n    /* \"#utility.yul\":1202:1301   */\ntag_18:\n    /* \"#utility.yul\":1254:1260   */\n  0x00\n    /* \"#utility.yul\":1288:1293   */\n  dup2\n    /* \"#utility.yul\":1282:1294   */\n  mload\n    /* \"#utility.yul\":1272:1294   */\n  swap1\n  pop\n    /* \"#utility.yul\":1202:1301   */\n  swap2\n  swap1\n  pop\n  jump\t// out\n    /* \"#utility.yul\":1307:1476   */\ntag_19:\n    /* \"#utility.yul\":1391:1402   */\n  0x00\n    /* \"#utility.yul\":1425:1431   */\n  dup3\n    /* \"#utility.yul\":1420:1423   */\n  dup3\n    /* \"#utility.yul\":1413:1432   */\n  mstore\n    /* \"#utility.yul\":1465:1469   */\n  0x20\n    /* \"#utility.yul\":1460:1463   */\n  dup3\n    /* \"#utility.yul\":1456:1470   */\n  add\n    /* \"#utility.yul\":1441:1470   */\n  swap1\n  pop\n    /* \"#utility.yul\":1307:1476   */\n  swap3\n  swap2\n  pop\n  pop\n  jump\t// out\n    /* \"#utility.yul\":1482:1728   */\ntag_20:\n    /* \"#utility.yul\":1563:1564   */\n  0x00\n    /* \"#utility.yul\":1573:1686   */\ntag_42:\n    /* \"#utility.yul\":1587:1593   */\n  dup4\n    /* \"#utility.yul\":1584:1585   */\n  dup2\n    /* \"#utility.yul\":1581:1594   */\n  lt\n    /* \"#utility.yul\":1573:1686   */\n  iszero\n  tag_44\n  jumpi\n    /* \"#utility.yul\":1672:1673   */\n  dup1\n    /* \"#utility.yul\":1667:1670   */\n  dup3\n    /* \"#utility.yul\":1663:1674   */\n  add\n    /* \"#utility.yul\":1657:1675   */\n  mload\n    /* \"#utility.yul\":1653:1654   */\n  dup2\n    /* \"#utility.yul\":1648:1651   */\n  dup5\n    /* \"#utility.yul\":1644:1655   */\n  add\n    /* \"#utility.yul\":1637:1676   */\n  mstore\n    /* \"#utility.yul\":1609:1611   */\n  0x20\n    /* \"#utility.yul\":1606:1607   */\n  dup2\n    /* \"#utility.yul\":1602:1612   */\n  add\n    /* \"#utility.yul\":1597:1612   */\n  swap1\n  pop\n    /* \"#utility.yul\":1573:1686   */\n  jump(tag_42)\ntag_44:\n    /* \"#utility.yul\":1720:1721   */\n  0x00\n    /* \"#utility.yul\":1711:1717   */\n  dup5\n    /* \"#utility.yul\":1706:1709   */\n  dup5\n    /* \"#utility.yul\":1702:1718   */\n  add\n    /* \"#utility.yul\":1695:1722   */\n  mstore\n    /* \"#utility.yul\":1544:1728   */\n  pop\n    /* \"#utility.yul\":1482:1728   */\n  pop\n  pop\n  pop\n  jump\t// out\n    /* \"#utility.yul\":1734:1836   */\ntag_21:\n    /* \"#utility.yul\":1775:1781   */\n  0x00\n    /* \"#utility.yul\":1826:1828   */\n  0x1f\n    /* \"#utility.yul\":1822:1829   */\n  not\n    /* \"#utility.yul\":1817:1819   */\n  0x1f\n    /* \"#utility.yul\":1810:1815   */\n  dup4\n    /* \"#utility.yul\":1806:1820   */\n  add\n    /* \"#utility.yul\":1802:1830   */\n  and\n    /* \"#utility.yul\":1792:1830   */\n  swap1\n  pop\n    /* \"#utility.yul\":1734:1836   */\n  swap2\n  swap1\n  pop\n  jump\t// out\n    /* \"#utility.yul\":1842:2219   */\ntag_22:\n    /* \"#utility.yul\":1930:1933   */\n  0x00\n    /* \"#utility.yul\":1958:1997   */\n  tag_47\n    /* \"#utility.yul\":1991:1996   */\n  dup3\n    /* \"#utility.yul\":1958:1997   */\n  tag_18\n  jump\t// in\ntag_47:\n    /* \"#utility.yul\":2013:2084   */\n  tag_48\n    /* \"#utility.yul\":2077:2083   */\n  dup2\n    /* \"#utility.yul\":2072:2075   */\n  dup6\n    /* \"#utility.yul\":2013:2084   */\n  tag_19\n  jump\t// in\ntag_48:\n    /* \"#utility.yul\":2006:2084   */\n  swap4\n  pop\n    /* \"#utility.yul\":2093:2158   */\n  tag_49\n    /* \"#utility.yul\":2151:2157   */\n  dup2\n    /* \"#utility.yul\":2146:2149   */\n  dup6\n    /* \"#utility.yul\":2139:2143   */\n  0x20\n    /* \"#utility.yul\":2132:2137   */\n  dup7\n    /* \"#utility.yul\":2128:2144   */\n  add\n    /* \"#utility.yul\":2093:2158   */\n  tag_20\n  jump\t// in\ntag_49:\n    /* \"#utility.yul\":2183:2212   */\n  tag_50\n    /* \"#utility.yul\":2205:2211   */\n  dup2\n    /* \"#utility.yul\":2183:2212   */\n  tag_21\n  jump\t// in\ntag_50:\n    /* \"#utility.yul\":2178:2181   */\n  dup5\n    /* \"#utility.yul\":2174:2213   */\n  add\n    /* \"#utility.yul\":2167:2213   */\n  swap2\n  pop\n    /* \"#utility.yul\":1934:2219   */\n  pop\n    /* \"#utility.yul\":1842:2219   */\n  swap3\n  swap2\n  pop\n  pop\n  jump\t// out\n    /* \"#utility.yul\":2225:2538   */\ntag_8:\n    /* \"#utility.yul\":2338:2342   */\n  0x00\n    /* \"#utility.yul\":2376:2378   */\n  0x20\n    /* \"#utility.yul\":2365:2374   */\n  dup3\n    /* \"#utility.yul\":2361:2379   */\n  add\n    /* \"#utility.yul\":2353:2379   */\n  swap1\n  pop\n    /* \"#utility.yul\":2425:2434   */\n  dup2\n    /* \"#utility.yul\":2419:2423   */\n  dup2\n    /* \"#utility.yul\":2415:2435   */\n  sub\n    /* \"#utility.yul\":2411:2412   */\n  0x00\n    /* \"#utility.yul\":2400:2409   */\n  dup4\n    /* \"#utility.yul\":2396:2413   */\n  add\n    /* \"#utility.yul\":2389:2436   */\n  mstore\n    /* \"#utility.yul\":2453:2531   */\n  tag_52\n    /* \"#utility.yul\":2526:2530   */\n  dup2\n    /* \"#utility.yul\":2517:2523   */\n  dup5\n    /* \"#utility.yul\":2453:2531   */\n  tag_22\n  jump\t// in\ntag_52:\n    /* \"#utility.yul\":2445:2531   */\n  swap1\n  pop\n    /* \"#utility.yul\":2225:2538   */\n  swap3\n  swap2\n  pop\n  pop\n  jump\t// out\n    /* \"src/YeeterStrategy.sol\":422:3269  contract YeeterStrategy is BaseStrategy {... */\ntag_10:\n  mload(0x80)\n  mload(0xa0)\n  codecopy(0x00, dataOffset(sub_0), dataSize(sub_0))\n  0x00\n  assignImmutable(\"0x2be948d33a294076f76a99093bea2a653ff0b7119b53db934818a9f091f778a6\")\n  0x00\n  assignImmutable(\"0xe83e88c2152b206e69cb9b3b201a106be63261dd2cfe22481b2beae14bec255b\")\n  return(0x00, dataSize(sub_0))\nstop\n\nsub_0: assembly {\n        /* \"src/YeeterStrategy.sol\":422:3269  contract YeeterStrategy is BaseStrategy {... */\n      mstore(0x40, 0x80)\n      jumpi(tag_1, lt(calldatasize, 0x04))\n      shr(0xe0, calldataload(0x00))\n      dup1\n      0xa0cf0aea\n      gt\n      tag_19\n      jumpi\n      dup1\n      0xeb11af93\n      gt\n      tag_20\n      jumpi\n      dup1\n      0xeb11af93\n      eq\n      tag_15\n      jumpi\n      dup1\n      0xedd146cc\n      eq\n      tag_16\n      jumpi\n      dup1\n      0xef2920fc\n      eq\n      tag_17\n      jumpi\n      dup1\n      0xf5b0dfb7\n      eq\n      tag_18\n      jumpi\n      jump(tag_2)\n    tag_20:\n      dup1\n      0xa0cf0aea\n      eq\n      tag_11\n      jumpi\n      dup1\n      0xb2b878d0\n      eq\n      tag_12\n      jumpi\n      dup1\n      0xd9caed12\n      eq\n      tag_13\n      jumpi\n      dup1\n      0xdf868ed3\n      eq\n      tag_14\n      jumpi\n      jump(tag_2)\n    tag_19:\n      dup1\n      0x42fda9c7\n      gt\n      tag_21\n      jumpi\n      dup1\n      0x42fda9c7\n      eq\n      tag_7\n      jumpi\n      dup1\n      0x44469f98\n      eq\n      tag_8\n      jumpi\n      dup1\n      0x4ab4ba42\n      eq\n      tag_9\n      jumpi\n      dup1\n      0x4d31d087\n      eq\n      tag_10\n      jumpi\n      jump(tag_2)\n    tag_21:\n      dup1\n      0x0a6f0ee9\n      eq\n      tag_3\n      jumpi\n      dup1\n      0x15cc481e\n      eq\n      tag_4\n      jumpi\n      dup1\n      0x2bbe0cae\n      eq\n      tag_5\n      jumpi\n      dup1\n      0x38fff2d0\n      eq\n      tag_6\n      jumpi\n      jump(tag_2)\n    tag_1:\n      jumpi(tag_2, calldatasize)\n      stop\n    tag_2:\n      0x00\n      dup1\n      revert\n        /* \"lib/allo-v2/contracts/strategies/BaseStrategy.sol\":10705:11030  function distribute(address[] memory _recipientIds, bytes memory _data, address _sender)... */\n    tag_3:\n      callvalue\n      dup1\n      iszero\n      tag_24\n      jumpi\n      0x00\n      dup1\n      revert\n    tag_24:\n      pop\n      tag_25\n      0x04\n      dup1\n      calldatasize\n      sub\n      dup2\n      add\n      swap1\n      tag_26\n      swap2\n      swap1\n      tag_27\n      jump\t// in\n    tag_26:\n      tag_28\n      jump\t// in\n    tag_25:\n      stop\n        /* \"lib/allo-v2/contracts/strategies/BaseStrategy.sol\":6785:6871  function getAllo() external view override returns (IAllo) {... */\n    tag_4:\n      callvalue\n      dup1\n      iszero\n      tag_29\n      jumpi\n      0x00\n      dup1\n      revert\n    tag_29:\n      pop\n      tag_30\n      tag_31\n      jump\t// in\n    tag_30:\n      mload(0x40)\n      tag_32\n      swap2\n      swap1\n      tag_33\n      jump\t// in\n    tag_32:\n      mload(0x40)\n      dup1\n      swap2\n      sub\n      swap1\n      return\n        /* \"lib/allo-v2/contracts/strategies/BaseStrategy.sol\":9429:9773  function registerRecipient(bytes memory _data, address _sender)... */\n    tag_5:\n      tag_34\n      0x04\n      dup1\n      calldatasize\n      sub\n      dup2\n      add\n      swap1\n      tag_35\n      swap2\n      swap1\n      tag_36\n      jump\t// in\n    tag_35:\n      tag_37\n      jump\t// in\n    tag_34:\n      mload(0x40)\n      tag_38\n      swap2\n      swap1\n      tag_39\n      jump\t// in\n    tag_38:\n      mload(0x40)\n      dup1\n      swap2\n      sub\n      swap1\n      return\n        /* \"lib/allo-v2/contracts/strategies/BaseStrategy.sol\":6953:7045  function getPoolId() external view override returns (uint256) {... */\n    tag_6:\n      callvalue\n      dup1\n      iszero\n      tag_40\n      jumpi\n      0x00\n      dup1\n      revert\n    tag_40:\n      pop\n      tag_41\n      tag_42\n      jump\t// in\n    tag_41:\n      mload(0x40)\n      tag_43\n      swap2\n      swap1\n      tag_44\n      jump\t// in\n    tag_43:\n      mload(0x40)\n      dup1\n      swap2\n      sub\n      swap1\n      return\n        /* \"lib/allo-v2/contracts/strategies/BaseStrategy.sol\":7135:7235  function getStrategyId() external view override returns (bytes32) {... */\n    tag_7:\n      callvalue\n      dup1\n      iszero\n      tag_45\n      jumpi\n      0x00\n      dup1\n      revert\n    tag_45:\n      pop\n      tag_46\n      tag_47\n      jump\t// in\n    tag_46:\n      mload(0x40)\n      tag_48\n      swap2\n      swap1\n      tag_49\n      jump\t// in\n    tag_48:\n      mload(0x40)\n      dup1\n      swap2\n      sub\n      swap1\n      return\n        /* \"src/YeeterStrategy.sol\":2388:2631  function allocate(address[] memory _recipientIds, uint256[] memory _amounts, address _token) external onlyPoolManager(msg.sender) {... */\n    tag_8:\n      callvalue\n      dup1\n      iszero\n      tag_50\n      jumpi\n      0x00\n      dup1\n      revert\n    tag_50:\n      pop\n      tag_51\n      0x04\n      dup1\n      calldatasize\n      sub\n      dup2\n      add\n      swap1\n      tag_52\n      swap2\n      swap1\n      tag_53\n      jump\t// in\n    tag_52:\n      tag_54\n      jump\t// in\n    tag_51:\n      stop\n        /* \"lib/allo-v2/contracts/strategies/BaseStrategy.sol\":7326:7434  function getPoolAmount() external view virtual override returns (uint256) {... */\n    tag_9:\n      callvalue\n      dup1\n      iszero\n      tag_55\n      jumpi\n      0x00\n      dup1\n      revert\n    tag_55:\n      pop\n      tag_56\n      tag_57\n      jump\t// in\n    tag_56:\n      mload(0x40)\n      tag_58\n      swap2\n      swap1\n      tag_44\n      jump\t// in\n    tag_58:\n      mload(0x40)\n      dup1\n      swap2\n      sub\n      swap1\n      return\n        /* \"lib/allo-v2/contracts/strategies/BaseStrategy.sol\":12395:12540  function isValidAllocator(address _allocator) external view virtual override returns (bool) {... */\n    tag_10:\n      callvalue\n      dup1\n      iszero\n      tag_59\n      jumpi\n      0x00\n      dup1\n      revert\n    tag_59:\n      pop\n      tag_60\n      0x04\n      dup1\n      calldatasize\n      sub\n      dup2\n      add\n      swap1\n      tag_61\n      swap2\n      swap1\n      tag_62\n      jump\t// in\n    tag_61:\n      tag_63\n      jump\t// in\n    tag_60:\n      mload(0x40)\n      tag_64\n      swap2\n      swap1\n      tag_65\n      jump\t// in\n    tag_64:\n      mload(0x40)\n      dup1\n      swap2\n      sub\n      swap1\n      return\n        /* \"lib/allo-v2/contracts/core/libraries/Native.sol\":4412:4487  address public constant NATIVE = 0xEeeeeEeeeEeEeeEeEeEeeEEEeeeeEeeeeeeeEEeE */\n    tag_11:\n      callvalue\n      dup1\n      iszero\n      tag_66\n      jumpi\n      0x00\n      dup1\n      revert\n    tag_66:\n      pop\n      tag_67\n      tag_68\n      jump\t// in\n    tag_67:\n      mload(0x40)\n      tag_69\n      swap2\n      swap1\n      tag_39\n      jump\t// in\n    tag_69:\n      mload(0x40)\n      dup1\n      swap2\n      sub\n      swap1\n      return\n        /* \"lib/allo-v2/contracts/strategies/BaseStrategy.sol\":11367:12071  function getPayouts(address[] memory _recipientIds, bytes[] memory _data)... */\n    tag_12:\n      callvalue\n      dup1\n      iszero\n      tag_70\n      jumpi\n      0x00\n      dup1\n      revert\n    tag_70:\n      pop\n      tag_71\n      0x04\n      dup1\n      calldatasize\n      sub\n      dup2\n      add\n      swap1\n      tag_72\n      swap2\n      swap1\n      tag_73\n      jump\t// in\n    tag_72:\n      tag_74\n      jump\t// in\n    tag_71:\n      mload(0x40)\n      tag_75\n      swap2\n      swap1\n      tag_76\n      jump\t// in\n    tag_75:\n      mload(0x40)\n      dup1\n      swap2\n      sub\n      swap1\n      return\n        /* \"src/YeeterStrategy.sol\":954:1123  function withdraw(address _token, address _recipient, uint256 _amount) external onlyPoolManager(msg.sender) {... */\n    tag_13:\n      callvalue\n      dup1\n      iszero\n      tag_77\n      jumpi\n      0x00\n      dup1\n      revert\n    tag_77:\n      pop\n      tag_78\n      0x04\n      dup1\n      calldatasize\n      sub\n      dup2\n      add\n      swap1\n      tag_79\n      swap2\n      swap1\n      tag_80\n      jump\t// in\n    tag_79:\n      tag_81\n      jump\t// in\n    tag_78:\n      stop\n        /* \"lib/allo-v2/contracts/strategies/BaseStrategy.sol\":7566:7667  function isPoolActive() external view override returns (bool) {... */\n    tag_14:\n      callvalue\n      dup1\n      iszero\n      tag_82\n      jumpi\n      0x00\n      dup1\n      revert\n    tag_82:\n      pop\n      tag_83\n      tag_84\n      jump\t// in\n    tag_83:\n      mload(0x40)\n      tag_85\n      swap2\n      swap1\n      tag_65\n      jump\t// in\n    tag_85:\n      mload(0x40)\n      dup1\n      swap2\n      sub\n      swap1\n      return\n        /* \"lib/allo-v2/contracts/strategies/BaseStrategy.sol\":7823:7969  function getRecipientStatus(address _recipientId) external view virtual returns (Status) {... */\n    tag_15:\n      callvalue\n      dup1\n      iszero\n      tag_86\n      jumpi\n      0x00\n      dup1\n      revert\n    tag_86:\n      pop\n      tag_87\n      0x04\n      dup1\n      calldatasize\n      sub\n      dup2\n      add\n      swap1\n      tag_88\n      swap2\n      swap1\n      tag_62\n      jump\t// in\n    tag_88:\n      tag_89\n      jump\t// in\n    tag_87:\n      mload(0x40)\n      tag_90\n      swap2\n      swap1\n      tag_91\n      jump\t// in\n    tag_90:\n      mload(0x40)\n      dup1\n      swap2\n      sub\n      swap1\n      return\n        /* \"src/YeeterStrategy.sol\":596:766  function initialize(uint256 _poolId, bytes memory _data) external virtual override {... */\n    tag_16:\n      callvalue\n      dup1\n      iszero\n      tag_92\n      jumpi\n      0x00\n      dup1\n      revert\n    tag_92:\n      pop\n      tag_93\n      0x04\n      dup1\n      calldatasize\n      sub\n      dup2\n      add\n      swap1\n      tag_94\n      swap2\n      swap1\n      tag_95\n      jump\t// in\n    tag_94:\n      tag_96\n      jump\t// in\n    tag_93:\n      stop\n        /* \"lib/allo-v2/contracts/strategies/BaseStrategy.sol\":10092:10312  function allocate(bytes memory _data, address _sender) external payable onlyAllo onlyInitialized {... */\n    tag_17:\n      tag_97\n      0x04\n      dup1\n      calldatasize\n      sub\n      dup2\n      add\n      swap1\n      tag_98\n      swap2\n      swap1\n      tag_36\n      jump\t// in\n    tag_98:\n      tag_99\n      jump\t// in\n    tag_97:\n      stop\n        /* \"lib/allo-v2/contracts/strategies/BaseStrategy.sol\":8816:9013  function increasePoolAmount(uint256 _amount) external override onlyAllo {... */\n    tag_18:\n      callvalue\n      dup1\n      iszero\n      tag_100\n      jumpi\n      0x00\n      dup1\n      revert\n    tag_100:\n      pop\n      tag_101\n      0x04\n      dup1\n      calldatasize\n      sub\n      dup2\n      add\n      swap1\n      tag_102\n      swap2\n      swap1\n      tag_103\n      jump\t// in\n    tag_102:\n      tag_104\n      jump\t// in\n    tag_101:\n      stop\n        /* \"lib/allo-v2/contracts/strategies/BaseStrategy.sol\":10705:11030  function distribute(address[] memory _recipientIds, bytes memory _data, address _sender)... */\n    tag_28:\n        /* \"lib/allo-v2/contracts/strategies/BaseStrategy.sol\":5660:5676  _checkOnlyAllo() */\n      tag_106\n        /* \"lib/allo-v2/contracts/strategies/BaseStrategy.sol\":5660:5674  _checkOnlyAllo */\n      tag_107\n        /* \"lib/allo-v2/contracts/strategies/BaseStrategy.sol\":5660:5676  _checkOnlyAllo() */\n      jump\t// in\n    tag_106:\n        /* \"lib/allo-v2/contracts/strategies/BaseStrategy.sol\":6532:6555  _checkOnlyInitialized() */\n      tag_109\n        /* \"lib/allo-v2/contracts/strategies/BaseStrategy.sol\":6532:6553  _checkOnlyInitialized */\n      tag_110\n        /* \"lib/allo-v2/contracts/strategies/BaseStrategy.sol\":6532:6555  _checkOnlyInitialized() */\n      jump\t// in\n    tag_109:\n        /* \"lib/allo-v2/contracts/strategies/BaseStrategy.sol\":10866:10914  _beforeDistribute(_recipientIds, _data, _sender) */\n      tag_112\n        /* \"lib/allo-v2/contracts/strategies/BaseStrategy.sol\":10884:10897  _recipientIds */\n      dup4\n        /* \"lib/allo-v2/contracts/strategies/BaseStrategy.sol\":10899:10904  _data */\n      dup4\n        /* \"lib/allo-v2/contracts/strategies/BaseStrategy.sol\":10906:10913  _sender */\n      dup4\n        /* \"lib/allo-v2/contracts/strategies/BaseStrategy.sol\":10866:10883  _beforeDistribute */\n      tag_113\n        /* \"lib/allo-v2/contracts/strategies/BaseStrategy.sol\":10866:10914  _beforeDistribute(_recipientIds, _data, _sender) */\n      jump\t// in\n    tag_112:\n        /* \"lib/allo-v2/contracts/strategies/BaseStrategy.sol\":10924:10966  _distribute(_recipientIds, _data, _sender) */\n      tag_114\n        /* \"lib/allo-v2/contracts/strategies/BaseStrategy.sol\":10936:10949  _recipientIds */\n      dup4\n        /* \"lib/allo-v2/contracts/strategies/BaseStrategy.sol\":10951:10956  _data */\n      dup4\n        /* \"lib/allo-v2/contracts/strategies/BaseStrategy.sol\":10958:10965  _sender */\n      dup4\n        /* \"lib/allo-v2/contracts/strategies/BaseStrategy.sol\":10924:10935  _distribute */\n      tag_115\n        /* \"lib/allo-v2/contracts/strategies/BaseStrategy.sol\":10924:10966  _distribute(_recipientIds, _data, _sender) */\n      jump\t// in\n    tag_114:\n        /* \"lib/allo-v2/contracts/strategies/BaseStrategy.sol\":10976:11023  _afterDistribute(_recipientIds, _data, _sender) */\n      tag_116\n        /* \"lib/allo-v2/contracts/strategies/BaseStrategy.sol\":10993:11006  _recipientIds */\n      dup4\n        /* \"lib/allo-v2/contracts/strategies/BaseStrategy.sol\":11008:11013  _data */\n      dup4\n        /* \"lib/allo-v2/contracts/strategies/BaseStrategy.sol\":11015:11022  _sender */\n      dup4\n        /* \"lib/allo-v2/contracts/strategies/BaseStrategy.sol\":10976:10992  _afterDistribute */\n      tag_117\n        /* \"lib/allo-v2/contracts/strategies/BaseStrategy.sol\":10976:11023  _afterDistribute(_recipientIds, _data, _sender) */\n      jump\t// in\n    tag_116:\n        /* \"lib/allo-v2/contracts/strategies/BaseStrategy.sol\":10705:11030  function distribute(address[] memory _recipientIds, bytes memory _data, address _sender)... */\n      pop\n      pop\n      pop\n      jump\t// out\n        /* \"lib/allo-v2/contracts/strategies/BaseStrategy.sol\":6785:6871  function getAllo() external view override returns (IAllo) {... */\n    tag_31:\n        /* \"lib/allo-v2/contracts/strategies/BaseStrategy.sol\":6836:6841  IAllo */\n      0x00\n        /* \"lib/allo-v2/contracts/strategies/BaseStrategy.sol\":6860:6864  allo */\n      immutable(\"0xe83e88c2152b206e69cb9b3b201a106be63261dd2cfe22481b2beae14bec255b\")\n        /* \"lib/allo-v2/contracts/strategies/BaseStrategy.sol\":6853:6864  return allo */\n      swap1\n      pop\n        /* \"lib/allo-v2/contracts/strategies/BaseStrategy.sol\":6785:6871  function getAllo() external view override returns (IAllo) {... */\n      swap1\n      jump\t// out\n        /* \"lib/allo-v2/contracts/strategies/BaseStrategy.sol\":9429:9773  function registerRecipient(bytes memory _data, address _sender)... */\n    tag_37:\n        /* \"lib/allo-v2/contracts/strategies/BaseStrategy.sol\":9584:9603  address recipientId */\n      0x00\n        /* \"lib/allo-v2/contracts/strategies/BaseStrategy.sol\":5660:5676  _checkOnlyAllo() */\n      tag_120\n        /* \"lib/allo-v2/contracts/strategies/BaseStrategy.sol\":5660:5674  _checkOnlyAllo */\n      tag_107\n        /* \"lib/allo-v2/contracts/strategies/BaseStrategy.sol\":5660:5676  _checkOnlyAllo() */\n      jump\t// in\n    tag_120:\n        /* \"lib/allo-v2/contracts/strategies/BaseStrategy.sol\":6532:6555  _checkOnlyInitialized() */\n      tag_122\n        /* \"lib/allo-v2/contracts/strategies/BaseStrategy.sol\":6532:6553  _checkOnlyInitialized */\n      tag_110\n        /* \"lib/allo-v2/contracts/strategies/BaseStrategy.sol\":6532:6555  _checkOnlyInitialized() */\n      jump\t// in\n    tag_122:\n        /* \"lib/allo-v2/contracts/strategies/BaseStrategy.sol\":9619:9659  _beforeRegisterRecipient(_data, _sender) */\n      tag_124\n        /* \"lib/allo-v2/contracts/strategies/BaseStrategy.sol\":9644:9649  _data */\n      dup4\n        /* \"lib/allo-v2/contracts/strategies/BaseStrategy.sol\":9651:9658  _sender */\n      dup4\n        /* \"lib/allo-v2/contracts/strategies/BaseStrategy.sol\":9619:9643  _beforeRegisterRecipient */\n      tag_125\n        /* \"lib/allo-v2/contracts/strategies/BaseStrategy.sol\":9619:9659  _beforeRegisterRecipient(_data, _sender) */\n      jump\t// in\n    tag_124:\n        /* \"lib/allo-v2/contracts/strategies/BaseStrategy.sol\":9683:9717  _registerRecipient(_data, _sender) */\n      tag_126\n        /* \"lib/allo-v2/contracts/strategies/BaseStrategy.sol\":9702:9707  _data */\n      dup4\n        /* \"lib/allo-v2/contracts/strategies/BaseStrategy.sol\":9709:9716  _sender */\n      dup4\n        /* \"lib/allo-v2/contracts/strategies/BaseStrategy.sol\":9683:9701  _registerRecipient */\n      tag_127\n        /* \"lib/allo-v2/contracts/strategies/BaseStrategy.sol\":9683:9717  _registerRecipient(_data, _sender) */\n      jump\t// in\n    tag_126:\n        /* \"lib/allo-v2/contracts/strategies/BaseStrategy.sol\":9669:9717  recipientId = _registerRecipient(_data, _sender) */\n      swap1\n      pop\n        /* \"lib/allo-v2/contracts/strategies/BaseStrategy.sol\":9727:9766  _afterRegisterRecipient(_data, _sender) */\n      tag_128\n        /* \"lib/allo-v2/contracts/strategies/BaseStrategy.sol\":9751:9756  _data */\n      dup4\n        /* \"lib/allo-v2/contracts/strategies/BaseStrategy.sol\":9758:9765  _sender */\n      dup4\n        /* \"lib/allo-v2/contracts/strategies/BaseStrategy.sol\":9727:9750  _afterRegisterRecipient */\n      tag_129\n        /* \"lib/allo-v2/contracts/strategies/BaseStrategy.sol\":9727:9766  _afterRegisterRecipient(_data, _sender) */\n      jump\t// in\n    tag_128:\n        /* \"lib/allo-v2/contracts/strategies/BaseStrategy.sol\":9429:9773  function registerRecipient(bytes memory _data, address _sender)... */\n      swap3\n      swap2\n      pop\n      pop\n      jump\t// out\n        /* \"lib/allo-v2/contracts/strategies/BaseStrategy.sol\":6953:7045  function getPoolId() external view override returns (uint256) {... */\n    tag_42:\n        /* \"lib/allo-v2/contracts/strategies/BaseStrategy.sol\":7006:7013  uint256 */\n      0x00\n        /* \"lib/allo-v2/contracts/strategies/BaseStrategy.sol\":7032:7038  poolId */\n      sload(0x01)\n        /* \"lib/allo-v2/contracts/strategies/BaseStrategy.sol\":7025:7038  return poolId */\n      swap1\n      pop\n        /* \"lib/allo-v2/contracts/strategies/BaseStrategy.sol\":6953:7045  function getPoolId() external view override returns (uint256) {... */\n      swap1\n      jump\t// out\n        /* \"lib/allo-v2/contracts/strategies/BaseStrategy.sol\":7135:7235  function getStrategyId() external view override returns (bytes32) {... */\n    tag_47:\n        /* \"lib/allo-v2/contracts/strategies/BaseStrategy.sol\":7192:7199  bytes32 */\n      0x00\n        /* \"lib/allo-v2/contracts/strategies/BaseStrategy.sol\":7218:7228  strategyId */\n      immutable(\"0x2be948d33a294076f76a99093bea2a653ff0b7119b53db934818a9f091f778a6\")\n        /* \"lib/allo-v2/contracts/strategies/BaseStrategy.sol\":7211:7228  return strategyId */\n      swap1\n      pop\n        /* \"lib/allo-v2/contracts/strategies/BaseStrategy.sol\":7135:7235  function getStrategyId() external view override returns (bytes32) {... */\n      swap1\n      jump\t// out\n        /* \"src/YeeterStrategy.sol\":2388:2631  function allocate(address[] memory _recipientIds, uint256[] memory _amounts, address _token) external onlyPoolManager(msg.sender) {... */\n    tag_54:\n        /* \"src/YeeterStrategy.sol\":2506:2516  msg.sender */\n      caller\n        /* \"lib/allo-v2/contracts/strategies/BaseStrategy.sol\":5954:5984  _checkOnlyPoolManager(_sender) */\n      tag_133\n        /* \"lib/allo-v2/contracts/strategies/BaseStrategy.sol\":5976:5983  _sender */\n      dup2\n        /* \"lib/allo-v2/contracts/strategies/BaseStrategy.sol\":5954:5975  _checkOnlyPoolManager */\n      tag_134\n        /* \"lib/allo-v2/contracts/strategies/BaseStrategy.sol\":5954:5984  _checkOnlyPoolManager(_sender) */\n      jump\t// in\n    tag_133:\n        /* \"src/YeeterStrategy.sol\":2526:2543  bytes memory data */\n      0x00\n        /* \"src/YeeterStrategy.sol\":2557:2570  _recipientIds */\n      dup5\n        /* \"src/YeeterStrategy.sol\":2572:2580  _amounts */\n      dup5\n        /* \"src/YeeterStrategy.sol\":2582:2588  _token */\n      dup5\n        /* \"src/YeeterStrategy.sol\":2546:2589  abi.encode(_recipientIds, _amounts, _token) */\n      add(0x20, mload(0x40))\n      tag_136\n      swap4\n      swap3\n      swap2\n      swap1\n      tag_137\n      jump\t// in\n    tag_136:\n      mload(0x40)\n      0x20\n      dup2\n      dup4\n      sub\n      sub\n      dup2\n      mstore\n      swap1\n      0x40\n      mstore\n        /* \"src/YeeterStrategy.sol\":2526:2589  bytes memory data = abi.encode(_recipientIds, _amounts, _token) */\n      swap1\n      pop\n        /* \"src/YeeterStrategy.sol\":2597:2624  _allocate(data, msg.sender) */\n      tag_138\n        /* \"src/YeeterStrategy.sol\":2607:2611  data */\n      dup2\n        /* \"src/YeeterStrategy.sol\":2613:2623  msg.sender */\n      caller\n        /* \"src/YeeterStrategy.sol\":2597:2606  _allocate */\n      tag_139\n        /* \"src/YeeterStrategy.sol\":2597:2624  _allocate(data, msg.sender) */\n      jump\t// in\n    tag_138:\n        /* \"src/YeeterStrategy.sol\":2518:2631  {... */\n      pop\n        /* \"src/YeeterStrategy.sol\":2388:2631  function allocate(address[] memory _recipientIds, uint256[] memory _amounts, address _token) external onlyPoolManager(msg.sender) {... */\n      pop\n      pop\n      pop\n      pop\n      jump\t// out\n        /* \"lib/allo-v2/contracts/strategies/BaseStrategy.sol\":7326:7434  function getPoolAmount() external view virtual override returns (uint256) {... */\n    tag_57:\n        /* \"lib/allo-v2/contracts/strategies/BaseStrategy.sol\":7391:7398  uint256 */\n      0x00\n        /* \"lib/allo-v2/contracts/strategies/BaseStrategy.sol\":7417:7427  poolAmount */\n      sload(0x02)\n        /* \"lib/allo-v2/contracts/strategies/BaseStrategy.sol\":7410:7427  return poolAmount */\n      swap1\n      pop\n        /* \"lib/allo-v2/contracts/strategies/BaseStrategy.sol\":7326:7434  function getPoolAmount() external view virtual override returns (uint256) {... */\n      swap1\n      jump\t// out\n        /* \"lib/allo-v2/contracts/strategies/BaseStrategy.sol\":12395:12540  function isValidAllocator(address _allocator) external view virtual override returns (bool) {... */\n    tag_63:\n        /* \"lib/allo-v2/contracts/strategies/BaseStrategy.sol\":12481:12485  bool */\n      0x00\n        /* \"lib/allo-v2/contracts/strategies/BaseStrategy.sol\":12504:12533  _isValidAllocator(_allocator) */\n      tag_142\n        /* \"lib/allo-v2/contracts/strategies/BaseStrategy.sol\":12522:12532  _allocator */\n      dup3\n        /* \"lib/allo-v2/contracts/strategies/BaseStrategy.sol\":12504:12521  _isValidAllocator */\n      tag_143\n        /* \"lib/allo-v2/contracts/strategies/BaseStrategy.sol\":12504:12533  _isValidAllocator(_allocator) */\n      jump\t// in\n    tag_142:\n        /* \"lib/allo-v2/contracts/strategies/BaseStrategy.sol\":12497:12533  return _isValidAllocator(_allocator) */\n      swap1\n      pop\n        /* \"lib/allo-v2/contracts/strategies/BaseStrategy.sol\":12395:12540  function isValidAllocator(address _allocator) external view virtual override returns (bool) {... */\n      swap2\n      swap1\n      pop\n      jump\t// out\n        /* \"lib/allo-v2/contracts/core/libraries/Native.sol\":4412:4487  address public constant NATIVE = 0xEeeeeEeeeEeEeeEeEeEeeEEEeeeeEeeeeeeeEEeE */\n    tag_68:\n        /* \"lib/allo-v2/contracts/core/libraries/Native.sol\":4445:4487  0xEeeeeEeeeEeEeeEeEeEeeEEEeeeeEeeeeeeeEEeE */\n      0xeeeeeeeeeeeeeeeeeeeeeeeeeeeeeeeeeeeeeeee\n        /* \"lib/allo-v2/contracts/core/libraries/Native.sol\":4412:4487  address public constant NATIVE = 0xEeeeeEeeeEeEeeEeEeEeeEEEeeeeEeeeeeeeEEeE */\n      dup2\n      jump\t// out\n        /* \"lib/allo-v2/contracts/strategies/BaseStrategy.sol\":11367:12071  function getPayouts(address[] memory _recipientIds, bytes[] memory _data)... */\n    tag_74:\n        /* \"lib/allo-v2/contracts/strategies/BaseStrategy.sol\":11521:11543  PayoutSummary[] memory */\n      0x60\n        /* \"lib/allo-v2/contracts/strategies/BaseStrategy.sol\":11559:11582  uint256 recipientLength */\n      0x00\n        /* \"lib/allo-v2/contracts/strategies/BaseStrategy.sol\":11585:11598  _recipientIds */\n      dup4\n        /* \"lib/allo-v2/contracts/strategies/BaseStrategy.sol\":11585:11605  _recipientIds.length */\n      mload\n        /* \"lib/allo-v2/contracts/strategies/BaseStrategy.sol\":11559:11605  uint256 recipientLength = _recipientIds.length */\n      swap1\n      pop\n        /* \"lib/allo-v2/contracts/strategies/BaseStrategy.sol\":11741:11746  _data */\n      dup3\n        /* \"lib/allo-v2/contracts/strategies/BaseStrategy.sol\":11741:11753  _data.length */\n      mload\n        /* \"lib/allo-v2/contracts/strategies/BaseStrategy.sol\":11722:11737  recipientLength */\n      dup2\n        /* \"lib/allo-v2/contracts/strategies/BaseStrategy.sol\":11722:11753  recipientLength != _data.length */\n      eq\n        /* \"lib/allo-v2/contracts/strategies/BaseStrategy.sol\":11718:11778  if (recipientLength != _data.length) revert ARRAY_MISMATCH() */\n      tag_145\n      jumpi\n        /* \"lib/allo-v2/contracts/strategies/BaseStrategy.sol\":11762:11778  ARRAY_MISMATCH() */\n      mload(0x40)\n      0x7b49805600000000000000000000000000000000000000000000000000000000\n      dup2\n      mstore\n      0x04\n      add\n      mload(0x40)\n      dup1\n      swap2\n      sub\n      swap1\n      revert\n        /* \"lib/allo-v2/contracts/strategies/BaseStrategy.sol\":11718:11778  if (recipientLength != _data.length) revert ARRAY_MISMATCH() */\n    tag_145:\n        /* \"lib/allo-v2/contracts/strategies/BaseStrategy.sol\":11789:11819  PayoutSummary[] memory payouts */\n      0x00\n        /* \"lib/allo-v2/contracts/strategies/BaseStrategy.sol\":11842:11857  recipientLength */\n      dup2\n        /* \"lib/allo-v2/contracts/strategies/BaseStrategy.sol\":11822:11858  new PayoutSummary[](recipientLength) */\n      0xffffffffffffffff\n      dup2\n      gt\n      iszero\n      tag_146\n      jumpi\n      tag_147\n      tag_148\n      jump\t// in\n    tag_147:\n    tag_146:\n      mload(0x40)\n      swap1\n      dup1\n      dup3\n      mstore\n      dup1\n      0x20\n      mul\n      0x20\n      add\n      dup3\n      add\n      0x40\n      mstore\n      dup1\n      iszero\n      tag_149\n      jumpi\n      dup2\n      0x20\n      add\n    tag_150:\n      tag_151\n      tag_152\n      jump\t// in\n    tag_151:\n      dup2\n      mstore\n      0x20\n      add\n      swap1\n      0x01\n      swap1\n      sub\n      swap1\n      dup2\n      tag_150\n      jumpi\n      swap1\n      pop\n    tag_149:\n      pop\n        /* \"lib/allo-v2/contracts/strategies/BaseStrategy.sol\":11789:11858  PayoutSummary[] memory payouts = new PayoutSummary[](recipientLength) */\n      swap1\n      pop\n        /* \"lib/allo-v2/contracts/strategies/BaseStrategy.sol\":11873:11882  uint256 i */\n      0x00\n        /* \"lib/allo-v2/contracts/strategies/BaseStrategy.sol\":11868:12041  for (uint256 i; i < recipientLength;) {... */\n    tag_153:\n        /* \"lib/allo-v2/contracts/strategies/BaseStrategy.sol\":11888:11903  recipientLength */\n      dup3\n        /* \"lib/allo-v2/contracts/strategies/BaseStrategy.sol\":11884:11885  i */\n      dup2\n        /* \"lib/allo-v2/contracts/strategies/BaseStrategy.sol\":11884:11903  i < recipientLength */\n      lt\n        /* \"lib/allo-v2/contracts/strategies/BaseStrategy.sol\":11868:12041  for (uint256 i; i < recipientLength;) {... */\n      iszero\n      tag_154\n      jumpi\n        /* \"lib/allo-v2/contracts/strategies/BaseStrategy.sol\":11933:11971  _getPayout(_recipientIds[i], _data[i]) */\n      tag_156\n        /* \"lib/allo-v2/contracts/strategies/BaseStrategy.sol\":11944:11957  _recipientIds */\n      dup7\n        /* \"lib/allo-v2/contracts/strategies/BaseStrategy.sol\":11958:11959  i */\n      dup3\n        /* \"lib/allo-v2/contracts/strategies/BaseStrategy.sol\":11944:11960  _recipientIds[i] */\n      dup2\n      mload\n      dup2\n      lt\n      tag_157\n      jumpi\n      tag_158\n      tag_159\n      jump\t// in\n    tag_158:\n    tag_157:\n      0x20\n      mul\n      0x20\n      add\n      add\n      mload\n        /* \"lib/allo-v2/contracts/strategies/BaseStrategy.sol\":11962:11967  _data */\n      dup7\n        /* \"lib/allo-v2/contracts/strategies/BaseStrategy.sol\":11968:11969  i */\n      dup4\n        /* \"lib/allo-v2/contracts/strategies/BaseStrategy.sol\":11962:11970  _data[i] */\n      dup2\n      mload\n      dup2\n      lt\n      tag_160\n      jumpi\n      tag_161\n      tag_159\n      jump\t// in\n    tag_161:\n    tag_160:\n      0x20\n      mul\n      0x20\n      add\n      add\n      mload\n        /* \"lib/allo-v2/contracts/strategies/BaseStrategy.sol\":11933:11943  _getPayout */\n      tag_162\n        /* \"lib/allo-v2/contracts/strategies/BaseStrategy.sol\":11933:11971  _getPayout(_recipientIds[i], _data[i]) */\n      jump\t// in\n    tag_156:\n        /* \"lib/allo-v2/contracts/strategies/BaseStrategy.sol\":11920:11927  payouts */\n      dup3\n        /* \"lib/allo-v2/contracts/strategies/BaseStrategy.sol\":11928:11929  i */\n      dup3\n        /* \"lib/allo-v2/contracts/strategies/BaseStrategy.sol\":11920:11930  payouts[i] */\n      dup2\n      mload\n      dup2\n      lt\n      tag_163\n      jumpi\n      tag_164\n      tag_159\n      jump\t// in\n    tag_164:\n    tag_163:\n      0x20\n      mul\n      0x20\n      add\n      add\n        /* \"lib/allo-v2/contracts/strategies/BaseStrategy.sol\":11920:11971  payouts[i] = _getPayout(_recipientIds[i], _data[i]) */\n      dup2\n      swap1\n      mstore\n      pop\n        /* \"lib/allo-v2/contracts/strategies/BaseStrategy.sol\":12013:12016  i++ */\n      dup1\n      dup1\n      0x01\n      add\n      swap2\n      pop\n      pop\n        /* \"lib/allo-v2/contracts/strategies/BaseStrategy.sol\":11868:12041  for (uint256 i; i < recipientLength;) {... */\n      jump(tag_153)\n    tag_154:\n      pop\n        /* \"lib/allo-v2/contracts/strategies/BaseStrategy.sol\":12057:12064  payouts */\n      dup1\n        /* \"lib/allo-v2/contracts/strategies/BaseStrategy.sol\":12050:12064  return payouts */\n      swap3\n      pop\n      pop\n      pop\n        /* \"lib/allo-v2/contracts/strategies/BaseStrategy.sol\":11367:12071  function getPayouts(address[] memory _recipientIds, bytes[] memory _data)... */\n      swap3\n      swap2\n      pop\n      pop\n      jump\t// out\n        /* \"src/YeeterStrategy.sol\":954:1123  function withdraw(address _token, address _recipient, uint256 _amount) external onlyPoolManager(msg.sender) {... */\n    tag_81:\n        /* \"src/YeeterStrategy.sol\":1050:1060  msg.sender */\n      caller\n        /* \"lib/allo-v2/contracts/strategies/BaseStrategy.sol\":5954:5984  _checkOnlyPoolManager(_sender) */\n      tag_166\n        /* \"lib/allo-v2/contracts/strategies/BaseStrategy.sol\":5976:5983  _sender */\n      dup2\n        /* \"lib/allo-v2/contracts/strategies/BaseStrategy.sol\":5954:5975  _checkOnlyPoolManager */\n      tag_134\n        /* \"lib/allo-v2/contracts/strategies/BaseStrategy.sol\":5954:5984  _checkOnlyPoolManager(_sender) */\n      jump\t// in\n    tag_166:\n        /* \"src/YeeterStrategy.sol\":1072:1116  _transferAmount(_token, _recipient, _amount) */\n      tag_168\n        /* \"src/YeeterStrategy.sol\":1088:1094  _token */\n      dup5\n        /* \"src/YeeterStrategy.sol\":1096:1106  _recipient */\n      dup5\n        /* \"src/YeeterStrategy.sol\":1108:1115  _amount */\n      dup5\n        /* \"src/YeeterStrategy.sol\":1072:1087  _transferAmount */\n      tag_169\n        /* \"src/YeeterStrategy.sol\":1072:1116  _transferAmount(_token, _recipient, _amount) */\n      jump\t// in\n    tag_168:\n        /* \"src/YeeterStrategy.sol\":954:1123  function withdraw(address _token, address _recipient, uint256 _amount) external onlyPoolManager(msg.sender) {... */\n      pop\n      pop\n      pop\n      pop\n      jump\t// out\n        /* \"lib/allo-v2/contracts/strategies/BaseStrategy.sol\":7566:7667  function isPoolActive() external view override returns (bool) {... */\n    tag_84:\n        /* \"lib/allo-v2/contracts/strategies/BaseStrategy.sol\":7622:7626  bool */\n      0x00\n        /* \"lib/allo-v2/contracts/strategies/BaseStrategy.sol\":7645:7660  _isPoolActive() */\n      tag_171\n        /* \"lib/allo-v2/contracts/strategies/BaseStrategy.sol\":7645:7658  _isPoolActive */\n      tag_172\n        /* \"lib/allo-v2/contracts/strategies/BaseStrategy.sol\":7645:7660  _isPoolActive() */\n      jump\t// in\n    tag_171:\n        /* \"lib/allo-v2/contracts/strategies/BaseStrategy.sol\":7638:7660  return _isPoolActive() */\n      swap1\n      pop\n        /* \"lib/allo-v2/contracts/strategies/BaseStrategy.sol\":7566:7667  function isPoolActive() external view override returns (bool) {... */\n      swap1\n      jump\t// out\n        /* \"lib/allo-v2/contracts/strategies/BaseStrategy.sol\":7823:7969  function getRecipientStatus(address _recipientId) external view virtual returns (Status) {... */\n    tag_89:\n        /* \"lib/allo-v2/contracts/strategies/BaseStrategy.sol\":7904:7910  Status */\n      0x00\n        /* \"lib/allo-v2/contracts/strategies/BaseStrategy.sol\":7929:7962  _getRecipientStatus(_recipientId) */\n      tag_174\n        /* \"lib/allo-v2/contracts/strategies/BaseStrategy.sol\":7949:7961  _recipientId */\n      dup3\n        /* \"lib/allo-v2/contracts/strategies/BaseStrategy.sol\":7929:7948  _getRecipientStatus */\n      tag_175\n        /* \"lib/allo-v2/contracts/strategies/BaseStrategy.sol\":7929:7962  _getRecipientStatus(_recipientId) */\n      jump\t// in\n    tag_174:\n        /* \"lib/allo-v2/contracts/strategies/BaseStrategy.sol\":7922:7962  return _getRecipientStatus(_recipientId) */\n      swap1\n      pop\n        /* \"lib/allo-v2/contracts/strategies/BaseStrategy.sol\":7823:7969  function getRecipientStatus(address _recipientId) external view virtual returns (Status) {... */\n      swap2\n      swap1\n      pop\n      jump\t// out\n        /* \"src/YeeterStrategy.sol\":596:766  function initialize(uint256 _poolId, bytes memory _data) external virtual override {... */\n    tag_96:\n        /* \"src/YeeterStrategy.sol\":689:717  __BaseStrategy_init(_poolId) */\n      tag_177\n        /* \"src/YeeterStrategy.sol\":709:716  _poolId */\n      dup3\n        /* \"src/YeeterStrategy.sol\":689:708  __BaseStrategy_init */\n      tag_178\n        /* \"src/YeeterStrategy.sol\":689:717  __BaseStrategy_init(_poolId) */\n      jump\t// in\n    tag_177:\n        /* \"src/YeeterStrategy.sol\":732:759  Initialized(_poolId, _data) */\n      0x91efa3d50feccde0d0d202f8ae5c41ca0b2be614cebcb2bd2f4b019396e6568a\n        /* \"src/YeeterStrategy.sol\":744:751  _poolId */\n      dup3\n        /* \"src/YeeterStrategy.sol\":753:758  _data */\n      dup3\n        /* \"src/YeeterStrategy.sol\":732:759  Initialized(_poolId, _data) */\n      mload(0x40)\n      tag_179\n      swap3\n      swap2\n      swap1\n      tag_180\n      jump\t// in\n    tag_179:\n      mload(0x40)\n      dup1\n      swap2\n      sub\n      swap1\n      log1\n        /* \"src/YeeterStrategy.sol\":596:766  function initialize(uint256 _poolId, bytes memory _data) external virtual override {... */\n      pop\n      pop\n      jump\t// out\n        /* \"lib/allo-v2/contracts/strategies/BaseStrategy.sol\":10092:10312  function allocate(bytes memory _data, address _sender) external payable onlyAllo onlyInitialized {... */\n    tag_99:\n        /* \"lib/allo-v2/contracts/strategies/BaseStrategy.sol\":5660:5676  _checkOnlyAllo() */\n      tag_182\n        /* \"lib/allo-v2/contracts/strategies/BaseStrategy.sol\":5660:5674  _checkOnlyAllo */\n      tag_107\n        /* \"lib/allo-v2/contracts/strategies/BaseStrategy.sol\":5660:5676  _checkOnlyAllo() */\n      jump\t// in\n    tag_182:\n        /* \"lib/allo-v2/contracts/strategies/BaseStrategy.sol\":6532:6555  _checkOnlyInitialized() */\n      tag_184\n        /* \"lib/allo-v2/contracts/strategies/BaseStrategy.sol\":6532:6553  _checkOnlyInitialized */\n      tag_110\n        /* \"lib/allo-v2/contracts/strategies/BaseStrategy.sol\":6532:6555  _checkOnlyInitialized() */\n      jump\t// in\n    tag_184:\n        /* \"lib/allo-v2/contracts/strategies/BaseStrategy.sol\":10199:10230  _beforeAllocate(_data, _sender) */\n      tag_186\n        /* \"lib/allo-v2/contracts/strategies/BaseStrategy.sol\":10215:10220  _data */\n      dup3\n        /* \"lib/allo-v2/contracts/strategies/BaseStrategy.sol\":10222:10229  _sender */\n      dup3\n        /* \"lib/allo-v2/contracts/strategies/BaseStrategy.sol\":10199:10214  _beforeAllocate */\n      tag_187\n        /* \"lib/allo-v2/contracts/strategies/BaseStrategy.sol\":10199:10230  _beforeAllocate(_data, _sender) */\n      jump\t// in\n    tag_186:\n        /* \"lib/allo-v2/contracts/strategies/BaseStrategy.sol\":10240:10265  _allocate(_data, _sender) */\n      tag_188\n        /* \"lib/allo-v2/contracts/strategies/BaseStrategy.sol\":10250:10255  _data */\n      dup3\n        /* \"lib/allo-v2/contracts/strategies/BaseStrategy.sol\":10257:10264  _sender */\n      dup3\n        /* \"lib/allo-v2/contracts/strategies/BaseStrategy.sol\":10240:10249  _allocate */\n      tag_139\n        /* \"lib/allo-v2/contracts/strategies/BaseStrategy.sol\":10240:10265  _allocate(_data, _sender) */\n      jump\t// in\n    tag_188:\n        /* \"lib/allo-v2/contracts/strategies/BaseStrategy.sol\":10275:10305  _afterAllocate(_data, _sender) */\n      tag_189\n        /* \"lib/allo-v2/contracts/strategies/BaseStrategy.sol\":10290:10295  _data */\n      dup3\n        /* \"lib/allo-v2/contracts/strategies/BaseStrategy.sol\":10297:10304  _sender */\n      dup3\n        /* \"lib/allo-v2/contracts/strategies/BaseStrategy.sol\":10275:10289  _afterAllocate */\n      tag_190\n        /* \"lib/allo-v2/contracts/strategies/BaseStrategy.sol\":10275:10305  _afterAllocate(_data, _sender) */\n      jump\t// in\n    tag_189:\n        /* \"lib/allo-v2/contracts/strategies/BaseStrategy.sol\":10092:10312  function allocate(bytes memory _data, address _sender) external payable onlyAllo onlyInitialized {... */\n      pop\n      pop\n      jump\t// out\n        /* \"lib/allo-v2/contracts/strategies/BaseStrategy.sol\":8816:9013  function increasePoolAmount(uint256 _amount) external override onlyAllo {... */\n    tag_104:\n        /* \"lib/allo-v2/contracts/strategies/BaseStrategy.sol\":5660:5676  _checkOnlyAllo() */\n      tag_192\n        /* \"lib/allo-v2/contracts/strategies/BaseStrategy.sol\":5660:5674  _checkOnlyAllo */\n      tag_107\n        /* \"lib/allo-v2/contracts/strategies/BaseStrategy.sol\":5660:5676  _checkOnlyAllo() */\n      jump\t// in\n    tag_192:\n        /* \"lib/allo-v2/contracts/strategies/BaseStrategy.sol\":8898:8932  _beforeIncreasePoolAmount(_amount) */\n      tag_194\n        /* \"lib/allo-v2/contracts/strategies/BaseStrategy.sol\":8924:8931  _amount */\n      dup2\n        /* \"lib/allo-v2/contracts/strategies/BaseStrategy.sol\":8898:8923  _beforeIncreasePoolAmount */\n      tag_195\n        /* \"lib/allo-v2/contracts/strategies/BaseStrategy.sol\":8898:8932  _beforeIncreasePoolAmount(_amount) */\n      jump\t// in\n    tag_194:\n        /* \"lib/allo-v2/contracts/strategies/BaseStrategy.sol\":8956:8963  _amount */\n      dup1\n        /* \"lib/allo-v2/contracts/strategies/BaseStrategy.sol\":8942:8952  poolAmount */\n      0x02\n      0x00\n        /* \"lib/allo-v2/contracts/strategies/BaseStrategy.sol\":8942:8963  poolAmount += _amount */\n      dup3\n      dup3\n      sload\n      tag_196\n      swap2\n      swap1\n      tag_197\n      jump\t// in\n    tag_196:\n      swap3\n      pop\n      pop\n      dup2\n      swap1\n      sstore\n      pop\n        /* \"lib/allo-v2/contracts/strategies/BaseStrategy.sol\":8973:9006  _afterIncreasePoolAmount(_amount) */\n      tag_198\n        /* \"lib/allo-v2/contracts/strategies/BaseStrategy.sol\":8998:9005  _amount */\n      dup2\n        /* \"lib/allo-v2/contracts/strategies/BaseStrategy.sol\":8973:8997  _afterIncreasePoolAmount */\n      tag_199\n        /* \"lib/allo-v2/contracts/strategies/BaseStrategy.sol\":8973:9006  _afterIncreasePoolAmount(_amount) */\n      jump\t// in\n    tag_198:\n        /* \"lib/allo-v2/contracts/strategies/BaseStrategy.sol\":8816:9013  function increasePoolAmount(uint256 _amount) external override onlyAllo {... */\n      pop\n      jump\t// out\n        /* \"lib/allo-v2/contracts/strategies/BaseStrategy.sol\":12814:12925  function _checkOnlyAllo() internal view {... */\n    tag_107:\n        /* \"lib/allo-v2/contracts/strategies/BaseStrategy.sol\":12890:12894  allo */\n      immutable(\"0xe83e88c2152b206e69cb9b3b201a106be63261dd2cfe22481b2beae14bec255b\")\n        /* \"lib/allo-v2/contracts/strategies/BaseStrategy.sol\":12868:12895  msg.sender != address(allo) */\n      0xffffffffffffffffffffffffffffffffffffffff\n      and\n        /* \"lib/allo-v2/contracts/strategies/BaseStrategy.sol\":12868:12878  msg.sender */\n      caller\n        /* \"lib/allo-v2/contracts/strategies/BaseStrategy.sol\":12868:12895  msg.sender != address(allo) */\n      0xffffffffffffffffffffffffffffffffffffffff\n      and\n      eq\n        /* \"lib/allo-v2/contracts/strategies/BaseStrategy.sol\":12864:12918  if (msg.sender != address(allo)) revert UNAUTHORIZED() */\n      tag_201\n      jumpi\n        /* \"lib/allo-v2/contracts/strategies/BaseStrategy.sol\":12904:12918  UNAUTHORIZED() */\n      mload(0x40)\n      0x075fd2b100000000000000000000000000000000000000000000000000000000\n      dup2\n      mstore\n      0x04\n      add\n      mload(0x40)\n      dup1\n      swap2\n      sub\n      swap1\n      revert\n        /* \"lib/allo-v2/contracts/strategies/BaseStrategy.sol\":12864:12918  if (msg.sender != address(allo)) revert UNAUTHORIZED() */\n    tag_201:\n        /* \"lib/allo-v2/contracts/strategies/BaseStrategy.sol\":12814:12925  function _checkOnlyAllo() internal view {... */\n      jump\t// out\n        /* \"lib/allo-v2/contracts/strategies/BaseStrategy.sol\":13771:13876  function _checkOnlyInitialized() internal view {... */\n    tag_110:\n        /* \"lib/allo-v2/contracts/strategies/BaseStrategy.sol\":13842:13843  0 */\n      0x00\n        /* \"lib/allo-v2/contracts/strategies/BaseStrategy.sol\":13832:13838  poolId */\n      sload(0x01)\n        /* \"lib/allo-v2/contracts/strategies/BaseStrategy.sol\":13832:13843  poolId == 0 */\n      sub\n        /* \"lib/allo-v2/contracts/strategies/BaseStrategy.sol\":13828:13869  if (poolId == 0) revert NOT_INITIALIZED() */\n      tag_203\n      jumpi\n        /* \"lib/allo-v2/contracts/strategies/BaseStrategy.sol\":13852:13869  NOT_INITIALIZED() */\n      mload(0x40)\n      0x3da3f98c00000000000000000000000000000000000000000000000000000000\n      dup2\n      mstore\n      0x04\n      add\n      mload(0x40)\n      dup1\n      swap2\n      sub\n      swap1\n      revert\n        /* \"lib/allo-v2/contracts/strategies/BaseStrategy.sol\":13828:13869  if (poolId == 0) revert NOT_INITIALIZED() */\n    tag_203:\n        /* \"lib/allo-v2/contracts/strategies/BaseStrategy.sol\":13771:13876  function _checkOnlyInitialized() internal view {... */\n      jump\t// out\n        /* \"lib/allo-v2/contracts/strategies/BaseStrategy.sol\":18949:19064  function _beforeDistribute(address[] memory _recipientIds, bytes memory _data, address _sender) internal virtual {} */\n    tag_113:\n      pop\n      pop\n      pop\n      jump\t// out\n        /* \"src/YeeterStrategy.sol\":2637:2755  function _distribute(address[] memory, bytes memory, address) internal virtual override {... */\n    tag_115:\n        /* \"src/YeeterStrategy.sol\":2742:2748  NOOP() */\n      mload(0x40)\n      0x1569426800000000000000000000000000000000000000000000000000000000\n      dup2\n      mstore\n      0x04\n      add\n      mload(0x40)\n      dup1\n      swap2\n      sub\n      swap1\n      revert\n        /* \"lib/allo-v2/contracts/strategies/BaseStrategy.sol\":19320:19434  function _afterDistribute(address[] memory _recipientIds, bytes memory _data, address _sender) internal virtual {} */\n    tag_117:\n      pop\n      pop\n      pop\n      jump\t// out\n        /* \"lib/allo-v2/contracts/strategies/BaseStrategy.sol\":17810:17900  function _beforeRegisterRecipient(bytes memory _data, address _sender) internal virtual {} */\n    tag_125:\n      pop\n      pop\n      jump\t// out\n        /* \"src/YeeterStrategy.sol\":3001:3126  function _registerRecipient(bytes memory, address) internal virtual override returns (address) {... */\n    tag_127:\n        /* \"src/YeeterStrategy.sol\":3087:3094  address */\n      0x00\n        /* \"src/YeeterStrategy.sol\":3113:3119  NOOP() */\n      mload(0x40)\n      0x1569426800000000000000000000000000000000000000000000000000000000\n      dup2\n      mstore\n      0x04\n      add\n      mload(0x40)\n      dup1\n      swap2\n      sub\n      swap1\n      revert\n        /* \"lib/allo-v2/contracts/strategies/BaseStrategy.sol\":18077:18166  function _afterRegisterRecipient(bytes memory _data, address _sender) internal virtual {} */\n    tag_129:\n      pop\n      pop\n      jump\t// out\n        /* \"lib/allo-v2/contracts/strategies/BaseStrategy.sol\":13122:13264  function _checkOnlyPoolManager(address _sender) internal view {... */\n    tag_134:\n        /* \"lib/allo-v2/contracts/strategies/BaseStrategy.sol\":13199:13203  allo */\n      immutable(\"0xe83e88c2152b206e69cb9b3b201a106be63261dd2cfe22481b2beae14bec255b\")\n        /* \"lib/allo-v2/contracts/strategies/BaseStrategy.sol\":13199:13217  allo.isPoolManager */\n      0xffffffffffffffffffffffffffffffffffffffff\n      and\n      0x29e40d4b\n        /* \"lib/allo-v2/contracts/strategies/BaseStrategy.sol\":13218:13224  poolId */\n      sload(0x01)\n        /* \"lib/allo-v2/contracts/strategies/BaseStrategy.sol\":13226:13233  _sender */\n      dup4\n        /* \"lib/allo-v2/contracts/strategies/BaseStrategy.sol\":13199:13234  allo.isPoolManager(poolId, _sender) */\n      mload(0x40)\n      dup4\n      0xffffffff\n      and\n      0xe0\n      shl\n      dup2\n      mstore\n      0x04\n      add\n      tag_211\n      swap3\n      swap2\n      swap1\n      tag_212\n      jump\t// in\n    tag_211:\n      0x20\n      mload(0x40)\n      dup1\n      dup4\n      sub\n      dup2\n      dup7\n      gas\n      staticcall\n      iszero\n      dup1\n      iszero\n      tag_214\n      jumpi\n      returndatasize\n      0x00\n      dup1\n      returndatacopy\n      revert(0x00, returndatasize)\n    tag_214:\n      pop\n      pop\n      pop\n      pop\n      mload(0x40)\n      returndatasize\n      not(0x1f)\n      0x1f\n      dup3\n      add\n      and\n      dup3\n      add\n      dup1\n      0x40\n      mstore\n      pop\n      dup2\n      add\n      swap1\n      tag_215\n      swap2\n      swap1\n      tag_216\n      jump\t// in\n    tag_215:\n        /* \"lib/allo-v2/contracts/strategies/BaseStrategy.sol\":13194:13257  if (!allo.isPoolManager(poolId, _sender)) revert UNAUTHORIZED() */\n      tag_217\n      jumpi\n        /* \"lib/allo-v2/contracts/strategies/BaseStrategy.sol\":13243:13257  UNAUTHORIZED() */\n      mload(0x40)\n      0x075fd2b100000000000000000000000000000000000000000000000000000000\n      dup2\n      mstore\n      0x04\n      add\n      mload(0x40)\n      dup1\n      swap2\n      sub\n      swap1\n      revert\n        /* \"lib/allo-v2/contracts/strategies/BaseStrategy.sol\":13194:13257  if (!allo.isPoolManager(poolId, _sender)) revert UNAUTHORIZED() */\n    tag_217:\n        /* \"lib/allo-v2/contracts/strategies/BaseStrategy.sol\":13122:13264  function _checkOnlyPoolManager(address _sender) internal view {... */\n      pop\n      jump\t// out\n        /* \"src/YeeterStrategy.sol\":1329:2349  function _allocate(bytes memory _data, address _sender) internal virtual override onlyPoolManager(_sender) {... */\n    tag_139:\n        /* \"src/YeeterStrategy.sol\":1427:1434  _sender */\n      dup1\n        /* \"lib/allo-v2/contracts/strategies/BaseStrategy.sol\":5954:5984  _checkOnlyPoolManager(_sender) */\n      tag_219\n        /* \"lib/allo-v2/contracts/strategies/BaseStrategy.sol\":5976:5983  _sender */\n      dup2\n        /* \"lib/allo-v2/contracts/strategies/BaseStrategy.sol\":5954:5975  _checkOnlyPoolManager */\n      tag_134\n        /* \"lib/allo-v2/contracts/strategies/BaseStrategy.sol\":5954:5984  _checkOnlyPoolManager(_sender) */\n      jump\t// in\n    tag_219:\n        /* \"src/YeeterStrategy.sol\":1474:1504  address[] memory _recipientIds */\n      0x00\n        /* \"src/YeeterStrategy.sol\":1506:1531  uint256[] memory _amounts */\n      dup1\n        /* \"src/YeeterStrategy.sol\":1533:1547  address _token */\n      0x00\n        /* \"src/YeeterStrategy.sol\":1574:1579  _data */\n      dup6\n        /* \"src/YeeterStrategy.sol\":1563:1613  abi.decode(_data, (address[], uint256[], address)) */\n      dup1\n      0x20\n      add\n      swap1\n      mload\n      dup2\n      add\n      swap1\n      tag_221\n      swap2\n      swap1\n      tag_222\n      jump\t// in\n    tag_221:\n        /* \"src/YeeterStrategy.sol\":1473:1613  (address[] memory _recipientIds, uint256[] memory _amounts, address _token) =... */\n      swap3\n      pop\n      swap3\n      pop\n      swap3\n      pop\n        /* \"src/YeeterStrategy.sol\":1624:1644  uint256 payoutLength */\n      0x00\n        /* \"src/YeeterStrategy.sol\":1647:1660  _recipientIds */\n      dup4\n        /* \"src/YeeterStrategy.sol\":1647:1667  _recipientIds.length */\n      mload\n        /* \"src/YeeterStrategy.sol\":1624:1667  uint256 payoutLength = _recipientIds.length */\n      swap1\n      pop\n        /* \"src/YeeterStrategy.sol\":1739:1740  0 */\n      0x00\n        /* \"src/YeeterStrategy.sol\":1723:1735  payoutLength */\n      dup2\n        /* \"src/YeeterStrategy.sol\":1723:1740  payoutLength == 0 */\n      sub\n        /* \"src/YeeterStrategy.sol\":1719:1797  if (payoutLength == 0) {... */\n      tag_223\n      jumpi\n        /* \"src/YeeterStrategy.sol\":1763:1786  INPUT_LENGTH_MISMATCH() */\n      mload(0x40)\n      0xfb76571500000000000000000000000000000000000000000000000000000000\n      dup2\n      mstore\n      0x04\n      add\n      mload(0x40)\n      dup1\n      swap2\n      sub\n      swap1\n      revert\n        /* \"src/YeeterStrategy.sol\":1719:1797  if (payoutLength == 0) {... */\n    tag_223:\n        /* \"src/YeeterStrategy.sol\":1884:1892  _amounts */\n      dup3\n        /* \"src/YeeterStrategy.sol\":1884:1899  _amounts.length */\n      mload\n        /* \"src/YeeterStrategy.sol\":1868:1880  payoutLength */\n      dup2\n        /* \"src/YeeterStrategy.sol\":1868:1899  payoutLength != _amounts.length */\n      eq\n        /* \"src/YeeterStrategy.sol\":1864:1956  if (payoutLength != _amounts.length) {... */\n      tag_224\n      jumpi\n        /* \"src/YeeterStrategy.sol\":1922:1945  INPUT_LENGTH_MISMATCH() */\n      mload(0x40)\n      0xfb76571500000000000000000000000000000000000000000000000000000000\n      dup2\n      mstore\n      0x04\n      add\n      mload(0x40)\n      dup1\n      swap2\n      sub\n      swap1\n      revert\n        /* \"src/YeeterStrategy.sol\":1864:1956  if (payoutLength != _amounts.length) {... */\n    tag_224:\n        /* \"src/YeeterStrategy.sol\":2018:2027  uint256 i */\n      0x00\n        /* \"src/YeeterStrategy.sol\":2013:2343  for (uint256 i; i < payoutLength;) {... */\n    tag_225:\n        /* \"src/YeeterStrategy.sol\":2033:2045  payoutLength */\n      dup2\n        /* \"src/YeeterStrategy.sol\":2029:2030  i */\n      dup2\n        /* \"src/YeeterStrategy.sol\":2029:2045  i < payoutLength */\n      lt\n        /* \"src/YeeterStrategy.sol\":2013:2343  for (uint256 i; i < payoutLength;) {... */\n      iszero\n      tag_226\n      jumpi\n        /* \"src/YeeterStrategy.sol\":2062:2077  uint256 _amount */\n      0x00\n        /* \"src/YeeterStrategy.sol\":2080:2088  _amounts */\n      dup5\n        /* \"src/YeeterStrategy.sol\":2089:2090  i */\n      dup3\n        /* \"src/YeeterStrategy.sol\":2080:2091  _amounts[i] */\n      dup2\n      mload\n      dup2\n      lt\n      tag_228\n      jumpi\n      tag_229\n      tag_159\n      jump\t// in\n    tag_229:\n    tag_228:\n      0x20\n      mul\n      0x20\n      add\n      add\n      mload\n        /* \"src/YeeterStrategy.sol\":2062:2091  uint256 _amount = _amounts[i] */\n      swap1\n      pop\n        /* \"src/YeeterStrategy.sol\":2105:2125  address _recipientId */\n      0x00\n        /* \"src/YeeterStrategy.sol\":2128:2141  _recipientIds */\n      dup7\n        /* \"src/YeeterStrategy.sol\":2142:2143  i */\n      dup4\n        /* \"src/YeeterStrategy.sol\":2128:2144  _recipientIds[i] */\n      dup2\n      mload\n      dup2\n      lt\n      tag_230\n      jumpi\n      tag_231\n      tag_159\n      jump\t// in\n    tag_231:\n    tag_230:\n      0x20\n      mul\n      0x20\n      add\n      add\n      mload\n        /* \"src/YeeterStrategy.sol\":2105:2144  address _recipientId = _recipientIds[i] */\n      swap1\n      pop\n        /* \"src/YeeterStrategy.sol\":2159:2205  _transferAmount(_token, _recipientId, _amount) */\n      tag_232\n        /* \"src/YeeterStrategy.sol\":2175:2181  _token */\n      dup6\n        /* \"src/YeeterStrategy.sol\":2183:2195  _recipientId */\n      dup3\n        /* \"src/YeeterStrategy.sol\":2197:2204  _amount */\n      dup5\n        /* \"src/YeeterStrategy.sol\":2159:2174  _transferAmount */\n      tag_169\n        /* \"src/YeeterStrategy.sol\":2159:2205  _transferAmount(_token, _recipientId, _amount) */\n      jump\t// in\n    tag_232:\n        /* \"src/YeeterStrategy.sol\":2234:2246  _recipientId */\n      dup1\n        /* \"src/YeeterStrategy.sol\":2224:2273  Allocated(_recipientId, _amount, _token, _sender) */\n      0xffffffffffffffffffffffffffffffffffffffff\n      and\n      0x463ffc2cf8b1596445c417388ed30e53eb67cf6668cb2be7f0addf8a78c8441b\n        /* \"src/YeeterStrategy.sol\":2248:2255  _amount */\n      dup4\n        /* \"src/YeeterStrategy.sol\":2257:2263  _token */\n      dup8\n        /* \"src/YeeterStrategy.sol\":2265:2272  _sender */\n      dup13\n        /* \"src/YeeterStrategy.sol\":2224:2273  Allocated(_recipientId, _amount, _token, _sender) */\n      mload(0x40)\n      tag_233\n      swap4\n      swap3\n      swap2\n      swap1\n      tag_234\n      jump\t// in\n    tag_233:\n      mload(0x40)\n      dup1\n      swap2\n      sub\n      swap1\n      log2\n        /* \"src/YeeterStrategy.sol\":2315:2318  ++i */\n      dup3\n      0x01\n      add\n      swap3\n      pop\n        /* \"src/YeeterStrategy.sol\":2048:2343  {... */\n      pop\n      pop\n        /* \"src/YeeterStrategy.sol\":2013:2343  for (uint256 i; i < payoutLength;) {... */\n      jump(tag_225)\n    tag_226:\n      pop\n        /* \"src/YeeterStrategy.sol\":1436:2349  {... */\n      pop\n      pop\n      pop\n      pop\n        /* \"src/YeeterStrategy.sol\":1329:2349  function _allocate(bytes memory _data, address _sender) internal virtual override onlyPoolManager(_sender) {... */\n      pop\n      pop\n      pop\n      jump\t// out\n        /* \"src/YeeterStrategy.sol\":2883:2995  function _isValidAllocator(address) internal view virtual override returns (bool) {... */\n    tag_143:\n        /* \"src/YeeterStrategy.sol\":2959:2963  bool */\n      0x00\n        /* \"src/YeeterStrategy.sol\":2982:2988  NOOP() */\n      mload(0x40)\n      0x1569426800000000000000000000000000000000000000000000000000000000\n      dup2\n      mstore\n      0x04\n      add\n      mload(0x40)\n      dup1\n      swap2\n      sub\n      swap1\n      revert\n        /* \"src/YeeterStrategy.sol\":3132:3267  function _getPayout(address, bytes memory) internal view virtual override returns (PayoutSummary memory) {... */\n    tag_162:\n        /* \"src/YeeterStrategy.sol\":3215:3235  PayoutSummary memory */\n      tag_236\n      tag_152\n      jump\t// in\n    tag_236:\n        /* \"src/YeeterStrategy.sol\":3254:3260  NOOP() */\n      mload(0x40)\n      0x1569426800000000000000000000000000000000000000000000000000000000\n      dup2\n      mstore\n      0x04\n      add\n      mload(0x40)\n      dup1\n      swap2\n      sub\n      swap1\n      revert\n        /* \"lib/allo-v2/contracts/core/libraries/Transfer.sol\":6761:7038  function _transferAmount(address _token, address _to, uint256 _amount) internal virtual {... */\n    tag_169:\n        /* \"lib/allo-v2/contracts/core/libraries/Native.sol\":4445:4487  0xEeeeeEeeeEeEeeEeEeEeeEEEeeeeEeeeeeeeEEeE */\n      0xeeeeeeeeeeeeeeeeeeeeeeeeeeeeeeeeeeeeeeee\n        /* \"lib/allo-v2/contracts/core/libraries/Transfer.sol\":6863:6879  _token == NATIVE */\n      0xffffffffffffffffffffffffffffffffffffffff\n      and\n        /* \"lib/allo-v2/contracts/core/libraries/Transfer.sol\":6863:6869  _token */\n      dup4\n        /* \"lib/allo-v2/contracts/core/libraries/Transfer.sol\":6863:6879  _token == NATIVE */\n      0xffffffffffffffffffffffffffffffffffffffff\n      and\n      sub\n        /* \"lib/allo-v2/contracts/core/libraries/Transfer.sol\":6859:7032  if (_token == NATIVE) {... */\n      tag_239\n      jumpi\n        /* \"lib/allo-v2/contracts/core/libraries/Transfer.sol\":6895:6940  SafeTransferLib.safeTransferETH(_to, _amount) */\n      tag_240\n        /* \"lib/allo-v2/contracts/core/libraries/Transfer.sol\":6927:6930  _to */\n      dup3\n        /* \"lib/allo-v2/contracts/core/libraries/Transfer.sol\":6932:6939  _amount */\n      dup3\n        /* \"lib/allo-v2/contracts/core/libraries/Transfer.sol\":6895:6926  SafeTransferLib.safeTransferETH */\n      tag_241\n        /* \"lib/allo-v2/contracts/core/libraries/Transfer.sol\":6895:6940  SafeTransferLib.safeTransferETH(_to, _amount) */\n      jump\t// in\n    tag_240:\n        /* \"lib/allo-v2/contracts/core/libraries/Transfer.sol\":6859:7032  if (_token == NATIVE) {... */\n      jump(tag_242)\n    tag_239:\n        /* \"lib/allo-v2/contracts/core/libraries/Transfer.sol\":6971:7021  SafeTransferLib.safeTransfer(_token, _to, _amount) */\n      tag_243\n        /* \"lib/allo-v2/contracts/core/libraries/Transfer.sol\":7000:7006  _token */\n      dup4\n        /* \"lib/allo-v2/contracts/core/libraries/Transfer.sol\":7008:7011  _to */\n      dup4\n        /* \"lib/allo-v2/contracts/core/libraries/Transfer.sol\":7013:7020  _amount */\n      dup4\n        /* \"lib/allo-v2/contracts/core/libraries/Transfer.sol\":6971:6999  SafeTransferLib.safeTransfer */\n      tag_244\n        /* \"lib/allo-v2/contracts/core/libraries/Transfer.sol\":6971:7021  SafeTransferLib.safeTransfer(_token, _to, _amount) */\n      jump\t// in\n    tag_243:\n        /* \"lib/allo-v2/contracts/core/libraries/Transfer.sol\":6859:7032  if (_token == NATIVE) {... */\n    tag_242:\n        /* \"lib/allo-v2/contracts/core/libraries/Transfer.sol\":6761:7038  function _transferAmount(address _token, address _to, uint256 _amount) internal virtual {... */\n      pop\n      pop\n      pop\n      jump\t// out\n        /* \"lib/allo-v2/contracts/strategies/BaseStrategy.sol\":14400:14496  function _isPoolActive() internal view virtual returns (bool) {... */\n    tag_172:\n        /* \"lib/allo-v2/contracts/strategies/BaseStrategy.sol\":14456:14460  bool */\n      0x00\n        /* \"lib/allo-v2/contracts/strategies/BaseStrategy.sol\":14479:14489  poolActive */\n      dup1\n      0x00\n      swap1\n      sload\n      swap1\n      0x0100\n      exp\n      swap1\n      div\n      0xff\n      and\n        /* \"lib/allo-v2/contracts/strategies/BaseStrategy.sol\":14472:14489  return poolActive */\n      swap1\n      pop\n        /* \"lib/allo-v2/contracts/strategies/BaseStrategy.sol\":14400:14496  function _isPoolActive() internal view virtual returns (bool) {... */\n      swap1\n      jump\t// out\n        /* \"src/YeeterStrategy.sol\":2761:2877  function _getRecipientStatus(address) internal view virtual override returns (Status) {... */\n    tag_175:\n        /* \"src/YeeterStrategy.sol\":2839:2845  Status */\n      0x00\n        /* \"src/YeeterStrategy.sol\":2864:2870  NOOP() */\n      mload(0x40)\n      0x1569426800000000000000000000000000000000000000000000000000000000\n      dup2\n      mstore\n      0x04\n      add\n      mload(0x40)\n      dup1\n      swap2\n      sub\n      swap1\n      revert\n        /* \"lib/allo-v2/contracts/strategies/BaseStrategy.sol\":8269:8619  function __BaseStrategy_init(uint256 _poolId) internal virtual onlyAllo {... */\n    tag_178:\n        /* \"lib/allo-v2/contracts/strategies/BaseStrategy.sol\":5660:5676  _checkOnlyAllo() */\n      tag_248\n        /* \"lib/allo-v2/contracts/strategies/BaseStrategy.sol\":5660:5674  _checkOnlyAllo */\n      tag_107\n        /* \"lib/allo-v2/contracts/strategies/BaseStrategy.sol\":5660:5676  _checkOnlyAllo() */\n      jump\t// in\n    tag_248:\n        /* \"lib/allo-v2/contracts/strategies/BaseStrategy.sol\":8438:8439  0 */\n      0x00\n        /* \"lib/allo-v2/contracts/strategies/BaseStrategy.sol\":8428:8434  poolId */\n      sload(0x01)\n        /* \"lib/allo-v2/contracts/strategies/BaseStrategy.sol\":8428:8439  poolId != 0 */\n      eq\n        /* \"lib/allo-v2/contracts/strategies/BaseStrategy.sol\":8424:8469  if (poolId != 0) revert ALREADY_INITIALIZED() */\n      tag_250\n      jumpi\n        /* \"lib/allo-v2/contracts/strategies/BaseStrategy.sol\":8448:8469  ALREADY_INITIALIZED() */\n      mload(0x40)\n      0x439a74c900000000000000000000000000000000000000000000000000000000\n      dup2\n      mstore\n      0x04\n      add\n      mload(0x40)\n      dup1\n      swap2\n      sub\n      swap1\n      revert\n        /* \"lib/allo-v2/contracts/strategies/BaseStrategy.sol\":8424:8469  if (poolId != 0) revert ALREADY_INITIALIZED() */\n    tag_250:\n        /* \"lib/allo-v2/contracts/strategies/BaseStrategy.sol\":8567:8568  0 */\n      0x00\n        /* \"lib/allo-v2/contracts/strategies/BaseStrategy.sol\":8556:8563  _poolId */\n      dup2\n        /* \"lib/allo-v2/contracts/strategies/BaseStrategy.sol\":8556:8568  _poolId == 0 */\n      sub\n        /* \"lib/allo-v2/contracts/strategies/BaseStrategy.sol\":8552:8586  if (_poolId == 0) revert INVALID() */\n      tag_251\n      jumpi\n        /* \"lib/allo-v2/contracts/strategies/BaseStrategy.sol\":8577:8586  INVALID() */\n      mload(0x40)\n      0x7fcce2a900000000000000000000000000000000000000000000000000000000\n      dup2\n      mstore\n      0x04\n      add\n      mload(0x40)\n      dup1\n      swap2\n      sub\n      swap1\n      revert\n        /* \"lib/allo-v2/contracts/strategies/BaseStrategy.sol\":8552:8586  if (_poolId == 0) revert INVALID() */\n    tag_251:\n        /* \"lib/allo-v2/contracts/strategies/BaseStrategy.sol\":8605:8612  _poolId */\n      dup1\n        /* \"lib/allo-v2/contracts/strategies/BaseStrategy.sol\":8596:8602  poolId */\n      0x01\n        /* \"lib/allo-v2/contracts/strategies/BaseStrategy.sol\":8596:8612  poolId = _poolId */\n      dup2\n      swap1\n      sstore\n      pop\n        /* \"lib/allo-v2/contracts/strategies/BaseStrategy.sol\":8269:8619  function __BaseStrategy_init(uint256 _poolId) internal virtual onlyAllo {... */\n      pop\n      jump\t// out\n        /* \"lib/allo-v2/contracts/strategies/BaseStrategy.sol\":18349:18430  function _beforeAllocate(bytes memory _data, address _sender) internal virtual {} */\n    tag_187:\n      pop\n      pop\n      jump\t// out\n        /* \"lib/allo-v2/contracts/strategies/BaseStrategy.sol\":18612:18692  function _afterAllocate(bytes memory _data, address _sender) internal virtual {} */\n    tag_190:\n      pop\n      pop\n      jump\t// out\n        /* \"lib/allo-v2/contracts/strategies/BaseStrategy.sol\":17365:17436  function _beforeIncreasePoolAmount(uint256 _amount) internal virtual {} */\n    tag_195:\n      pop\n      jump\t// out\n        /* \"lib/allo-v2/contracts/strategies/BaseStrategy.sol\":17562:17632  function _afterIncreasePoolAmount(uint256 _amount) internal virtual {} */\n    tag_199:\n      pop\n      jump\t// out\n        /* \"lib/allo-v2/lib/solady/src/utils/SafeTransferLib.sol\":2455:2945  function safeTransferETH(address to, uint256 amount) internal {... */\n    tag_241:\n        /* \"lib/allo-v2/lib/solady/src/utils/SafeTransferLib.sol\":2711:2715  0x00 */\n      0x00\n        /* \"lib/allo-v2/lib/solady/src/utils/SafeTransferLib.sol\":2705:2709  0x00 */\n      dup1\n        /* \"lib/allo-v2/lib/solady/src/utils/SafeTransferLib.sol\":2699:2703  0x00 */\n      0x00\n        /* \"lib/allo-v2/lib/solady/src/utils/SafeTransferLib.sol\":2693:2697  0x00 */\n      dup1\n        /* \"lib/allo-v2/lib/solady/src/utils/SafeTransferLib.sol\":2685:2691  amount */\n      dup5\n        /* \"lib/allo-v2/lib/solady/src/utils/SafeTransferLib.sol\":2681:2683  to */\n      dup7\n        /* \"lib/allo-v2/lib/solady/src/utils/SafeTransferLib.sol\":2674:2679  gas() */\n      gas\n        /* \"lib/allo-v2/lib/solady/src/utils/SafeTransferLib.sol\":2669:2716  call(gas(), to, amount, 0x00, 0x00, 0x00, 0x00) */\n      call\n        /* \"lib/allo-v2/lib/solady/src/utils/SafeTransferLib.sol\":2659:2929  if iszero(call(gas(), to, amount, 0x00, 0x00, 0x00, 0x00)) {... */\n      tag_257\n      jumpi\n        /* \"lib/allo-v2/lib/solady/src/utils/SafeTransferLib.sol\":2822:2832  0xb12d13eb */\n      0xb12d13eb\n        /* \"lib/allo-v2/lib/solady/src/utils/SafeTransferLib.sol\":2816:2820  0x00 */\n      0x00\n        /* \"lib/allo-v2/lib/solady/src/utils/SafeTransferLib.sol\":2809:2833  mstore(0x00, 0xb12d13eb) */\n      mstore\n        /* \"lib/allo-v2/lib/solady/src/utils/SafeTransferLib.sol\":2910:2914  0x04 */\n      0x04\n        /* \"lib/allo-v2/lib/solady/src/utils/SafeTransferLib.sol\":2904:2908  0x1c */\n      0x1c\n        /* \"lib/allo-v2/lib/solady/src/utils/SafeTransferLib.sol\":2897:2915  revert(0x1c, 0x04) */\n      revert\n        /* \"lib/allo-v2/lib/solady/src/utils/SafeTransferLib.sol\":2659:2929  if iszero(call(gas(), to, amount, 0x00, 0x00, 0x00, 0x00)) {... */\n    tag_257:\n        /* \"lib/allo-v2/lib/solady/src/utils/SafeTransferLib.sol\":2455:2945  function safeTransferETH(address to, uint256 amount) internal {... */\n      pop\n      pop\n      jump\t// out\n        /* \"lib/allo-v2/lib/solady/src/utils/SafeTransferLib.sol\":11454:12643  function safeTransfer(address token, address to, uint256 amount) internal {... */\n    tag_244:\n        /* \"lib/allo-v2/lib/solady/src/utils/SafeTransferLib.sol\":11617:11619  to */\n      dup2\n        /* \"lib/allo-v2/lib/solady/src/utils/SafeTransferLib.sol\":11611:11615  0x14 */\n      0x14\n        /* \"lib/allo-v2/lib/solady/src/utils/SafeTransferLib.sol\":11604:11620  mstore(0x14, to) */\n      mstore\n        /* \"lib/allo-v2/lib/solady/src/utils/SafeTransferLib.sol\":11674:11680  amount */\n      dup1\n        /* \"lib/allo-v2/lib/solady/src/utils/SafeTransferLib.sol\":11668:11672  0x34 */\n      0x34\n        /* \"lib/allo-v2/lib/solady/src/utils/SafeTransferLib.sol\":11661:11681  mstore(0x34, amount) */\n      mstore\n        /* \"lib/allo-v2/lib/solady/src/utils/SafeTransferLib.sol\":11814:11848  0xa9059cbb000000000000000000000000 */\n      0xa9059cbb000000000000000000000000\n        /* \"lib/allo-v2/lib/solady/src/utils/SafeTransferLib.sol\":11808:11812  0x00 */\n      0x00\n        /* \"lib/allo-v2/lib/solady/src/utils/SafeTransferLib.sol\":11801:11849  mstore(0x00, 0xa9059cbb000000000000000000000000) */\n      mstore\n        /* \"lib/allo-v2/lib/solady/src/utils/SafeTransferLib.sol\":12272:12276  0x20 */\n      0x20\n        /* \"lib/allo-v2/lib/solady/src/utils/SafeTransferLib.sol\":12266:12270  0x00 */\n      0x00\n        /* \"lib/allo-v2/lib/solady/src/utils/SafeTransferLib.sol\":12260:12264  0x44 */\n      0x44\n        /* \"lib/allo-v2/lib/solady/src/utils/SafeTransferLib.sol\":12254:12258  0x10 */\n      0x10\n        /* \"lib/allo-v2/lib/solady/src/utils/SafeTransferLib.sol\":12251:12252  0 */\n      0x00\n        /* \"lib/allo-v2/lib/solady/src/utils/SafeTransferLib.sol\":12244:12249  token */\n      dup8\n        /* \"lib/allo-v2/lib/solady/src/utils/SafeTransferLib.sol\":12237:12242  gas() */\n      gas\n        /* \"lib/allo-v2/lib/solady/src/utils/SafeTransferLib.sol\":12232:12277  call(gas(), token, 0, 0x10, 0x44, 0x00, 0x20) */\n      call\n        /* \"lib/allo-v2/lib/solady/src/utils/SafeTransferLib.sol\":12192:12208  returndatasize() */\n      returndatasize\n        /* \"lib/allo-v2/lib/solady/src/utils/SafeTransferLib.sol\":12185:12209  iszero(returndatasize()) */\n      iszero\n        /* \"lib/allo-v2/lib/solady/src/utils/SafeTransferLib.sol\":12181:12182  1 */\n      0x01\n        /* \"lib/allo-v2/lib/solady/src/utils/SafeTransferLib.sol\":12174:12178  0x00 */\n      0x00\n        /* \"lib/allo-v2/lib/solady/src/utils/SafeTransferLib.sol\":12168:12179  mload(0x00) */\n      mload\n        /* \"lib/allo-v2/lib/solady/src/utils/SafeTransferLib.sol\":12165:12183  eq(mload(0x00), 1) */\n      eq\n        /* \"lib/allo-v2/lib/solady/src/utils/SafeTransferLib.sol\":12162:12210  or(eq(mload(0x00), 1), iszero(returndatasize())) */\n      or\n        /* \"lib/allo-v2/lib/solady/src/utils/SafeTransferLib.sol\":11890:12295  and( // The arguments of `and` are evaluated from right to left.... */\n      and\n        /* \"lib/allo-v2/lib/solady/src/utils/SafeTransferLib.sol\":11863:12518  if iszero(... */\n      tag_259\n      jumpi\n        /* \"lib/allo-v2/lib/solady/src/utils/SafeTransferLib.sol\":12411:12421  0x90b8ec18 */\n      0x90b8ec18\n        /* \"lib/allo-v2/lib/solady/src/utils/SafeTransferLib.sol\":12405:12409  0x00 */\n      0x00\n        /* \"lib/allo-v2/lib/solady/src/utils/SafeTransferLib.sol\":12398:12422  mstore(0x00, 0x90b8ec18) */\n      mstore\n        /* \"lib/allo-v2/lib/solady/src/utils/SafeTransferLib.sol\":12499:12503  0x04 */\n      0x04\n        /* \"lib/allo-v2/lib/solady/src/utils/SafeTransferLib.sol\":12493:12497  0x1c */\n      0x1c\n        /* \"lib/allo-v2/lib/solady/src/utils/SafeTransferLib.sol\":12486:12504  revert(0x1c, 0x04) */\n      revert\n        /* \"lib/allo-v2/lib/solady/src/utils/SafeTransferLib.sol\":11863:12518  if iszero(... */\n    tag_259:\n        /* \"lib/allo-v2/lib/solady/src/utils/SafeTransferLib.sol\":12625:12626  0 */\n      0x00\n        /* \"lib/allo-v2/lib/solady/src/utils/SafeTransferLib.sol\":12619:12623  0x34 */\n      0x34\n        /* \"lib/allo-v2/lib/solady/src/utils/SafeTransferLib.sol\":12612:12627  mstore(0x34, 0) */\n      mstore\n        /* \"lib/allo-v2/lib/solady/src/utils/SafeTransferLib.sol\":11454:12643  function safeTransfer(address token, address to, uint256 amount) internal {... */\n      pop\n      pop\n      pop\n      jump\t// out\n    tag_152:\n      mload(0x40)\n      dup1\n      0x40\n      add\n      0x40\n      mstore\n      dup1\n      and(0xffffffffffffffffffffffffffffffffffffffff, 0x00)\n      dup2\n      mstore\n      0x20\n      add\n      0x00\n      dup2\n      mstore\n      pop\n      swap1\n      jump\t// out\n        /* \"#utility.yul\":7:82   */\n    tag_260:\n        /* \"#utility.yul\":40:46   */\n      0x00\n        /* \"#utility.yul\":73:75   */\n      0x40\n        /* \"#utility.yul\":67:76   */\n      mload\n        /* \"#utility.yul\":57:76   */\n      swap1\n      pop\n        /* \"#utility.yul\":7:82   */\n      swap1\n      jump\t// out\n        /* \"#utility.yul\":88:205   */\n    tag_261:\n        /* \"#utility.yul\":197:198   */\n      0x00\n        /* \"#utility.yul\":194:195   */\n      dup1\n        /* \"#utility.yul\":187:199   */\n      revert\n        /* \"#utility.yul\":211:328   */\n    tag_262:\n        /* \"#utility.yul\":320:321   */\n      0x00\n        /* \"#utility.yul\":317:318   */\n      dup1\n        /* \"#utility.yul\":310:322   */\n      revert\n        /* \"#utility.yul\":334:451   */\n    tag_263:\n        /* \"#utility.yul\":443:444   */\n      0x00\n        /* \"#utility.yul\":440:441   */\n      dup1\n        /* \"#utility.yul\":433:445   */\n      revert\n        /* \"#utility.yul\":457:559   */\n    tag_264:\n        /* \"#utility.yul\":498:504   */\n      0x00\n        /* \"#utility.yul\":549:551   */\n      0x1f\n        /* \"#utility.yul\":545:552   */\n      not\n        /* \"#utility.yul\":540:542   */\n      0x1f\n        /* \"#utility.yul\":533:538   */\n      dup4\n        /* \"#utility.yul\":529:543   */\n      add\n        /* \"#utility.yul\":525:553   */\n      and\n        /* \"#utility.yul\":515:553   */\n      swap1\n      pop\n        /* \"#utility.yul\":457:559   */\n      swap2\n      swap1\n      pop\n      jump\t// out\n        /* \"#utility.yul\":565:745   */\n    tag_148:\n        /* \"#utility.yul\":613:690   */\n      0x4e487b7100000000000000000000000000000000000000000000000000000000\n        /* \"#utility.yul\":610:611   */\n      0x00\n        /* \"#utility.yul\":603:691   */\n      mstore\n        /* \"#utility.yul\":710:714   */\n      0x41\n        /* \"#utility.yul\":707:708   */\n      0x04\n        /* \"#utility.yul\":700:715   */\n      mstore\n        /* \"#utility.yul\":734:738   */\n      0x24\n        /* \"#utility.yul\":731:732   */\n      0x00\n        /* \"#utility.yul\":724:739   */\n      revert\n        /* \"#utility.yul\":751:1032   */\n    tag_265:\n        /* \"#utility.yul\":834:861   */\n      tag_350\n        /* \"#utility.yul\":856:860   */\n      dup3\n        /* \"#utility.yul\":834:861   */\n      tag_264\n      jump\t// in\n    tag_350:\n        /* \"#utility.yul\":826:832   */\n      dup2\n        /* \"#utility.yul\":822:862   */\n      add\n        /* \"#utility.yul\":964:970   */\n      dup2\n        /* \"#utility.yul\":952:962   */\n      dup2\n        /* \"#utility.yul\":949:971   */\n      lt\n        /* \"#utility.yul\":928:946   */\n      0xffffffffffffffff\n        /* \"#utility.yul\":916:926   */\n      dup3\n        /* \"#utility.yul\":913:947   */\n      gt\n        /* \"#utility.yul\":910:972   */\n      or\n        /* \"#utility.yul\":907:995   */\n      iszero\n      tag_351\n      jumpi\n        /* \"#utility.yul\":975:993   */\n      tag_352\n      tag_148\n      jump\t// in\n    tag_352:\n        /* \"#utility.yul\":907:995   */\n    tag_351:\n        /* \"#utility.yul\":1015:1025   */\n      dup1\n        /* \"#utility.yul\":1011:1013   */\n      0x40\n        /* \"#utility.yul\":1004:1026   */\n      mstore\n        /* \"#utility.yul\":794:1032   */\n      pop\n        /* \"#utility.yul\":751:1032   */\n      pop\n      pop\n      jump\t// out\n        /* \"#utility.yul\":1038:1167   */\n    tag_266:\n        /* \"#utility.yul\":1072:1078   */\n      0x00\n        /* \"#utility.yul\":1099:1119   */\n      tag_354\n      tag_260\n      jump\t// in\n    tag_354:\n        /* \"#utility.yul\":1089:1119   */\n      swap1\n      pop\n        /* \"#utility.yul\":1128:1161   */\n      tag_355\n        /* \"#utility.yul\":1156:1160   */\n      dup3\n        /* \"#utility.yul\":1148:1154   */\n      dup3\n        /* \"#utility.yul\":1128:1161   */\n      tag_265\n      jump\t// in\n    tag_355:\n        /* \"#utility.yul\":1038:1167   */\n      swap2\n      swap1\n      pop\n      jump\t// out\n        /* \"#utility.yul\":1173:1484   */\n    tag_267:\n        /* \"#utility.yul\":1250:1254   */\n      0x00\n        /* \"#utility.yul\":1340:1358   */\n      0xffffffffffffffff\n        /* \"#utility.yul\":1332:1338   */\n      dup3\n        /* \"#utility.yul\":1329:1359   */\n      gt\n        /* \"#utility.yul\":1326:1382   */\n      iszero\n      tag_357\n      jumpi\n        /* \"#utility.yul\":1362:1380   */\n      tag_358\n      tag_148\n      jump\t// in\n    tag_358:\n        /* \"#utility.yul\":1326:1382   */\n    tag_357:\n        /* \"#utility.yul\":1412:1416   */\n      0x20\n        /* \"#utility.yul\":1404:1410   */\n      dup3\n        /* \"#utility.yul\":1400:1417   */\n      mul\n        /* \"#utility.yul\":1392:1417   */\n      swap1\n      pop\n        /* \"#utility.yul\":1472:1476   */\n      0x20\n        /* \"#utility.yul\":1466:1470   */\n      dup2\n        /* \"#utility.yul\":1462:1477   */\n      add\n        /* \"#utility.yul\":1454:1477   */\n      swap1\n      pop\n        /* \"#utility.yul\":1173:1484   */\n      swap2\n      swap1\n      pop\n      jump\t// out\n        /* \"#utility.yul\":1490:1607   */\n    tag_268:\n        /* \"#utility.yul\":1599:1600   */\n      0x00\n        /* \"#utility.yul\":1596:1597   */\n      dup1\n        /* \"#utility.yul\":1589:1601   */\n      revert\n        /* \"#utility.yul\":1613:1739   */\n    tag_269:\n        /* \"#utility.yul\":1650:1657   */\n      0x00\n        /* \"#utility.yul\":1690:1732   */\n      0xffffffffffffffffffffffffffffffffffffffff\n        /* \"#utility.yul\":1683:1688   */\n      dup3\n        /* \"#utility.yul\":1679:1733   */\n      and\n        /* \"#utility.yul\":1668:1733   */\n      swap1\n      pop\n        /* \"#utility.yul\":1613:1739   */\n      swap2\n      swap1\n      pop\n      jump\t// out\n        /* \"#utility.yul\":1745:1841   */\n    tag_270:\n        /* \"#utility.yul\":1782:1789   */\n      0x00\n        /* \"#utility.yul\":1811:1835   */\n      tag_362\n        /* \"#utility.yul\":1829:1834   */\n      dup3\n        /* \"#utility.yul\":1811:1835   */\n      tag_269\n      jump\t// in\n    tag_362:\n        /* \"#utility.yul\":1800:1835   */\n      swap1\n      pop\n        /* \"#utility.yul\":1745:1841   */\n      swap2\n      swap1\n      pop\n      jump\t// out\n        /* \"#utility.yul\":1847:1969   */\n    tag_271:\n        /* \"#utility.yul\":1920:1944   */\n      tag_364\n        /* \"#utility.yul\":1938:1943   */\n      dup2\n        /* \"#utility.yul\":1920:1944   */\n      tag_270\n      jump\t// in\n    tag_364:\n        /* \"#utility.yul\":1913:1918   */\n      dup2\n        /* \"#utility.yul\":1910:1945   */\n      eq\n        /* \"#utility.yul\":1900:1963   */\n      tag_365\n      jumpi\n        /* \"#utility.yul\":1959:1960   */\n      0x00\n        /* \"#utility.yul\":1956:1957   */\n      dup1\n        /* \"#utility.yul\":1949:1961   */\n      revert\n        /* \"#utility.yul\":1900:1963   */\n    tag_365:\n        /* \"#utility.yul\":1847:1969   */\n      pop\n      jump\t// out\n        /* \"#utility.yul\":1975:2114   */\n    tag_272:\n        /* \"#utility.yul\":2021:2026   */\n      0x00\n        /* \"#utility.yul\":2059:2065   */\n      dup2\n        /* \"#utility.yul\":2046:2066   */\n      calldataload\n        /* \"#utility.yul\":2037:2066   */\n      swap1\n      pop\n        /* \"#utility.yul\":2075:2108   */\n      tag_367\n        /* \"#utility.yul\":2102:2107   */\n      dup2\n        /* \"#utility.yul\":2075:2108   */\n      tag_271\n      jump\t// in\n    tag_367:\n        /* \"#utility.yul\":1975:2114   */\n      swap3\n      swap2\n      pop\n      pop\n      jump\t// out\n        /* \"#utility.yul\":2137:2847   */\n    tag_273:\n        /* \"#utility.yul\":2233:2238   */\n      0x00\n        /* \"#utility.yul\":2258:2339   */\n      tag_369\n        /* \"#utility.yul\":2274:2338   */\n      tag_370\n        /* \"#utility.yul\":2331:2337   */\n      dup5\n        /* \"#utility.yul\":2274:2338   */\n      tag_267\n      jump\t// in\n    tag_370:\n        /* \"#utility.yul\":2258:2339   */\n      tag_266\n      jump\t// in\n    tag_369:\n        /* \"#utility.yul\":2249:2339   */\n      swap1\n      pop\n        /* \"#utility.yul\":2359:2364   */\n      dup1\n        /* \"#utility.yul\":2388:2394   */\n      dup4\n        /* \"#utility.yul\":2381:2386   */\n      dup3\n        /* \"#utility.yul\":2374:2395   */\n      mstore\n        /* \"#utility.yul\":2422:2426   */\n      0x20\n        /* \"#utility.yul\":2415:2420   */\n      dup3\n        /* \"#utility.yul\":2411:2427   */\n      add\n        /* \"#utility.yul\":2404:2427   */\n      swap1\n      pop\n        /* \"#utility.yul\":2475:2479   */\n      0x20\n        /* \"#utility.yul\":2467:2473   */\n      dup5\n        /* \"#utility.yul\":2463:2480   */\n      mul\n        /* \"#utility.yul\":2455:2461   */\n      dup4\n        /* \"#utility.yul\":2451:2481   */\n      add\n        /* \"#utility.yul\":2504:2507   */\n      dup6\n        /* \"#utility.yul\":2496:2502   */\n      dup2\n        /* \"#utility.yul\":2493:2508   */\n      gt\n        /* \"#utility.yul\":2490:2612   */\n      iszero\n      tag_371\n      jumpi\n        /* \"#utility.yul\":2523:2602   */\n      tag_372\n      tag_268\n      jump\t// in\n    tag_372:\n        /* \"#utility.yul\":2490:2612   */\n    tag_371:\n        /* \"#utility.yul\":2638:2644   */\n      dup4\n        /* \"#utility.yul\":2621:2841   */\n    tag_373:\n        /* \"#utility.yul\":2655:2661   */\n      dup2\n        /* \"#utility.yul\":2650:2653   */\n      dup2\n        /* \"#utility.yul\":2647:2662   */\n      lt\n        /* \"#utility.yul\":2621:2841   */\n      iszero\n      tag_375\n      jumpi\n        /* \"#utility.yul\":2730:2733   */\n      dup1\n        /* \"#utility.yul\":2759:2796   */\n      tag_376\n        /* \"#utility.yul\":2792:2795   */\n      dup9\n        /* \"#utility.yul\":2780:2790   */\n      dup3\n        /* \"#utility.yul\":2759:2796   */\n      tag_272\n      jump\t// in\n    tag_376:\n        /* \"#utility.yul\":2754:2757   */\n      dup5\n        /* \"#utility.yul\":2747:2797   */\n      mstore\n        /* \"#utility.yul\":2826:2830   */\n      0x20\n        /* \"#utility.yul\":2821:2824   */\n      dup5\n        /* \"#utility.yul\":2817:2831   */\n      add\n        /* \"#utility.yul\":2810:2831   */\n      swap4\n      pop\n        /* \"#utility.yul\":2697:2841   */\n      pop\n        /* \"#utility.yul\":2681:2685   */\n      0x20\n        /* \"#utility.yul\":2676:2679   */\n      dup2\n        /* \"#utility.yul\":2672:2686   */\n      add\n        /* \"#utility.yul\":2665:2686   */\n      swap1\n      pop\n        /* \"#utility.yul\":2621:2841   */\n      jump(tag_373)\n    tag_375:\n        /* \"#utility.yul\":2625:2646   */\n      pop\n        /* \"#utility.yul\":2239:2847   */\n      pop\n      pop\n        /* \"#utility.yul\":2137:2847   */\n      swap4\n      swap3\n      pop\n      pop\n      pop\n      jump\t// out\n        /* \"#utility.yul\":2870:3240   */\n    tag_274:\n        /* \"#utility.yul\":2941:2946   */\n      0x00\n        /* \"#utility.yul\":2990:2993   */\n      dup3\n        /* \"#utility.yul\":2983:2987   */\n      0x1f\n        /* \"#utility.yul\":2975:2981   */\n      dup4\n        /* \"#utility.yul\":2971:2988   */\n      add\n        /* \"#utility.yul\":2967:2994   */\n      slt\n        /* \"#utility.yul\":2957:3079   */\n      tag_378\n      jumpi\n        /* \"#utility.yul\":2998:3077   */\n      tag_379\n      tag_263\n      jump\t// in\n    tag_379:\n        /* \"#utility.yul\":2957:3079   */\n    tag_378:\n        /* \"#utility.yul\":3115:3121   */\n      dup2\n        /* \"#utility.yul\":3102:3122   */\n      calldataload\n        /* \"#utility.yul\":3140:3234   */\n      tag_380\n        /* \"#utility.yul\":3230:3233   */\n      dup5\n        /* \"#utility.yul\":3222:3228   */\n      dup3\n        /* \"#utility.yul\":3215:3219   */\n      0x20\n        /* \"#utility.yul\":3207:3213   */\n      dup7\n        /* \"#utility.yul\":3203:3220   */\n      add\n        /* \"#utility.yul\":3140:3234   */\n      tag_273\n      jump\t// in\n    tag_380:\n        /* \"#utility.yul\":3131:3234   */\n      swap2\n      pop\n        /* \"#utility.yul\":2947:3240   */\n      pop\n        /* \"#utility.yul\":2870:3240   */\n      swap3\n      swap2\n      pop\n      pop\n      jump\t// out\n        /* \"#utility.yul\":3246:3363   */\n    tag_275:\n        /* \"#utility.yul\":3355:3356   */\n      0x00\n        /* \"#utility.yul\":3352:3353   */\n      dup1\n        /* \"#utility.yul\":3345:3357   */\n      revert\n        /* \"#utility.yul\":3369:3676   */\n    tag_276:\n        /* \"#utility.yul\":3430:3434   */\n      0x00\n        /* \"#utility.yul\":3520:3538   */\n      0xffffffffffffffff\n        /* \"#utility.yul\":3512:3518   */\n      dup3\n        /* \"#utility.yul\":3509:3539   */\n      gt\n        /* \"#utility.yul\":3506:3562   */\n      iszero\n      tag_383\n      jumpi\n        /* \"#utility.yul\":3542:3560   */\n      tag_384\n      tag_148\n      jump\t// in\n    tag_384:\n        /* \"#utility.yul\":3506:3562   */\n    tag_383:\n        /* \"#utility.yul\":3580:3609   */\n      tag_385\n        /* \"#utility.yul\":3602:3608   */\n      dup3\n        /* \"#utility.yul\":3580:3609   */\n      tag_264\n      jump\t// in\n    tag_385:\n        /* \"#utility.yul\":3572:3609   */\n      swap1\n      pop\n        /* \"#utility.yul\":3664:3668   */\n      0x20\n        /* \"#utility.yul\":3658:3662   */\n      dup2\n        /* \"#utility.yul\":3654:3669   */\n      add\n        /* \"#utility.yul\":3646:3669   */\n      swap1\n      pop\n        /* \"#utility.yul\":3369:3676   */\n      swap2\n      swap1\n      pop\n      jump\t// out\n        /* \"#utility.yul\":3682:3828   */\n    tag_277:\n        /* \"#utility.yul\":3779:3785   */\n      dup3\n        /* \"#utility.yul\":3774:3777   */\n      dup2\n        /* \"#utility.yul\":3769:3772   */\n      dup4\n        /* \"#utility.yul\":3756:3786   */\n      calldatacopy\n        /* \"#utility.yul\":3820:3821   */\n      0x00\n        /* \"#utility.yul\":3811:3817   */\n      dup4\n        /* \"#utility.yul\":3806:3809   */\n      dup4\n        /* \"#utility.yul\":3802:3818   */\n      add\n        /* \"#utility.yul\":3795:3822   */\n      mstore\n        /* \"#utility.yul\":3682:3828   */\n      pop\n      pop\n      pop\n      jump\t// out\n        /* \"#utility.yul\":3834:4257   */\n    tag_278:\n        /* \"#utility.yul\":3911:3916   */\n      0x00\n        /* \"#utility.yul\":3936:4001   */\n      tag_388\n        /* \"#utility.yul\":3952:4000   */\n      tag_389\n        /* \"#utility.yul\":3993:3999   */\n      dup5\n        /* \"#utility.yul\":3952:4000   */\n      tag_276\n      jump\t// in\n    tag_389:\n        /* \"#utility.yul\":3936:4001   */\n      tag_266\n      jump\t// in\n    tag_388:\n        /* \"#utility.yul\":3927:4001   */\n      swap1\n      pop\n        /* \"#utility.yul\":4024:4030   */\n      dup3\n        /* \"#utility.yul\":4017:4022   */\n      dup2\n        /* \"#utility.yul\":4010:4031   */\n      mstore\n        /* \"#utility.yul\":4062:4066   */\n      0x20\n        /* \"#utility.yul\":4055:4060   */\n      dup2\n        /* \"#utility.yul\":4051:4067   */\n      add\n        /* \"#utility.yul\":4100:4103   */\n      dup5\n        /* \"#utility.yul\":4091:4097   */\n      dup5\n        /* \"#utility.yul\":4086:4089   */\n      dup5\n        /* \"#utility.yul\":4082:4098   */\n      add\n        /* \"#utility.yul\":4079:4104   */\n      gt\n        /* \"#utility.yul\":4076:4188   */\n      iszero\n      tag_390\n      jumpi\n        /* \"#utility.yul\":4107:4186   */\n      tag_391\n      tag_275\n      jump\t// in\n    tag_391:\n        /* \"#utility.yul\":4076:4188   */\n    tag_390:\n        /* \"#utility.yul\":4197:4251   */\n      tag_392\n        /* \"#utility.yul\":4244:4250   */\n      dup5\n        /* \"#utility.yul\":4239:4242   */\n      dup3\n        /* \"#utility.yul\":4234:4237   */\n      dup6\n        /* \"#utility.yul\":4197:4251   */\n      tag_277\n      jump\t// in\n    tag_392:\n        /* \"#utility.yul\":3917:4257   */\n      pop\n        /* \"#utility.yul\":3834:4257   */\n      swap4\n      swap3\n      pop\n      pop\n      pop\n      jump\t// out\n        /* \"#utility.yul\":4276:4614   */\n    tag_279:\n        /* \"#utility.yul\":4331:4336   */\n      0x00\n        /* \"#utility.yul\":4380:4383   */\n      dup3\n        /* \"#utility.yul\":4373:4377   */\n      0x1f\n        /* \"#utility.yul\":4365:4371   */\n      dup4\n        /* \"#utility.yul\":4361:4378   */\n      add\n        /* \"#utility.yul\":4357:4384   */\n      slt\n        /* \"#utility.yul\":4347:4469   */\n      tag_394\n      jumpi\n        /* \"#utility.yul\":4388:4467   */\n      tag_395\n      tag_263\n      jump\t// in\n    tag_395:\n        /* \"#utility.yul\":4347:4469   */\n    tag_394:\n        /* \"#utility.yul\":4505:4511   */\n      dup2\n        /* \"#utility.yul\":4492:4512   */\n      calldataload\n        /* \"#utility.yul\":4530:4608   */\n      tag_396\n        /* \"#utility.yul\":4604:4607   */\n      dup5\n        /* \"#utility.yul\":4596:4602   */\n      dup3\n        /* \"#utility.yul\":4589:4593   */\n      0x20\n        /* \"#utility.yul\":4581:4587   */\n      dup7\n        /* \"#utility.yul\":4577:4594   */\n      add\n        /* \"#utility.yul\":4530:4608   */\n      tag_278\n      jump\t// in\n    tag_396:\n        /* \"#utility.yul\":4521:4608   */\n      swap2\n      pop\n        /* \"#utility.yul\":4337:4614   */\n      pop\n        /* \"#utility.yul\":4276:4614   */\n      swap3\n      swap2\n      pop\n      pop\n      jump\t// out\n        /* \"#utility.yul\":4620:5627   */\n    tag_27:\n        /* \"#utility.yul\":4731:4737   */\n      0x00\n        /* \"#utility.yul\":4739:4745   */\n      dup1\n        /* \"#utility.yul\":4747:4753   */\n      0x00\n        /* \"#utility.yul\":4796:4798   */\n      0x60\n        /* \"#utility.yul\":4784:4793   */\n      dup5\n        /* \"#utility.yul\":4775:4782   */\n      dup7\n        /* \"#utility.yul\":4771:4794   */\n      sub\n        /* \"#utility.yul\":4767:4799   */\n      slt\n        /* \"#utility.yul\":4764:4883   */\n      iszero\n      tag_398\n      jumpi\n        /* \"#utility.yul\":4802:4881   */\n      tag_399\n      tag_261\n      jump\t// in\n    tag_399:\n        /* \"#utility.yul\":4764:4883   */\n    tag_398:\n        /* \"#utility.yul\":4950:4951   */\n      0x00\n        /* \"#utility.yul\":4939:4948   */\n      dup5\n        /* \"#utility.yul\":4935:4952   */\n      add\n        /* \"#utility.yul\":4922:4953   */\n      calldataload\n        /* \"#utility.yul\":4980:4998   */\n      0xffffffffffffffff\n        /* \"#utility.yul\":4972:4978   */\n      dup2\n        /* \"#utility.yul\":4969:4999   */\n      gt\n        /* \"#utility.yul\":4966:5083   */\n      iszero\n      tag_400\n      jumpi\n        /* \"#utility.yul\":5002:5081   */\n      tag_401\n      tag_262\n      jump\t// in\n    tag_401:\n        /* \"#utility.yul\":4966:5083   */\n    tag_400:\n        /* \"#utility.yul\":5107:5185   */\n      tag_402\n        /* \"#utility.yul\":5177:5184   */\n      dup7\n        /* \"#utility.yul\":5168:5174   */\n      dup3\n        /* \"#utility.yul\":5157:5166   */\n      dup8\n        /* \"#utility.yul\":5153:5175   */\n      add\n        /* \"#utility.yul\":5107:5185   */\n      tag_274\n      jump\t// in\n    tag_402:\n        /* \"#utility.yul\":5097:5185   */\n      swap4\n      pop\n        /* \"#utility.yul\":4893:5195   */\n      pop\n        /* \"#utility.yul\":5262:5264   */\n      0x20\n        /* \"#utility.yul\":5251:5260   */\n      dup5\n        /* \"#utility.yul\":5247:5265   */\n      add\n        /* \"#utility.yul\":5234:5266   */\n      calldataload\n        /* \"#utility.yul\":5293:5311   */\n      0xffffffffffffffff\n        /* \"#utility.yul\":5285:5291   */\n      dup2\n        /* \"#utility.yul\":5282:5312   */\n      gt\n        /* \"#utility.yul\":5279:5396   */\n      iszero\n      tag_403\n      jumpi\n        /* \"#utility.yul\":5315:5394   */\n      tag_404\n      tag_262\n      jump\t// in\n    tag_404:\n        /* \"#utility.yul\":5279:5396   */\n    tag_403:\n        /* \"#utility.yul\":5420:5482   */\n      tag_405\n        /* \"#utility.yul\":5474:5481   */\n      dup7\n        /* \"#utility.yul\":5465:5471   */\n      dup3\n        /* \"#utility.yul\":5454:5463   */\n      dup8\n        /* \"#utility.yul\":5450:5472   */\n      add\n        /* \"#utility.yul\":5420:5482   */\n      tag_279\n      jump\t// in\n    tag_405:\n        /* \"#utility.yul\":5410:5482   */\n      swap3\n      pop\n        /* \"#utility.yul\":5205:5492   */\n      pop\n        /* \"#utility.yul\":5531:5533   */\n      0x40\n        /* \"#utility.yul\":5557:5610   */\n      tag_406\n        /* \"#utility.yul\":5602:5609   */\n      dup7\n        /* \"#utility.yul\":5593:5599   */\n      dup3\n        /* \"#utility.yul\":5582:5591   */\n      dup8\n        /* \"#utility.yul\":5578:5600   */\n      add\n        /* \"#utility.yul\":5557:5610   */\n      tag_272\n      jump\t// in\n    tag_406:\n        /* \"#utility.yul\":5547:5610   */\n      swap2\n      pop\n        /* \"#utility.yul\":5502:5620   */\n      pop\n        /* \"#utility.yul\":4620:5627   */\n      swap3\n      pop\n      swap3\n      pop\n      swap3\n      jump\t// out\n        /* \"#utility.yul\":5633:5693   */\n    tag_280:\n        /* \"#utility.yul\":5661:5664   */\n      0x00\n        /* \"#utility.yul\":5682:5687   */\n      dup2\n        /* \"#utility.yul\":5675:5687   */\n      swap1\n      pop\n        /* \"#utility.yul\":5633:5693   */\n      swap2\n      swap1\n      pop\n      jump\t// out\n        /* \"#utility.yul\":5699:5841   */\n    tag_281:\n        /* \"#utility.yul\":5749:5758   */\n      0x00\n        /* \"#utility.yul\":5782:5835   */\n      tag_409\n        /* \"#utility.yul\":5800:5834   */\n      tag_410\n        /* \"#utility.yul\":5809:5833   */\n      tag_411\n        /* \"#utility.yul\":5827:5832   */\n      dup5\n        /* \"#utility.yul\":5809:5833   */\n      tag_269\n      jump\t// in\n    tag_411:\n        /* \"#utility.yul\":5800:5834   */\n      tag_280\n      jump\t// in\n    tag_410:\n        /* \"#utility.yul\":5782:5835   */\n      tag_269\n      jump\t// in\n    tag_409:\n        /* \"#utility.yul\":5769:5835   */\n      swap1\n      pop\n        /* \"#utility.yul\":5699:5841   */\n      swap2\n      swap1\n      pop\n      jump\t// out\n        /* \"#utility.yul\":5847:5973   */\n    tag_282:\n        /* \"#utility.yul\":5897:5906   */\n      0x00\n        /* \"#utility.yul\":5930:5967   */\n      tag_413\n        /* \"#utility.yul\":5961:5966   */\n      dup3\n        /* \"#utility.yul\":5930:5967   */\n      tag_281\n      jump\t// in\n    tag_413:\n        /* \"#utility.yul\":5917:5967   */\n      swap1\n      pop\n        /* \"#utility.yul\":5847:5973   */\n      swap2\n      swap1\n      pop\n      jump\t// out\n        /* \"#utility.yul\":5979:6118   */\n    tag_283:\n        /* \"#utility.yul\":6042:6051   */\n      0x00\n        /* \"#utility.yul\":6075:6112   */\n      tag_415\n        /* \"#utility.yul\":6106:6111   */\n      dup3\n        /* \"#utility.yul\":6075:6112   */\n      tag_282\n      jump\t// in\n    tag_415:\n        /* \"#utility.yul\":6062:6112   */\n      swap1\n      pop\n        /* \"#utility.yul\":5979:6118   */\n      swap2\n      swap1\n      pop\n      jump\t// out\n        /* \"#utility.yul\":6124:6281   */\n    tag_284:\n        /* \"#utility.yul\":6224:6274   */\n      tag_417\n        /* \"#utility.yul\":6268:6273   */\n      dup2\n        /* \"#utility.yul\":6224:6274   */\n      tag_283\n      jump\t// in\n    tag_417:\n        /* \"#utility.yul\":6219:6222   */\n      dup3\n        /* \"#utility.yul\":6212:6275   */\n      mstore\n        /* \"#utility.yul\":6124:6281   */\n      pop\n      pop\n      jump\t// out\n        /* \"#utility.yul\":6287:6535   */\n    tag_33:\n        /* \"#utility.yul\":6393:6397   */\n      0x00\n        /* \"#utility.yul\":6431:6433   */\n      0x20\n        /* \"#utility.yul\":6420:6429   */\n      dup3\n        /* \"#utility.yul\":6416:6434   */\n      add\n        /* \"#utility.yul\":6408:6434   */\n      swap1\n      pop\n        /* \"#utility.yul\":6444:6528   */\n      tag_419\n        /* \"#utility.yul\":6525:6526   */\n      0x00\n        /* \"#utility.yul\":6514:6523   */\n      dup4\n        /* \"#utility.yul\":6510:6527   */\n      add\n        /* \"#utility.yul\":6501:6507   */\n      dup5\n        /* \"#utility.yul\":6444:6528   */\n      tag_284\n      jump\t// in\n    tag_419:\n        /* \"#utility.yul\":6287:6535   */\n      swap3\n      swap2\n      pop\n      pop\n      jump\t// out\n        /* \"#utility.yul\":6541:7193   */\n    tag_36:\n        /* \"#utility.yul\":6618:6624   */\n      0x00\n        /* \"#utility.yul\":6626:6632   */\n      dup1\n        /* \"#utility.yul\":6675:6677   */\n      0x40\n        /* \"#utility.yul\":6663:6672   */\n      dup4\n        /* \"#utility.yul\":6654:6661   */\n      dup6\n        /* \"#utility.yul\":6650:6673   */\n      sub\n        /* \"#utility.yul\":6646:6678   */\n      slt\n        /* \"#utility.yul\":6643:6762   */\n      iszero\n      tag_421\n      jumpi\n        /* \"#utility.yul\":6681:6760   */\n      tag_422\n      tag_261\n      jump\t// in\n    tag_422:\n        /* \"#utility.yul\":6643:6762   */\n    tag_421:\n        /* \"#utility.yul\":6829:6830   */\n      0x00\n        /* \"#utility.yul\":6818:6827   */\n      dup4\n        /* \"#utility.yul\":6814:6831   */\n      add\n        /* \"#utility.yul\":6801:6832   */\n      calldataload\n        /* \"#utility.yul\":6859:6877   */\n      0xffffffffffffffff\n        /* \"#utility.yul\":6851:6857   */\n      dup2\n        /* \"#utility.yul\":6848:6878   */\n      gt\n        /* \"#utility.yul\":6845:6962   */\n      iszero\n      tag_423\n      jumpi\n        /* \"#utility.yul\":6881:6960   */\n      tag_424\n      tag_262\n      jump\t// in\n    tag_424:\n        /* \"#utility.yul\":6845:6962   */\n    tag_423:\n        /* \"#utility.yul\":6986:7048   */\n      tag_425\n        /* \"#utility.yul\":7040:7047   */\n      dup6\n        /* \"#utility.yul\":7031:7037   */\n      dup3\n        /* \"#utility.yul\":7020:7029   */\n      dup7\n        /* \"#utility.yul\":7016:7038   */\n      add\n        /* \"#utility.yul\":6986:7048   */\n      tag_279\n      jump\t// in\n    tag_425:\n        /* \"#utility.yul\":6976:7048   */\n      swap3\n      pop\n        /* \"#utility.yul\":6772:7058   */\n      pop\n        /* \"#utility.yul\":7097:7099   */\n      0x20\n        /* \"#utility.yul\":7123:7176   */\n      tag_426\n        /* \"#utility.yul\":7168:7175   */\n      dup6\n        /* \"#utility.yul\":7159:7165   */\n      dup3\n        /* \"#utility.yul\":7148:7157   */\n      dup7\n        /* \"#utility.yul\":7144:7166   */\n      add\n        /* \"#utility.yul\":7123:7176   */\n      tag_272\n      jump\t// in\n    tag_426:\n        /* \"#utility.yul\":7113:7176   */\n      swap2\n      pop\n        /* \"#utility.yul\":7068:7186   */\n      pop\n        /* \"#utility.yul\":6541:7193   */\n      swap3\n      pop\n      swap3\n      swap1\n      pop\n      jump\t// out\n        /* \"#utility.yul\":7199:7317   */\n    tag_285:\n        /* \"#utility.yul\":7286:7310   */\n      tag_428\n        /* \"#utility.yul\":7304:7309   */\n      dup2\n        /* \"#utility.yul\":7286:7310   */\n      tag_270\n      jump\t// in\n    tag_428:\n        /* \"#utility.yul\":7281:7284   */\n      dup3\n        /* \"#utility.yul\":7274:7311   */\n      mstore\n        /* \"#utility.yul\":7199:7317   */\n      pop\n      pop\n      jump\t// out\n        /* \"#utility.yul\":7323:7545   */\n    tag_39:\n        /* \"#utility.yul\":7416:7420   */\n      0x00\n        /* \"#utility.yul\":7454:7456   */\n      0x20\n        /* \"#utility.yul\":7443:7452   */\n      dup3\n        /* \"#utility.yul\":7439:7457   */\n      add\n        /* \"#utility.yul\":7431:7457   */\n      swap1\n      pop\n        /* \"#utility.yul\":7467:7538   */\n      tag_430\n        /* \"#utility.yul\":7535:7536   */\n      0x00\n        /* \"#utility.yul\":7524:7533   */\n      dup4\n        /* \"#utility.yul\":7520:7537   */\n      add\n        /* \"#utility.yul\":7511:7517   */\n      dup5\n        /* \"#utility.yul\":7467:7538   */\n      tag_285\n      jump\t// in\n    tag_430:\n        /* \"#utility.yul\":7323:7545   */\n      swap3\n      swap2\n      pop\n      pop\n      jump\t// out\n        /* \"#utility.yul\":7551:7628   */\n    tag_286:\n        /* \"#utility.yul\":7588:7595   */\n      0x00\n        /* \"#utility.yul\":7617:7622   */\n      dup2\n        /* \"#utility.yul\":7606:7622   */\n      swap1\n      pop\n        /* \"#utility.yul\":7551:7628   */\n      swap2\n      swap1\n      pop\n      jump\t// out\n        /* \"#utility.yul\":7634:7752   */\n    tag_287:\n        /* \"#utility.yul\":7721:7745   */\n      tag_433\n        /* \"#utility.yul\":7739:7744   */\n      dup2\n        /* \"#utility.yul\":7721:7745   */\n      tag_286\n      jump\t// in\n    tag_433:\n        /* \"#utility.yul\":7716:7719   */\n      dup3\n        /* \"#utility.yul\":7709:7746   */\n      mstore\n        /* \"#utility.yul\":7634:7752   */\n      pop\n      pop\n      jump\t// out\n        /* \"#utility.yul\":7758:7980   */\n    tag_44:\n        /* \"#utility.yul\":7851:7855   */\n      0x00\n        /* \"#utility.yul\":7889:7891   */\n      0x20\n        /* \"#utility.yul\":7878:7887   */\n      dup3\n        /* \"#utility.yul\":7874:7892   */\n      add\n        /* \"#utility.yul\":7866:7892   */\n      swap1\n      pop\n        /* \"#utility.yul\":7902:7973   */\n      tag_435\n        /* \"#utility.yul\":7970:7971   */\n      0x00\n        /* \"#utility.yul\":7959:7968   */\n      dup4\n        /* \"#utility.yul\":7955:7972   */\n      add\n        /* \"#utility.yul\":7946:7952   */\n      dup5\n        /* \"#utility.yul\":7902:7973   */\n      tag_287\n      jump\t// in\n    tag_435:\n        /* \"#utility.yul\":7758:7980   */\n      swap3\n      swap2\n      pop\n      pop\n      jump\t// out\n        /* \"#utility.yul\":7986:8063   */\n    tag_288:\n        /* \"#utility.yul\":8023:8030   */\n      0x00\n        /* \"#utility.yul\":8052:8057   */\n      dup2\n        /* \"#utility.yul\":8041:8057   */\n      swap1\n      pop\n        /* \"#utility.yul\":7986:8063   */\n      swap2\n      swap1\n      pop\n      jump\t// out\n        /* \"#utility.yul\":8069:8187   */\n    tag_289:\n        /* \"#utility.yul\":8156:8180   */\n      tag_438\n        /* \"#utility.yul\":8174:8179   */\n      dup2\n        /* \"#utility.yul\":8156:8180   */\n      tag_288\n      jump\t// in\n    tag_438:\n        /* \"#utility.yul\":8151:8154   */\n      dup3\n        /* \"#utility.yul\":8144:8181   */\n      mstore\n        /* \"#utility.yul\":8069:8187   */\n      pop\n      pop\n      jump\t// out\n        /* \"#utility.yul\":8193:8415   */\n    tag_49:\n        /* \"#utility.yul\":8286:8290   */\n      0x00\n        /* \"#utility.yul\":8324:8326   */\n      0x20\n        /* \"#utility.yul\":8313:8322   */\n      dup3\n        /* \"#utility.yul\":8309:8327   */\n      add\n        /* \"#utility.yul\":8301:8327   */\n      swap1\n      pop\n        /* \"#utility.yul\":8337:8408   */\n      tag_440\n        /* \"#utility.yul\":8405:8406   */\n      0x00\n        /* \"#utility.yul\":8394:8403   */\n      dup4\n        /* \"#utility.yul\":8390:8407   */\n      add\n        /* \"#utility.yul\":8381:8387   */\n      dup5\n        /* \"#utility.yul\":8337:8408   */\n      tag_289\n      jump\t// in\n    tag_440:\n        /* \"#utility.yul\":8193:8415   */\n      swap3\n      swap2\n      pop\n      pop\n      jump\t// out\n        /* \"#utility.yul\":8421:8732   */\n    tag_290:\n        /* \"#utility.yul\":8498:8502   */\n      0x00\n        /* \"#utility.yul\":8588:8606   */\n      0xffffffffffffffff\n        /* \"#utility.yul\":8580:8586   */\n      dup3\n        /* \"#utility.yul\":8577:8607   */\n      gt\n        /* \"#utility.yul\":8574:8630   */\n      iszero\n      tag_442\n      jumpi\n        /* \"#utility.yul\":8610:8628   */\n      tag_443\n      tag_148\n      jump\t// in\n    tag_443:\n        /* \"#utility.yul\":8574:8630   */\n    tag_442:\n        /* \"#utility.yul\":8660:8664   */\n      0x20\n        /* \"#utility.yul\":8652:8658   */\n      dup3\n        /* \"#utility.yul\":8648:8665   */\n      mul\n        /* \"#utility.yul\":8640:8665   */\n      swap1\n      pop\n        /* \"#utility.yul\":8720:8724   */\n      0x20\n        /* \"#utility.yul\":8714:8718   */\n      dup2\n        /* \"#utility.yul\":8710:8725   */\n      add\n        /* \"#utility.yul\":8702:8725   */\n      swap1\n      pop\n        /* \"#utility.yul\":8421:8732   */\n      swap2\n      swap1\n      pop\n      jump\t// out\n        /* \"#utility.yul\":8738:8860   */\n    tag_291:\n        /* \"#utility.yul\":8811:8835   */\n      tag_445\n        /* \"#utility.yul\":8829:8834   */\n      dup2\n        /* \"#utility.yul\":8811:8835   */\n      tag_286\n      jump\t// in\n    tag_445:\n        /* \"#utility.yul\":8804:8809   */\n      dup2\n        /* \"#utility.yul\":8801:8836   */\n      eq\n        /* \"#utility.yul\":8791:8854   */\n      tag_446\n      jumpi\n        /* \"#utility.yul\":8850:8851   */\n      0x00\n        /* \"#utility.yul\":8847:8848   */\n      dup1\n        /* \"#utility.yul\":8840:8852   */\n      revert\n        /* \"#utility.yul\":8791:8854   */\n    tag_446:\n        /* \"#utility.yul\":8738:8860   */\n      pop\n      jump\t// out\n        /* \"#utility.yul\":8866:9005   */\n    tag_292:\n        /* \"#utility.yul\":8912:8917   */\n      0x00\n        /* \"#utility.yul\":8950:8956   */\n      dup2\n        /* \"#utility.yul\":8937:8957   */\n      calldataload\n        /* \"#utility.yul\":8928:8957   */\n      swap1\n      pop\n        /* \"#utility.yul\":8966:8999   */\n      tag_448\n        /* \"#utility.yul\":8993:8998   */\n      dup2\n        /* \"#utility.yul\":8966:8999   */\n      tag_291\n      jump\t// in\n    tag_448:\n        /* \"#utility.yul\":8866:9005   */\n      swap3\n      swap2\n      pop\n      pop\n      jump\t// out\n        /* \"#utility.yul\":9028:9738   */\n    tag_293:\n        /* \"#utility.yul\":9124:9129   */\n      0x00\n        /* \"#utility.yul\":9149:9230   */\n      tag_450\n        /* \"#utility.yul\":9165:9229   */\n      tag_451\n        /* \"#utility.yul\":9222:9228   */\n      dup5\n        /* \"#utility.yul\":9165:9229   */\n      tag_290\n      jump\t// in\n    tag_451:\n        /* \"#utility.yul\":9149:9230   */\n      tag_266\n      jump\t// in\n    tag_450:\n        /* \"#utility.yul\":9140:9230   */\n      swap1\n      pop\n        /* \"#utility.yul\":9250:9255   */\n      dup1\n        /* \"#utility.yul\":9279:9285   */\n      dup4\n        /* \"#utility.yul\":9272:9277   */\n      dup3\n        /* \"#utility.yul\":9265:9286   */\n      mstore\n        /* \"#utility.yul\":9313:9317   */\n      0x20\n        /* \"#utility.yul\":9306:9311   */\n      dup3\n        /* \"#utility.yul\":9302:9318   */\n      add\n        /* \"#utility.yul\":9295:9318   */\n      swap1\n      pop\n        /* \"#utility.yul\":9366:9370   */\n      0x20\n        /* \"#utility.yul\":9358:9364   */\n      dup5\n        /* \"#utility.yul\":9354:9371   */\n      mul\n        /* \"#utility.yul\":9346:9352   */\n      dup4\n        /* \"#utility.yul\":9342:9372   */\n      add\n        /* \"#utility.yul\":9395:9398   */\n      dup6\n        /* \"#utility.yul\":9387:9393   */\n      dup2\n        /* \"#utility.yul\":9384:9399   */\n      gt\n        /* \"#utility.yul\":9381:9503   */\n      iszero\n      tag_452\n      jumpi\n        /* \"#utility.yul\":9414:9493   */\n      tag_453\n      tag_268\n      jump\t// in\n    tag_453:\n        /* \"#utility.yul\":9381:9503   */\n    tag_452:\n        /* \"#utility.yul\":9529:9535   */\n      dup4\n        /* \"#utility.yul\":9512:9732   */\n    tag_454:\n        /* \"#utility.yul\":9546:9552   */\n      dup2\n        /* \"#utility.yul\":9541:9544   */\n      dup2\n        /* \"#utility.yul\":9538:9553   */\n      lt\n        /* \"#utility.yul\":9512:9732   */\n      iszero\n      tag_456\n      jumpi\n        /* \"#utility.yul\":9621:9624   */\n      dup1\n        /* \"#utility.yul\":9650:9687   */\n      tag_457\n        /* \"#utility.yul\":9683:9686   */\n      dup9\n        /* \"#utility.yul\":9671:9681   */\n      dup3\n        /* \"#utility.yul\":9650:9687   */\n      tag_292\n      jump\t// in\n    tag_457:\n        /* \"#utility.yul\":9645:9648   */\n      dup5\n        /* \"#utility.yul\":9638:9688   */\n      mstore\n        /* \"#utility.yul\":9717:9721   */\n      0x20\n        /* \"#utility.yul\":9712:9715   */\n      dup5\n        /* \"#utility.yul\":9708:9722   */\n      add\n        /* \"#utility.yul\":9701:9722   */\n      swap4\n      pop\n        /* \"#utility.yul\":9588:9732   */\n      pop\n        /* \"#utility.yul\":9572:9576   */\n      0x20\n        /* \"#utility.yul\":9567:9570   */\n      dup2\n        /* \"#utility.yul\":9563:9577   */\n      add\n        /* \"#utility.yul\":9556:9577   */\n      swap1\n      pop\n        /* \"#utility.yul\":9512:9732   */\n      jump(tag_454)\n    tag_456:\n        /* \"#utility.yul\":9516:9537   */\n      pop\n        /* \"#utility.yul\":9130:9738   */\n      pop\n      pop\n        /* \"#utility.yul\":9028:9738   */\n      swap4\n      swap3\n      pop\n      pop\n      pop\n      jump\t// out\n        /* \"#utility.yul\":9761:10131   */\n    tag_294:\n        /* \"#utility.yul\":9832:9837   */\n      0x00\n        /* \"#utility.yul\":9881:9884   */\n      dup3\n        /* \"#utility.yul\":9874:9878   */\n      0x1f\n        /* \"#utility.yul\":9866:9872   */\n      dup4\n        /* \"#utility.yul\":9862:9879   */\n      add\n        /* \"#utility.yul\":9858:9885   */\n      slt\n        /* \"#utility.yul\":9848:9970   */\n      tag_459\n      jumpi\n        /* \"#utility.yul\":9889:9968   */\n      tag_460\n      tag_263\n      jump\t// in\n    tag_460:\n        /* \"#utility.yul\":9848:9970   */\n    tag_459:\n        /* \"#utility.yul\":10006:10012   */\n      dup2\n        /* \"#utility.yul\":9993:10013   */\n      calldataload\n        /* \"#utility.yul\":10031:10125   */\n      tag_461\n        /* \"#utility.yul\":10121:10124   */\n      dup5\n        /* \"#utility.yul\":10113:10119   */\n      dup3\n        /* \"#utility.yul\":10106:10110   */\n      0x20\n        /* \"#utility.yul\":10098:10104   */\n      dup7\n        /* \"#utility.yul\":10094:10111   */\n      add\n        /* \"#utility.yul\":10031:10125   */\n      tag_293\n      jump\t// in\n    tag_461:\n        /* \"#utility.yul\":10022:10125   */\n      swap2\n      pop\n        /* \"#utility.yul\":9838:10131   */\n      pop\n        /* \"#utility.yul\":9761:10131   */\n      swap3\n      swap2\n      pop\n      pop\n      jump\t// out\n        /* \"#utility.yul\":10137:11176   */\n    tag_53:\n        /* \"#utility.yul\":10264:10270   */\n      0x00\n        /* \"#utility.yul\":10272:10278   */\n      dup1\n        /* \"#utility.yul\":10280:10286   */\n      0x00\n        /* \"#utility.yul\":10329:10331   */\n      0x60\n        /* \"#utility.yul\":10317:10326   */\n      dup5\n        /* \"#utility.yul\":10308:10315   */\n      dup7\n        /* \"#utility.yul\":10304:10327   */\n      sub\n        /* \"#utility.yul\":10300:10332   */\n      slt\n        /* \"#utility.yul\":10297:10416   */\n      iszero\n      tag_463\n      jumpi\n        /* \"#utility.yul\":10335:10414   */\n      tag_464\n      tag_261\n      jump\t// in\n    tag_464:\n        /* \"#utility.yul\":10297:10416   */\n    tag_463:\n        /* \"#utility.yul\":10483:10484   */\n      0x00\n        /* \"#utility.yul\":10472:10481   */\n      dup5\n        /* \"#utility.yul\":10468:10485   */\n      add\n        /* \"#utility.yul\":10455:10486   */\n      calldataload\n        /* \"#utility.yul\":10513:10531   */\n      0xffffffffffffffff\n        /* \"#utility.yul\":10505:10511   */\n      dup2\n        /* \"#utility.yul\":10502:10532   */\n      gt\n        /* \"#utility.yul\":10499:10616   */\n      iszero\n      tag_465\n      jumpi\n        /* \"#utility.yul\":10535:10614   */\n      tag_466\n      tag_262\n      jump\t// in\n    tag_466:\n        /* \"#utility.yul\":10499:10616   */\n    tag_465:\n        /* \"#utility.yul\":10640:10718   */\n      tag_467\n        /* \"#utility.yul\":10710:10717   */\n      dup7\n        /* \"#utility.yul\":10701:10707   */\n      dup3\n        /* \"#utility.yul\":10690:10699   */\n      dup8\n        /* \"#utility.yul\":10686:10708   */\n      add\n        /* \"#utility.yul\":10640:10718   */\n      tag_274\n      jump\t// in\n    tag_467:\n        /* \"#utility.yul\":10630:10718   */\n      swap4\n      pop\n        /* \"#utility.yul\":10426:10728   */\n      pop\n        /* \"#utility.yul\":10795:10797   */\n      0x20\n        /* \"#utility.yul\":10784:10793   */\n      dup5\n        /* \"#utility.yul\":10780:10798   */\n      add\n        /* \"#utility.yul\":10767:10799   */\n      calldataload\n        /* \"#utility.yul\":10826:10844   */\n      0xffffffffffffffff\n        /* \"#utility.yul\":10818:10824   */\n      dup2\n        /* \"#utility.yul\":10815:10845   */\n      gt\n        /* \"#utility.yul\":10812:10929   */\n      iszero\n      tag_468\n      jumpi\n        /* \"#utility.yul\":10848:10927   */\n      tag_469\n      tag_262\n      jump\t// in\n    tag_469:\n        /* \"#utility.yul\":10812:10929   */\n    tag_468:\n        /* \"#utility.yul\":10953:11031   */\n      tag_470\n        /* \"#utility.yul\":11023:11030   */\n      dup7\n        /* \"#utility.yul\":11014:11020   */\n      dup3\n        /* \"#utility.yul\":11003:11012   */\n      dup8\n        /* \"#utility.yul\":10999:11021   */\n      add\n        /* \"#utility.yul\":10953:11031   */\n      tag_294\n      jump\t// in\n    tag_470:\n        /* \"#utility.yul\":10943:11031   */\n      swap3\n      pop\n        /* \"#utility.yul\":10738:11041   */\n      pop\n        /* \"#utility.yul\":11080:11082   */\n      0x40\n        /* \"#utility.yul\":11106:11159   */\n      tag_471\n        /* \"#utility.yul\":11151:11158   */\n      dup7\n        /* \"#utility.yul\":11142:11148   */\n      dup3\n        /* \"#utility.yul\":11131:11140   */\n      dup8\n        /* \"#utility.yul\":11127:11149   */\n      add\n        /* \"#utility.yul\":11106:11159   */\n      tag_272\n      jump\t// in\n    tag_471:\n        /* \"#utility.yul\":11096:11159   */\n      swap2\n      pop\n        /* \"#utility.yul\":11051:11169   */\n      pop\n        /* \"#utility.yul\":10137:11176   */\n      swap3\n      pop\n      swap3\n      pop\n      swap3\n      jump\t// out\n        /* \"#utility.yul\":11182:11511   */\n    tag_62:\n        /* \"#utility.yul\":11241:11247   */\n      0x00\n        /* \"#utility.yul\":11290:11292   */\n      0x20\n        /* \"#utility.yul\":11278:11287   */\n      dup3\n        /* \"#utility.yul\":11269:11276   */\n      dup5\n        /* \"#utility.yul\":11265:11288   */\n      sub\n        /* \"#utility.yul\":11261:11293   */\n      slt\n        /* \"#utility.yul\":11258:11377   */\n      iszero\n      tag_473\n      jumpi\n        /* \"#utility.yul\":11296:11375   */\n      tag_474\n      tag_261\n      jump\t// in\n    tag_474:\n        /* \"#utility.yul\":11258:11377   */\n    tag_473:\n        /* \"#utility.yul\":11416:11417   */\n      0x00\n        /* \"#utility.yul\":11441:11494   */\n      tag_475\n        /* \"#utility.yul\":11486:11493   */\n      dup5\n        /* \"#utility.yul\":11477:11483   */\n      dup3\n        /* \"#utility.yul\":11466:11475   */\n      dup6\n        /* \"#utility.yul\":11462:11484   */\n      add\n        /* \"#utility.yul\":11441:11494   */\n      tag_272\n      jump\t// in\n    tag_475:\n        /* \"#utility.yul\":11431:11494   */\n      swap2\n      pop\n        /* \"#utility.yul\":11387:11504   */\n      pop\n        /* \"#utility.yul\":11182:11511   */\n      swap3\n      swap2\n      pop\n      pop\n      jump\t// out\n        /* \"#utility.yul\":11517:11607   */\n    tag_295:\n        /* \"#utility.yul\":11551:11558   */\n      0x00\n        /* \"#utility.yul\":11594:11599   */\n      dup2\n        /* \"#utility.yul\":11587:11600   */\n      iszero\n        /* \"#utility.yul\":11580:11601   */\n      iszero\n        /* \"#utility.yul\":11569:11601   */\n      swap1\n      pop\n        /* \"#utility.yul\":11517:11607   */\n      swap2\n      swap1\n      pop\n      jump\t// out\n        /* \"#utility.yul\":11613:11722   */\n    tag_296:\n        /* \"#utility.yul\":11694:11715   */\n      tag_478\n        /* \"#utility.yul\":11709:11714   */\n      dup2\n        /* \"#utility.yul\":11694:11715   */\n      tag_295\n      jump\t// in\n    tag_478:\n        /* \"#utility.yul\":11689:11692   */\n      dup3\n        /* \"#utility.yul\":11682:11716   */\n      mstore\n        /* \"#utility.yul\":11613:11722   */\n      pop\n      pop\n      jump\t// out\n        /* \"#utility.yul\":11728:11938   */\n    tag_65:\n        /* \"#utility.yul\":11815:11819   */\n      0x00\n        /* \"#utility.yul\":11853:11855   */\n      0x20\n        /* \"#utility.yul\":11842:11851   */\n      dup3\n        /* \"#utility.yul\":11838:11856   */\n      add\n        /* \"#utility.yul\":11830:11856   */\n      swap1\n      pop\n        /* \"#utility.yul\":11866:11931   */\n      tag_480\n        /* \"#utility.yul\":11928:11929   */\n      0x00\n        /* \"#utility.yul\":11917:11926   */\n      dup4\n        /* \"#utility.yul\":11913:11930   */\n      add\n        /* \"#utility.yul\":11904:11910   */\n      dup5\n        /* \"#utility.yul\":11866:11931   */\n      tag_296\n      jump\t// in\n    tag_480:\n        /* \"#utility.yul\":11728:11938   */\n      swap3\n      swap2\n      pop\n      pop\n      jump\t// out\n        /* \"#utility.yul\":11944:12264   */\n    tag_297:\n        /* \"#utility.yul\":12030:12034   */\n      0x00\n        /* \"#utility.yul\":12120:12138   */\n      0xffffffffffffffff\n        /* \"#utility.yul\":12112:12118   */\n      dup3\n        /* \"#utility.yul\":12109:12139   */\n      gt\n        /* \"#utility.yul\":12106:12162   */\n      iszero\n      tag_482\n      jumpi\n        /* \"#utility.yul\":12142:12160   */\n      tag_483\n      tag_148\n      jump\t// in\n    tag_483:\n        /* \"#utility.yul\":12106:12162   */\n    tag_482:\n        /* \"#utility.yul\":12192:12196   */\n      0x20\n        /* \"#utility.yul\":12184:12190   */\n      dup3\n        /* \"#utility.yul\":12180:12197   */\n      mul\n        /* \"#utility.yul\":12172:12197   */\n      swap1\n      pop\n        /* \"#utility.yul\":12252:12256   */\n      0x20\n        /* \"#utility.yul\":12246:12250   */\n      dup2\n        /* \"#utility.yul\":12242:12257   */\n      add\n        /* \"#utility.yul\":12234:12257   */\n      swap1\n      pop\n        /* \"#utility.yul\":11944:12264   */\n      swap2\n      swap1\n      pop\n      jump\t// out\n        /* \"#utility.yul\":12285:13227   */\n    tag_298:\n        /* \"#utility.yul\":12390:12395   */\n      0x00\n        /* \"#utility.yul\":12415:12505   */\n      tag_485\n        /* \"#utility.yul\":12431:12504   */\n      tag_486\n        /* \"#utility.yul\":12497:12503   */\n      dup5\n        /* \"#utility.yul\":12431:12504   */\n      tag_297\n      jump\t// in\n    tag_486:\n        /* \"#utility.yul\":12415:12505   */\n      tag_266\n      jump\t// in\n    tag_485:\n        /* \"#utility.yul\":12406:12505   */\n      swap1\n      pop\n        /* \"#utility.yul\":12525:12530   */\n      dup1\n        /* \"#utility.yul\":12554:12560   */\n      dup4\n        /* \"#utility.yul\":12547:12552   */\n      dup3\n        /* \"#utility.yul\":12540:12561   */\n      mstore\n        /* \"#utility.yul\":12588:12592   */\n      0x20\n        /* \"#utility.yul\":12581:12586   */\n      dup3\n        /* \"#utility.yul\":12577:12593   */\n      add\n        /* \"#utility.yul\":12570:12593   */\n      swap1\n      pop\n        /* \"#utility.yul\":12641:12645   */\n      0x20\n        /* \"#utility.yul\":12633:12639   */\n      dup5\n        /* \"#utility.yul\":12629:12646   */\n      mul\n        /* \"#utility.yul\":12621:12627   */\n      dup4\n        /* \"#utility.yul\":12617:12647   */\n      add\n        /* \"#utility.yul\":12670:12673   */\n      dup6\n        /* \"#utility.yul\":12662:12668   */\n      dup2\n        /* \"#utility.yul\":12659:12674   */\n      gt\n        /* \"#utility.yul\":12656:12778   */\n      iszero\n      tag_487\n      jumpi\n        /* \"#utility.yul\":12689:12768   */\n      tag_488\n      tag_268\n      jump\t// in\n    tag_488:\n        /* \"#utility.yul\":12656:12778   */\n    tag_487:\n        /* \"#utility.yul\":12804:12810   */\n      dup4\n        /* \"#utility.yul\":12787:13221   */\n    tag_489:\n        /* \"#utility.yul\":12821:12827   */\n      dup2\n        /* \"#utility.yul\":12816:12819   */\n      dup2\n        /* \"#utility.yul\":12813:12828   */\n      lt\n        /* \"#utility.yul\":12787:13221   */\n      iszero\n      tag_491\n      jumpi\n        /* \"#utility.yul\":12910:12913   */\n      dup1\n        /* \"#utility.yul\":12897:12914   */\n      calldataload\n        /* \"#utility.yul\":12946:12964   */\n      0xffffffffffffffff\n        /* \"#utility.yul\":12933:12944   */\n      dup2\n        /* \"#utility.yul\":12930:12965   */\n      gt\n        /* \"#utility.yul\":12927:13049   */\n      iszero\n      tag_492\n      jumpi\n        /* \"#utility.yul\":12968:13047   */\n      tag_493\n      tag_263\n      jump\t// in\n    tag_493:\n        /* \"#utility.yul\":12927:13049   */\n    tag_492:\n        /* \"#utility.yul\":13092:13103   */\n      dup1\n        /* \"#utility.yul\":13084:13090   */\n      dup7\n        /* \"#utility.yul\":13080:13104   */\n      add\n        /* \"#utility.yul\":13130:13176   */\n      tag_494\n        /* \"#utility.yul\":13172:13175   */\n      dup10\n        /* \"#utility.yul\":13160:13170   */\n      dup3\n        /* \"#utility.yul\":13130:13176   */\n      tag_279\n      jump\t// in\n    tag_494:\n        /* \"#utility.yul\":13125:13128   */\n      dup6\n        /* \"#utility.yul\":13118:13177   */\n      mstore\n        /* \"#utility.yul\":13206:13210   */\n      0x20\n        /* \"#utility.yul\":13201:13204   */\n      dup6\n        /* \"#utility.yul\":13197:13211   */\n      add\n        /* \"#utility.yul\":13190:13211   */\n      swap5\n      pop\n        /* \"#utility.yul\":12863:13221   */\n      pop\n      pop\n        /* \"#utility.yul\":12847:12851   */\n      0x20\n        /* \"#utility.yul\":12842:12845   */\n      dup2\n        /* \"#utility.yul\":12838:12852   */\n      add\n        /* \"#utility.yul\":12831:12852   */\n      swap1\n      pop\n        /* \"#utility.yul\":12787:13221   */\n      jump(tag_489)\n    tag_491:\n        /* \"#utility.yul\":12791:12812   */\n      pop\n        /* \"#utility.yul\":12396:13227   */\n      pop\n      pop\n        /* \"#utility.yul\":12285:13227   */\n      swap4\n      swap3\n      pop\n      pop\n      pop\n      jump\t// out\n        /* \"#utility.yul\":13248:13636   */\n    tag_299:\n        /* \"#utility.yul\":13328:13333   */\n      0x00\n        /* \"#utility.yul\":13377:13380   */\n      dup3\n        /* \"#utility.yul\":13370:13374   */\n      0x1f\n        /* \"#utility.yul\":13362:13368   */\n      dup4\n        /* \"#utility.yul\":13358:13375   */\n      add\n        /* \"#utility.yul\":13354:13381   */\n      slt\n        /* \"#utility.yul\":13344:13466   */\n      tag_496\n      jumpi\n        /* \"#utility.yul\":13385:13464   */\n      tag_497\n      tag_263\n      jump\t// in\n    tag_497:\n        /* \"#utility.yul\":13344:13466   */\n    tag_496:\n        /* \"#utility.yul\":13502:13508   */\n      dup2\n        /* \"#utility.yul\":13489:13509   */\n      calldataload\n        /* \"#utility.yul\":13527:13630   */\n      tag_498\n        /* \"#utility.yul\":13626:13629   */\n      dup5\n        /* \"#utility.yul\":13618:13624   */\n      dup3\n        /* \"#utility.yul\":13611:13615   */\n      0x20\n        /* \"#utility.yul\":13603:13609   */\n      dup7\n        /* \"#utility.yul\":13599:13616   */\n      add\n        /* \"#utility.yul\":13527:13630   */\n      tag_298\n      jump\t// in\n    tag_498:\n        /* \"#utility.yul\":13518:13630   */\n      swap2\n      pop\n        /* \"#utility.yul\":13334:13636   */\n      pop\n        /* \"#utility.yul\":13248:13636   */\n      swap3\n      swap2\n      pop\n      pop\n      jump\t// out\n        /* \"#utility.yul\":13642:14554   */\n    tag_73:\n        /* \"#utility.yul\":13769:13775   */\n      0x00\n        /* \"#utility.yul\":13777:13783   */\n      dup1\n        /* \"#utility.yul\":13826:13828   */\n      0x40\n        /* \"#utility.yul\":13814:13823   */\n      dup4\n        /* \"#utility.yul\":13805:13812   */\n      dup6\n        /* \"#utility.yul\":13801:13824   */\n      sub\n        /* \"#utility.yul\":13797:13829   */\n      slt\n        /* \"#utility.yul\":13794:13913   */\n      iszero\n      tag_500\n      jumpi\n        /* \"#utility.yul\":13832:13911   */\n      tag_501\n      tag_261\n      jump\t// in\n    tag_501:\n        /* \"#utility.yul\":13794:13913   */\n    tag_500:\n        /* \"#utility.yul\":13980:13981   */\n      0x00\n        /* \"#utility.yul\":13969:13978   */\n      dup4\n        /* \"#utility.yul\":13965:13982   */\n      add\n        /* \"#utility.yul\":13952:13983   */\n      calldataload\n        /* \"#utility.yul\":14010:14028   */\n      0xffffffffffffffff\n        /* \"#utility.yul\":14002:14008   */\n      dup2\n        /* \"#utility.yul\":13999:14029   */\n      gt\n        /* \"#utility.yul\":13996:14113   */\n      iszero\n      tag_502\n      jumpi\n        /* \"#utility.yul\":14032:14111   */\n      tag_503\n      tag_262\n      jump\t// in\n    tag_503:\n        /* \"#utility.yul\":13996:14113   */\n    tag_502:\n        /* \"#utility.yul\":14137:14215   */\n      tag_504\n        /* \"#utility.yul\":14207:14214   */\n      dup6\n        /* \"#utility.yul\":14198:14204   */\n      dup3\n        /* \"#utility.yul\":14187:14196   */\n      dup7\n        /* \"#utility.yul\":14183:14205   */\n      add\n        /* \"#utility.yul\":14137:14215   */\n      tag_274\n      jump\t// in\n    tag_504:\n        /* \"#utility.yul\":14127:14215   */\n      swap3\n      pop\n        /* \"#utility.yul\":13923:14225   */\n      pop\n        /* \"#utility.yul\":14292:14294   */\n      0x20\n        /* \"#utility.yul\":14281:14290   */\n      dup4\n        /* \"#utility.yul\":14277:14295   */\n      add\n        /* \"#utility.yul\":14264:14296   */\n      calldataload\n        /* \"#utility.yul\":14323:14341   */\n      0xffffffffffffffff\n        /* \"#utility.yul\":14315:14321   */\n      dup2\n        /* \"#utility.yul\":14312:14342   */\n      gt\n        /* \"#utility.yul\":14309:14426   */\n      iszero\n      tag_505\n      jumpi\n        /* \"#utility.yul\":14345:14424   */\n      tag_506\n      tag_262\n      jump\t// in\n    tag_506:\n        /* \"#utility.yul\":14309:14426   */\n    tag_505:\n        /* \"#utility.yul\":14450:14537   */\n      tag_507\n        /* \"#utility.yul\":14529:14536   */\n      dup6\n        /* \"#utility.yul\":14520:14526   */\n      dup3\n        /* \"#utility.yul\":14509:14518   */\n      dup7\n        /* \"#utility.yul\":14505:14527   */\n      add\n        /* \"#utility.yul\":14450:14537   */\n      tag_299\n      jump\t// in\n    tag_507:\n        /* \"#utility.yul\":14440:14537   */\n      swap2\n      pop\n        /* \"#utility.yul\":14235:14547   */\n      pop\n        /* \"#utility.yul\":13642:14554   */\n      swap3\n      pop\n      swap3\n      swap1\n      pop\n      jump\t// out\n        /* \"#utility.yul\":14560:14704   */\n    tag_300:\n        /* \"#utility.yul\":14657:14663   */\n      0x00\n        /* \"#utility.yul\":14691:14696   */\n      dup2\n        /* \"#utility.yul\":14685:14697   */\n      mload\n        /* \"#utility.yul\":14675:14697   */\n      swap1\n      pop\n        /* \"#utility.yul\":14560:14704   */\n      swap2\n      swap1\n      pop\n      jump\t// out\n        /* \"#utility.yul\":14710:14924   */\n    tag_301:\n        /* \"#utility.yul\":14839:14850   */\n      0x00\n        /* \"#utility.yul\":14873:14879   */\n      dup3\n        /* \"#utility.yul\":14868:14871   */\n      dup3\n        /* \"#utility.yul\":14861:14880   */\n      mstore\n        /* \"#utility.yul\":14913:14917   */\n      0x20\n        /* \"#utility.yul\":14908:14911   */\n      dup3\n        /* \"#utility.yul\":14904:14918   */\n      add\n        /* \"#utility.yul\":14889:14918   */\n      swap1\n      pop\n        /* \"#utility.yul\":14710:14924   */\n      swap3\n      swap2\n      pop\n      pop\n      jump\t// out\n        /* \"#utility.yul\":14930:15092   */\n    tag_302:\n        /* \"#utility.yul\":15027:15031   */\n      0x00\n        /* \"#utility.yul\":15050:15053   */\n      dup2\n        /* \"#utility.yul\":15042:15053   */\n      swap1\n      pop\n        /* \"#utility.yul\":15080:15084   */\n      0x20\n        /* \"#utility.yul\":15075:15078   */\n      dup3\n        /* \"#utility.yul\":15071:15085   */\n      add\n        /* \"#utility.yul\":15063:15085   */\n      swap1\n      pop\n        /* \"#utility.yul\":14930:15092   */\n      swap2\n      swap1\n      pop\n      jump\t// out\n        /* \"#utility.yul\":15098:15206   */\n    tag_303:\n        /* \"#utility.yul\":15175:15199   */\n      tag_512\n        /* \"#utility.yul\":15193:15198   */\n      dup2\n        /* \"#utility.yul\":15175:15199   */\n      tag_270\n      jump\t// in\n    tag_512:\n        /* \"#utility.yul\":15170:15173   */\n      dup3\n        /* \"#utility.yul\":15163:15200   */\n      mstore\n        /* \"#utility.yul\":15098:15206   */\n      pop\n      pop\n      jump\t// out\n        /* \"#utility.yul\":15212:15320   */\n    tag_304:\n        /* \"#utility.yul\":15289:15313   */\n      tag_514\n        /* \"#utility.yul\":15307:15312   */\n      dup2\n        /* \"#utility.yul\":15289:15313   */\n      tag_286\n      jump\t// in\n    tag_514:\n        /* \"#utility.yul\":15284:15287   */\n      dup3\n        /* \"#utility.yul\":15277:15314   */\n      mstore\n        /* \"#utility.yul\":15212:15320   */\n      pop\n      pop\n      jump\t// out\n        /* \"#utility.yul\":15398:15919   */\n    tag_305:\n        /* \"#utility.yul\":15545:15549   */\n      0x40\n        /* \"#utility.yul\":15540:15543   */\n      dup3\n        /* \"#utility.yul\":15536:15550   */\n      add\n        /* \"#utility.yul\":15644:15648   */\n      0x00\n        /* \"#utility.yul\":15637:15642   */\n      dup3\n        /* \"#utility.yul\":15633:15649   */\n      add\n        /* \"#utility.yul\":15627:15650   */\n      mload\n        /* \"#utility.yul\":15663:15726   */\n      tag_516\n        /* \"#utility.yul\":15720:15724   */\n      0x00\n        /* \"#utility.yul\":15715:15718   */\n      dup6\n        /* \"#utility.yul\":15711:15725   */\n      add\n        /* \"#utility.yul\":15697:15709   */\n      dup3\n        /* \"#utility.yul\":15663:15726   */\n      tag_303\n      jump\t// in\n    tag_516:\n        /* \"#utility.yul\":15560:15736   */\n      pop\n        /* \"#utility.yul\":15820:15824   */\n      0x20\n        /* \"#utility.yul\":15813:15818   */\n      dup3\n        /* \"#utility.yul\":15809:15825   */\n      add\n        /* \"#utility.yul\":15803:15826   */\n      mload\n        /* \"#utility.yul\":15839:15902   */\n      tag_517\n        /* \"#utility.yul\":15896:15900   */\n      0x20\n        /* \"#utility.yul\":15891:15894   */\n      dup6\n        /* \"#utility.yul\":15887:15901   */\n      add\n        /* \"#utility.yul\":15873:15885   */\n      dup3\n        /* \"#utility.yul\":15839:15902   */\n      tag_304\n      jump\t// in\n    tag_517:\n        /* \"#utility.yul\":15746:15912   */\n      pop\n        /* \"#utility.yul\":15514:15919   */\n      pop\n        /* \"#utility.yul\":15398:15919   */\n      pop\n      pop\n      jump\t// out\n        /* \"#utility.yul\":15925:16224   */\n    tag_306:\n        /* \"#utility.yul\":16054:16064   */\n      0x00\n        /* \"#utility.yul\":16075:16181   */\n      tag_519\n        /* \"#utility.yul\":16177:16180   */\n      dup4\n        /* \"#utility.yul\":16169:16175   */\n      dup4\n        /* \"#utility.yul\":16075:16181   */\n      tag_305\n      jump\t// in\n    tag_519:\n        /* \"#utility.yul\":16213:16217   */\n      0x40\n        /* \"#utility.yul\":16208:16211   */\n      dup4\n        /* \"#utility.yul\":16204:16218   */\n      add\n        /* \"#utility.yul\":16190:16218   */\n      swap1\n      pop\n        /* \"#utility.yul\":15925:16224   */\n      swap3\n      swap2\n      pop\n      pop\n      jump\t// out\n        /* \"#utility.yul\":16230:16373   */\n    tag_307:\n        /* \"#utility.yul\":16330:16334   */\n      0x00\n        /* \"#utility.yul\":16362:16366   */\n      0x20\n        /* \"#utility.yul\":16357:16360   */\n      dup3\n        /* \"#utility.yul\":16353:16367   */\n      add\n        /* \"#utility.yul\":16345:16367   */\n      swap1\n      pop\n        /* \"#utility.yul\":16230:16373   */\n      swap2\n      swap1\n      pop\n      jump\t// out\n        /* \"#utility.yul\":16455:17427   */\n    tag_308:\n        /* \"#utility.yul\":16634:16637   */\n      0x00\n        /* \"#utility.yul\":16663:16747   */\n      tag_522\n        /* \"#utility.yul\":16741:16746   */\n      dup3\n        /* \"#utility.yul\":16663:16747   */\n      tag_300\n      jump\t// in\n    tag_522:\n        /* \"#utility.yul\":16763:16879   */\n      tag_523\n        /* \"#utility.yul\":16872:16878   */\n      dup2\n        /* \"#utility.yul\":16867:16870   */\n      dup6\n        /* \"#utility.yul\":16763:16879   */\n      tag_301\n      jump\t// in\n    tag_523:\n        /* \"#utility.yul\":16756:16879   */\n      swap4\n      pop\n        /* \"#utility.yul\":16903:16989   */\n      tag_524\n        /* \"#utility.yul\":16983:16988   */\n      dup4\n        /* \"#utility.yul\":16903:16989   */\n      tag_302\n      jump\t// in\n    tag_524:\n        /* \"#utility.yul\":17012:17019   */\n      dup1\n        /* \"#utility.yul\":17043:17044   */\n      0x00\n        /* \"#utility.yul\":17028:17402   */\n    tag_525:\n        /* \"#utility.yul\":17053:17059   */\n      dup4\n        /* \"#utility.yul\":17050:17051   */\n      dup2\n        /* \"#utility.yul\":17047:17060   */\n      lt\n        /* \"#utility.yul\":17028:17402   */\n      iszero\n      tag_527\n      jumpi\n        /* \"#utility.yul\":17129:17135   */\n      dup2\n        /* \"#utility.yul\":17123:17136   */\n      mload\n        /* \"#utility.yul\":17156:17279   */\n      tag_528\n        /* \"#utility.yul\":17275:17278   */\n      dup9\n        /* \"#utility.yul\":17260:17273   */\n      dup3\n        /* \"#utility.yul\":17156:17279   */\n      tag_306\n      jump\t// in\n    tag_528:\n        /* \"#utility.yul\":17149:17279   */\n      swap8\n      pop\n        /* \"#utility.yul\":17302:17392   */\n      tag_529\n        /* \"#utility.yul\":17385:17391   */\n      dup4\n        /* \"#utility.yul\":17302:17392   */\n      tag_307\n      jump\t// in\n    tag_529:\n        /* \"#utility.yul\":17292:17392   */\n      swap3\n      pop\n        /* \"#utility.yul\":17088:17402   */\n      pop\n        /* \"#utility.yul\":17075:17076   */\n      0x01\n        /* \"#utility.yul\":17072:17073   */\n      dup2\n        /* \"#utility.yul\":17068:17077   */\n      add\n        /* \"#utility.yul\":17063:17077   */\n      swap1\n      pop\n        /* \"#utility.yul\":17028:17402   */\n      jump(tag_525)\n    tag_527:\n        /* \"#utility.yul\":17032:17046   */\n      pop\n        /* \"#utility.yul\":17418:17421   */\n      dup6\n        /* \"#utility.yul\":17411:17421   */\n      swap4\n      pop\n        /* \"#utility.yul\":16639:17427   */\n      pop\n      pop\n      pop\n        /* \"#utility.yul\":16455:17427   */\n      swap3\n      swap2\n      pop\n      pop\n      jump\t// out\n        /* \"#utility.yul\":17433:17926   */\n    tag_76:\n        /* \"#utility.yul\":17636:17640   */\n      0x00\n        /* \"#utility.yul\":17674:17676   */\n      0x20\n        /* \"#utility.yul\":17663:17672   */\n      dup3\n        /* \"#utility.yul\":17659:17677   */\n      add\n        /* \"#utility.yul\":17651:17677   */\n      swap1\n      pop\n        /* \"#utility.yul\":17723:17732   */\n      dup2\n        /* \"#utility.yul\":17717:17721   */\n      dup2\n        /* \"#utility.yul\":17713:17733   */\n      sub\n        /* \"#utility.yul\":17709:17710   */\n      0x00\n        /* \"#utility.yul\":17698:17707   */\n      dup4\n        /* \"#utility.yul\":17694:17711   */\n      add\n        /* \"#utility.yul\":17687:17734   */\n      mstore\n        /* \"#utility.yul\":17751:17919   */\n      tag_531\n        /* \"#utility.yul\":17914:17918   */\n      dup2\n        /* \"#utility.yul\":17905:17911   */\n      dup5\n        /* \"#utility.yul\":17751:17919   */\n      tag_308\n      jump\t// in\n    tag_531:\n        /* \"#utility.yul\":17743:17919   */\n      swap1\n      pop\n        /* \"#utility.yul\":17433:17926   */\n      swap3\n      swap2\n      pop\n      pop\n      jump\t// out\n        /* \"#utility.yul\":17932:18551   */\n    tag_80:\n        /* \"#utility.yul\":18009:18015   */\n      0x00\n        /* \"#utility.yul\":18017:18023   */\n      dup1\n        /* \"#utility.yul\":18025:18031   */\n      0x00\n        /* \"#utility.yul\":18074:18076   */\n      0x60\n        /* \"#utility.yul\":18062:18071   */\n      dup5\n        /* \"#utility.yul\":18053:18060   */\n      dup7\n        /* \"#utility.yul\":18049:18072   */\n      sub\n        /* \"#utility.yul\":18045:18077   */\n      slt\n        /* \"#utility.yul\":18042:18161   */\n      iszero\n      tag_533\n      jumpi\n        /* \"#utility.yul\":18080:18159   */\n      tag_534\n      tag_261\n      jump\t// in\n    tag_534:\n        /* \"#utility.yul\":18042:18161   */\n    tag_533:\n        /* \"#utility.yul\":18200:18201   */\n      0x00\n        /* \"#utility.yul\":18225:18278   */\n      tag_535\n        /* \"#utility.yul\":18270:18277   */\n      dup7\n        /* \"#utility.yul\":18261:18267   */\n      dup3\n        /* \"#utility.yul\":18250:18259   */\n      dup8\n        /* \"#utility.yul\":18246:18268   */\n      add\n        /* \"#utility.yul\":18225:18278   */\n      tag_272\n      jump\t// in\n    tag_535:\n        /* \"#utility.yul\":18215:18278   */\n      swap4\n      pop\n        /* \"#utility.yul\":18171:18288   */\n      pop\n        /* \"#utility.yul\":18327:18329   */\n      0x20\n        /* \"#utility.yul\":18353:18406   */\n      tag_536\n        /* \"#utility.yul\":18398:18405   */\n      dup7\n        /* \"#utility.yul\":18389:18395   */\n      dup3\n        /* \"#utility.yul\":18378:18387   */\n      dup8\n        /* \"#utility.yul\":18374:18396   */\n      add\n        /* \"#utility.yul\":18353:18406   */\n      tag_272\n      jump\t// in\n    tag_536:\n        /* \"#utility.yul\":18343:18406   */\n      swap3\n      pop\n        /* \"#utility.yul\":18298:18416   */\n      pop\n        /* \"#utility.yul\":18455:18457   */\n      0x40\n        /* \"#utility.yul\":18481:18534   */\n      tag_537\n        /* \"#utility.yul\":18526:18533   */\n      dup7\n        /* \"#utility.yul\":18517:18523   */\n      dup3\n        /* \"#utility.yul\":18506:18515   */\n      dup8\n        /* \"#utility.yul\":18502:18524   */\n      add\n        /* \"#utility.yul\":18481:18534   */\n      tag_292\n      jump\t// in\n    tag_537:\n        /* \"#utility.yul\":18471:18534   */\n      swap2\n      pop\n        /* \"#utility.yul\":18426:18544   */\n      pop\n        /* \"#utility.yul\":17932:18551   */\n      swap3\n      pop\n      swap3\n      pop\n      swap3\n      jump\t// out\n        /* \"#utility.yul\":18557:18737   */\n    tag_309:\n        /* \"#utility.yul\":18605:18682   */\n      0x4e487b7100000000000000000000000000000000000000000000000000000000\n        /* \"#utility.yul\":18602:18603   */\n      0x00\n        /* \"#utility.yul\":18595:18683   */\n      mstore\n        /* \"#utility.yul\":18702:18706   */\n      0x21\n        /* \"#utility.yul\":18699:18700   */\n      0x04\n        /* \"#utility.yul\":18692:18707   */\n      mstore\n        /* \"#utility.yul\":18726:18730   */\n      0x24\n        /* \"#utility.yul\":18723:18724   */\n      0x00\n        /* \"#utility.yul\":18716:18731   */\n      revert\n        /* \"#utility.yul\":18743:18858   */\n    tag_310:\n        /* \"#utility.yul\":18826:18827   */\n      0x07\n        /* \"#utility.yul\":18819:18824   */\n      dup2\n        /* \"#utility.yul\":18816:18828   */\n      lt\n        /* \"#utility.yul\":18806:18852   */\n      tag_540\n      jumpi\n        /* \"#utility.yul\":18832:18850   */\n      tag_541\n      tag_309\n      jump\t// in\n    tag_541:\n        /* \"#utility.yul\":18806:18852   */\n    tag_540:\n        /* \"#utility.yul\":18743:18858   */\n      pop\n      jump\t// out\n        /* \"#utility.yul\":18864:18995   */\n    tag_311:\n        /* \"#utility.yul\":18911:18918   */\n      0x00\n        /* \"#utility.yul\":18940:18945   */\n      dup2\n        /* \"#utility.yul\":18929:18945   */\n      swap1\n      pop\n        /* \"#utility.yul\":18946:18989   */\n      tag_543\n        /* \"#utility.yul\":18983:18988   */\n      dup3\n        /* \"#utility.yul\":18946:18989   */\n      tag_310\n      jump\t// in\n    tag_543:\n        /* \"#utility.yul\":18864:18995   */\n      swap2\n      swap1\n      pop\n      jump\t// out\n        /* \"#utility.yul\":19001:19132   */\n    tag_312:\n        /* \"#utility.yul\":19059:19068   */\n      0x00\n        /* \"#utility.yul\":19092:19126   */\n      tag_545\n        /* \"#utility.yul\":19120:19125   */\n      dup3\n        /* \"#utility.yul\":19092:19126   */\n      tag_311\n      jump\t// in\n    tag_545:\n        /* \"#utility.yul\":19079:19126   */\n      swap1\n      pop\n        /* \"#utility.yul\":19001:19132   */\n      swap2\n      swap1\n      pop\n      jump\t// out\n        /* \"#utility.yul\":19138:19285   */\n    tag_313:\n        /* \"#utility.yul\":19233:19278   */\n      tag_547\n        /* \"#utility.yul\":19272:19277   */\n      dup2\n        /* \"#utility.yul\":19233:19278   */\n      tag_312\n      jump\t// in\n    tag_547:\n        /* \"#utility.yul\":19228:19231   */\n      dup3\n        /* \"#utility.yul\":19221:19279   */\n      mstore\n        /* \"#utility.yul\":19138:19285   */\n      pop\n      pop\n      jump\t// out\n        /* \"#utility.yul\":19291:19529   */\n    tag_91:\n        /* \"#utility.yul\":19392:19396   */\n      0x00\n        /* \"#utility.yul\":19430:19432   */\n      0x20\n        /* \"#utility.yul\":19419:19428   */\n      dup3\n        /* \"#utility.yul\":19415:19433   */\n      add\n        /* \"#utility.yul\":19407:19433   */\n      swap1\n      pop\n        /* \"#utility.yul\":19443:19522   */\n      tag_549\n        /* \"#utility.yul\":19519:19520   */\n      0x00\n        /* \"#utility.yul\":19508:19517   */\n      dup4\n        /* \"#utility.yul\":19504:19521   */\n      add\n        /* \"#utility.yul\":19495:19501   */\n      dup5\n        /* \"#utility.yul\":19443:19522   */\n      tag_313\n      jump\t// in\n    tag_549:\n        /* \"#utility.yul\":19291:19529   */\n      swap3\n      swap2\n      pop\n      pop\n      jump\t// out\n        /* \"#utility.yul\":19535:20187   */\n    tag_95:\n        /* \"#utility.yul\":19612:19618   */\n      0x00\n        /* \"#utility.yul\":19620:19626   */\n      dup1\n        /* \"#utility.yul\":19669:19671   */\n      0x40\n        /* \"#utility.yul\":19657:19666   */\n      dup4\n        /* \"#utility.yul\":19648:19655   */\n      dup6\n        /* \"#utility.yul\":19644:19667   */\n      sub\n        /* \"#utility.yul\":19640:19672   */\n      slt\n        /* \"#utility.yul\":19637:19756   */\n      iszero\n      tag_551\n      jumpi\n        /* \"#utility.yul\":19675:19754   */\n      tag_552\n      tag_261\n      jump\t// in\n    tag_552:\n        /* \"#utility.yul\":19637:19756   */\n    tag_551:\n        /* \"#utility.yul\":19795:19796   */\n      0x00\n        /* \"#utility.yul\":19820:19873   */\n      tag_553\n        /* \"#utility.yul\":19865:19872   */\n      dup6\n        /* \"#utility.yul\":19856:19862   */\n      dup3\n        /* \"#utility.yul\":19845:19854   */\n      dup7\n        /* \"#utility.yul\":19841:19863   */\n      add\n        /* \"#utility.yul\":19820:19873   */\n      tag_292\n      jump\t// in\n    tag_553:\n        /* \"#utility.yul\":19810:19873   */\n      swap3\n      pop\n        /* \"#utility.yul\":19766:19883   */\n      pop\n        /* \"#utility.yul\":19950:19952   */\n      0x20\n        /* \"#utility.yul\":19939:19948   */\n      dup4\n        /* \"#utility.yul\":19935:19953   */\n      add\n        /* \"#utility.yul\":19922:19954   */\n      calldataload\n        /* \"#utility.yul\":19981:19999   */\n      0xffffffffffffffff\n        /* \"#utility.yul\":19973:19979   */\n      dup2\n        /* \"#utility.yul\":19970:20000   */\n      gt\n        /* \"#utility.yul\":19967:20084   */\n      iszero\n      tag_554\n      jumpi\n        /* \"#utility.yul\":20003:20082   */\n      tag_555\n      tag_262\n      jump\t// in\n    tag_555:\n        /* \"#utility.yul\":19967:20084   */\n    tag_554:\n        /* \"#utility.yul\":20108:20170   */\n      tag_556\n        /* \"#utility.yul\":20162:20169   */\n      dup6\n        /* \"#utility.yul\":20153:20159   */\n      dup3\n        /* \"#utility.yul\":20142:20151   */\n      dup7\n        /* \"#utility.yul\":20138:20160   */\n      add\n        /* \"#utility.yul\":20108:20170   */\n      tag_279\n      jump\t// in\n    tag_556:\n        /* \"#utility.yul\":20098:20170   */\n      swap2\n      pop\n        /* \"#utility.yul\":19893:20180   */\n      pop\n        /* \"#utility.yul\":19535:20187   */\n      swap3\n      pop\n      swap3\n      swap1\n      pop\n      jump\t// out\n        /* \"#utility.yul\":20193:20522   */\n    tag_103:\n        /* \"#utility.yul\":20252:20258   */\n      0x00\n        /* \"#utility.yul\":20301:20303   */\n      0x20\n        /* \"#utility.yul\":20289:20298   */\n      dup3\n        /* \"#utility.yul\":20280:20287   */\n      dup5\n        /* \"#utility.yul\":20276:20299   */\n      sub\n        /* \"#utility.yul\":20272:20304   */\n      slt\n        /* \"#utility.yul\":20269:20388   */\n      iszero\n      tag_558\n      jumpi\n        /* \"#utility.yul\":20307:20386   */\n      tag_559\n      tag_261\n      jump\t// in\n    tag_559:\n        /* \"#utility.yul\":20269:20388   */\n    tag_558:\n        /* \"#utility.yul\":20427:20428   */\n      0x00\n        /* \"#utility.yul\":20452:20505   */\n      tag_560\n        /* \"#utility.yul\":20497:20504   */\n      dup5\n        /* \"#utility.yul\":20488:20494   */\n      dup3\n        /* \"#utility.yul\":20477:20486   */\n      dup6\n        /* \"#utility.yul\":20473:20495   */\n      add\n        /* \"#utility.yul\":20452:20505   */\n      tag_292\n      jump\t// in\n    tag_560:\n        /* \"#utility.yul\":20442:20505   */\n      swap2\n      pop\n        /* \"#utility.yul\":20398:20515   */\n      pop\n        /* \"#utility.yul\":20193:20522   */\n      swap3\n      swap2\n      pop\n      pop\n      jump\t// out\n        /* \"#utility.yul\":20528:20642   */\n    tag_314:\n        /* \"#utility.yul\":20595:20601   */\n      0x00\n        /* \"#utility.yul\":20629:20634   */\n      dup2\n        /* \"#utility.yul\":20623:20635   */\n      mload\n        /* \"#utility.yul\":20613:20635   */\n      swap1\n      pop\n        /* \"#utility.yul\":20528:20642   */\n      swap2\n      swap1\n      pop\n      jump\t// out\n        /* \"#utility.yul\":20648:20832   */\n    tag_315:\n        /* \"#utility.yul\":20747:20758   */\n      0x00\n        /* \"#utility.yul\":20781:20787   */\n      dup3\n        /* \"#utility.yul\":20776:20779   */\n      dup3\n        /* \"#utility.yul\":20769:20788   */\n      mstore\n        /* \"#utility.yul\":20821:20825   */\n      0x20\n        /* \"#utility.yul\":20816:20819   */\n      dup3\n        /* \"#utility.yul\":20812:20826   */\n      add\n        /* \"#utility.yul\":20797:20826   */\n      swap1\n      pop\n        /* \"#utility.yul\":20648:20832   */\n      swap3\n      swap2\n      pop\n      pop\n      jump\t// out\n        /* \"#utility.yul\":20838:20970   */\n    tag_316:\n        /* \"#utility.yul\":20905:20909   */\n      0x00\n        /* \"#utility.yul\":20928:20931   */\n      dup2\n        /* \"#utility.yul\":20920:20931   */\n      swap1\n      pop\n        /* \"#utility.yul\":20958:20962   */\n      0x20\n        /* \"#utility.yul\":20953:20956   */\n      dup3\n        /* \"#utility.yul\":20949:20963   */\n      add\n        /* \"#utility.yul\":20941:20963   */\n      swap1\n      pop\n        /* \"#utility.yul\":20838:20970   */\n      swap2\n      swap1\n      pop\n      jump\t// out\n        /* \"#utility.yul\":20976:21155   */\n    tag_317:\n        /* \"#utility.yul\":21045:21055   */\n      0x00\n        /* \"#utility.yul\":21066:21112   */\n      tag_565\n        /* \"#utility.yul\":21108:21111   */\n      dup4\n        /* \"#utility.yul\":21100:21106   */\n      dup4\n        /* \"#utility.yul\":21066:21112   */\n      tag_303\n      jump\t// in\n    tag_565:\n        /* \"#utility.yul\":21144:21148   */\n      0x20\n        /* \"#utility.yul\":21139:21142   */\n      dup4\n        /* \"#utility.yul\":21135:21149   */\n      add\n        /* \"#utility.yul\":21121:21149   */\n      swap1\n      pop\n        /* \"#utility.yul\":20976:21155   */\n      swap3\n      swap2\n      pop\n      pop\n      jump\t// out\n        /* \"#utility.yul\":21161:21274   */\n    tag_318:\n        /* \"#utility.yul\":21231:21235   */\n      0x00\n        /* \"#utility.yul\":21263:21267   */\n      0x20\n        /* \"#utility.yul\":21258:21261   */\n      dup3\n        /* \"#utility.yul\":21254:21268   */\n      add\n        /* \"#utility.yul\":21246:21268   */\n      swap1\n      pop\n        /* \"#utility.yul\":21161:21274   */\n      swap2\n      swap1\n      pop\n      jump\t// out\n        /* \"#utility.yul\":21310:22042   */\n    tag_319:\n        /* \"#utility.yul\":21429:21432   */\n      0x00\n        /* \"#utility.yul\":21458:21512   */\n      tag_568\n        /* \"#utility.yul\":21506:21511   */\n      dup3\n        /* \"#utility.yul\":21458:21512   */\n      tag_314\n      jump\t// in\n    tag_568:\n        /* \"#utility.yul\":21528:21614   */\n      tag_569\n        /* \"#utility.yul\":21607:21613   */\n      dup2\n        /* \"#utility.yul\":21602:21605   */\n      dup6\n        /* \"#utility.yul\":21528:21614   */\n      tag_315\n      jump\t// in\n    tag_569:\n        /* \"#utility.yul\":21521:21614   */\n      swap4\n      pop\n        /* \"#utility.yul\":21638:21694   */\n      tag_570\n        /* \"#utility.yul\":21688:21693   */\n      dup4\n        /* \"#utility.yul\":21638:21694   */\n      tag_316\n      jump\t// in\n    tag_570:\n        /* \"#utility.yul\":21717:21724   */\n      dup1\n        /* \"#utility.yul\":21748:21749   */\n      0x00\n        /* \"#utility.yul\":21733:22017   */\n    tag_571:\n        /* \"#utility.yul\":21758:21764   */\n      dup4\n        /* \"#utility.yul\":21755:21756   */\n      dup2\n        /* \"#utility.yul\":21752:21765   */\n      lt\n        /* \"#utility.yul\":21733:22017   */\n      iszero\n      tag_573\n      jumpi\n        /* \"#utility.yul\":21834:21840   */\n      dup2\n        /* \"#utility.yul\":21828:21841   */\n      mload\n        /* \"#utility.yul\":21861:21924   */\n      tag_574\n        /* \"#utility.yul\":21920:21923   */\n      dup9\n        /* \"#utility.yul\":21905:21918   */\n      dup3\n        /* \"#utility.yul\":21861:21924   */\n      tag_317\n      jump\t// in\n    tag_574:\n        /* \"#utility.yul\":21854:21924   */\n      swap8\n      pop\n        /* \"#utility.yul\":21947:22007   */\n      tag_575\n        /* \"#utility.yul\":22000:22006   */\n      dup4\n        /* \"#utility.yul\":21947:22007   */\n      tag_318\n      jump\t// in\n    tag_575:\n        /* \"#utility.yul\":21937:22007   */\n      swap3\n      pop\n        /* \"#utility.yul\":21793:22017   */\n      pop\n        /* \"#utility.yul\":21780:21781   */\n      0x01\n        /* \"#utility.yul\":21777:21778   */\n      dup2\n        /* \"#utility.yul\":21773:21782   */\n      add\n        /* \"#utility.yul\":21768:21782   */\n      swap1\n      pop\n        /* \"#utility.yul\":21733:22017   */\n      jump(tag_571)\n    tag_573:\n        /* \"#utility.yul\":21737:21751   */\n      pop\n        /* \"#utility.yul\":22033:22036   */\n      dup6\n        /* \"#utility.yul\":22026:22036   */\n      swap4\n      pop\n        /* \"#utility.yul\":21434:22042   */\n      pop\n      pop\n      pop\n        /* \"#utility.yul\":21310:22042   */\n      swap3\n      swap2\n      pop\n      pop\n      jump\t// out\n        /* \"#utility.yul\":22048:22162   */\n    tag_320:\n        /* \"#utility.yul\":22115:22121   */\n      0x00\n        /* \"#utility.yul\":22149:22154   */\n      dup2\n        /* \"#utility.yul\":22143:22155   */\n      mload\n        /* \"#utility.yul\":22133:22155   */\n      swap1\n      pop\n        /* \"#utility.yul\":22048:22162   */\n      swap2\n      swap1\n      pop\n      jump\t// out\n        /* \"#utility.yul\":22168:22352   */\n    tag_321:\n        /* \"#utility.yul\":22267:22278   */\n      0x00\n        /* \"#utility.yul\":22301:22307   */\n      dup3\n        /* \"#utility.yul\":22296:22299   */\n      dup3\n        /* \"#utility.yul\":22289:22308   */\n      mstore\n        /* \"#utility.yul\":22341:22345   */\n      0x20\n        /* \"#utility.yul\":22336:22339   */\n      dup3\n        /* \"#utility.yul\":22332:22346   */\n      add\n        /* \"#utility.yul\":22317:22346   */\n      swap1\n      pop\n        /* \"#utility.yul\":22168:22352   */\n      swap3\n      swap2\n      pop\n      pop\n      jump\t// out\n        /* \"#utility.yul\":22358:22490   */\n    tag_322:\n        /* \"#utility.yul\":22425:22429   */\n      0x00\n        /* \"#utility.yul\":22448:22451   */\n      dup2\n        /* \"#utility.yul\":22440:22451   */\n      swap1\n      pop\n        /* \"#utility.yul\":22478:22482   */\n      0x20\n        /* \"#utility.yul\":22473:22476   */\n      dup3\n        /* \"#utility.yul\":22469:22483   */\n      add\n        /* \"#utility.yul\":22461:22483   */\n      swap1\n      pop\n        /* \"#utility.yul\":22358:22490   */\n      swap2\n      swap1\n      pop\n      jump\t// out\n        /* \"#utility.yul\":22496:22675   */\n    tag_323:\n        /* \"#utility.yul\":22565:22575   */\n      0x00\n        /* \"#utility.yul\":22586:22632   */\n      tag_580\n        /* \"#utility.yul\":22628:22631   */\n      dup4\n        /* \"#utility.yul\":22620:22626   */\n      dup4\n        /* \"#utility.yul\":22586:22632   */\n      tag_304\n      jump\t// in\n    tag_580:\n        /* \"#utility.yul\":22664:22668   */\n      0x20\n        /* \"#utility.yul\":22659:22662   */\n      dup4\n        /* \"#utility.yul\":22655:22669   */\n      add\n        /* \"#utility.yul\":22641:22669   */\n      swap1\n      pop\n        /* \"#utility.yul\":22496:22675   */\n      swap3\n      swap2\n      pop\n      pop\n      jump\t// out\n        /* \"#utility.yul\":22681:22794   */\n    tag_324:\n        /* \"#utility.yul\":22751:22755   */\n      0x00\n        /* \"#utility.yul\":22783:22787   */\n      0x20\n        /* \"#utility.yul\":22778:22781   */\n      dup3\n        /* \"#utility.yul\":22774:22788   */\n      add\n        /* \"#utility.yul\":22766:22788   */\n      swap1\n      pop\n        /* \"#utility.yul\":22681:22794   */\n      swap2\n      swap1\n      pop\n      jump\t// out\n        /* \"#utility.yul\":22830:23562   */\n    tag_325:\n        /* \"#utility.yul\":22949:22952   */\n      0x00\n        /* \"#utility.yul\":22978:23032   */\n      tag_583\n        /* \"#utility.yul\":23026:23031   */\n      dup3\n        /* \"#utility.yul\":22978:23032   */\n      tag_320\n      jump\t// in\n    tag_583:\n        /* \"#utility.yul\":23048:23134   */\n      tag_584\n        /* \"#utility.yul\":23127:23133   */\n      dup2\n        /* \"#utility.yul\":23122:23125   */\n      dup6\n        /* \"#utility.yul\":23048:23134   */\n      tag_321\n      jump\t// in\n    tag_584:\n        /* \"#utility.yul\":23041:23134   */\n      swap4\n      pop\n        /* \"#utility.yul\":23158:23214   */\n      tag_585\n        /* \"#utility.yul\":23208:23213   */\n      dup4\n        /* \"#utility.yul\":23158:23214   */\n      tag_322\n      jump\t// in\n    tag_585:\n        /* \"#utility.yul\":23237:23244   */\n      dup1\n        /* \"#utility.yul\":23268:23269   */\n      0x00\n        /* \"#utility.yul\":23253:23537   */\n    tag_586:\n        /* \"#utility.yul\":23278:23284   */\n      dup4\n        /* \"#utility.yul\":23275:23276   */\n      dup2\n        /* \"#utility.yul\":23272:23285   */\n      lt\n        /* \"#utility.yul\":23253:23537   */\n      iszero\n      tag_588\n      jumpi\n        /* \"#utility.yul\":23354:23360   */\n      dup2\n        /* \"#utility.yul\":23348:23361   */\n      mload\n        /* \"#utility.yul\":23381:23444   */\n      tag_589\n        /* \"#utility.yul\":23440:23443   */\n      dup9\n        /* \"#utility.yul\":23425:23438   */\n      dup3\n        /* \"#utility.yul\":23381:23444   */\n      tag_323\n      jump\t// in\n    tag_589:\n        /* \"#utility.yul\":23374:23444   */\n      swap8\n      pop\n        /* \"#utility.yul\":23467:23527   */\n      tag_590\n        /* \"#utility.yul\":23520:23526   */\n      dup4\n        /* \"#utility.yul\":23467:23527   */\n      tag_324\n      jump\t// in\n    tag_590:\n        /* \"#utility.yul\":23457:23527   */\n      swap3\n      pop\n        /* \"#utility.yul\":23313:23537   */\n      pop\n        /* \"#utility.yul\":23300:23301   */\n      0x01\n        /* \"#utility.yul\":23297:23298   */\n      dup2\n        /* \"#utility.yul\":23293:23302   */\n      add\n        /* \"#utility.yul\":23288:23302   */\n      swap1\n      pop\n        /* \"#utility.yul\":23253:23537   */\n      jump(tag_586)\n    tag_588:\n        /* \"#utility.yul\":23257:23271   */\n      pop\n        /* \"#utility.yul\":23553:23556   */\n      dup6\n        /* \"#utility.yul\":23546:23556   */\n      swap4\n      pop\n        /* \"#utility.yul\":22954:23562   */\n      pop\n      pop\n      pop\n        /* \"#utility.yul\":22830:23562   */\n      swap3\n      swap2\n      pop\n      pop\n      jump\t// out\n        /* \"#utility.yul\":23568:24312   */\n    tag_137:\n        /* \"#utility.yul\":23817:23821   */\n      0x00\n        /* \"#utility.yul\":23855:23857   */\n      0x60\n        /* \"#utility.yul\":23844:23853   */\n      dup3\n        /* \"#utility.yul\":23840:23858   */\n      add\n        /* \"#utility.yul\":23832:23858   */\n      swap1\n      pop\n        /* \"#utility.yul\":23904:23913   */\n      dup2\n        /* \"#utility.yul\":23898:23902   */\n      dup2\n        /* \"#utility.yul\":23894:23914   */\n      sub\n        /* \"#utility.yul\":23890:23891   */\n      0x00\n        /* \"#utility.yul\":23879:23888   */\n      dup4\n        /* \"#utility.yul\":23875:23892   */\n      add\n        /* \"#utility.yul\":23868:23915   */\n      mstore\n        /* \"#utility.yul\":23932:24040   */\n      tag_592\n        /* \"#utility.yul\":24035:24039   */\n      dup2\n        /* \"#utility.yul\":24026:24032   */\n      dup7\n        /* \"#utility.yul\":23932:24040   */\n      tag_319\n      jump\t// in\n    tag_592:\n        /* \"#utility.yul\":23924:24040   */\n      swap1\n      pop\n        /* \"#utility.yul\":24087:24096   */\n      dup2\n        /* \"#utility.yul\":24081:24085   */\n      dup2\n        /* \"#utility.yul\":24077:24097   */\n      sub\n        /* \"#utility.yul\":24072:24074   */\n      0x20\n        /* \"#utility.yul\":24061:24070   */\n      dup4\n        /* \"#utility.yul\":24057:24075   */\n      add\n        /* \"#utility.yul\":24050:24098   */\n      mstore\n        /* \"#utility.yul\":24115:24223   */\n      tag_593\n        /* \"#utility.yul\":24218:24222   */\n      dup2\n        /* \"#utility.yul\":24209:24215   */\n      dup6\n        /* \"#utility.yul\":24115:24223   */\n      tag_325\n      jump\t// in\n    tag_593:\n        /* \"#utility.yul\":24107:24223   */\n      swap1\n      pop\n        /* \"#utility.yul\":24233:24305   */\n      tag_594\n        /* \"#utility.yul\":24301:24303   */\n      0x40\n        /* \"#utility.yul\":24290:24299   */\n      dup4\n        /* \"#utility.yul\":24286:24304   */\n      add\n        /* \"#utility.yul\":24277:24283   */\n      dup5\n        /* \"#utility.yul\":24233:24305   */\n      tag_285\n      jump\t// in\n    tag_594:\n        /* \"#utility.yul\":23568:24312   */\n      swap5\n      swap4\n      pop\n      pop\n      pop\n      pop\n      jump\t// out\n        /* \"#utility.yul\":24318:24498   */\n    tag_159:\n        /* \"#utility.yul\":24366:24443   */\n      0x4e487b7100000000000000000000000000000000000000000000000000000000\n        /* \"#utility.yul\":24363:24364   */\n      0x00\n        /* \"#utility.yul\":24356:24444   */\n      mstore\n        /* \"#utility.yul\":24463:24467   */\n      0x32\n        /* \"#utility.yul\":24460:24461   */\n      0x04\n        /* \"#utility.yul\":24453:24468   */\n      mstore\n        /* \"#utility.yul\":24487:24491   */\n      0x24\n        /* \"#utility.yul\":24484:24485   */\n      0x00\n        /* \"#utility.yul\":24477:24492   */\n      revert\n        /* \"#utility.yul\":24504:24602   */\n    tag_326:\n        /* \"#utility.yul\":24555:24561   */\n      0x00\n        /* \"#utility.yul\":24589:24594   */\n      dup2\n        /* \"#utility.yul\":24583:24595   */\n      mload\n        /* \"#utility.yul\":24573:24595   */\n      swap1\n      pop\n        /* \"#utility.yul\":24504:24602   */\n      swap2\n      swap1\n      pop\n      jump\t// out\n        /* \"#utility.yul\":24608:24776   */\n    tag_327:\n        /* \"#utility.yul\":24691:24702   */\n      0x00\n        /* \"#utility.yul\":24725:24731   */\n      dup3\n        /* \"#utility.yul\":24720:24723   */\n      dup3\n        /* \"#utility.yul\":24713:24732   */\n      mstore\n        /* \"#utility.yul\":24765:24769   */\n      0x20\n        /* \"#utility.yul\":24760:24763   */\n      dup3\n        /* \"#utility.yul\":24756:24770   */\n      add\n        /* \"#utility.yul\":24741:24770   */\n      swap1\n      pop\n        /* \"#utility.yul\":24608:24776   */\n      swap3\n      swap2\n      pop\n      pop\n      jump\t// out\n        /* \"#utility.yul\":24782:25028   */\n    tag_328:\n        /* \"#utility.yul\":24863:24864   */\n      0x00\n        /* \"#utility.yul\":24873:24986   */\n    tag_599:\n        /* \"#utility.yul\":24887:24893   */\n      dup4\n        /* \"#utility.yul\":24884:24885   */\n      dup2\n        /* \"#utility.yul\":24881:24894   */\n      lt\n        /* \"#utility.yul\":24873:24986   */\n      iszero\n      tag_601\n      jumpi\n        /* \"#utility.yul\":24972:24973   */\n      dup1\n        /* \"#utility.yul\":24967:24970   */\n      dup3\n        /* \"#utility.yul\":24963:24974   */\n      add\n        /* \"#utility.yul\":24957:24975   */\n      mload\n        /* \"#utility.yul\":24953:24954   */\n      dup2\n        /* \"#utility.yul\":24948:24951   */\n      dup5\n        /* \"#utility.yul\":24944:24955   */\n      add\n        /* \"#utility.yul\":24937:24976   */\n      mstore\n        /* \"#utility.yul\":24909:24911   */\n      0x20\n        /* \"#utility.yul\":24906:24907   */\n      dup2\n        /* \"#utility.yul\":24902:24912   */\n      add\n        /* \"#utility.yul\":24897:24912   */\n      swap1\n      pop\n        /* \"#utility.yul\":24873:24986   */\n      jump(tag_599)\n    tag_601:\n        /* \"#utility.yul\":25020:25021   */\n      0x00\n        /* \"#utility.yul\":25011:25017   */\n      dup5\n        /* \"#utility.yul\":25006:25009   */\n      dup5\n        /* \"#utility.yul\":25002:25018   */\n      add\n        /* \"#utility.yul\":24995:25022   */\n      mstore\n        /* \"#utility.yul\":24844:25028   */\n      pop\n        /* \"#utility.yul\":24782:25028   */\n      pop\n      pop\n      pop\n      jump\t// out\n        /* \"#utility.yul\":25034:25407   */\n    tag_329:\n        /* \"#utility.yul\":25120:25123   */\n      0x00\n        /* \"#utility.yul\":25148:25186   */\n      tag_603\n        /* \"#utility.yul\":25180:25185   */\n      dup3\n        /* \"#utility.yul\":25148:25186   */\n      tag_326\n      jump\t// in\n    tag_603:\n        /* \"#utility.yul\":25202:25272   */\n      tag_604\n        /* \"#utility.yul\":25265:25271   */\n      dup2\n        /* \"#utility.yul\":25260:25263   */\n      dup6\n        /* \"#utility.yul\":25202:25272   */\n      tag_327\n      jump\t// in\n    tag_604:\n        /* \"#utility.yul\":25195:25272   */\n      swap4\n      pop\n        /* \"#utility.yul\":25281:25346   */\n      tag_605\n        /* \"#utility.yul\":25339:25345   */\n      dup2\n        /* \"#utility.yul\":25334:25337   */\n      dup6\n        /* \"#utility.yul\":25327:25331   */\n      0x20\n        /* \"#utility.yul\":25320:25325   */\n      dup7\n        /* \"#utility.yul\":25316:25332   */\n      add\n        /* \"#utility.yul\":25281:25346   */\n      tag_328\n      jump\t// in\n    tag_605:\n        /* \"#utility.yul\":25371:25400   */\n      tag_606\n        /* \"#utility.yul\":25393:25399   */\n      dup2\n        /* \"#utility.yul\":25371:25400   */\n      tag_264\n      jump\t// in\n    tag_606:\n        /* \"#utility.yul\":25366:25369   */\n      dup5\n        /* \"#utility.yul\":25362:25401   */\n      add\n        /* \"#utility.yul\":25355:25401   */\n      swap2\n      pop\n        /* \"#utility.yul\":25124:25407   */\n      pop\n        /* \"#utility.yul\":25034:25407   */\n      swap3\n      swap2\n      pop\n      pop\n      jump\t// out\n        /* \"#utility.yul\":25413:25832   */\n    tag_180:\n        /* \"#utility.yul\":25552:25556   */\n      0x00\n        /* \"#utility.yul\":25590:25592   */\n      0x40\n        /* \"#utility.yul\":25579:25588   */\n      dup3\n        /* \"#utility.yul\":25575:25593   */\n      add\n        /* \"#utility.yul\":25567:25593   */\n      swap1\n      pop\n        /* \"#utility.yul\":25603:25674   */\n      tag_608\n        /* \"#utility.yul\":25671:25672   */\n      0x00\n        /* \"#utility.yul\":25660:25669   */\n      dup4\n        /* \"#utility.yul\":25656:25673   */\n      add\n        /* \"#utility.yul\":25647:25653   */\n      dup6\n        /* \"#utility.yul\":25603:25674   */\n      tag_287\n      jump\t// in\n    tag_608:\n        /* \"#utility.yul\":25721:25730   */\n      dup2\n        /* \"#utility.yul\":25715:25719   */\n      dup2\n        /* \"#utility.yul\":25711:25731   */\n      sub\n        /* \"#utility.yul\":25706:25708   */\n      0x20\n        /* \"#utility.yul\":25695:25704   */\n      dup4\n        /* \"#utility.yul\":25691:25709   */\n      add\n        /* \"#utility.yul\":25684:25732   */\n      mstore\n        /* \"#utility.yul\":25749:25825   */\n      tag_609\n        /* \"#utility.yul\":25820:25824   */\n      dup2\n        /* \"#utility.yul\":25811:25817   */\n      dup5\n        /* \"#utility.yul\":25749:25825   */\n      tag_329\n      jump\t// in\n    tag_609:\n        /* \"#utility.yul\":25741:25825   */\n      swap1\n      pop\n        /* \"#utility.yul\":25413:25832   */\n      swap4\n      swap3\n      pop\n      pop\n      pop\n      jump\t// out\n        /* \"#utility.yul\":25838:26018   */\n    tag_330:\n        /* \"#utility.yul\":25886:25963   */\n      0x4e487b7100000000000000000000000000000000000000000000000000000000\n        /* \"#utility.yul\":25883:25884   */\n      0x00\n        /* \"#utility.yul\":25876:25964   */\n      mstore\n        /* \"#utility.yul\":25983:25987   */\n      0x11\n        /* \"#utility.yul\":25980:25981   */\n      0x04\n        /* \"#utility.yul\":25973:25988   */\n      mstore\n        /* \"#utility.yul\":26007:26011   */\n      0x24\n        /* \"#utility.yul\":26004:26005   */\n      0x00\n        /* \"#utility.yul\":25997:26012   */\n      revert\n        /* \"#utility.yul\":26024:26215   */\n    tag_197:\n        /* \"#utility.yul\":26064:26067   */\n      0x00\n        /* \"#utility.yul\":26083:26103   */\n      tag_612\n        /* \"#utility.yul\":26101:26102   */\n      dup3\n        /* \"#utility.yul\":26083:26103   */\n      tag_286\n      jump\t// in\n    tag_612:\n        /* \"#utility.yul\":26078:26103   */\n      swap2\n      pop\n        /* \"#utility.yul\":26117:26137   */\n      tag_613\n        /* \"#utility.yul\":26135:26136   */\n      dup4\n        /* \"#utility.yul\":26117:26137   */\n      tag_286\n      jump\t// in\n    tag_613:\n        /* \"#utility.yul\":26112:26137   */\n      swap3\n      pop\n        /* \"#utility.yul\":26160:26161   */\n      dup3\n        /* \"#utility.yul\":26157:26158   */\n      dup3\n        /* \"#utility.yul\":26153:26162   */\n      add\n        /* \"#utility.yul\":26146:26162   */\n      swap1\n      pop\n        /* \"#utility.yul\":26181:26184   */\n      dup1\n        /* \"#utility.yul\":26178:26179   */\n      dup3\n        /* \"#utility.yul\":26175:26185   */\n      gt\n        /* \"#utility.yul\":26172:26208   */\n      iszero\n      tag_614\n      jumpi\n        /* \"#utility.yul\":26188:26206   */\n      tag_615\n      tag_330\n      jump\t// in\n    tag_615:\n        /* \"#utility.yul\":26172:26208   */\n    tag_614:\n        /* \"#utility.yul\":26024:26215   */\n      swap3\n      swap2\n      pop\n      pop\n      jump\t// out\n        /* \"#utility.yul\":26221:26553   */\n    tag_212:\n        /* \"#utility.yul\":26342:26346   */\n      0x00\n        /* \"#utility.yul\":26380:26382   */\n      0x40\n        /* \"#utility.yul\":26369:26378   */\n      dup3\n        /* \"#utility.yul\":26365:26383   */\n      add\n        /* \"#utility.yul\":26357:26383   */\n      swap1\n      pop\n        /* \"#utility.yul\":26393:26464   */\n      tag_617\n        /* \"#utility.yul\":26461:26462   */\n      0x00\n        /* \"#utility.yul\":26450:26459   */\n      dup4\n        /* \"#utility.yul\":26446:26463   */\n      add\n        /* \"#utility.yul\":26437:26443   */\n      dup6\n        /* \"#utility.yul\":26393:26464   */\n      tag_287\n      jump\t// in\n    tag_617:\n        /* \"#utility.yul\":26474:26546   */\n      tag_618\n        /* \"#utility.yul\":26542:26544   */\n      0x20\n        /* \"#utility.yul\":26531:26540   */\n      dup4\n        /* \"#utility.yul\":26527:26545   */\n      add\n        /* \"#utility.yul\":26518:26524   */\n      dup5\n        /* \"#utility.yul\":26474:26546   */\n      tag_285\n      jump\t// in\n    tag_618:\n        /* \"#utility.yul\":26221:26553   */\n      swap4\n      swap3\n      pop\n      pop\n      pop\n      jump\t// out\n        /* \"#utility.yul\":26559:26675   */\n    tag_331:\n        /* \"#utility.yul\":26629:26650   */\n      tag_620\n        /* \"#utility.yul\":26644:26649   */\n      dup2\n        /* \"#utility.yul\":26629:26650   */\n      tag_295\n      jump\t// in\n    tag_620:\n        /* \"#utility.yul\":26622:26627   */\n      dup2\n        /* \"#utility.yul\":26619:26651   */\n      eq\n        /* \"#utility.yul\":26609:26669   */\n      tag_621\n      jumpi\n        /* \"#utility.yul\":26665:26666   */\n      0x00\n        /* \"#utility.yul\":26662:26663   */\n      dup1\n        /* \"#utility.yul\":26655:26667   */\n      revert\n        /* \"#utility.yul\":26609:26669   */\n    tag_621:\n        /* \"#utility.yul\":26559:26675   */\n      pop\n      jump\t// out\n        /* \"#utility.yul\":26681:26818   */\n    tag_332:\n        /* \"#utility.yul\":26735:26740   */\n      0x00\n        /* \"#utility.yul\":26766:26772   */\n      dup2\n        /* \"#utility.yul\":26760:26773   */\n      mload\n        /* \"#utility.yul\":26751:26773   */\n      swap1\n      pop\n        /* \"#utility.yul\":26782:26812   */\n      tag_623\n        /* \"#utility.yul\":26806:26811   */\n      dup2\n        /* \"#utility.yul\":26782:26812   */\n      tag_331\n      jump\t// in\n    tag_623:\n        /* \"#utility.yul\":26681:26818   */\n      swap3\n      swap2\n      pop\n      pop\n      jump\t// out\n        /* \"#utility.yul\":26824:27169   */\n    tag_216:\n        /* \"#utility.yul\":26891:26897   */\n      0x00\n        /* \"#utility.yul\":26940:26942   */\n      0x20\n        /* \"#utility.yul\":26928:26937   */\n      dup3\n        /* \"#utility.yul\":26919:26926   */\n      dup5\n        /* \"#utility.yul\":26915:26938   */\n      sub\n        /* \"#utility.yul\":26911:26943   */\n      slt\n        /* \"#utility.yul\":26908:27027   */\n      iszero\n      tag_625\n      jumpi\n        /* \"#utility.yul\":26946:27025   */\n      tag_626\n      tag_261\n      jump\t// in\n    tag_626:\n        /* \"#utility.yul\":26908:27027   */\n    tag_625:\n        /* \"#utility.yul\":27066:27067   */\n      0x00\n        /* \"#utility.yul\":27091:27152   */\n      tag_627\n        /* \"#utility.yul\":27144:27151   */\n      dup5\n        /* \"#utility.yul\":27135:27141   */\n      dup3\n        /* \"#utility.yul\":27124:27133   */\n      dup6\n        /* \"#utility.yul\":27120:27142   */\n      add\n        /* \"#utility.yul\":27091:27152   */\n      tag_332\n      jump\t// in\n    tag_627:\n        /* \"#utility.yul\":27081:27152   */\n      swap2\n      pop\n        /* \"#utility.yul\":27037:27162   */\n      pop\n        /* \"#utility.yul\":26824:27169   */\n      swap3\n      swap2\n      pop\n      pop\n      jump\t// out\n        /* \"#utility.yul\":27175:27318   */\n    tag_333:\n        /* \"#utility.yul\":27232:27237   */\n      0x00\n        /* \"#utility.yul\":27263:27269   */\n      dup2\n        /* \"#utility.yul\":27257:27270   */\n      mload\n        /* \"#utility.yul\":27248:27270   */\n      swap1\n      pop\n        /* \"#utility.yul\":27279:27312   */\n      tag_629\n        /* \"#utility.yul\":27306:27311   */\n      dup2\n        /* \"#utility.yul\":27279:27312   */\n      tag_271\n      jump\t// in\n    tag_629:\n        /* \"#utility.yul\":27175:27318   */\n      swap3\n      swap2\n      pop\n      pop\n      jump\t// out\n        /* \"#utility.yul\":27341:28073   */\n    tag_334:\n        /* \"#utility.yul\":27448:27453   */\n      0x00\n        /* \"#utility.yul\":27473:27554   */\n      tag_631\n        /* \"#utility.yul\":27489:27553   */\n      tag_632\n        /* \"#utility.yul\":27546:27552   */\n      dup5\n        /* \"#utility.yul\":27489:27553   */\n      tag_267\n      jump\t// in\n    tag_632:\n        /* \"#utility.yul\":27473:27554   */\n      tag_266\n      jump\t// in\n    tag_631:\n        /* \"#utility.yul\":27464:27554   */\n      swap1\n      pop\n        /* \"#utility.yul\":27574:27579   */\n      dup1\n        /* \"#utility.yul\":27603:27609   */\n      dup4\n        /* \"#utility.yul\":27596:27601   */\n      dup3\n        /* \"#utility.yul\":27589:27610   */\n      mstore\n        /* \"#utility.yul\":27637:27641   */\n      0x20\n        /* \"#utility.yul\":27630:27635   */\n      dup3\n        /* \"#utility.yul\":27626:27642   */\n      add\n        /* \"#utility.yul\":27619:27642   */\n      swap1\n      pop\n        /* \"#utility.yul\":27690:27694   */\n      0x20\n        /* \"#utility.yul\":27682:27688   */\n      dup5\n        /* \"#utility.yul\":27678:27695   */\n      mul\n        /* \"#utility.yul\":27670:27676   */\n      dup4\n        /* \"#utility.yul\":27666:27696   */\n      add\n        /* \"#utility.yul\":27719:27722   */\n      dup6\n        /* \"#utility.yul\":27711:27717   */\n      dup2\n        /* \"#utility.yul\":27708:27723   */\n      gt\n        /* \"#utility.yul\":27705:27827   */\n      iszero\n      tag_633\n      jumpi\n        /* \"#utility.yul\":27738:27817   */\n      tag_634\n      tag_268\n      jump\t// in\n    tag_634:\n        /* \"#utility.yul\":27705:27827   */\n    tag_633:\n        /* \"#utility.yul\":27853:27859   */\n      dup4\n        /* \"#utility.yul\":27836:28067   */\n    tag_635:\n        /* \"#utility.yul\":27870:27876   */\n      dup2\n        /* \"#utility.yul\":27865:27868   */\n      dup2\n        /* \"#utility.yul\":27862:27877   */\n      lt\n        /* \"#utility.yul\":27836:28067   */\n      iszero\n      tag_637\n      jumpi\n        /* \"#utility.yul\":27945:27948   */\n      dup1\n        /* \"#utility.yul\":27974:28022   */\n      tag_638\n        /* \"#utility.yul\":28018:28021   */\n      dup9\n        /* \"#utility.yul\":28006:28016   */\n      dup3\n        /* \"#utility.yul\":27974:28022   */\n      tag_333\n      jump\t// in\n    tag_638:\n        /* \"#utility.yul\":27969:27972   */\n      dup5\n        /* \"#utility.yul\":27962:28023   */\n      mstore\n        /* \"#utility.yul\":28052:28056   */\n      0x20\n        /* \"#utility.yul\":28047:28050   */\n      dup5\n        /* \"#utility.yul\":28043:28057   */\n      add\n        /* \"#utility.yul\":28036:28057   */\n      swap4\n      pop\n        /* \"#utility.yul\":27912:28067   */\n      pop\n        /* \"#utility.yul\":27896:27900   */\n      0x20\n        /* \"#utility.yul\":27891:27894   */\n      dup2\n        /* \"#utility.yul\":27887:27901   */\n      add\n        /* \"#utility.yul\":27880:27901   */\n      swap1\n      pop\n        /* \"#utility.yul\":27836:28067   */\n      jump(tag_635)\n    tag_637:\n        /* \"#utility.yul\":27840:27861   */\n      pop\n        /* \"#utility.yul\":27454:28073   */\n      pop\n      pop\n        /* \"#utility.yul\":27341:28073   */\n      swap4\n      swap3\n      pop\n      pop\n      pop\n      jump\t// out\n        /* \"#utility.yul\":28096:28481   */\n    tag_335:\n        /* \"#utility.yul\":28178:28183   */\n      0x00\n        /* \"#utility.yul\":28227:28230   */\n      dup3\n        /* \"#utility.yul\":28220:28224   */\n      0x1f\n        /* \"#utility.yul\":28212:28218   */\n      dup4\n        /* \"#utility.yul\":28208:28225   */\n      add\n        /* \"#utility.yul\":28204:28231   */\n      slt\n        /* \"#utility.yul\":28194:28316   */\n      tag_640\n      jumpi\n        /* \"#utility.yul\":28235:28314   */\n      tag_641\n      tag_263\n      jump\t// in\n    tag_641:\n        /* \"#utility.yul\":28194:28316   */\n    tag_640:\n        /* \"#utility.yul\":28345:28351   */\n      dup2\n        /* \"#utility.yul\":28339:28352   */\n      mload\n        /* \"#utility.yul\":28370:28475   */\n      tag_642\n        /* \"#utility.yul\":28471:28474   */\n      dup5\n        /* \"#utility.yul\":28463:28469   */\n      dup3\n        /* \"#utility.yul\":28456:28460   */\n      0x20\n        /* \"#utility.yul\":28448:28454   */\n      dup7\n        /* \"#utility.yul\":28444:28461   */\n      add\n        /* \"#utility.yul\":28370:28475   */\n      tag_334\n      jump\t// in\n    tag_642:\n        /* \"#utility.yul\":28361:28475   */\n      swap2\n      pop\n        /* \"#utility.yul\":28184:28481   */\n      pop\n        /* \"#utility.yul\":28096:28481   */\n      swap3\n      swap2\n      pop\n      pop\n      jump\t// out\n        /* \"#utility.yul\":28487:28630   */\n    tag_336:\n        /* \"#utility.yul\":28544:28549   */\n      0x00\n        /* \"#utility.yul\":28575:28581   */\n      dup2\n        /* \"#utility.yul\":28569:28582   */\n      mload\n        /* \"#utility.yul\":28560:28582   */\n      swap1\n      pop\n        /* \"#utility.yul\":28591:28624   */\n      tag_644\n        /* \"#utility.yul\":28618:28623   */\n      dup2\n        /* \"#utility.yul\":28591:28624   */\n      tag_291\n      jump\t// in\n    tag_644:\n        /* \"#utility.yul\":28487:28630   */\n      swap3\n      swap2\n      pop\n      pop\n      jump\t// out\n        /* \"#utility.yul\":28653:29385   */\n    tag_337:\n        /* \"#utility.yul\":28760:28765   */\n      0x00\n        /* \"#utility.yul\":28785:28866   */\n      tag_646\n        /* \"#utility.yul\":28801:28865   */\n      tag_647\n        /* \"#utility.yul\":28858:28864   */\n      dup5\n        /* \"#utility.yul\":28801:28865   */\n      tag_290\n      jump\t// in\n    tag_647:\n        /* \"#utility.yul\":28785:28866   */\n      tag_266\n      jump\t// in\n    tag_646:\n        /* \"#utility.yul\":28776:28866   */\n      swap1\n      pop\n        /* \"#utility.yul\":28886:28891   */\n      dup1\n        /* \"#utility.yul\":28915:28921   */\n      dup4\n        /* \"#utility.yul\":28908:28913   */\n      dup3\n        /* \"#utility.yul\":28901:28922   */\n      mstore\n        /* \"#utility.yul\":28949:28953   */\n      0x20\n        /* \"#utility.yul\":28942:28947   */\n      dup3\n        /* \"#utility.yul\":28938:28954   */\n      add\n        /* \"#utility.yul\":28931:28954   */\n      swap1\n      pop\n        /* \"#utility.yul\":29002:29006   */\n      0x20\n        /* \"#utility.yul\":28994:29000   */\n      dup5\n        /* \"#utility.yul\":28990:29007   */\n      mul\n        /* \"#utility.yul\":28982:28988   */\n      dup4\n        /* \"#utility.yul\":28978:29008   */\n      add\n        /* \"#utility.yul\":29031:29034   */\n      dup6\n        /* \"#utility.yul\":29023:29029   */\n      dup2\n        /* \"#utility.yul\":29020:29035   */\n      gt\n        /* \"#utility.yul\":29017:29139   */\n      iszero\n      tag_648\n      jumpi\n        /* \"#utility.yul\":29050:29129   */\n      tag_649\n      tag_268\n      jump\t// in\n    tag_649:\n        /* \"#utility.yul\":29017:29139   */\n    tag_648:\n        /* \"#utility.yul\":29165:29171   */\n      dup4\n        /* \"#utility.yul\":29148:29379   */\n    tag_650:\n        /* \"#utility.yul\":29182:29188   */\n      dup2\n        /* \"#utility.yul\":29177:29180   */\n      dup2\n        /* \"#utility.yul\":29174:29189   */\n      lt\n        /* \"#utility.yul\":29148:29379   */\n      iszero\n      tag_652\n      jumpi\n        /* \"#utility.yul\":29257:29260   */\n      dup1\n        /* \"#utility.yul\":29286:29334   */\n      tag_653\n        /* \"#utility.yul\":29330:29333   */\n      dup9\n        /* \"#utility.yul\":29318:29328   */\n      dup3\n        /* \"#utility.yul\":29286:29334   */\n      tag_336\n      jump\t// in\n    tag_653:\n        /* \"#utility.yul\":29281:29284   */\n      dup5\n        /* \"#utility.yul\":29274:29335   */\n      mstore\n        /* \"#utility.yul\":29364:29368   */\n      0x20\n        /* \"#utility.yul\":29359:29362   */\n      dup5\n        /* \"#utility.yul\":29355:29369   */\n      add\n        /* \"#utility.yul\":29348:29369   */\n      swap4\n      pop\n        /* \"#utility.yul\":29224:29379   */\n      pop\n        /* \"#utility.yul\":29208:29212   */\n      0x20\n        /* \"#utility.yul\":29203:29206   */\n      dup2\n        /* \"#utility.yul\":29199:29213   */\n      add\n        /* \"#utility.yul\":29192:29213   */\n      swap1\n      pop\n        /* \"#utility.yul\":29148:29379   */\n      jump(tag_650)\n    tag_652:\n        /* \"#utility.yul\":29152:29173   */\n      pop\n        /* \"#utility.yul\":28766:29385   */\n      pop\n      pop\n        /* \"#utility.yul\":28653:29385   */\n      swap4\n      swap3\n      pop\n      pop\n      pop\n      jump\t// out\n        /* \"#utility.yul\":29408:29793   */\n    tag_338:\n        /* \"#utility.yul\":29490:29495   */\n      0x00\n        /* \"#utility.yul\":29539:29542   */\n      dup3\n        /* \"#utility.yul\":29532:29536   */\n      0x1f\n        /* \"#utility.yul\":29524:29530   */\n      dup4\n        /* \"#utility.yul\":29520:29537   */\n      add\n        /* \"#utility.yul\":29516:29543   */\n      slt\n        /* \"#utility.yul\":29506:29628   */\n      tag_655\n      jumpi\n        /* \"#utility.yul\":29547:29626   */\n      tag_656\n      tag_263\n      jump\t// in\n    tag_656:\n        /* \"#utility.yul\":29506:29628   */\n    tag_655:\n        /* \"#utility.yul\":29657:29663   */\n      dup2\n        /* \"#utility.yul\":29651:29664   */\n      mload\n        /* \"#utility.yul\":29682:29787   */\n      tag_657\n        /* \"#utility.yul\":29783:29786   */\n      dup5\n        /* \"#utility.yul\":29775:29781   */\n      dup3\n        /* \"#utility.yul\":29768:29772   */\n      0x20\n        /* \"#utility.yul\":29760:29766   */\n      dup7\n        /* \"#utility.yul\":29756:29773   */\n      add\n        /* \"#utility.yul\":29682:29787   */\n      tag_337\n      jump\t// in\n    tag_657:\n        /* \"#utility.yul\":29673:29787   */\n      swap2\n      pop\n        /* \"#utility.yul\":29496:29793   */\n      pop\n        /* \"#utility.yul\":29408:29793   */\n      swap3\n      swap2\n      pop\n      pop\n      jump\t// out\n        /* \"#utility.yul\":29799:29903   */\n    tag_339:\n        /* \"#utility.yul\":29844:29851   */\n      0x00\n        /* \"#utility.yul\":29873:29897   */\n      tag_659\n        /* \"#utility.yul\":29891:29896   */\n      dup3\n        /* \"#utility.yul\":29873:29897   */\n      tag_269\n      jump\t// in\n    tag_659:\n        /* \"#utility.yul\":29862:29897   */\n      swap1\n      pop\n        /* \"#utility.yul\":29799:29903   */\n      swap2\n      swap1\n      pop\n      jump\t// out\n        /* \"#utility.yul\":29909:30047   */\n    tag_340:\n        /* \"#utility.yul\":29990:30022   */\n      tag_661\n        /* \"#utility.yul\":30016:30021   */\n      dup2\n        /* \"#utility.yul\":29990:30022   */\n      tag_339\n      jump\t// in\n    tag_661:\n        /* \"#utility.yul\":29983:29988   */\n      dup2\n        /* \"#utility.yul\":29980:30023   */\n      eq\n        /* \"#utility.yul\":29970:30041   */\n      tag_662\n      jumpi\n        /* \"#utility.yul\":30037:30038   */\n      0x00\n        /* \"#utility.yul\":30034:30035   */\n      dup1\n        /* \"#utility.yul\":30027:30039   */\n      revert\n        /* \"#utility.yul\":29970:30041   */\n    tag_662:\n        /* \"#utility.yul\":29909:30047   */\n      pop\n      jump\t// out\n        /* \"#utility.yul\":30053:30212   */\n    tag_341:\n        /* \"#utility.yul\":30118:30123   */\n      0x00\n        /* \"#utility.yul\":30149:30155   */\n      dup2\n        /* \"#utility.yul\":30143:30156   */\n      mload\n        /* \"#utility.yul\":30134:30156   */\n      swap1\n      pop\n        /* \"#utility.yul\":30165:30206   */\n      tag_664\n        /* \"#utility.yul\":30200:30205   */\n      dup2\n        /* \"#utility.yul\":30165:30206   */\n      tag_340\n      jump\t// in\n    tag_664:\n        /* \"#utility.yul\":30053:30212   */\n      swap3\n      swap2\n      pop\n      pop\n      jump\t// out\n        /* \"#utility.yul\":30218:31303   */\n    tag_222:\n        /* \"#utility.yul\":30364:30370   */\n      0x00\n        /* \"#utility.yul\":30372:30378   */\n      dup1\n        /* \"#utility.yul\":30380:30386   */\n      0x00\n        /* \"#utility.yul\":30429:30431   */\n      0x60\n        /* \"#utility.yul\":30417:30426   */\n      dup5\n        /* \"#utility.yul\":30408:30415   */\n      dup7\n        /* \"#utility.yul\":30404:30427   */\n      sub\n        /* \"#utility.yul\":30400:30432   */\n      slt\n        /* \"#utility.yul\":30397:30516   */\n      iszero\n      tag_666\n      jumpi\n        /* \"#utility.yul\":30435:30514   */\n      tag_667\n      tag_261\n      jump\t// in\n    tag_667:\n        /* \"#utility.yul\":30397:30516   */\n    tag_666:\n        /* \"#utility.yul\":30576:30577   */\n      0x00\n        /* \"#utility.yul\":30565:30574   */\n      dup5\n        /* \"#utility.yul\":30561:30578   */\n      add\n        /* \"#utility.yul\":30555:30579   */\n      mload\n        /* \"#utility.yul\":30606:30624   */\n      0xffffffffffffffff\n        /* \"#utility.yul\":30598:30604   */\n      dup2\n        /* \"#utility.yul\":30595:30625   */\n      gt\n        /* \"#utility.yul\":30592:30709   */\n      iszero\n      tag_668\n      jumpi\n        /* \"#utility.yul\":30628:30707   */\n      tag_669\n      tag_262\n      jump\t// in\n    tag_669:\n        /* \"#utility.yul\":30592:30709   */\n    tag_668:\n        /* \"#utility.yul\":30733:30822   */\n      tag_670\n        /* \"#utility.yul\":30814:30821   */\n      dup7\n        /* \"#utility.yul\":30805:30811   */\n      dup3\n        /* \"#utility.yul\":30794:30803   */\n      dup8\n        /* \"#utility.yul\":30790:30812   */\n      add\n        /* \"#utility.yul\":30733:30822   */\n      tag_335\n      jump\t// in\n    tag_670:\n        /* \"#utility.yul\":30723:30822   */\n      swap4\n      pop\n        /* \"#utility.yul\":30526:30832   */\n      pop\n        /* \"#utility.yul\":30892:30894   */\n      0x20\n        /* \"#utility.yul\":30881:30890   */\n      dup5\n        /* \"#utility.yul\":30877:30895   */\n      add\n        /* \"#utility.yul\":30871:30896   */\n      mload\n        /* \"#utility.yul\":30923:30941   */\n      0xffffffffffffffff\n        /* \"#utility.yul\":30915:30921   */\n      dup2\n        /* \"#utility.yul\":30912:30942   */\n      gt\n        /* \"#utility.yul\":30909:31026   */\n      iszero\n      tag_671\n      jumpi\n        /* \"#utility.yul\":30945:31024   */\n      tag_672\n      tag_262\n      jump\t// in\n    tag_672:\n        /* \"#utility.yul\":30909:31026   */\n    tag_671:\n        /* \"#utility.yul\":31050:31139   */\n      tag_673\n        /* \"#utility.yul\":31131:31138   */\n      dup7\n        /* \"#utility.yul\":31122:31128   */\n      dup3\n        /* \"#utility.yul\":31111:31120   */\n      dup8\n        /* \"#utility.yul\":31107:31129   */\n      add\n        /* \"#utility.yul\":31050:31139   */\n      tag_338\n      jump\t// in\n    tag_673:\n        /* \"#utility.yul\":31040:31139   */\n      swap3\n      pop\n        /* \"#utility.yul\":30842:31149   */\n      pop\n        /* \"#utility.yul\":31188:31190   */\n      0x40\n        /* \"#utility.yul\":31214:31286   */\n      tag_674\n        /* \"#utility.yul\":31278:31285   */\n      dup7\n        /* \"#utility.yul\":31269:31275   */\n      dup3\n        /* \"#utility.yul\":31258:31267   */\n      dup8\n        /* \"#utility.yul\":31254:31276   */\n      add\n        /* \"#utility.yul\":31214:31286   */\n      tag_341\n      jump\t// in\n    tag_674:\n        /* \"#utility.yul\":31204:31286   */\n      swap2\n      pop\n        /* \"#utility.yul\":31159:31296   */\n      pop\n        /* \"#utility.yul\":30218:31303   */\n      swap3\n      pop\n      swap3\n      pop\n      swap3\n      jump\t// out\n        /* \"#utility.yul\":31309:31751   */\n    tag_234:\n        /* \"#utility.yul\":31458:31462   */\n      0x00\n        /* \"#utility.yul\":31496:31498   */\n      0x60\n        /* \"#utility.yul\":31485:31494   */\n      dup3\n        /* \"#utility.yul\":31481:31499   */\n      add\n        /* \"#utility.yul\":31473:31499   */\n      swap1\n      pop\n        /* \"#utility.yul\":31509:31580   */\n      tag_676\n        /* \"#utility.yul\":31577:31578   */\n      0x00\n        /* \"#utility.yul\":31566:31575   */\n      dup4\n        /* \"#utility.yul\":31562:31579   */\n      add\n        /* \"#utility.yul\":31553:31559   */\n      dup7\n        /* \"#utility.yul\":31509:31580   */\n      tag_287\n      jump\t// in\n    tag_676:\n        /* \"#utility.yul\":31590:31662   */\n      tag_677\n        /* \"#utility.yul\":31658:31660   */\n      0x20\n        /* \"#utility.yul\":31647:31656   */\n      dup4\n        /* \"#utility.yul\":31643:31661   */\n      add\n        /* \"#utility.yul\":31634:31640   */\n      dup6\n        /* \"#utility.yul\":31590:31662   */\n      tag_285\n      jump\t// in\n    tag_677:\n        /* \"#utility.yul\":31672:31744   */\n      tag_678\n        /* \"#utility.yul\":31740:31742   */\n      0x40\n        /* \"#utility.yul\":31729:31738   */\n      dup4\n        /* \"#utility.yul\":31725:31743   */\n      add\n        /* \"#utility.yul\":31716:31722   */\n      dup5\n        /* \"#utility.yul\":31672:31744   */\n      tag_285\n      jump\t// in\n    tag_678:\n        /* \"#utility.yul\":31309:31751   */\n      swap5\n      swap4\n      pop\n      pop\n      pop\n      pop\n      jump\t// out\n\n    auxdata: 0xa26469706673582212207693d36b316bd35c3cbbbfd1e310897b7db4b795ff1cb46ca437ff959206ab4964736f6c63430008130033\n}\n",
				"bytecode": {
					"linkReferences": {},
					"object": "60c06040523480156200001157600080fd5b5060405162001f7238038062001f72833981810160405281019062000037919062000145565b806040518060400160405280600f81526020017f59656574657220537472617465677900000000000000000000000000000000008152508173ffffffffffffffffffffffffffffffffffffffff1660808173ffffffffffffffffffffffffffffffffffffffff168152505080604051602001620000b5919062000211565b6040516020818303038152906040528051906020012060a0818152505050505062000235565b600080fd5b600073ffffffffffffffffffffffffffffffffffffffff82169050919050565b60006200010d82620000e0565b9050919050565b6200011f8162000100565b81146200012b57600080fd5b50565b6000815190506200013f8162000114565b92915050565b6000602082840312156200015e576200015d620000db565b5b60006200016e848285016200012e565b91505092915050565b600081519050919050565b600082825260208201905092915050565b60005b83811015620001b357808201518184015260208101905062000196565b60008484015250505050565b6000601f19601f8301169050919050565b6000620001dd8262000177565b620001e9818562000182565b9350620001fb81856020860162000193565b6200020681620001bf565b840191505092915050565b600060208201905081810360008301526200022d8184620001d0565b905092915050565b60805160a051611d0962000269600039600061047901526000818161040f0152818161071a01526108570152611d096000f3fe6080604052600436106100f75760003560e01c8063a0cf0aea1161008a578063eb11af9311610059578063eb11af931461032a578063edd146cc14610367578063ef2920fc14610390578063f5b0dfb7146103ac576100fe565b8063a0cf0aea1461026e578063b2b878d014610299578063d9caed12146102d6578063df868ed3146102ff576100fe565b806342fda9c7116100c657806342fda9c7146101b257806344469f98146101dd5780634ab4ba42146102065780634d31d08714610231576100fe565b80630a6f0ee91461010357806315cc481e1461012c5780632bbe0cae1461015757806338fff2d014610187576100fe565b366100fe57005b600080fd5b34801561010f57600080fd5b5061012a60048036038101906101259190610f60565b6103d5565b005b34801561013857600080fd5b5061014161040b565b60405161014e919061104a565b60405180910390f35b610171600480360381019061016c9190611065565b610433565b60405161017e91906110d0565b60405180910390f35b34801561019357600080fd5b5061019c61046b565b6040516101a99190611104565b60405180910390f35b3480156101be57600080fd5b506101c7610475565b6040516101d49190611138565b60405180910390f35b3480156101e957600080fd5b5061020460048036038101906101ff9190611242565b61049d565b005b34801561021257600080fd5b5061021b6104e0565b6040516102289190611104565b60405180910390f35b34801561023d57600080fd5b50610258600480360381019061025391906112cd565b6104ea565b6040516102659190611315565b60405180910390f35b34801561027a57600080fd5b506102836104fc565b60405161029091906110d0565b60405180910390f35b3480156102a557600080fd5b506102c060048036038101906102bb9190611411565b610514565b6040516102cd9190611585565b60405180910390f35b3480156102e257600080fd5b506102fd60048036038101906102f891906115a7565b61062e565b005b34801561030b57600080fd5b50610314610649565b6040516103219190611315565b60405180910390f35b34801561033657600080fd5b50610351600480360381019061034c91906112cd565b610658565b60405161035e9190611671565b60405180910390f35b34801561037357600080fd5b5061038e6004803603810190610389919061168c565b61066a565b005b6103aa60048036038101906103a59190611065565b6106b0565b005b3480156103b857600080fd5b506103d360048036038101906103ce91906116e8565b6106e2565b005b6103dd610718565b6103e561079f565b6103f08383836107dd565b6103fb8383836107e2565b610406838383610814565b505050565b60007f0000000000000000000000000000000000000000000000000000000000000000905090565b600061043d610718565b61044561079f565b61044f8383610819565b610459838361081d565b90506104658383610851565b92915050565b6000600154905090565b60007f0000000000000000000000000000000000000000000000000000000000000000905090565b336104a781610855565b60008484846040516020016104be93929190611873565b60405160208183030381529060405290506104d9813361092c565b5050505050565b6000600254905090565b60006104f582610a8c565b9050919050565b73eeeeeeeeeeeeeeeeeeeeeeeeeeeeeeeeeeeeeeee81565b606060008351905082518114610556576040517f7b49805600000000000000000000000000000000000000000000000000000000815260040160405180910390fd5b60008167ffffffffffffffff81111561057257610571610d0a565b5b6040519080825280602002602001820160405280156105ab57816020015b610598610cb0565b8152602001906001900390816105905790505b50905060005b82811015610622576105f78682815181106105cf576105ce6118b8565b5b60200260200101518683815181106105ea576105e96118b8565b5b6020026020010151610ac0565b82828151811061060a576106096118b8565b5b602002602001018190525080806001019150506105b1565b50809250505092915050565b3361063881610855565b610643848484610afa565b50505050565b6000610653610b61565b905090565b600061066382610b77565b9050919050565b61067382610bab565b7f91efa3d50feccde0d0d202f8ae5c41ca0b2be614cebcb2bd2f4b019396e6568a82826040516106a4929190611966565b60405180910390a15050565b6106b8610718565b6106c061079f565b6106ca8282610c33565b6106d4828261092c565b6106de8282610c37565b5050565b6106ea610718565b6106f381610c3b565b806002600082825461070591906119c5565b9250508190555061071581610c3e565b50565b7f000000000000000000000000000000000000000000000000000000000000000073ffffffffffffffffffffffffffffffffffffffff163373ffffffffffffffffffffffffffffffffffffffff161461079d576040517f075fd2b100000000000000000000000000000000000000000000000000000000815260040160405180910390fd5b565b6000600154036107db576040517f3da3f98c00000000000000000000000000000000000000000000000000000000815260040160405180910390fd5b565b505050565b6040517f1569426800000000000000000000000000000000000000000000000000000000815260040160405180910390fd5b505050565b5050565b60006040517f1569426800000000000000000000000000000000000000000000000000000000815260040160405180910390fd5b5050565b7f000000000000000000000000000000000000000000000000000000000000000073ffffffffffffffffffffffffffffffffffffffff166329e40d4b600154836040518363ffffffff1660e01b81526004016108b29291906119f9565b602060405180830381865afa1580156108cf573d6000803e3d6000fd5b505050506040513d601f19601f820116820180604052508101906108f39190611a4e565b610929576040517f075fd2b100000000000000000000000000000000000000000000000000000000815260040160405180910390fd5b50565b8061093681610855565b60008060008580602001905181019061094f9190611c11565b92509250925060008351905060008103610995576040517ffb76571500000000000000000000000000000000000000000000000000000000815260040160405180910390fd5b825181146109cf576040517ffb76571500000000000000000000000000000000000000000000000000000000815260040160405180910390fd5b60005b81811015610a825760008482815181106109ef576109ee6118b8565b5b602002602001015190506000868381518110610a0e57610a0d6118b8565b5b60200260200101519050610a23858284610afa565b8073ffffffffffffffffffffffffffffffffffffffff167f463ffc2cf8b1596445c417388ed30e53eb67cf6668cb2be7f0addf8a78c8441b83878c604051610a6d93929190611c9c565b60405180910390a282600101925050506109d2565b5050505050505050565b60006040517f1569426800000000000000000000000000000000000000000000000000000000815260040160405180910390fd5b610ac8610cb0565b6040517f1569426800000000000000000000000000000000000000000000000000000000815260040160405180910390fd5b73eeeeeeeeeeeeeeeeeeeeeeeeeeeeeeeeeeeeeeee73ffffffffffffffffffffffffffffffffffffffff168373ffffffffffffffffffffffffffffffffffffffff1603610b5057610b4b8282610c41565b610b5c565b610b5b838383610c61565b5b505050565b60008060009054906101000a900460ff16905090565b60006040517f1569426800000000000000000000000000000000000000000000000000000000815260040160405180910390fd5b610bb3610718565b600060015414610bef576040517f439a74c900000000000000000000000000000000000000000000000000000000815260040160405180910390fd5b60008103610c29576040517f7fcce2a900000000000000000000000000000000000000000000000000000000815260040160405180910390fd5b8060018190555050565b5050565b5050565b50565b50565b60008060008084865af1610c5d5763b12d13eb6000526004601cfd5b5050565b81601452806034526fa9059cbb00000000000000000000000060005260206000604460106000875af13d156001600051141716610ca6576390b8ec186000526004601cfd5b6000603452505050565b6040518060400160405280600073ffffffffffffffffffffffffffffffffffffffff168152602001600081525090565b6000604051905090565b600080fd5b600080fd5b600080fd5b6000601f19601f8301169050919050565b7f4e487b7100000000000000000000000000000000000000000000000000000000600052604160045260246000fd5b610d4282610cf9565b810181811067ffffffffffffffff82111715610d6157610d60610d0a565b5b80604052505050565b6000610d74610ce0565b9050610d808282610d39565b919050565b600067ffffffffffffffff821115610da057610d9f610d0a565b5b602082029050602081019050919050565b600080fd5b600073ffffffffffffffffffffffffffffffffffffffff82169050919050565b6000610de182610db6565b9050919050565b610df181610dd6565b8114610dfc57600080fd5b50565b600081359050610e0e81610de8565b92915050565b6000610e27610e2284610d85565b610d6a565b90508083825260208201905060208402830185811115610e4a57610e49610db1565b5b835b81811015610e735780610e5f8882610dff565b845260208401935050602081019050610e4c565b5050509392505050565b600082601f830112610e9257610e91610cf4565b5b8135610ea2848260208601610e14565b91505092915050565b600080fd5b600067ffffffffffffffff821115610ecb57610eca610d0a565b5b610ed482610cf9565b9050602081019050919050565b82818337600083830152505050565b6000610f03610efe84610eb0565b610d6a565b905082815260208101848484011115610f1f57610f1e610eab565b5b610f2a848285610ee1565b509392505050565b600082601f830112610f4757610f46610cf4565b5b8135610f57848260208601610ef0565b91505092915050565b600080600060608486031215610f7957610f78610cea565b5b600084013567ffffffffffffffff811115610f9757610f96610cef565b5b610fa386828701610e7d565b935050602084013567ffffffffffffffff811115610fc457610fc3610cef565b5b610fd086828701610f32565b9250506040610fe186828701610dff565b9150509250925092565b6000819050919050565b600061101061100b61100684610db6565b610feb565b610db6565b9050919050565b600061102282610ff5565b9050919050565b600061103482611017565b9050919050565b61104481611029565b82525050565b600060208201905061105f600083018461103b565b92915050565b6000806040838503121561107c5761107b610cea565b5b600083013567ffffffffffffffff81111561109a57611099610cef565b5b6110a685828601610f32565b92505060206110b785828601610dff565b9150509250929050565b6110ca81610dd6565b82525050565b60006020820190506110e560008301846110c1565b92915050565b6000819050919050565b6110fe816110eb565b82525050565b600060208201905061111960008301846110f5565b92915050565b6000819050919050565b6111328161111f565b82525050565b600060208201905061114d6000830184611129565b92915050565b600067ffffffffffffffff82111561116e5761116d610d0a565b5b602082029050602081019050919050565b611188816110eb565b811461119357600080fd5b50565b6000813590506111a58161117f565b92915050565b60006111be6111b984611153565b610d6a565b905080838252602082019050602084028301858111156111e1576111e0610db1565b5b835b8181101561120a57806111f68882611196565b8452602084019350506020810190506111e3565b5050509392505050565b600082601f83011261122957611228610cf4565b5b81356112398482602086016111ab565b91505092915050565b60008060006060848603121561125b5761125a610cea565b5b600084013567ffffffffffffffff81111561127957611278610cef565b5b61128586828701610e7d565b935050602084013567ffffffffffffffff8111156112a6576112a5610cef565b5b6112b286828701611214565b92505060406112c386828701610dff565b9150509250925092565b6000602082840312156112e3576112e2610cea565b5b60006112f184828501610dff565b91505092915050565b60008115159050919050565b61130f816112fa565b82525050565b600060208201905061132a6000830184611306565b92915050565b600067ffffffffffffffff82111561134b5761134a610d0a565b5b602082029050602081019050919050565b600061136f61136a84611330565b610d6a565b9050808382526020820190506020840283018581111561139257611391610db1565b5b835b818110156113d957803567ffffffffffffffff8111156113b7576113b6610cf4565b5b8086016113c48982610f32565b85526020850194505050602081019050611394565b5050509392505050565b600082601f8301126113f8576113f7610cf4565b5b813561140884826020860161135c565b91505092915050565b6000806040838503121561142857611427610cea565b5b600083013567ffffffffffffffff81111561144657611445610cef565b5b61145285828601610e7d565b925050602083013567ffffffffffffffff81111561147357611472610cef565b5b61147f858286016113e3565b9150509250929050565b600081519050919050565b600082825260208201905092915050565b6000819050602082019050919050565b6114be81610dd6565b82525050565b6114cd816110eb565b82525050565b6040820160008201516114e960008501826114b5565b5060208201516114fc60208501826114c4565b50505050565b600061150e83836114d3565b60408301905092915050565b6000602082019050919050565b600061153282611489565b61153c8185611494565b9350611547836114a5565b8060005b8381101561157857815161155f8882611502565b975061156a8361151a565b92505060018101905061154b565b5085935050505092915050565b6000602082019050818103600083015261159f8184611527565b905092915050565b6000806000606084860312156115c0576115bf610cea565b5b60006115ce86828701610dff565b93505060206115df86828701610dff565b92505060406115f086828701611196565b9150509250925092565b7f4e487b7100000000000000000000000000000000000000000000000000000000600052602160045260246000fd5b6007811061163a576116396115fa565b5b50565b600081905061164b82611629565b919050565b600061165b8261163d565b9050919050565b61166b81611650565b82525050565b60006020820190506116866000830184611662565b92915050565b600080604083850312156116a3576116a2610cea565b5b60006116b185828601611196565b925050602083013567ffffffffffffffff8111156116d2576116d1610cef565b5b6116de85828601610f32565b9150509250929050565b6000602082840312156116fe576116fd610cea565b5b600061170c84828501611196565b91505092915050565b600081519050919050565b600082825260208201905092915050565b6000819050602082019050919050565b600061174d83836114b5565b60208301905092915050565b6000602082019050919050565b600061177182611715565b61177b8185611720565b935061178683611731565b8060005b838110156117b757815161179e8882611741565b97506117a983611759565b92505060018101905061178a565b5085935050505092915050565b600081519050919050565b600082825260208201905092915050565b6000819050602082019050919050565b60006117fc83836114c4565b60208301905092915050565b6000602082019050919050565b6000611820826117c4565b61182a81856117cf565b9350611835836117e0565b8060005b8381101561186657815161184d88826117f0565b975061185883611808565b925050600181019050611839565b5085935050505092915050565b6000606082019050818103600083015261188d8186611766565b905081810360208301526118a18185611815565b90506118b060408301846110c1565b949350505050565b7f4e487b7100000000000000000000000000000000000000000000000000000000600052603260045260246000fd5b600081519050919050565b600082825260208201905092915050565b60005b83811015611921578082015181840152602081019050611906565b60008484015250505050565b6000611938826118e7565b61194281856118f2565b9350611952818560208601611903565b61195b81610cf9565b840191505092915050565b600060408201905061197b60008301856110f5565b818103602083015261198d818461192d565b90509392505050565b7f4e487b7100000000000000000000000000000000000000000000000000000000600052601160045260246000fd5b60006119d0826110eb565b91506119db836110eb565b92508282019050808211156119f3576119f2611996565b5b92915050565b6000604082019050611a0e60008301856110f5565b611a1b60208301846110c1565b9392505050565b611a2b816112fa565b8114611a3657600080fd5b50565b600081519050611a4881611a22565b92915050565b600060208284031215611a6457611a63610cea565b5b6000611a7284828501611a39565b91505092915050565b600081519050611a8a81610de8565b92915050565b6000611aa3611a9e84610d85565b610d6a565b90508083825260208201905060208402830185811115611ac657611ac5610db1565b5b835b81811015611aef5780611adb8882611a7b565b845260208401935050602081019050611ac8565b5050509392505050565b600082601f830112611b0e57611b0d610cf4565b5b8151611b1e848260208601611a90565b91505092915050565b600081519050611b368161117f565b92915050565b6000611b4f611b4a84611153565b610d6a565b90508083825260208201905060208402830185811115611b7257611b71610db1565b5b835b81811015611b9b5780611b878882611b27565b845260208401935050602081019050611b74565b5050509392505050565b600082601f830112611bba57611bb9610cf4565b5b8151611bca848260208601611b3c565b91505092915050565b6000611bde82610db6565b9050919050565b611bee81611bd3565b8114611bf957600080fd5b50565b600081519050611c0b81611be5565b92915050565b600080600060608486031215611c2a57611c29610cea565b5b600084015167ffffffffffffffff811115611c4857611c47610cef565b5b611c5486828701611af9565b935050602084015167ffffffffffffffff811115611c7557611c74610cef565b5b611c8186828701611ba5565b9250506040611c9286828701611bfc565b9150509250925092565b6000606082019050611cb160008301866110f5565b611cbe60208301856110c1565b611ccb60408301846110c1565b94935050505056fea26469706673582212207693d36b316bd35c3cbbbfd1e310897b7db4b795ff1cb46ca437ff959206ab4964736f6c63430008130033",
					"opcodes": "PUSH1 0xC0 PUSH1 0x40 MSTORE CALLVALUE DUP1 ISZERO PUSH3 0x11 JUMPI PUSH1 0x0 DUP1 REVERT JUMPDEST POP PUSH1 0x40 MLOAD PUSH3 0x1F72 CODESIZE SUB DUP1 PUSH3 0x1F72 DUP4 CODECOPY DUP2 DUP2 ADD PUSH1 0x40 MSTORE DUP2 ADD SWAP1 PUSH3 0x37 SWAP2 SWAP1 PUSH3 0x145 JUMP JUMPDEST DUP1 PUSH1 0x40 MLOAD DUP1 PUSH1 0x40 ADD PUSH1 0x40 MSTORE DUP1 PUSH1 0xF DUP2 MSTORE PUSH1 0x20 ADD PUSH32 0x5965657465722053747261746567790000000000000000000000000000000000 DUP2 MSTORE POP DUP2 PUSH20 0xFFFFFFFFFFFFFFFFFFFFFFFFFFFFFFFFFFFFFFFF AND PUSH1 0x80 DUP2 PUSH20 0xFFFFFFFFFFFFFFFFFFFFFFFFFFFFFFFFFFFFFFFF AND DUP2 MSTORE POP POP DUP1 PUSH1 0x40 MLOAD PUSH1 0x20 ADD PUSH3 0xB5 SWAP2 SWAP1 PUSH3 0x211 JUMP JUMPDEST PUSH1 0x40 MLOAD PUSH1 0x20 DUP2 DUP4 SUB SUB DUP2 MSTORE SWAP1 PUSH1 0x40 MSTORE DUP1 MLOAD SWAP1 PUSH1 0x20 ADD KECCAK256 PUSH1 0xA0 DUP2 DUP2 MSTORE POP POP POP POP POP PUSH3 0x235 JUMP JUMPDEST PUSH1 0x0 DUP1 REVERT JUMPDEST PUSH1 0x0 PUSH20 0xFFFFFFFFFFFFFFFFFFFFFFFFFFFFFFFFFFFFFFFF DUP3 AND SWAP1 POP SWAP2 SWAP1 POP JUMP JUMPDEST PUSH1 0x0 PUSH3 0x10D DUP3 PUSH3 0xE0 JUMP JUMPDEST SWAP1 POP SWAP2 SWAP1 POP JUMP JUMPDEST PUSH3 0x11F DUP2 PUSH3 0x100 JUMP JUMPDEST DUP2 EQ PUSH3 0x12B JUMPI PUSH1 0x0 DUP1 REVERT JUMPDEST POP JUMP JUMPDEST PUSH1 0x0 DUP2 MLOAD SWAP1 POP PUSH3 0x13F DUP2 PUSH3 0x114 JUMP JUMPDEST SWAP3 SWAP2 POP POP JUMP JUMPDEST PUSH1 0x0 PUSH1 0x20 DUP3 DUP5 SUB SLT ISZERO PUSH3 0x15E JUMPI PUSH3 0x15D PUSH3 0xDB JUMP JUMPDEST JUMPDEST PUSH1 0x0 PUSH3 0x16E DUP5 DUP3 DUP6 ADD PUSH3 0x12E JUMP JUMPDEST SWAP2 POP POP SWAP3 SWAP2 POP POP JUMP JUMPDEST PUSH1 0x0 DUP2 MLOAD SWAP1 POP SWAP2 SWAP1 POP JUMP JUMPDEST PUSH1 0x0 DUP3 DUP3 MSTORE PUSH1 0x20 DUP3 ADD SWAP1 POP SWAP3 SWAP2 POP POP JUMP JUMPDEST PUSH1 0x0 JUMPDEST DUP4 DUP2 LT ISZERO PUSH3 0x1B3 JUMPI DUP1 DUP3 ADD MLOAD DUP2 DUP5 ADD MSTORE PUSH1 0x20 DUP2 ADD SWAP1 POP PUSH3 0x196 JUMP JUMPDEST PUSH1 0x0 DUP5 DUP5 ADD MSTORE POP POP POP POP JUMP JUMPDEST PUSH1 0x0 PUSH1 0x1F NOT PUSH1 0x1F DUP4 ADD AND SWAP1 POP SWAP2 SWAP1 POP JUMP JUMPDEST PUSH1 0x0 PUSH3 0x1DD DUP3 PUSH3 0x177 JUMP JUMPDEST PUSH3 0x1E9 DUP2 DUP6 PUSH3 0x182 JUMP JUMPDEST SWAP4 POP PUSH3 0x1FB DUP2 DUP6 PUSH1 0x20 DUP7 ADD PUSH3 0x193 JUMP JUMPDEST PUSH3 0x206 DUP2 PUSH3 0x1BF JUMP JUMPDEST DUP5 ADD SWAP2 POP POP SWAP3 SWAP2 POP POP JUMP JUMPDEST PUSH1 0x0 PUSH1 0x20 DUP3 ADD SWAP1 POP DUP2 DUP2 SUB PUSH1 0x0 DUP4 ADD MSTORE PUSH3 0x22D DUP2 DUP5 PUSH3 0x1D0 JUMP JUMPDEST SWAP1 POP SWAP3 SWAP2 POP POP JUMP JUMPDEST PUSH1 0x80 MLOAD PUSH1 0xA0 MLOAD PUSH2 0x1D09 PUSH3 0x269 PUSH1 0x0 CODECOPY PUSH1 0x0 PUSH2 0x479 ADD MSTORE PUSH1 0x0 DUP2 DUP2 PUSH2 0x40F ADD MSTORE DUP2 DUP2 PUSH2 0x71A ADD MSTORE PUSH2 0x857 ADD MSTORE PUSH2 0x1D09 PUSH1 0x0 RETURN INVALID PUSH1 0x80 PUSH1 0x40 MSTORE PUSH1 0x4 CALLDATASIZE LT PUSH2 0xF7 JUMPI PUSH1 0x0 CALLDATALOAD PUSH1 0xE0 SHR DUP1 PUSH4 0xA0CF0AEA GT PUSH2 0x8A JUMPI DUP1 PUSH4 0xEB11AF93 GT PUSH2 0x59 JUMPI DUP1 PUSH4 0xEB11AF93 EQ PUSH2 0x32A JUMPI DUP1 PUSH4 0xEDD146CC EQ PUSH2 0x367 JUMPI DUP1 PUSH4 0xEF2920FC EQ PUSH2 0x390 JUMPI DUP1 PUSH4 0xF5B0DFB7 EQ PUSH2 0x3AC JUMPI PUSH2 0xFE JUMP JUMPDEST DUP1 PUSH4 0xA0CF0AEA EQ PUSH2 0x26E JUMPI DUP1 PUSH4 0xB2B878D0 EQ PUSH2 0x299 JUMPI DUP1 PUSH4 0xD9CAED12 EQ PUSH2 0x2D6 JUMPI DUP1 PUSH4 0xDF868ED3 EQ PUSH2 0x2FF JUMPI PUSH2 0xFE JUMP JUMPDEST DUP1 PUSH4 0x42FDA9C7 GT PUSH2 0xC6 JUMPI DUP1 PUSH4 0x42FDA9C7 EQ PUSH2 0x1B2 JUMPI DUP1 PUSH4 0x44469F98 EQ PUSH2 0x1DD JUMPI DUP1 PUSH4 0x4AB4BA42 EQ PUSH2 0x206 JUMPI DUP1 PUSH4 0x4D31D087 EQ PUSH2 0x231 JUMPI PUSH2 0xFE JUMP JUMPDEST DUP1 PUSH4 0xA6F0EE9 EQ PUSH2 0x103 JUMPI DUP1 PUSH4 0x15CC481E EQ PUSH2 0x12C JUMPI DUP1 PUSH4 0x2BBE0CAE EQ PUSH2 0x157 JUMPI DUP1 PUSH4 0x38FFF2D0 EQ PUSH2 0x187 JUMPI PUSH2 0xFE JUMP JUMPDEST CALLDATASIZE PUSH2 0xFE JUMPI STOP JUMPDEST PUSH1 0x0 DUP1 REVERT JUMPDEST CALLVALUE DUP1 ISZERO PUSH2 0x10F JUMPI PUSH1 0x0 DUP1 REVERT JUMPDEST POP PUSH2 0x12A PUSH1 0x4 DUP1 CALLDATASIZE SUB DUP2 ADD SWAP1 PUSH2 0x125 SWAP2 SWAP1 PUSH2 0xF60 JUMP JUMPDEST PUSH2 0x3D5 JUMP JUMPDEST STOP JUMPDEST CALLVALUE DUP1 ISZERO PUSH2 0x138 JUMPI PUSH1 0x0 DUP1 REVERT JUMPDEST POP PUSH2 0x141 PUSH2 0x40B JUMP JUMPDEST PUSH1 0x40 MLOAD PUSH2 0x14E SWAP2 SWAP1 PUSH2 0x104A JUMP JUMPDEST PUSH1 0x40 MLOAD DUP1 SWAP2 SUB SWAP1 RETURN JUMPDEST PUSH2 0x171 PUSH1 0x4 DUP1 CALLDATASIZE SUB DUP2 ADD SWAP1 PUSH2 0x16C SWAP2 SWAP1 PUSH2 0x1065 JUMP JUMPDEST PUSH2 0x433 JUMP JUMPDEST PUSH1 0x40 MLOAD PUSH2 0x17E SWAP2 SWAP1 PUSH2 0x10D0 JUMP JUMPDEST PUSH1 0x40 MLOAD DUP1 SWAP2 SUB SWAP1 RETURN JUMPDEST CALLVALUE DUP1 ISZERO PUSH2 0x193 JUMPI PUSH1 0x0 DUP1 REVERT JUMPDEST POP PUSH2 0x19C PUSH2 0x46B JUMP JUMPDEST PUSH1 0x40 MLOAD PUSH2 0x1A9 SWAP2 SWAP1 PUSH2 0x1104 JUMP JUMPDEST PUSH1 0x40 MLOAD DUP1 SWAP2 SUB SWAP1 RETURN JUMPDEST CALLVALUE DUP1 ISZERO PUSH2 0x1BE JUMPI PUSH1 0x0 DUP1 REVERT JUMPDEST POP PUSH2 0x1C7 PUSH2 0x475 JUMP JUMPDEST PUSH1 0x40 MLOAD PUSH2 0x1D4 SWAP2 SWAP1 PUSH2 0x1138 JUMP JUMPDEST PUSH1 0x40 MLOAD DUP1 SWAP2 SUB SWAP1 RETURN JUMPDEST CALLVALUE DUP1 ISZERO PUSH2 0x1E9 JUMPI PUSH1 0x0 DUP1 REVERT JUMPDEST POP PUSH2 0x204 PUSH1 0x4 DUP1 CALLDATASIZE SUB DUP2 ADD SWAP1 PUSH2 0x1FF SWAP2 SWAP1 PUSH2 0x1242 JUMP JUMPDEST PUSH2 0x49D JUMP JUMPDEST STOP JUMPDEST CALLVALUE DUP1 ISZERO PUSH2 0x212 JUMPI PUSH1 0x0 DUP1 REVERT JUMPDEST POP PUSH2 0x21B PUSH2 0x4E0 JUMP JUMPDEST PUSH1 0x40 MLOAD PUSH2 0x228 SWAP2 SWAP1 PUSH2 0x1104 JUMP JUMPDEST PUSH1 0x40 MLOAD DUP1 SWAP2 SUB SWAP1 RETURN JUMPDEST CALLVALUE DUP1 ISZERO PUSH2 0x23D JUMPI PUSH1 0x0 DUP1 REVERT JUMPDEST POP PUSH2 0x258 PUSH1 0x4 DUP1 CALLDATASIZE SUB DUP2 ADD SWAP1 PUSH2 0x253 SWAP2 SWAP1 PUSH2 0x12CD JUMP JUMPDEST PUSH2 0x4EA JUMP JUMPDEST PUSH1 0x40 MLOAD PUSH2 0x265 SWAP2 SWAP1 PUSH2 0x1315 JUMP JUMPDEST PUSH1 0x40 MLOAD DUP1 SWAP2 SUB SWAP1 RETURN JUMPDEST CALLVALUE DUP1 ISZERO PUSH2 0x27A JUMPI PUSH1 0x0 DUP1 REVERT JUMPDEST POP PUSH2 0x283 PUSH2 0x4FC JUMP JUMPDEST PUSH1 0x40 MLOAD PUSH2 0x290 SWAP2 SWAP1 PUSH2 0x10D0 JUMP JUMPDEST PUSH1 0x40 MLOAD DUP1 SWAP2 SUB SWAP1 RETURN JUMPDEST CALLVALUE DUP1 ISZERO PUSH2 0x2A5 JUMPI PUSH1 0x0 DUP1 REVERT JUMPDEST POP PUSH2 0x2C0 PUSH1 0x4 DUP1 CALLDATASIZE SUB DUP2 ADD SWAP1 PUSH2 0x2BB SWAP2 SWAP1 PUSH2 0x1411 JUMP JUMPDEST PUSH2 0x514 JUMP JUMPDEST PUSH1 0x40 MLOAD PUSH2 0x2CD SWAP2 SWAP1 PUSH2 0x1585 JUMP JUMPDEST PUSH1 0x40 MLOAD DUP1 SWAP2 SUB SWAP1 RETURN JUMPDEST CALLVALUE DUP1 ISZERO PUSH2 0x2E2 JUMPI PUSH1 0x0 DUP1 REVERT JUMPDEST POP PUSH2 0x2FD PUSH1 0x4 DUP1 CALLDATASIZE SUB DUP2 ADD SWAP1 PUSH2 0x2F8 SWAP2 SWAP1 PUSH2 0x15A7 JUMP JUMPDEST PUSH2 0x62E JUMP JUMPDEST STOP JUMPDEST CALLVALUE DUP1 ISZERO PUSH2 0x30B JUMPI PUSH1 0x0 DUP1 REVERT JUMPDEST POP PUSH2 0x314 PUSH2 0x649 JUMP JUMPDEST PUSH1 0x40 MLOAD PUSH2 0x321 SWAP2 SWAP1 PUSH2 0x1315 JUMP JUMPDEST PUSH1 0x40 MLOAD DUP1 SWAP2 SUB SWAP1 RETURN JUMPDEST CALLVALUE DUP1 ISZERO PUSH2 0x336 JUMPI PUSH1 0x0 DUP1 REVERT JUMPDEST POP PUSH2 0x351 PUSH1 0x4 DUP1 CALLDATASIZE SUB DUP2 ADD SWAP1 PUSH2 0x34C SWAP2 SWAP1 PUSH2 0x12CD JUMP JUMPDEST PUSH2 0x658 JUMP JUMPDEST PUSH1 0x40 MLOAD PUSH2 0x35E SWAP2 SWAP1 PUSH2 0x1671 JUMP JUMPDEST PUSH1 0x40 MLOAD DUP1 SWAP2 SUB SWAP1 RETURN JUMPDEST CALLVALUE DUP1 ISZERO PUSH2 0x373 JUMPI PUSH1 0x0 DUP1 REVERT JUMPDEST POP PUSH2 0x38E PUSH1 0x4 DUP1 CALLDATASIZE SUB DUP2 ADD SWAP1 PUSH2 0x389 SWAP2 SWAP1 PUSH2 0x168C JUMP JUMPDEST PUSH2 0x66A JUMP JUMPDEST STOP JUMPDEST PUSH2 0x3AA PUSH1 0x4 DUP1 CALLDATASIZE SUB DUP2 ADD SWAP1 PUSH2 0x3A5 SWAP2 SWAP1 PUSH2 0x1065 JUMP JUMPDEST PUSH2 0x6B0 JUMP JUMPDEST STOP JUMPDEST CALLVALUE DUP1 ISZERO PUSH2 0x3B8 JUMPI PUSH1 0x0 DUP1 REVERT JUMPDEST POP PUSH2 0x3D3 PUSH1 0x4 DUP1 CALLDATASIZE SUB DUP2 ADD SWAP1 PUSH2 0x3CE SWAP2 SWAP1 PUSH2 0x16E8 JUMP JUMPDEST PUSH2 0x6E2 JUMP JUMPDEST STOP JUMPDEST PUSH2 0x3DD PUSH2 0x718 JUMP JUMPDEST PUSH2 0x3E5 PUSH2 0x79F JUMP JUMPDEST PUSH2 0x3F0 DUP4 DUP4 DUP4 PUSH2 0x7DD JUMP JUMPDEST PUSH2 0x3FB DUP4 DUP4 DUP4 PUSH2 0x7E2 JUMP JUMPDEST PUSH2 0x406 DUP4 DUP4 DUP4 PUSH2 0x814 JUMP JUMPDEST POP POP POP JUMP JUMPDEST PUSH1 0x0 PUSH32 0x0 SWAP1 POP SWAP1 JUMP JUMPDEST PUSH1 0x0 PUSH2 0x43D PUSH2 0x718 JUMP JUMPDEST PUSH2 0x445 PUSH2 0x79F JUMP JUMPDEST PUSH2 0x44F DUP4 DUP4 PUSH2 0x819 JUMP JUMPDEST PUSH2 0x459 DUP4 DUP4 PUSH2 0x81D JUMP JUMPDEST SWAP1 POP PUSH2 0x465 DUP4 DUP4 PUSH2 0x851 JUMP JUMPDEST SWAP3 SWAP2 POP POP JUMP JUMPDEST PUSH1 0x0 PUSH1 0x1 SLOAD SWAP1 POP SWAP1 JUMP JUMPDEST PUSH1 0x0 PUSH32 0x0 SWAP1 POP SWAP1 JUMP JUMPDEST CALLER PUSH2 0x4A7 DUP2 PUSH2 0x855 JUMP JUMPDEST PUSH1 0x0 DUP5 DUP5 DUP5 PUSH1 0x40 MLOAD PUSH1 0x20 ADD PUSH2 0x4BE SWAP4 SWAP3 SWAP2 SWAP1 PUSH2 0x1873 JUMP JUMPDEST PUSH1 0x40 MLOAD PUSH1 0x20 DUP2 DUP4 SUB SUB DUP2 MSTORE SWAP1 PUSH1 0x40 MSTORE SWAP1 POP PUSH2 0x4D9 DUP2 CALLER PUSH2 0x92C JUMP JUMPDEST POP POP POP POP POP JUMP JUMPDEST PUSH1 0x0 PUSH1 0x2 SLOAD SWAP1 POP SWAP1 JUMP JUMPDEST PUSH1 0x0 PUSH2 0x4F5 DUP3 PUSH2 0xA8C JUMP JUMPDEST SWAP1 POP SWAP2 SWAP1 POP JUMP JUMPDEST PUSH20 0xEEEEEEEEEEEEEEEEEEEEEEEEEEEEEEEEEEEEEEEE DUP2 JUMP JUMPDEST PUSH1 0x60 PUSH1 0x0 DUP4 MLOAD SWAP1 POP DUP3 MLOAD DUP2 EQ PUSH2 0x556 JUMPI PUSH1 0x40 MLOAD PUSH32 0x7B49805600000000000000000000000000000000000000000000000000000000 DUP2 MSTORE PUSH1 0x4 ADD PUSH1 0x40 MLOAD DUP1 SWAP2 SUB SWAP1 REVERT JUMPDEST PUSH1 0x0 DUP2 PUSH8 0xFFFFFFFFFFFFFFFF DUP2 GT ISZERO PUSH2 0x572 JUMPI PUSH2 0x571 PUSH2 0xD0A JUMP JUMPDEST JUMPDEST PUSH1 0x40 MLOAD SWAP1 DUP1 DUP3 MSTORE DUP1 PUSH1 0x20 MUL PUSH1 0x20 ADD DUP3 ADD PUSH1 0x40 MSTORE DUP1 ISZERO PUSH2 0x5AB JUMPI DUP2 PUSH1 0x20 ADD JUMPDEST PUSH2 0x598 PUSH2 0xCB0 JUMP JUMPDEST DUP2 MSTORE PUSH1 0x20 ADD SWAP1 PUSH1 0x1 SWAP1 SUB SWAP1 DUP2 PUSH2 0x590 JUMPI SWAP1 POP JUMPDEST POP SWAP1 POP PUSH1 0x0 JUMPDEST DUP3 DUP2 LT ISZERO PUSH2 0x622 JUMPI PUSH2 0x5F7 DUP7 DUP3 DUP2 MLOAD DUP2 LT PUSH2 0x5CF JUMPI PUSH2 0x5CE PUSH2 0x18B8 JUMP JUMPDEST JUMPDEST PUSH1 0x20 MUL PUSH1 0x20 ADD ADD MLOAD DUP7 DUP4 DUP2 MLOAD DUP2 LT PUSH2 0x5EA JUMPI PUSH2 0x5E9 PUSH2 0x18B8 JUMP JUMPDEST JUMPDEST PUSH1 0x20 MUL PUSH1 0x20 ADD ADD MLOAD PUSH2 0xAC0 JUMP JUMPDEST DUP3 DUP3 DUP2 MLOAD DUP2 LT PUSH2 0x60A JUMPI PUSH2 0x609 PUSH2 0x18B8 JUMP JUMPDEST JUMPDEST PUSH1 0x20 MUL PUSH1 0x20 ADD ADD DUP2 SWAP1 MSTORE POP DUP1 DUP1 PUSH1 0x1 ADD SWAP2 POP POP PUSH2 0x5B1 JUMP JUMPDEST POP DUP1 SWAP3 POP POP POP SWAP3 SWAP2 POP POP JUMP JUMPDEST CALLER PUSH2 0x638 DUP2 PUSH2 0x855 JUMP JUMPDEST PUSH2 0x643 DUP5 DUP5 DUP5 PUSH2 0xAFA JUMP JUMPDEST POP POP POP POP JUMP JUMPDEST PUSH1 0x0 PUSH2 0x653 PUSH2 0xB61 JUMP JUMPDEST SWAP1 POP SWAP1 JUMP JUMPDEST PUSH1 0x0 PUSH2 0x663 DUP3 PUSH2 0xB77 JUMP JUMPDEST SWAP1 POP SWAP2 SWAP1 POP JUMP JUMPDEST PUSH2 0x673 DUP3 PUSH2 0xBAB JUMP JUMPDEST PUSH32 0x91EFA3D50FECCDE0D0D202F8AE5C41CA0B2BE614CEBCB2BD2F4B019396E6568A DUP3 DUP3 PUSH1 0x40 MLOAD PUSH2 0x6A4 SWAP3 SWAP2 SWAP1 PUSH2 0x1966 JUMP JUMPDEST PUSH1 0x40 MLOAD DUP1 SWAP2 SUB SWAP1 LOG1 POP POP JUMP JUMPDEST PUSH2 0x6B8 PUSH2 0x718 JUMP JUMPDEST PUSH2 0x6C0 PUSH2 0x79F JUMP JUMPDEST PUSH2 0x6CA DUP3 DUP3 PUSH2 0xC33 JUMP JUMPDEST PUSH2 0x6D4 DUP3 DUP3 PUSH2 0x92C JUMP JUMPDEST PUSH2 0x6DE DUP3 DUP3 PUSH2 0xC37 JUMP JUMPDEST POP POP JUMP JUMPDEST PUSH2 0x6EA PUSH2 0x718 JUMP JUMPDEST PUSH2 0x6F3 DUP2 PUSH2 0xC3B JUMP JUMPDEST DUP1 PUSH1 0x2 PUSH1 0x0 DUP3 DUP3 SLOAD PUSH2 0x705 SWAP2 SWAP1 PUSH2 0x19C5 JUMP JUMPDEST SWAP3 POP POP DUP2 SWAP1 SSTORE POP PUSH2 0x715 DUP2 PUSH2 0xC3E JUMP JUMPDEST POP JUMP JUMPDEST PUSH32 0x0 PUSH20 0xFFFFFFFFFFFFFFFFFFFFFFFFFFFFFFFFFFFFFFFF AND CALLER PUSH20 0xFFFFFFFFFFFFFFFFFFFFFFFFFFFFFFFFFFFFFFFF AND EQ PUSH2 0x79D JUMPI PUSH1 0x40 MLOAD PUSH32 0x75FD2B100000000000000000000000000000000000000000000000000000000 DUP2 MSTORE PUSH1 0x4 ADD PUSH1 0x40 MLOAD DUP1 SWAP2 SUB SWAP1 REVERT JUMPDEST JUMP JUMPDEST PUSH1 0x0 PUSH1 0x1 SLOAD SUB PUSH2 0x7DB JUMPI PUSH1 0x40 MLOAD PUSH32 0x3DA3F98C00000000000000000000000000000000000000000000000000000000 DUP2 MSTORE PUSH1 0x4 ADD PUSH1 0x40 MLOAD DUP1 SWAP2 SUB SWAP1 REVERT JUMPDEST JUMP JUMPDEST POP POP POP JUMP JUMPDEST PUSH1 0x40 MLOAD PUSH32 0x1569426800000000000000000000000000000000000000000000000000000000 DUP2 MSTORE PUSH1 0x4 ADD PUSH1 0x40 MLOAD DUP1 SWAP2 SUB SWAP1 REVERT JUMPDEST POP POP POP JUMP JUMPDEST POP POP JUMP JUMPDEST PUSH1 0x0 PUSH1 0x40 MLOAD PUSH32 0x1569426800000000000000000000000000000000000000000000000000000000 DUP2 MSTORE PUSH1 0x4 ADD PUSH1 0x40 MLOAD DUP1 SWAP2 SUB SWAP1 REVERT JUMPDEST POP POP JUMP JUMPDEST PUSH32 0x0 PUSH20 0xFFFFFFFFFFFFFFFFFFFFFFFFFFFFFFFFFFFFFFFF AND PUSH4 0x29E40D4B PUSH1 0x1 SLOAD DUP4 PUSH1 0x40 MLOAD DUP4 PUSH4 0xFFFFFFFF AND PUSH1 0xE0 SHL DUP2 MSTORE PUSH1 0x4 ADD PUSH2 0x8B2 SWAP3 SWAP2 SWAP1 PUSH2 0x19F9 JUMP JUMPDEST PUSH1 0x20 PUSH1 0x40 MLOAD DUP1 DUP4 SUB DUP2 DUP7 GAS STATICCALL ISZERO DUP1 ISZERO PUSH2 0x8CF JUMPI RETURNDATASIZE PUSH1 0x0 DUP1 RETURNDATACOPY RETURNDATASIZE PUSH1 0x0 REVERT JUMPDEST POP POP POP POP PUSH1 0x40 MLOAD RETURNDATASIZE PUSH1 0x1F NOT PUSH1 0x1F DUP3 ADD AND DUP3 ADD DUP1 PUSH1 0x40 MSTORE POP DUP2 ADD SWAP1 PUSH2 0x8F3 SWAP2 SWAP1 PUSH2 0x1A4E JUMP JUMPDEST PUSH2 0x929 JUMPI PUSH1 0x40 MLOAD PUSH32 0x75FD2B100000000000000000000000000000000000000000000000000000000 DUP2 MSTORE PUSH1 0x4 ADD PUSH1 0x40 MLOAD DUP1 SWAP2 SUB SWAP1 REVERT JUMPDEST POP JUMP JUMPDEST DUP1 PUSH2 0x936 DUP2 PUSH2 0x855 JUMP JUMPDEST PUSH1 0x0 DUP1 PUSH1 0x0 DUP6 DUP1 PUSH1 0x20 ADD SWAP1 MLOAD DUP2 ADD SWAP1 PUSH2 0x94F SWAP2 SWAP1 PUSH2 0x1C11 JUMP JUMPDEST SWAP3 POP SWAP3 POP SWAP3 POP PUSH1 0x0 DUP4 MLOAD SWAP1 POP PUSH1 0x0 DUP2 SUB PUSH2 0x995 JUMPI PUSH1 0x40 MLOAD PUSH32 0xFB76571500000000000000000000000000000000000000000000000000000000 DUP2 MSTORE PUSH1 0x4 ADD PUSH1 0x40 MLOAD DUP1 SWAP2 SUB SWAP1 REVERT JUMPDEST DUP3 MLOAD DUP2 EQ PUSH2 0x9CF JUMPI PUSH1 0x40 MLOAD PUSH32 0xFB76571500000000000000000000000000000000000000000000000000000000 DUP2 MSTORE PUSH1 0x4 ADD PUSH1 0x40 MLOAD DUP1 SWAP2 SUB SWAP1 REVERT JUMPDEST PUSH1 0x0 JUMPDEST DUP2 DUP2 LT ISZERO PUSH2 0xA82 JUMPI PUSH1 0x0 DUP5 DUP3 DUP2 MLOAD DUP2 LT PUSH2 0x9EF JUMPI PUSH2 0x9EE PUSH2 0x18B8 JUMP JUMPDEST JUMPDEST PUSH1 0x20 MUL PUSH1 0x20 ADD ADD MLOAD SWAP1 POP PUSH1 0x0 DUP7 DUP4 DUP2 MLOAD DUP2 LT PUSH2 0xA0E JUMPI PUSH2 0xA0D PUSH2 0x18B8 JUMP JUMPDEST JUMPDEST PUSH1 0x20 MUL PUSH1 0x20 ADD ADD MLOAD SWAP1 POP PUSH2 0xA23 DUP6 DUP3 DUP5 PUSH2 0xAFA JUMP JUMPDEST DUP1 PUSH20 0xFFFFFFFFFFFFFFFFFFFFFFFFFFFFFFFFFFFFFFFF AND PUSH32 0x463FFC2CF8B1596445C417388ED30E53EB67CF6668CB2BE7F0ADDF8A78C8441B DUP4 DUP8 DUP13 PUSH1 0x40 MLOAD PUSH2 0xA6D SWAP4 SWAP3 SWAP2 SWAP1 PUSH2 0x1C9C JUMP JUMPDEST PUSH1 0x40 MLOAD DUP1 SWAP2 SUB SWAP1 LOG2 DUP3 PUSH1 0x1 ADD SWAP3 POP POP POP PUSH2 0x9D2 JUMP JUMPDEST POP POP POP POP POP POP POP POP JUMP JUMPDEST PUSH1 0x0 PUSH1 0x40 MLOAD PUSH32 0x1569426800000000000000000000000000000000000000000000000000000000 DUP2 MSTORE PUSH1 0x4 ADD PUSH1 0x40 MLOAD DUP1 SWAP2 SUB SWAP1 REVERT JUMPDEST PUSH2 0xAC8 PUSH2 0xCB0 JUMP JUMPDEST PUSH1 0x40 MLOAD PUSH32 0x1569426800000000000000000000000000000000000000000000000000000000 DUP2 MSTORE PUSH1 0x4 ADD PUSH1 0x40 MLOAD DUP1 SWAP2 SUB SWAP1 REVERT JUMPDEST PUSH20 0xEEEEEEEEEEEEEEEEEEEEEEEEEEEEEEEEEEEEEEEE PUSH20 0xFFFFFFFFFFFFFFFFFFFFFFFFFFFFFFFFFFFFFFFF AND DUP4 PUSH20 0xFFFFFFFFFFFFFFFFFFFFFFFFFFFFFFFFFFFFFFFF AND SUB PUSH2 0xB50 JUMPI PUSH2 0xB4B DUP3 DUP3 PUSH2 0xC41 JUMP JUMPDEST PUSH2 0xB5C JUMP JUMPDEST PUSH2 0xB5B DUP4 DUP4 DUP4 PUSH2 0xC61 JUMP JUMPDEST JUMPDEST POP POP POP JUMP JUMPDEST PUSH1 0x0 DUP1 PUSH1 0x0 SWAP1 SLOAD SWAP1 PUSH2 0x100 EXP SWAP1 DIV PUSH1 0xFF AND SWAP1 POP SWAP1 JUMP JUMPDEST PUSH1 0x0 PUSH1 0x40 MLOAD PUSH32 0x1569426800000000000000000000000000000000000000000000000000000000 DUP2 MSTORE PUSH1 0x4 ADD PUSH1 0x40 MLOAD DUP1 SWAP2 SUB SWAP1 REVERT JUMPDEST PUSH2 0xBB3 PUSH2 0x718 JUMP JUMPDEST PUSH1 0x0 PUSH1 0x1 SLOAD EQ PUSH2 0xBEF JUMPI PUSH1 0x40 MLOAD PUSH32 0x439A74C900000000000000000000000000000000000000000000000000000000 DUP2 MSTORE PUSH1 0x4 ADD PUSH1 0x40 MLOAD DUP1 SWAP2 SUB SWAP1 REVERT JUMPDEST PUSH1 0x0 DUP2 SUB PUSH2 0xC29 JUMPI PUSH1 0x40 MLOAD PUSH32 0x7FCCE2A900000000000000000000000000000000000000000000000000000000 DUP2 MSTORE PUSH1 0x4 ADD PUSH1 0x40 MLOAD DUP1 SWAP2 SUB SWAP1 REVERT JUMPDEST DUP1 PUSH1 0x1 DUP2 SWAP1 SSTORE POP POP JUMP JUMPDEST POP POP JUMP JUMPDEST POP POP JUMP JUMPDEST POP JUMP JUMPDEST POP JUMP JUMPDEST PUSH1 0x0 DUP1 PUSH1 0x0 DUP1 DUP5 DUP7 GAS CALL PUSH2 0xC5D JUMPI PUSH4 0xB12D13EB PUSH1 0x0 MSTORE PUSH1 0x4 PUSH1 0x1C REVERT JUMPDEST POP POP JUMP JUMPDEST DUP2 PUSH1 0x14 MSTORE DUP1 PUSH1 0x34 MSTORE PUSH16 0xA9059CBB000000000000000000000000 PUSH1 0x0 MSTORE PUSH1 0x20 PUSH1 0x0 PUSH1 0x44 PUSH1 0x10 PUSH1 0x0 DUP8 GAS CALL RETURNDATASIZE ISZERO PUSH1 0x1 PUSH1 0x0 MLOAD EQ OR AND PUSH2 0xCA6 JUMPI PUSH4 0x90B8EC18 PUSH1 0x0 MSTORE PUSH1 0x4 PUSH1 0x1C REVERT JUMPDEST PUSH1 0x0 PUSH1 0x34 MSTORE POP POP POP JUMP JUMPDEST PUSH1 0x40 MLOAD DUP1 PUSH1 0x40 ADD PUSH1 0x40 MSTORE DUP1 PUSH1 0x0 PUSH20 0xFFFFFFFFFFFFFFFFFFFFFFFFFFFFFFFFFFFFFFFF AND DUP2 MSTORE PUSH1 0x20 ADD PUSH1 0x0 DUP2 MSTORE POP SWAP1 JUMP JUMPDEST PUSH1 0x0 PUSH1 0x40 MLOAD SWAP1 POP SWAP1 JUMP JUMPDEST PUSH1 0x0 DUP1 REVERT JUMPDEST PUSH1 0x0 DUP1 REVERT JUMPDEST PUSH1 0x0 DUP1 REVERT JUMPDEST PUSH1 0x0 PUSH1 0x1F NOT PUSH1 0x1F DUP4 ADD AND SWAP1 POP SWAP2 SWAP1 POP JUMP JUMPDEST PUSH32 0x4E487B7100000000000000000000000000000000000000000000000000000000 PUSH1 0x0 MSTORE PUSH1 0x41 PUSH1 0x4 MSTORE PUSH1 0x24 PUSH1 0x0 REVERT JUMPDEST PUSH2 0xD42 DUP3 PUSH2 0xCF9 JUMP JUMPDEST DUP2 ADD DUP2 DUP2 LT PUSH8 0xFFFFFFFFFFFFFFFF DUP3 GT OR ISZERO PUSH2 0xD61 JUMPI PUSH2 0xD60 PUSH2 0xD0A JUMP JUMPDEST JUMPDEST DUP1 PUSH1 0x40 MSTORE POP POP POP JUMP JUMPDEST PUSH1 0x0 PUSH2 0xD74 PUSH2 0xCE0 JUMP JUMPDEST SWAP1 POP PUSH2 0xD80 DUP3 DUP3 PUSH2 0xD39 JUMP JUMPDEST SWAP2 SWAP1 POP JUMP JUMPDEST PUSH1 0x0 PUSH8 0xFFFFFFFFFFFFFFFF DUP3 GT ISZERO PUSH2 0xDA0 JUMPI PUSH2 0xD9F PUSH2 0xD0A JUMP JUMPDEST JUMPDEST PUSH1 0x20 DUP3 MUL SWAP1 POP PUSH1 0x20 DUP2 ADD SWAP1 POP SWAP2 SWAP1 POP JUMP JUMPDEST PUSH1 0x0 DUP1 REVERT JUMPDEST PUSH1 0x0 PUSH20 0xFFFFFFFFFFFFFFFFFFFFFFFFFFFFFFFFFFFFFFFF DUP3 AND SWAP1 POP SWAP2 SWAP1 POP JUMP JUMPDEST PUSH1 0x0 PUSH2 0xDE1 DUP3 PUSH2 0xDB6 JUMP JUMPDEST SWAP1 POP SWAP2 SWAP1 POP JUMP JUMPDEST PUSH2 0xDF1 DUP2 PUSH2 0xDD6 JUMP JUMPDEST DUP2 EQ PUSH2 0xDFC JUMPI PUSH1 0x0 DUP1 REVERT JUMPDEST POP JUMP JUMPDEST PUSH1 0x0 DUP2 CALLDATALOAD SWAP1 POP PUSH2 0xE0E DUP2 PUSH2 0xDE8 JUMP JUMPDEST SWAP3 SWAP2 POP POP JUMP JUMPDEST PUSH1 0x0 PUSH2 0xE27 PUSH2 0xE22 DUP5 PUSH2 0xD85 JUMP JUMPDEST PUSH2 0xD6A JUMP JUMPDEST SWAP1 POP DUP1 DUP4 DUP3 MSTORE PUSH1 0x20 DUP3 ADD SWAP1 POP PUSH1 0x20 DUP5 MUL DUP4 ADD DUP6 DUP2 GT ISZERO PUSH2 0xE4A JUMPI PUSH2 0xE49 PUSH2 0xDB1 JUMP JUMPDEST JUMPDEST DUP4 JUMPDEST DUP2 DUP2 LT ISZERO PUSH2 0xE73 JUMPI DUP1 PUSH2 0xE5F DUP9 DUP3 PUSH2 0xDFF JUMP JUMPDEST DUP5 MSTORE PUSH1 0x20 DUP5 ADD SWAP4 POP POP PUSH1 0x20 DUP2 ADD SWAP1 POP PUSH2 0xE4C JUMP JUMPDEST POP POP POP SWAP4 SWAP3 POP POP POP JUMP JUMPDEST PUSH1 0x0 DUP3 PUSH1 0x1F DUP4 ADD SLT PUSH2 0xE92 JUMPI PUSH2 0xE91 PUSH2 0xCF4 JUMP JUMPDEST JUMPDEST DUP2 CALLDATALOAD PUSH2 0xEA2 DUP5 DUP3 PUSH1 0x20 DUP7 ADD PUSH2 0xE14 JUMP JUMPDEST SWAP2 POP POP SWAP3 SWAP2 POP POP JUMP JUMPDEST PUSH1 0x0 DUP1 REVERT JUMPDEST PUSH1 0x0 PUSH8 0xFFFFFFFFFFFFFFFF DUP3 GT ISZERO PUSH2 0xECB JUMPI PUSH2 0xECA PUSH2 0xD0A JUMP JUMPDEST JUMPDEST PUSH2 0xED4 DUP3 PUSH2 0xCF9 JUMP JUMPDEST SWAP1 POP PUSH1 0x20 DUP2 ADD SWAP1 POP SWAP2 SWAP1 POP JUMP JUMPDEST DUP3 DUP2 DUP4 CALLDATACOPY PUSH1 0x0 DUP4 DUP4 ADD MSTORE POP POP POP JUMP JUMPDEST PUSH1 0x0 PUSH2 0xF03 PUSH2 0xEFE DUP5 PUSH2 0xEB0 JUMP JUMPDEST PUSH2 0xD6A JUMP JUMPDEST SWAP1 POP DUP3 DUP2 MSTORE PUSH1 0x20 DUP2 ADD DUP5 DUP5 DUP5 ADD GT ISZERO PUSH2 0xF1F JUMPI PUSH2 0xF1E PUSH2 0xEAB JUMP JUMPDEST JUMPDEST PUSH2 0xF2A DUP5 DUP3 DUP6 PUSH2 0xEE1 JUMP JUMPDEST POP SWAP4 SWAP3 POP POP POP JUMP JUMPDEST PUSH1 0x0 DUP3 PUSH1 0x1F DUP4 ADD SLT PUSH2 0xF47 JUMPI PUSH2 0xF46 PUSH2 0xCF4 JUMP JUMPDEST JUMPDEST DUP2 CALLDATALOAD PUSH2 0xF57 DUP5 DUP3 PUSH1 0x20 DUP7 ADD PUSH2 0xEF0 JUMP JUMPDEST SWAP2 POP POP SWAP3 SWAP2 POP POP JUMP JUMPDEST PUSH1 0x0 DUP1 PUSH1 0x0 PUSH1 0x60 DUP5 DUP7 SUB SLT ISZERO PUSH2 0xF79 JUMPI PUSH2 0xF78 PUSH2 0xCEA JUMP JUMPDEST JUMPDEST PUSH1 0x0 DUP5 ADD CALLDATALOAD PUSH8 0xFFFFFFFFFFFFFFFF DUP2 GT ISZERO PUSH2 0xF97 JUMPI PUSH2 0xF96 PUSH2 0xCEF JUMP JUMPDEST JUMPDEST PUSH2 0xFA3 DUP7 DUP3 DUP8 ADD PUSH2 0xE7D JUMP JUMPDEST SWAP4 POP POP PUSH1 0x20 DUP5 ADD CALLDATALOAD PUSH8 0xFFFFFFFFFFFFFFFF DUP2 GT ISZERO PUSH2 0xFC4 JUMPI PUSH2 0xFC3 PUSH2 0xCEF JUMP JUMPDEST JUMPDEST PUSH2 0xFD0 DUP7 DUP3 DUP8 ADD PUSH2 0xF32 JUMP JUMPDEST SWAP3 POP POP PUSH1 0x40 PUSH2 0xFE1 DUP7 DUP3 DUP8 ADD PUSH2 0xDFF JUMP JUMPDEST SWAP2 POP POP SWAP3 POP SWAP3 POP SWAP3 JUMP JUMPDEST PUSH1 0x0 DUP2 SWAP1 POP SWAP2 SWAP1 POP JUMP JUMPDEST PUSH1 0x0 PUSH2 0x1010 PUSH2 0x100B PUSH2 0x1006 DUP5 PUSH2 0xDB6 JUMP JUMPDEST PUSH2 0xFEB JUMP JUMPDEST PUSH2 0xDB6 JUMP JUMPDEST SWAP1 POP SWAP2 SWAP1 POP JUMP JUMPDEST PUSH1 0x0 PUSH2 0x1022 DUP3 PUSH2 0xFF5 JUMP JUMPDEST SWAP1 POP SWAP2 SWAP1 POP JUMP JUMPDEST PUSH1 0x0 PUSH2 0x1034 DUP3 PUSH2 0x1017 JUMP JUMPDEST SWAP1 POP SWAP2 SWAP1 POP JUMP JUMPDEST PUSH2 0x1044 DUP2 PUSH2 0x1029 JUMP JUMPDEST DUP3 MSTORE POP POP JUMP JUMPDEST PUSH1 0x0 PUSH1 0x20 DUP3 ADD SWAP1 POP PUSH2 0x105F PUSH1 0x0 DUP4 ADD DUP5 PUSH2 0x103B JUMP JUMPDEST SWAP3 SWAP2 POP POP JUMP JUMPDEST PUSH1 0x0 DUP1 PUSH1 0x40 DUP4 DUP6 SUB SLT ISZERO PUSH2 0x107C JUMPI PUSH2 0x107B PUSH2 0xCEA JUMP JUMPDEST JUMPDEST PUSH1 0x0 DUP4 ADD CALLDATALOAD PUSH8 0xFFFFFFFFFFFFFFFF DUP2 GT ISZERO PUSH2 0x109A JUMPI PUSH2 0x1099 PUSH2 0xCEF JUMP JUMPDEST JUMPDEST PUSH2 0x10A6 DUP6 DUP3 DUP7 ADD PUSH2 0xF32 JUMP JUMPDEST SWAP3 POP POP PUSH1 0x20 PUSH2 0x10B7 DUP6 DUP3 DUP7 ADD PUSH2 0xDFF JUMP JUMPDEST SWAP2 POP POP SWAP3 POP SWAP3 SWAP1 POP JUMP JUMPDEST PUSH2 0x10CA DUP2 PUSH2 0xDD6 JUMP JUMPDEST DUP3 MSTORE POP POP JUMP JUMPDEST PUSH1 0x0 PUSH1 0x20 DUP3 ADD SWAP1 POP PUSH2 0x10E5 PUSH1 0x0 DUP4 ADD DUP5 PUSH2 0x10C1 JUMP JUMPDEST SWAP3 SWAP2 POP POP JUMP JUMPDEST PUSH1 0x0 DUP2 SWAP1 POP SWAP2 SWAP1 POP JUMP JUMPDEST PUSH2 0x10FE DUP2 PUSH2 0x10EB JUMP JUMPDEST DUP3 MSTORE POP POP JUMP JUMPDEST PUSH1 0x0 PUSH1 0x20 DUP3 ADD SWAP1 POP PUSH2 0x1119 PUSH1 0x0 DUP4 ADD DUP5 PUSH2 0x10F5 JUMP JUMPDEST SWAP3 SWAP2 POP POP JUMP JUMPDEST PUSH1 0x0 DUP2 SWAP1 POP SWAP2 SWAP1 POP JUMP JUMPDEST PUSH2 0x1132 DUP2 PUSH2 0x111F JUMP JUMPDEST DUP3 MSTORE POP POP JUMP JUMPDEST PUSH1 0x0 PUSH1 0x20 DUP3 ADD SWAP1 POP PUSH2 0x114D PUSH1 0x0 DUP4 ADD DUP5 PUSH2 0x1129 JUMP JUMPDEST SWAP3 SWAP2 POP POP JUMP JUMPDEST PUSH1 0x0 PUSH8 0xFFFFFFFFFFFFFFFF DUP3 GT ISZERO PUSH2 0x116E JUMPI PUSH2 0x116D PUSH2 0xD0A JUMP JUMPDEST JUMPDEST PUSH1 0x20 DUP3 MUL SWAP1 POP PUSH1 0x20 DUP2 ADD SWAP1 POP SWAP2 SWAP1 POP JUMP JUMPDEST PUSH2 0x1188 DUP2 PUSH2 0x10EB JUMP JUMPDEST DUP2 EQ PUSH2 0x1193 JUMPI PUSH1 0x0 DUP1 REVERT JUMPDEST POP JUMP JUMPDEST PUSH1 0x0 DUP2 CALLDATALOAD SWAP1 POP PUSH2 0x11A5 DUP2 PUSH2 0x117F JUMP JUMPDEST SWAP3 SWAP2 POP POP JUMP JUMPDEST PUSH1 0x0 PUSH2 0x11BE PUSH2 0x11B9 DUP5 PUSH2 0x1153 JUMP JUMPDEST PUSH2 0xD6A JUMP JUMPDEST SWAP1 POP DUP1 DUP4 DUP3 MSTORE PUSH1 0x20 DUP3 ADD SWAP1 POP PUSH1 0x20 DUP5 MUL DUP4 ADD DUP6 DUP2 GT ISZERO PUSH2 0x11E1 JUMPI PUSH2 0x11E0 PUSH2 0xDB1 JUMP JUMPDEST JUMPDEST DUP4 JUMPDEST DUP2 DUP2 LT ISZERO PUSH2 0x120A JUMPI DUP1 PUSH2 0x11F6 DUP9 DUP3 PUSH2 0x1196 JUMP JUMPDEST DUP5 MSTORE PUSH1 0x20 DUP5 ADD SWAP4 POP POP PUSH1 0x20 DUP2 ADD SWAP1 POP PUSH2 0x11E3 JUMP JUMPDEST POP POP POP SWAP4 SWAP3 POP POP POP JUMP JUMPDEST PUSH1 0x0 DUP3 PUSH1 0x1F DUP4 ADD SLT PUSH2 0x1229 JUMPI PUSH2 0x1228 PUSH2 0xCF4 JUMP JUMPDEST JUMPDEST DUP2 CALLDATALOAD PUSH2 0x1239 DUP5 DUP3 PUSH1 0x20 DUP7 ADD PUSH2 0x11AB JUMP JUMPDEST SWAP2 POP POP SWAP3 SWAP2 POP POP JUMP JUMPDEST PUSH1 0x0 DUP1 PUSH1 0x0 PUSH1 0x60 DUP5 DUP7 SUB SLT ISZERO PUSH2 0x125B JUMPI PUSH2 0x125A PUSH2 0xCEA JUMP JUMPDEST JUMPDEST PUSH1 0x0 DUP5 ADD CALLDATALOAD PUSH8 0xFFFFFFFFFFFFFFFF DUP2 GT ISZERO PUSH2 0x1279 JUMPI PUSH2 0x1278 PUSH2 0xCEF JUMP JUMPDEST JUMPDEST PUSH2 0x1285 DUP7 DUP3 DUP8 ADD PUSH2 0xE7D JUMP JUMPDEST SWAP4 POP POP PUSH1 0x20 DUP5 ADD CALLDATALOAD PUSH8 0xFFFFFFFFFFFFFFFF DUP2 GT ISZERO PUSH2 0x12A6 JUMPI PUSH2 0x12A5 PUSH2 0xCEF JUMP JUMPDEST JUMPDEST PUSH2 0x12B2 DUP7 DUP3 DUP8 ADD PUSH2 0x1214 JUMP JUMPDEST SWAP3 POP POP PUSH1 0x40 PUSH2 0x12C3 DUP7 DUP3 DUP8 ADD PUSH2 0xDFF JUMP JUMPDEST SWAP2 POP POP SWAP3 POP SWAP3 POP SWAP3 JUMP JUMPDEST PUSH1 0x0 PUSH1 0x20 DUP3 DUP5 SUB SLT ISZERO PUSH2 0x12E3 JUMPI PUSH2 0x12E2 PUSH2 0xCEA JUMP JUMPDEST JUMPDEST PUSH1 0x0 PUSH2 0x12F1 DUP5 DUP3 DUP6 ADD PUSH2 0xDFF JUMP JUMPDEST SWAP2 POP POP SWAP3 SWAP2 POP POP JUMP JUMPDEST PUSH1 0x0 DUP2 ISZERO ISZERO SWAP1 POP SWAP2 SWAP1 POP JUMP JUMPDEST PUSH2 0x130F DUP2 PUSH2 0x12FA JUMP JUMPDEST DUP3 MSTORE POP POP JUMP JUMPDEST PUSH1 0x0 PUSH1 0x20 DUP3 ADD SWAP1 POP PUSH2 0x132A PUSH1 0x0 DUP4 ADD DUP5 PUSH2 0x1306 JUMP JUMPDEST SWAP3 SWAP2 POP POP JUMP JUMPDEST PUSH1 0x0 PUSH8 0xFFFFFFFFFFFFFFFF DUP3 GT ISZERO PUSH2 0x134B JUMPI PUSH2 0x134A PUSH2 0xD0A JUMP JUMPDEST JUMPDEST PUSH1 0x20 DUP3 MUL SWAP1 POP PUSH1 0x20 DUP2 ADD SWAP1 POP SWAP2 SWAP1 POP JUMP JUMPDEST PUSH1 0x0 PUSH2 0x136F PUSH2 0x136A DUP5 PUSH2 0x1330 JUMP JUMPDEST PUSH2 0xD6A JUMP JUMPDEST SWAP1 POP DUP1 DUP4 DUP3 MSTORE PUSH1 0x20 DUP3 ADD SWAP1 POP PUSH1 0x20 DUP5 MUL DUP4 ADD DUP6 DUP2 GT ISZERO PUSH2 0x1392 JUMPI PUSH2 0x1391 PUSH2 0xDB1 JUMP JUMPDEST JUMPDEST DUP4 JUMPDEST DUP2 DUP2 LT ISZERO PUSH2 0x13D9 JUMPI DUP1 CALLDATALOAD PUSH8 0xFFFFFFFFFFFFFFFF DUP2 GT ISZERO PUSH2 0x13B7 JUMPI PUSH2 0x13B6 PUSH2 0xCF4 JUMP JUMPDEST JUMPDEST DUP1 DUP7 ADD PUSH2 0x13C4 DUP10 DUP3 PUSH2 0xF32 JUMP JUMPDEST DUP6 MSTORE PUSH1 0x20 DUP6 ADD SWAP5 POP POP POP PUSH1 0x20 DUP2 ADD SWAP1 POP PUSH2 0x1394 JUMP JUMPDEST POP POP POP SWAP4 SWAP3 POP POP POP JUMP JUMPDEST PUSH1 0x0 DUP3 PUSH1 0x1F DUP4 ADD SLT PUSH2 0x13F8 JUMPI PUSH2 0x13F7 PUSH2 0xCF4 JUMP JUMPDEST JUMPDEST DUP2 CALLDATALOAD PUSH2 0x1408 DUP5 DUP3 PUSH1 0x20 DUP7 ADD PUSH2 0x135C JUMP JUMPDEST SWAP2 POP POP SWAP3 SWAP2 POP POP JUMP JUMPDEST PUSH1 0x0 DUP1 PUSH1 0x40 DUP4 DUP6 SUB SLT ISZERO PUSH2 0x1428 JUMPI PUSH2 0x1427 PUSH2 0xCEA JUMP JUMPDEST JUMPDEST PUSH1 0x0 DUP4 ADD CALLDATALOAD PUSH8 0xFFFFFFFFFFFFFFFF DUP2 GT ISZERO PUSH2 0x1446 JUMPI PUSH2 0x1445 PUSH2 0xCEF JUMP JUMPDEST JUMPDEST PUSH2 0x1452 DUP6 DUP3 DUP7 ADD PUSH2 0xE7D JUMP JUMPDEST SWAP3 POP POP PUSH1 0x20 DUP4 ADD CALLDATALOAD PUSH8 0xFFFFFFFFFFFFFFFF DUP2 GT ISZERO PUSH2 0x1473 JUMPI PUSH2 0x1472 PUSH2 0xCEF JUMP JUMPDEST JUMPDEST PUSH2 0x147F DUP6 DUP3 DUP7 ADD PUSH2 0x13E3 JUMP JUMPDEST SWAP2 POP POP SWAP3 POP SWAP3 SWAP1 POP JUMP JUMPDEST PUSH1 0x0 DUP2 MLOAD SWAP1 POP SWAP2 SWAP1 POP JUMP JUMPDEST PUSH1 0x0 DUP3 DUP3 MSTORE PUSH1 0x20 DUP3 ADD SWAP1 POP SWAP3 SWAP2 POP POP JUMP JUMPDEST PUSH1 0x0 DUP2 SWAP1 POP PUSH1 0x20 DUP3 ADD SWAP1 POP SWAP2 SWAP1 POP JUMP JUMPDEST PUSH2 0x14BE DUP2 PUSH2 0xDD6 JUMP JUMPDEST DUP3 MSTORE POP POP JUMP JUMPDEST PUSH2 0x14CD DUP2 PUSH2 0x10EB JUMP JUMPDEST DUP3 MSTORE POP POP JUMP JUMPDEST PUSH1 0x40 DUP3 ADD PUSH1 0x0 DUP3 ADD MLOAD PUSH2 0x14E9 PUSH1 0x0 DUP6 ADD DUP3 PUSH2 0x14B5 JUMP JUMPDEST POP PUSH1 0x20 DUP3 ADD MLOAD PUSH2 0x14FC PUSH1 0x20 DUP6 ADD DUP3 PUSH2 0x14C4 JUMP JUMPDEST POP POP POP POP JUMP JUMPDEST PUSH1 0x0 PUSH2 0x150E DUP4 DUP4 PUSH2 0x14D3 JUMP JUMPDEST PUSH1 0x40 DUP4 ADD SWAP1 POP SWAP3 SWAP2 POP POP JUMP JUMPDEST PUSH1 0x0 PUSH1 0x20 DUP3 ADD SWAP1 POP SWAP2 SWAP1 POP JUMP JUMPDEST PUSH1 0x0 PUSH2 0x1532 DUP3 PUSH2 0x1489 JUMP JUMPDEST PUSH2 0x153C DUP2 DUP6 PUSH2 0x1494 JUMP JUMPDEST SWAP4 POP PUSH2 0x1547 DUP4 PUSH2 0x14A5 JUMP JUMPDEST DUP1 PUSH1 0x0 JUMPDEST DUP4 DUP2 LT ISZERO PUSH2 0x1578 JUMPI DUP2 MLOAD PUSH2 0x155F DUP9 DUP3 PUSH2 0x1502 JUMP JUMPDEST SWAP8 POP PUSH2 0x156A DUP4 PUSH2 0x151A JUMP JUMPDEST SWAP3 POP POP PUSH1 0x1 DUP2 ADD SWAP1 POP PUSH2 0x154B JUMP JUMPDEST POP DUP6 SWAP4 POP POP POP POP SWAP3 SWAP2 POP POP JUMP JUMPDEST PUSH1 0x0 PUSH1 0x20 DUP3 ADD SWAP1 POP DUP2 DUP2 SUB PUSH1 0x0 DUP4 ADD MSTORE PUSH2 0x159F DUP2 DUP5 PUSH2 0x1527 JUMP JUMPDEST SWAP1 POP SWAP3 SWAP2 POP POP JUMP JUMPDEST PUSH1 0x0 DUP1 PUSH1 0x0 PUSH1 0x60 DUP5 DUP7 SUB SLT ISZERO PUSH2 0x15C0 JUMPI PUSH2 0x15BF PUSH2 0xCEA JUMP JUMPDEST JUMPDEST PUSH1 0x0 PUSH2 0x15CE DUP7 DUP3 DUP8 ADD PUSH2 0xDFF JUMP JUMPDEST SWAP4 POP POP PUSH1 0x20 PUSH2 0x15DF DUP7 DUP3 DUP8 ADD PUSH2 0xDFF JUMP JUMPDEST SWAP3 POP POP PUSH1 0x40 PUSH2 0x15F0 DUP7 DUP3 DUP8 ADD PUSH2 0x1196 JUMP JUMPDEST SWAP2 POP POP SWAP3 POP SWAP3 POP SWAP3 JUMP JUMPDEST PUSH32 0x4E487B7100000000000000000000000000000000000000000000000000000000 PUSH1 0x0 MSTORE PUSH1 0x21 PUSH1 0x4 MSTORE PUSH1 0x24 PUSH1 0x0 REVERT JUMPDEST PUSH1 0x7 DUP2 LT PUSH2 0x163A JUMPI PUSH2 0x1639 PUSH2 0x15FA JUMP JUMPDEST JUMPDEST POP JUMP JUMPDEST PUSH1 0x0 DUP2 SWAP1 POP PUSH2 0x164B DUP3 PUSH2 0x1629 JUMP JUMPDEST SWAP2 SWAP1 POP JUMP JUMPDEST PUSH1 0x0 PUSH2 0x165B DUP3 PUSH2 0x163D JUMP JUMPDEST SWAP1 POP SWAP2 SWAP1 POP JUMP JUMPDEST PUSH2 0x166B DUP2 PUSH2 0x1650 JUMP JUMPDEST DUP3 MSTORE POP POP JUMP JUMPDEST PUSH1 0x0 PUSH1 0x20 DUP3 ADD SWAP1 POP PUSH2 0x1686 PUSH1 0x0 DUP4 ADD DUP5 PUSH2 0x1662 JUMP JUMPDEST SWAP3 SWAP2 POP POP JUMP JUMPDEST PUSH1 0x0 DUP1 PUSH1 0x40 DUP4 DUP6 SUB SLT ISZERO PUSH2 0x16A3 JUMPI PUSH2 0x16A2 PUSH2 0xCEA JUMP JUMPDEST JUMPDEST PUSH1 0x0 PUSH2 0x16B1 DUP6 DUP3 DUP7 ADD PUSH2 0x1196 JUMP JUMPDEST SWAP3 POP POP PUSH1 0x20 DUP4 ADD CALLDATALOAD PUSH8 0xFFFFFFFFFFFFFFFF DUP2 GT ISZERO PUSH2 0x16D2 JUMPI PUSH2 0x16D1 PUSH2 0xCEF JUMP JUMPDEST JUMPDEST PUSH2 0x16DE DUP6 DUP3 DUP7 ADD PUSH2 0xF32 JUMP JUMPDEST SWAP2 POP POP SWAP3 POP SWAP3 SWAP1 POP JUMP JUMPDEST PUSH1 0x0 PUSH1 0x20 DUP3 DUP5 SUB SLT ISZERO PUSH2 0x16FE JUMPI PUSH2 0x16FD PUSH2 0xCEA JUMP JUMPDEST JUMPDEST PUSH1 0x0 PUSH2 0x170C DUP5 DUP3 DUP6 ADD PUSH2 0x1196 JUMP JUMPDEST SWAP2 POP POP SWAP3 SWAP2 POP POP JUMP JUMPDEST PUSH1 0x0 DUP2 MLOAD SWAP1 POP SWAP2 SWAP1 POP JUMP JUMPDEST PUSH1 0x0 DUP3 DUP3 MSTORE PUSH1 0x20 DUP3 ADD SWAP1 POP SWAP3 SWAP2 POP POP JUMP JUMPDEST PUSH1 0x0 DUP2 SWAP1 POP PUSH1 0x20 DUP3 ADD SWAP1 POP SWAP2 SWAP1 POP JUMP JUMPDEST PUSH1 0x0 PUSH2 0x174D DUP4 DUP4 PUSH2 0x14B5 JUMP JUMPDEST PUSH1 0x20 DUP4 ADD SWAP1 POP SWAP3 SWAP2 POP POP JUMP JUMPDEST PUSH1 0x0 PUSH1 0x20 DUP3 ADD SWAP1 POP SWAP2 SWAP1 POP JUMP JUMPDEST PUSH1 0x0 PUSH2 0x1771 DUP3 PUSH2 0x1715 JUMP JUMPDEST PUSH2 0x177B DUP2 DUP6 PUSH2 0x1720 JUMP JUMPDEST SWAP4 POP PUSH2 0x1786 DUP4 PUSH2 0x1731 JUMP JUMPDEST DUP1 PUSH1 0x0 JUMPDEST DUP4 DUP2 LT ISZERO PUSH2 0x17B7 JUMPI DUP2 MLOAD PUSH2 0x179E DUP9 DUP3 PUSH2 0x1741 JUMP JUMPDEST SWAP8 POP PUSH2 0x17A9 DUP4 PUSH2 0x1759 JUMP JUMPDEST SWAP3 POP POP PUSH1 0x1 DUP2 ADD SWAP1 POP PUSH2 0x178A JUMP JUMPDEST POP DUP6 SWAP4 POP POP POP POP SWAP3 SWAP2 POP POP JUMP JUMPDEST PUSH1 0x0 DUP2 MLOAD SWAP1 POP SWAP2 SWAP1 POP JUMP JUMPDEST PUSH1 0x0 DUP3 DUP3 MSTORE PUSH1 0x20 DUP3 ADD SWAP1 POP SWAP3 SWAP2 POP POP JUMP JUMPDEST PUSH1 0x0 DUP2 SWAP1 POP PUSH1 0x20 DUP3 ADD SWAP1 POP SWAP2 SWAP1 POP JUMP JUMPDEST PUSH1 0x0 PUSH2 0x17FC DUP4 DUP4 PUSH2 0x14C4 JUMP JUMPDEST PUSH1 0x20 DUP4 ADD SWAP1 POP SWAP3 SWAP2 POP POP JUMP JUMPDEST PUSH1 0x0 PUSH1 0x20 DUP3 ADD SWAP1 POP SWAP2 SWAP1 POP JUMP JUMPDEST PUSH1 0x0 PUSH2 0x1820 DUP3 PUSH2 0x17C4 JUMP JUMPDEST PUSH2 0x182A DUP2 DUP6 PUSH2 0x17CF JUMP JUMPDEST SWAP4 POP PUSH2 0x1835 DUP4 PUSH2 0x17E0 JUMP JUMPDEST DUP1 PUSH1 0x0 JUMPDEST DUP4 DUP2 LT ISZERO PUSH2 0x1866 JUMPI DUP2 MLOAD PUSH2 0x184D DUP9 DUP3 PUSH2 0x17F0 JUMP JUMPDEST SWAP8 POP PUSH2 0x1858 DUP4 PUSH2 0x1808 JUMP JUMPDEST SWAP3 POP POP PUSH1 0x1 DUP2 ADD SWAP1 POP PUSH2 0x1839 JUMP JUMPDEST POP DUP6 SWAP4 POP POP POP POP SWAP3 SWAP2 POP POP JUMP JUMPDEST PUSH1 0x0 PUSH1 0x60 DUP3 ADD SWAP1 POP DUP2 DUP2 SUB PUSH1 0x0 DUP4 ADD MSTORE PUSH2 0x188D DUP2 DUP7 PUSH2 0x1766 JUMP JUMPDEST SWAP1 POP DUP2 DUP2 SUB PUSH1 0x20 DUP4 ADD MSTORE PUSH2 0x18A1 DUP2 DUP6 PUSH2 0x1815 JUMP JUMPDEST SWAP1 POP PUSH2 0x18B0 PUSH1 0x40 DUP4 ADD DUP5 PUSH2 0x10C1 JUMP JUMPDEST SWAP5 SWAP4 POP POP POP POP JUMP JUMPDEST PUSH32 0x4E487B7100000000000000000000000000000000000000000000000000000000 PUSH1 0x0 MSTORE PUSH1 0x32 PUSH1 0x4 MSTORE PUSH1 0x24 PUSH1 0x0 REVERT JUMPDEST PUSH1 0x0 DUP2 MLOAD SWAP1 POP SWAP2 SWAP1 POP JUMP JUMPDEST PUSH1 0x0 DUP3 DUP3 MSTORE PUSH1 0x20 DUP3 ADD SWAP1 POP SWAP3 SWAP2 POP POP JUMP JUMPDEST PUSH1 0x0 JUMPDEST DUP4 DUP2 LT ISZERO PUSH2 0x1921 JUMPI DUP1 DUP3 ADD MLOAD DUP2 DUP5 ADD MSTORE PUSH1 0x20 DUP2 ADD SWAP1 POP PUSH2 0x1906 JUMP JUMPDEST PUSH1 0x0 DUP5 DUP5 ADD MSTORE POP POP POP POP JUMP JUMPDEST PUSH1 0x0 PUSH2 0x1938 DUP3 PUSH2 0x18E7 JUMP JUMPDEST PUSH2 0x1942 DUP2 DUP6 PUSH2 0x18F2 JUMP JUMPDEST SWAP4 POP PUSH2 0x1952 DUP2 DUP6 PUSH1 0x20 DUP7 ADD PUSH2 0x1903 JUMP JUMPDEST PUSH2 0x195B DUP2 PUSH2 0xCF9 JUMP JUMPDEST DUP5 ADD SWAP2 POP POP SWAP3 SWAP2 POP POP JUMP JUMPDEST PUSH1 0x0 PUSH1 0x40 DUP3 ADD SWAP1 POP PUSH2 0x197B PUSH1 0x0 DUP4 ADD DUP6 PUSH2 0x10F5 JUMP JUMPDEST DUP2 DUP2 SUB PUSH1 0x20 DUP4 ADD MSTORE PUSH2 0x198D DUP2 DUP5 PUSH2 0x192D JUMP JUMPDEST SWAP1 POP SWAP4 SWAP3 POP POP POP JUMP JUMPDEST PUSH32 0x4E487B7100000000000000000000000000000000000000000000000000000000 PUSH1 0x0 MSTORE PUSH1 0x11 PUSH1 0x4 MSTORE PUSH1 0x24 PUSH1 0x0 REVERT JUMPDEST PUSH1 0x0 PUSH2 0x19D0 DUP3 PUSH2 0x10EB JUMP JUMPDEST SWAP2 POP PUSH2 0x19DB DUP4 PUSH2 0x10EB JUMP JUMPDEST SWAP3 POP DUP3 DUP3 ADD SWAP1 POP DUP1 DUP3 GT ISZERO PUSH2 0x19F3 JUMPI PUSH2 0x19F2 PUSH2 0x1996 JUMP JUMPDEST JUMPDEST SWAP3 SWAP2 POP POP JUMP JUMPDEST PUSH1 0x0 PUSH1 0x40 DUP3 ADD SWAP1 POP PUSH2 0x1A0E PUSH1 0x0 DUP4 ADD DUP6 PUSH2 0x10F5 JUMP JUMPDEST PUSH2 0x1A1B PUSH1 0x20 DUP4 ADD DUP5 PUSH2 0x10C1 JUMP JUMPDEST SWAP4 SWAP3 POP POP POP JUMP JUMPDEST PUSH2 0x1A2B DUP2 PUSH2 0x12FA JUMP JUMPDEST DUP2 EQ PUSH2 0x1A36 JUMPI PUSH1 0x0 DUP1 REVERT JUMPDEST POP JUMP JUMPDEST PUSH1 0x0 DUP2 MLOAD SWAP1 POP PUSH2 0x1A48 DUP2 PUSH2 0x1A22 JUMP JUMPDEST SWAP3 SWAP2 POP POP JUMP JUMPDEST PUSH1 0x0 PUSH1 0x20 DUP3 DUP5 SUB SLT ISZERO PUSH2 0x1A64 JUMPI PUSH2 0x1A63 PUSH2 0xCEA JUMP JUMPDEST JUMPDEST PUSH1 0x0 PUSH2 0x1A72 DUP5 DUP3 DUP6 ADD PUSH2 0x1A39 JUMP JUMPDEST SWAP2 POP POP SWAP3 SWAP2 POP POP JUMP JUMPDEST PUSH1 0x0 DUP2 MLOAD SWAP1 POP PUSH2 0x1A8A DUP2 PUSH2 0xDE8 JUMP JUMPDEST SWAP3 SWAP2 POP POP JUMP JUMPDEST PUSH1 0x0 PUSH2 0x1AA3 PUSH2 0x1A9E DUP5 PUSH2 0xD85 JUMP JUMPDEST PUSH2 0xD6A JUMP JUMPDEST SWAP1 POP DUP1 DUP4 DUP3 MSTORE PUSH1 0x20 DUP3 ADD SWAP1 POP PUSH1 0x20 DUP5 MUL DUP4 ADD DUP6 DUP2 GT ISZERO PUSH2 0x1AC6 JUMPI PUSH2 0x1AC5 PUSH2 0xDB1 JUMP JUMPDEST JUMPDEST DUP4 JUMPDEST DUP2 DUP2 LT ISZERO PUSH2 0x1AEF JUMPI DUP1 PUSH2 0x1ADB DUP9 DUP3 PUSH2 0x1A7B JUMP JUMPDEST DUP5 MSTORE PUSH1 0x20 DUP5 ADD SWAP4 POP POP PUSH1 0x20 DUP2 ADD SWAP1 POP PUSH2 0x1AC8 JUMP JUMPDEST POP POP POP SWAP4 SWAP3 POP POP POP JUMP JUMPDEST PUSH1 0x0 DUP3 PUSH1 0x1F DUP4 ADD SLT PUSH2 0x1B0E JUMPI PUSH2 0x1B0D PUSH2 0xCF4 JUMP JUMPDEST JUMPDEST DUP2 MLOAD PUSH2 0x1B1E DUP5 DUP3 PUSH1 0x20 DUP7 ADD PUSH2 0x1A90 JUMP JUMPDEST SWAP2 POP POP SWAP3 SWAP2 POP POP JUMP JUMPDEST PUSH1 0x0 DUP2 MLOAD SWAP1 POP PUSH2 0x1B36 DUP2 PUSH2 0x117F JUMP JUMPDEST SWAP3 SWAP2 POP POP JUMP JUMPDEST PUSH1 0x0 PUSH2 0x1B4F PUSH2 0x1B4A DUP5 PUSH2 0x1153 JUMP JUMPDEST PUSH2 0xD6A JUMP JUMPDEST SWAP1 POP DUP1 DUP4 DUP3 MSTORE PUSH1 0x20 DUP3 ADD SWAP1 POP PUSH1 0x20 DUP5 MUL DUP4 ADD DUP6 DUP2 GT ISZERO PUSH2 0x1B72 JUMPI PUSH2 0x1B71 PUSH2 0xDB1 JUMP JUMPDEST JUMPDEST DUP4 JUMPDEST DUP2 DUP2 LT ISZERO PUSH2 0x1B9B JUMPI DUP1 PUSH2 0x1B87 DUP9 DUP3 PUSH2 0x1B27 JUMP JUMPDEST DUP5 MSTORE PUSH1 0x20 DUP5 ADD SWAP4 POP POP PUSH1 0x20 DUP2 ADD SWAP1 POP PUSH2 0x1B74 JUMP JUMPDEST POP POP POP SWAP4 SWAP3 POP POP POP JUMP JUMPDEST PUSH1 0x0 DUP3 PUSH1 0x1F DUP4 ADD SLT PUSH2 0x1BBA JUMPI PUSH2 0x1BB9 PUSH2 0xCF4 JUMP JUMPDEST JUMPDEST DUP2 MLOAD PUSH2 0x1BCA DUP5 DUP3 PUSH1 0x20 DUP7 ADD PUSH2 0x1B3C JUMP JUMPDEST SWAP2 POP POP SWAP3 SWAP2 POP POP JUMP JUMPDEST PUSH1 0x0 PUSH2 0x1BDE DUP3 PUSH2 0xDB6 JUMP JUMPDEST SWAP1 POP SWAP2 SWAP1 POP JUMP JUMPDEST PUSH2 0x1BEE DUP2 PUSH2 0x1BD3 JUMP JUMPDEST DUP2 EQ PUSH2 0x1BF9 JUMPI PUSH1 0x0 DUP1 REVERT JUMPDEST POP JUMP JUMPDEST PUSH1 0x0 DUP2 MLOAD SWAP1 POP PUSH2 0x1C0B DUP2 PUSH2 0x1BE5 JUMP JUMPDEST SWAP3 SWAP2 POP POP JUMP JUMPDEST PUSH1 0x0 DUP1 PUSH1 0x0 PUSH1 0x60 DUP5 DUP7 SUB SLT ISZERO PUSH2 0x1C2A JUMPI PUSH2 0x1C29 PUSH2 0xCEA JUMP JUMPDEST JUMPDEST PUSH1 0x0 DUP5 ADD MLOAD PUSH8 0xFFFFFFFFFFFFFFFF DUP2 GT ISZERO PUSH2 0x1C48 JUMPI PUSH2 0x1C47 PUSH2 0xCEF JUMP JUMPDEST JUMPDEST PUSH2 0x1C54 DUP7 DUP3 DUP8 ADD PUSH2 0x1AF9 JUMP JUMPDEST SWAP4 POP POP PUSH1 0x20 DUP5 ADD MLOAD PUSH8 0xFFFFFFFFFFFFFFFF DUP2 GT ISZERO PUSH2 0x1C75 JUMPI PUSH2 0x1C74 PUSH2 0xCEF JUMP JUMPDEST JUMPDEST PUSH2 0x1C81 DUP7 DUP3 DUP8 ADD PUSH2 0x1BA5 JUMP JUMPDEST SWAP3 POP POP PUSH1 0x40 PUSH2 0x1C92 DUP7 DUP3 DUP8 ADD PUSH2 0x1BFC JUMP JUMPDEST SWAP2 POP POP SWAP3 POP SWAP3 POP SWAP3 JUMP JUMPDEST PUSH1 0x0 PUSH1 0x60 DUP3 ADD SWAP1 POP PUSH2 0x1CB1 PUSH1 0x0 DUP4 ADD DUP7 PUSH2 0x10F5 JUMP JUMPDEST PUSH2 0x1CBE PUSH1 0x20 DUP4 ADD DUP6 PUSH2 0x10C1 JUMP JUMPDEST PUSH2 0x1CCB PUSH1 0x40 DUP4 ADD DUP5 PUSH2 0x10C1 JUMP JUMPDEST SWAP5 SWAP4 POP POP POP POP JUMP INVALID LOG2 PUSH5 0x6970667358 0x22 SLT KECCAK256 PUSH23 0x93D36B316BD35C3CBBBFD1E310897B7DB4B795FF1CB46C LOG4 CALLDATACOPY SELFDESTRUCT SWAP6 SWAP3 MOD 0xAB 0x49 PUSH5 0x736F6C6343 STOP ADDMOD SGT STOP CALLER "
				},
				"gasEstimates": {
					"creation": {
						"codeDepositCost": "1486600",
						"executionCost": "infinite",
						"totalCost": "infinite"
					},
					"external": {
						"NATIVE()": "401",
						"allocate(address[],uint256[],address)": "infinite",
						"allocate(bytes,address)": "infinite",
						"distribute(address[],bytes,address)": "infinite",
						"getAllo()": "infinite",
						"getPayouts(address[],bytes[])": "infinite",
						"getPoolAmount()": "2504",
						"getPoolId()": "2527",
						"getRecipientStatus(address)": "535",
						"getStrategyId()": "infinite",
						"increasePoolAmount(uint256)": "infinite",
						"initialize(uint256,bytes)": "infinite",
						"isPoolActive()": "2603",
						"isValidAllocator(address)": "602",
						"registerRecipient(bytes,address)": "infinite",
						"withdraw(address,address,uint256)": "infinite"
					},
					"internal": {
						"_allocate(bytes memory,address)": "infinite",
						"_distribute(address[] memory,bytes memory,address)": "infinite",
						"_getPayout(address,bytes memory)": "infinite",
						"_getRecipientStatus(address)": "infinite",
						"_isValidAllocator(address)": "infinite",
						"_registerRecipient(bytes memory,address)": "infinite"
					}
				},
				"methodIdentifiers": {
					"NATIVE()": "a0cf0aea",
					"allocate(address[],uint256[],address)": "44469f98",
					"allocate(bytes,address)": "ef2920fc",
					"distribute(address[],bytes,address)": "0a6f0ee9",
					"getAllo()": "15cc481e",
					"getPayouts(address[],bytes[])": "b2b878d0",
					"getPoolAmount()": "4ab4ba42",
					"getPoolId()": "38fff2d0",
					"getRecipientStatus(address)": "eb11af93",
					"getStrategyId()": "42fda9c7",
					"increasePoolAmount(uint256)": "f5b0dfb7",
					"initialize(uint256,bytes)": "edd146cc",
					"isPoolActive()": "df868ed3",
					"isValidAllocator(address)": "4d31d087",
					"registerRecipient(bytes,address)": "2bbe0cae",
					"withdraw(address,address,uint256)": "d9caed12"
				}
			},
			"storageLayout": {
				"storage": [
					{
						"astId": 1060,
						"contract": "src/YeeterStrategy.sol:YeeterStrategy",
						"label": "poolActive",
						"offset": 0,
						"slot": "0",
						"type": "t_bool"
					},
					{
						"astId": 1062,
						"contract": "src/YeeterStrategy.sol:YeeterStrategy",
						"label": "poolId",
						"offset": 0,
						"slot": "1",
						"type": "t_uint256"
					},
					{
						"astId": 1064,
						"contract": "src/YeeterStrategy.sol:YeeterStrategy",
						"label": "poolAmount",
						"offset": 0,
						"slot": "2",
						"type": "t_uint256"
					}
				],
				"types": {
					"t_bool": {
						"encoding": "inplace",
						"label": "bool",
						"numberOfBytes": "1"
					},
					"t_uint256": {
						"encoding": "inplace",
						"label": "uint256",
						"numberOfBytes": "32"
					}
				}
			},
			"userdoc": {
				"errors": {
					"ALLOCATION_ACTIVE()": [
						{
							"notice": "Thrown when the allocation is active."
						}
					],
					"ALLOCATION_NOT_ACTIVE()": [
						{
							"notice": "Thrown when the allocation is not active."
						}
					],
					"ALLOCATION_NOT_ENDED()": [
						{
							"notice": "Thrown when the allocation is not ended."
						}
					],
					"ALREADY_INITIALIZED()": [
						{
							"notice": "Thrown when data is already intialized"
						}
					],
					"AMOUNT_MISMATCH()": [
						{
							"notice": "Thrown when the amount of tokens sent does not match the amount of tokens expected"
						}
					],
					"ARRAY_MISMATCH()": [
						{
							"notice": "Thrown when two arrays length are not equal"
						}
					],
					"INVALID()": [
						{
							"notice": "Thrown as a general error when input / data is invalid"
						}
					],
					"INVALID_ADDRESS()": [
						{
							"notice": "Thrown when an invalid address is used"
						}
					],
					"INVALID_FEE()": [
						{
							"notice": "Thrown when the fee is below 1e18 which is the fee percentage denominator"
						}
					],
					"INVALID_METADATA()": [
						{
							"notice": "Thrown when the metadata is invalid."
						}
					],
					"INVALID_REGISTRATION()": [
						{
							"notice": "Thrown when the registration is invalid."
						}
					],
					"IS_APPROVED_STRATEGY()": [
						{
							"notice": "Thrown when the strategy is approved and should be cloned"
						}
					],
					"MISMATCH()": [
						{
							"notice": "Thrown when mismatch in decoding data"
						}
					],
					"NON_ZERO_VALUE()": [
						{
							"notice": "Thrown when the value is non-zero"
						}
					],
					"NOT_APPROVED_STRATEGY()": [
						{
							"notice": "Thrown when the strategy is not approved"
						}
					],
					"NOT_ENOUGH_FUNDS()": [
						{
							"notice": "Thrown when not enough funds are available"
						}
					],
					"NOT_IMPLEMENTED()": [
						{
							"notice": "Thrown when the function is not implemented"
						}
					],
					"NOT_INITIALIZED()": [
						{
							"notice": "Thrown when data is yet to be initialized"
						}
					],
					"POOL_ACTIVE()": [
						{
							"notice": "Thrown when a pool is already active"
						}
					],
					"POOL_INACTIVE()": [
						{
							"notice": "Thrown when a pool is inactive"
						}
					],
					"RECIPIENT_ALREADY_ACCEPTED()": [
						{
							"notice": "Thrown when recipient is already accepted."
						}
					],
					"RECIPIENT_ERROR(address)": [
						{
							"notice": "Thrown when there is an error in recipient."
						}
					],
					"RECIPIENT_NOT_ACCEPTED()": [
						{
							"notice": "Thrown when the recipient is not accepted."
						}
					],
					"REGISTRATION_ACTIVE()": [
						{
							"notice": "Thrown when registration is active."
						}
					],
					"REGISTRATION_NOT_ACTIVE()": [
						{
							"notice": "Thrown when registration is not active."
						}
					],
					"UNAUTHORIZED()": [
						{
							"notice": "Thrown when user is not authorized"
						}
					],
					"ZERO_ADDRESS()": [
						{
							"notice": "Thrown when address is the zero address"
						}
					]
				},
				"events": {
					"Allocated(address,uint256,address,address)": {
						"notice": "Emitted when a recipient is allocated to."
					},
					"Distributed(address,address,uint256,address)": {
						"notice": "Emitted when tokens are distributed."
					},
					"Initialized(uint256,bytes)": {
						"notice": "Emitted when strategy is initialized."
					},
					"PoolActive(bool)": {
						"notice": "Emitted when pool is set to active status."
					},
					"Registered(address,bytes,address)": {
						"notice": "Emitted when a recipient is registered."
					}
				},
				"kind": "user",
				"methods": {
					"NATIVE()": {
						"notice": "Address of the native token"
					},
					"allocate(bytes,address)": {
						"notice": "Allocates to a recipient."
					},
					"distribute(address[],bytes,address)": {
						"notice": "Distributes funds (tokens) to recipients."
					},
					"getAllo()": {
						"notice": "Getter for the 'Allo' contract."
					},
					"getPayouts(address[],bytes[])": {
						"notice": "Gets the payout summary for recipients."
					},
					"getPoolAmount()": {
						"notice": "Getter for the 'poolAmount'."
					},
					"getPoolId()": {
						"notice": "Getter for the 'poolId'."
					},
					"getRecipientStatus(address)": {
						"notice": "Getter for the status of a recipient."
					},
					"getStrategyId()": {
						"notice": "Getter for the 'strategyId'."
					},
					"increasePoolAmount(uint256)": {
						"notice": "Increases the pool amount."
					},
					"initialize(uint256,bytes)": {
						"notice": "@dev The default BaseStrategy version will not use the data  if a strategy wants to use it, they will overwrite it,      use it, and then call super.initialize()."
					},
					"isPoolActive()": {
						"notice": "Getter for whether or not the pool is active."
					},
					"isValidAllocator(address)": {
						"notice": "Checks if the '_allocator' is a valid allocator."
					},
					"registerRecipient(bytes,address)": {
						"notice": "Registers a recipient."
					},
					"withdraw(address,address,uint256)": {
						"notice": "Withdraw funds stuck on contract"
					}
				},
				"version": 1
			}
		}
	}
}