{
	"data": {
		"bytecode": {
			"linkReferences": {},
			"object": "60c06040523480156200001157600080fd5b5060405162001f7238038062001f72833981810160405281019062000037919062000145565b806040518060400160405280600f81526020017f59656574657220537472617465677900000000000000000000000000000000008152508173ffffffffffffffffffffffffffffffffffffffff1660808173ffffffffffffffffffffffffffffffffffffffff168152505080604051602001620000b5919062000211565b6040516020818303038152906040528051906020012060a0818152505050505062000235565b600080fd5b600073ffffffffffffffffffffffffffffffffffffffff82169050919050565b60006200010d82620000e0565b9050919050565b6200011f8162000100565b81146200012b57600080fd5b50565b6000815190506200013f8162000114565b92915050565b6000602082840312156200015e576200015d620000db565b5b60006200016e848285016200012e565b91505092915050565b600081519050919050565b600082825260208201905092915050565b60005b83811015620001b357808201518184015260208101905062000196565b60008484015250505050565b6000601f19601f8301169050919050565b6000620001dd8262000177565b620001e9818562000182565b9350620001fb81856020860162000193565b6200020681620001bf565b840191505092915050565b600060208201905081810360008301526200022d8184620001d0565b905092915050565b60805160a051611d0962000269600039600061047901526000818161040f0152818161071a01526108570152611d096000f3fe6080604052600436106100f75760003560e01c8063a0cf0aea1161008a578063eb11af9311610059578063eb11af931461032a578063edd146cc14610367578063ef2920fc14610390578063f5b0dfb7146103ac576100fe565b8063a0cf0aea1461026e578063b2b878d014610299578063d9caed12146102d6578063df868ed3146102ff576100fe565b806342fda9c7116100c657806342fda9c7146101b257806344469f98146101dd5780634ab4ba42146102065780634d31d08714610231576100fe565b80630a6f0ee91461010357806315cc481e1461012c5780632bbe0cae1461015757806338fff2d014610187576100fe565b366100fe57005b600080fd5b34801561010f57600080fd5b5061012a60048036038101906101259190610f60565b6103d5565b005b34801561013857600080fd5b5061014161040b565b60405161014e919061104a565b60405180910390f35b610171600480360381019061016c9190611065565b610433565b60405161017e91906110d0565b60405180910390f35b34801561019357600080fd5b5061019c61046b565b6040516101a99190611104565b60405180910390f35b3480156101be57600080fd5b506101c7610475565b6040516101d49190611138565b60405180910390f35b3480156101e957600080fd5b5061020460048036038101906101ff9190611242565b61049d565b005b34801561021257600080fd5b5061021b6104e0565b6040516102289190611104565b60405180910390f35b34801561023d57600080fd5b50610258600480360381019061025391906112cd565b6104ea565b6040516102659190611315565b60405180910390f35b34801561027a57600080fd5b506102836104fc565b60405161029091906110d0565b60405180910390f35b3480156102a557600080fd5b506102c060048036038101906102bb9190611411565b610514565b6040516102cd9190611585565b60405180910390f35b3480156102e257600080fd5b506102fd60048036038101906102f891906115a7565b61062e565b005b34801561030b57600080fd5b50610314610649565b6040516103219190611315565b60405180910390f35b34801561033657600080fd5b50610351600480360381019061034c91906112cd565b610658565b60405161035e9190611671565b60405180910390f35b34801561037357600080fd5b5061038e6004803603810190610389919061168c565b61066a565b005b6103aa60048036038101906103a59190611065565b6106b0565b005b3480156103b857600080fd5b506103d360048036038101906103ce91906116e8565b6106e2565b005b6103dd610718565b6103e561079f565b6103f08383836107dd565b6103fb8383836107e2565b610406838383610814565b505050565b60007f0000000000000000000000000000000000000000000000000000000000000000905090565b600061043d610718565b61044561079f565b61044f8383610819565b610459838361081d565b90506104658383610851565b92915050565b6000600154905090565b60007f0000000000000000000000000000000000000000000000000000000000000000905090565b336104a781610855565b60008484846040516020016104be93929190611873565b60405160208183030381529060405290506104d9813361092c565b5050505050565b6000600254905090565b60006104f582610a8c565b9050919050565b73eeeeeeeeeeeeeeeeeeeeeeeeeeeeeeeeeeeeeeee81565b606060008351905082518114610556576040517f7b49805600000000000000000000000000000000000000000000000000000000815260040160405180910390fd5b60008167ffffffffffffffff81111561057257610571610d0a565b5b6040519080825280602002602001820160405280156105ab57816020015b610598610cb0565b8152602001906001900390816105905790505b50905060005b82811015610622576105f78682815181106105cf576105ce6118b8565b5b60200260200101518683815181106105ea576105e96118b8565b5b6020026020010151610ac0565b82828151811061060a576106096118b8565b5b602002602001018190525080806001019150506105b1565b50809250505092915050565b3361063881610855565b610643848484610afa565b50505050565b6000610653610b61565b905090565b600061066382610b77565b9050919050565b61067382610bab565b7f91efa3d50feccde0d0d202f8ae5c41ca0b2be614cebcb2bd2f4b019396e6568a82826040516106a4929190611966565b60405180910390a15050565b6106b8610718565b6106c061079f565b6106ca8282610c33565b6106d4828261092c565b6106de8282610c37565b5050565b6106ea610718565b6106f381610c3b565b806002600082825461070591906119c5565b9250508190555061071581610c3e565b50565b7f000000000000000000000000000000000000000000000000000000000000000073ffffffffffffffffffffffffffffffffffffffff163373ffffffffffffffffffffffffffffffffffffffff161461079d576040517f075fd2b100000000000000000000000000000000000000000000000000000000815260040160405180910390fd5b565b6000600154036107db576040517f3da3f98c00000000000000000000000000000000000000000000000000000000815260040160405180910390fd5b565b505050565b6040517f1569426800000000000000000000000000000000000000000000000000000000815260040160405180910390fd5b505050565b5050565b60006040517f1569426800000000000000000000000000000000000000000000000000000000815260040160405180910390fd5b5050565b7f000000000000000000000000000000000000000000000000000000000000000073ffffffffffffffffffffffffffffffffffffffff166329e40d4b600154836040518363ffffffff1660e01b81526004016108b29291906119f9565b602060405180830381865afa1580156108cf573d6000803e3d6000fd5b505050506040513d601f19601f820116820180604052508101906108f39190611a4e565b610929576040517f075fd2b100000000000000000000000000000000000000000000000000000000815260040160405180910390fd5b50565b8061093681610855565b60008060008580602001905181019061094f9190611c11565b92509250925060008351905060008103610995576040517ffb76571500000000000000000000000000000000000000000000000000000000815260040160405180910390fd5b825181146109cf576040517ffb76571500000000000000000000000000000000000000000000000000000000815260040160405180910390fd5b60005b81811015610a825760008482815181106109ef576109ee6118b8565b5b602002602001015190506000868381518110610a0e57610a0d6118b8565b5b60200260200101519050610a23858284610afa565b8073ffffffffffffffffffffffffffffffffffffffff167f463ffc2cf8b1596445c417388ed30e53eb67cf6668cb2be7f0addf8a78c8441b83878c604051610a6d93929190611c9c565b60405180910390a282600101925050506109d2565b5050505050505050565b60006040517f1569426800000000000000000000000000000000000000000000000000000000815260040160405180910390fd5b610ac8610cb0565b6040517f1569426800000000000000000000000000000000000000000000000000000000815260040160405180910390fd5b73eeeeeeeeeeeeeeeeeeeeeeeeeeeeeeeeeeeeeeee73ffffffffffffffffffffffffffffffffffffffff168373ffffffffffffffffffffffffffffffffffffffff1603610b5057610b4b8282610c41565b610b5c565b610b5b838383610c61565b5b505050565b60008060009054906101000a900460ff16905090565b60006040517f1569426800000000000000000000000000000000000000000000000000000000815260040160405180910390fd5b610bb3610718565b600060015414610bef576040517f439a74c900000000000000000000000000000000000000000000000000000000815260040160405180910390fd5b60008103610c29576040517f7fcce2a900000000000000000000000000000000000000000000000000000000815260040160405180910390fd5b8060018190555050565b5050565b5050565b50565b50565b60008060008084865af1610c5d5763b12d13eb6000526004601cfd5b5050565b81601452806034526fa9059cbb00000000000000000000000060005260206000604460106000875af13d156001600051141716610ca6576390b8ec186000526004601cfd5b6000603452505050565b6040518060400160405280600073ffffffffffffffffffffffffffffffffffffffff168152602001600081525090565b6000604051905090565b600080fd5b600080fd5b600080fd5b6000601f19601f8301169050919050565b7f4e487b7100000000000000000000000000000000000000000000000000000000600052604160045260246000fd5b610d4282610cf9565b810181811067ffffffffffffffff82111715610d6157610d60610d0a565b5b80604052505050565b6000610d74610ce0565b9050610d808282610d39565b919050565b600067ffffffffffffffff821115610da057610d9f610d0a565b5b602082029050602081019050919050565b600080fd5b600073ffffffffffffffffffffffffffffffffffffffff82169050919050565b6000610de182610db6565b9050919050565b610df181610dd6565b8114610dfc57600080fd5b50565b600081359050610e0e81610de8565b92915050565b6000610e27610e2284610d85565b610d6a565b90508083825260208201905060208402830185811115610e4a57610e49610db1565b5b835b81811015610e735780610e5f8882610dff565b845260208401935050602081019050610e4c565b5050509392505050565b600082601f830112610e9257610e91610cf4565b5b8135610ea2848260208601610e14565b91505092915050565b600080fd5b600067ffffffffffffffff821115610ecb57610eca610d0a565b5b610ed482610cf9565b9050602081019050919050565b82818337600083830152505050565b6000610f03610efe84610eb0565b610d6a565b905082815260208101848484011115610f1f57610f1e610eab565b5b610f2a848285610ee1565b509392505050565b600082601f830112610f4757610f46610cf4565b5b8135610f57848260208601610ef0565b91505092915050565b600080600060608486031215610f7957610f78610cea565b5b600084013567ffffffffffffffff811115610f9757610f96610cef565b5b610fa386828701610e7d565b935050602084013567ffffffffffffffff811115610fc457610fc3610cef565b5b610fd086828701610f32565b9250506040610fe186828701610dff565b9150509250925092565b6000819050919050565b600061101061100b61100684610db6565b610feb565b610db6565b9050919050565b600061102282610ff5565b9050919050565b600061103482611017565b9050919050565b61104481611029565b82525050565b600060208201905061105f600083018461103b565b92915050565b6000806040838503121561107c5761107b610cea565b5b600083013567ffffffffffffffff81111561109a57611099610cef565b5b6110a685828601610f32565b92505060206110b785828601610dff565b9150509250929050565b6110ca81610dd6565b82525050565b60006020820190506110e560008301846110c1565b92915050565b6000819050919050565b6110fe816110eb565b82525050565b600060208201905061111960008301846110f5565b92915050565b6000819050919050565b6111328161111f565b82525050565b600060208201905061114d6000830184611129565b92915050565b600067ffffffffffffffff82111561116e5761116d610d0a565b5b602082029050602081019050919050565b611188816110eb565b811461119357600080fd5b50565b6000813590506111a58161117f565b92915050565b60006111be6111b984611153565b610d6a565b905080838252602082019050602084028301858111156111e1576111e0610db1565b5b835b8181101561120a57806111f68882611196565b8452602084019350506020810190506111e3565b5050509392505050565b600082601f83011261122957611228610cf4565b5b81356112398482602086016111ab565b91505092915050565b60008060006060848603121561125b5761125a610cea565b5b600084013567ffffffffffffffff81111561127957611278610cef565b5b61128586828701610e7d565b935050602084013567ffffffffffffffff8111156112a6576112a5610cef565b5b6112b286828701611214565b92505060406112c386828701610dff565b9150509250925092565b6000602082840312156112e3576112e2610cea565b5b60006112f184828501610dff565b91505092915050565b60008115159050919050565b61130f816112fa565b82525050565b600060208201905061132a6000830184611306565b92915050565b600067ffffffffffffffff82111561134b5761134a610d0a565b5b602082029050602081019050919050565b600061136f61136a84611330565b610d6a565b9050808382526020820190506020840283018581111561139257611391610db1565b5b835b818110156113d957803567ffffffffffffffff8111156113b7576113b6610cf4565b5b8086016113c48982610f32565b85526020850194505050602081019050611394565b5050509392505050565b600082601f8301126113f8576113f7610cf4565b5b813561140884826020860161135c565b91505092915050565b6000806040838503121561142857611427610cea565b5b600083013567ffffffffffffffff81111561144657611445610cef565b5b61145285828601610e7d565b925050602083013567ffffffffffffffff81111561147357611472610cef565b5b61147f858286016113e3565b9150509250929050565b600081519050919050565b600082825260208201905092915050565b6000819050602082019050919050565b6114be81610dd6565b82525050565b6114cd816110eb565b82525050565b6040820160008201516114e960008501826114b5565b5060208201516114fc60208501826114c4565b50505050565b600061150e83836114d3565b60408301905092915050565b6000602082019050919050565b600061153282611489565b61153c8185611494565b9350611547836114a5565b8060005b8381101561157857815161155f8882611502565b975061156a8361151a565b92505060018101905061154b565b5085935050505092915050565b6000602082019050818103600083015261159f8184611527565b905092915050565b6000806000606084860312156115c0576115bf610cea565b5b60006115ce86828701610dff565b93505060206115df86828701610dff565b92505060406115f086828701611196565b9150509250925092565b7f4e487b7100000000000000000000000000000000000000000000000000000000600052602160045260246000fd5b6007811061163a576116396115fa565b5b50565b600081905061164b82611629565b919050565b600061165b8261163d565b9050919050565b61166b81611650565b82525050565b60006020820190506116866000830184611662565b92915050565b600080604083850312156116a3576116a2610cea565b5b60006116b185828601611196565b925050602083013567ffffffffffffffff8111156116d2576116d1610cef565b5b6116de85828601610f32565b9150509250929050565b6000602082840312156116fe576116fd610cea565b5b600061170c84828501611196565b91505092915050565b600081519050919050565b600082825260208201905092915050565b6000819050602082019050919050565b600061174d83836114b5565b60208301905092915050565b6000602082019050919050565b600061177182611715565b61177b8185611720565b935061178683611731565b8060005b838110156117b757815161179e8882611741565b97506117a983611759565b92505060018101905061178a565b5085935050505092915050565b600081519050919050565b600082825260208201905092915050565b6000819050602082019050919050565b60006117fc83836114c4565b60208301905092915050565b6000602082019050919050565b6000611820826117c4565b61182a81856117cf565b9350611835836117e0565b8060005b8381101561186657815161184d88826117f0565b975061185883611808565b925050600181019050611839565b5085935050505092915050565b6000606082019050818103600083015261188d8186611766565b905081810360208301526118a18185611815565b90506118b060408301846110c1565b949350505050565b7f4e487b7100000000000000000000000000000000000000000000000000000000600052603260045260246000fd5b600081519050919050565b600082825260208201905092915050565b60005b83811015611921578082015181840152602081019050611906565b60008484015250505050565b6000611938826118e7565b61194281856118f2565b9350611952818560208601611903565b61195b81610cf9565b840191505092915050565b600060408201905061197b60008301856110f5565b818103602083015261198d818461192d565b90509392505050565b7f4e487b7100000000000000000000000000000000000000000000000000000000600052601160045260246000fd5b60006119d0826110eb565b91506119db836110eb565b92508282019050808211156119f3576119f2611996565b5b92915050565b6000604082019050611a0e60008301856110f5565b611a1b60208301846110c1565b9392505050565b611a2b816112fa565b8114611a3657600080fd5b50565b600081519050611a4881611a22565b92915050565b600060208284031215611a6457611a63610cea565b5b6000611a7284828501611a39565b91505092915050565b600081519050611a8a81610de8565b92915050565b6000611aa3611a9e84610d85565b610d6a565b90508083825260208201905060208402830185811115611ac657611ac5610db1565b5b835b81811015611aef5780611adb8882611a7b565b845260208401935050602081019050611ac8565b5050509392505050565b600082601f830112611b0e57611b0d610cf4565b5b8151611b1e848260208601611a90565b91505092915050565b600081519050611b368161117f565b92915050565b6000611b4f611b4a84611153565b610d6a565b90508083825260208201905060208402830185811115611b7257611b71610db1565b5b835b81811015611b9b5780611b878882611b27565b845260208401935050602081019050611b74565b5050509392505050565b600082601f830112611bba57611bb9610cf4565b5b8151611bca848260208601611b3c565b91505092915050565b6000611bde82610db6565b9050919050565b611bee81611bd3565b8114611bf957600080fd5b50565b600081519050611c0b81611be5565b92915050565b600080600060608486031215611c2a57611c29610cea565b5b600084015167ffffffffffffffff811115611c4857611c47610cef565b5b611c5486828701611af9565b935050602084015167ffffffffffffffff811115611c7557611c74610cef565b5b611c8186828701611ba5565b9250506040611c9286828701611bfc565b9150509250925092565b6000606082019050611cb160008301866110f5565b611cbe60208301856110c1565b611ccb60408301846110c1565b94935050505056fea26469706673582212207693d36b316bd35c3cbbbfd1e310897b7db4b795ff1cb46ca437ff959206ab4964736f6c63430008130033",
			"opcodes": "PUSH1 0xC0 PUSH1 0x40 MSTORE CALLVALUE DUP1 ISZERO PUSH3 0x11 JUMPI PUSH1 0x0 DUP1 REVERT JUMPDEST POP PUSH1 0x40 MLOAD PUSH3 0x1F72 CODESIZE SUB DUP1 PUSH3 0x1F72 DUP4 CODECOPY DUP2 DUP2 ADD PUSH1 0x40 MSTORE DUP2 ADD SWAP1 PUSH3 0x37 SWAP2 SWAP1 PUSH3 0x145 JUMP JUMPDEST DUP1 PUSH1 0x40 MLOAD DUP1 PUSH1 0x40 ADD PUSH1 0x40 MSTORE DUP1 PUSH1 0xF DUP2 MSTORE PUSH1 0x20 ADD PUSH32 0x5965657465722053747261746567790000000000000000000000000000000000 DUP2 MSTORE POP DUP2 PUSH20 0xFFFFFFFFFFFFFFFFFFFFFFFFFFFFFFFFFFFFFFFF AND PUSH1 0x80 DUP2 PUSH20 0xFFFFFFFFFFFFFFFFFFFFFFFFFFFFFFFFFFFFFFFF AND DUP2 MSTORE POP POP DUP1 PUSH1 0x40 MLOAD PUSH1 0x20 ADD PUSH3 0xB5 SWAP2 SWAP1 PUSH3 0x211 JUMP JUMPDEST PUSH1 0x40 MLOAD PUSH1 0x20 DUP2 DUP4 SUB SUB DUP2 MSTORE SWAP1 PUSH1 0x40 MSTORE DUP1 MLOAD SWAP1 PUSH1 0x20 ADD KECCAK256 PUSH1 0xA0 DUP2 DUP2 MSTORE POP POP POP POP POP PUSH3 0x235 JUMP JUMPDEST PUSH1 0x0 DUP1 REVERT JUMPDEST PUSH1 0x0 PUSH20 0xFFFFFFFFFFFFFFFFFFFFFFFFFFFFFFFFFFFFFFFF DUP3 AND SWAP1 POP SWAP2 SWAP1 POP JUMP JUMPDEST PUSH1 0x0 PUSH3 0x10D DUP3 PUSH3 0xE0 JUMP JUMPDEST SWAP1 POP SWAP2 SWAP1 POP JUMP JUMPDEST PUSH3 0x11F DUP2 PUSH3 0x100 JUMP JUMPDEST DUP2 EQ PUSH3 0x12B JUMPI PUSH1 0x0 DUP1 REVERT JUMPDEST POP JUMP JUMPDEST PUSH1 0x0 DUP2 MLOAD SWAP1 POP PUSH3 0x13F DUP2 PUSH3 0x114 JUMP JUMPDEST SWAP3 SWAP2 POP POP JUMP JUMPDEST PUSH1 0x0 PUSH1 0x20 DUP3 DUP5 SUB SLT ISZERO PUSH3 0x15E JUMPI PUSH3 0x15D PUSH3 0xDB JUMP JUMPDEST JUMPDEST PUSH1 0x0 PUSH3 0x16E DUP5 DUP3 DUP6 ADD PUSH3 0x12E JUMP JUMPDEST SWAP2 POP POP SWAP3 SWAP2 POP POP JUMP JUMPDEST PUSH1 0x0 DUP2 MLOAD SWAP1 POP SWAP2 SWAP1 POP JUMP JUMPDEST PUSH1 0x0 DUP3 DUP3 MSTORE PUSH1 0x20 DUP3 ADD SWAP1 POP SWAP3 SWAP2 POP POP JUMP JUMPDEST PUSH1 0x0 JUMPDEST DUP4 DUP2 LT ISZERO PUSH3 0x1B3 JUMPI DUP1 DUP3 ADD MLOAD DUP2 DUP5 ADD MSTORE PUSH1 0x20 DUP2 ADD SWAP1 POP PUSH3 0x196 JUMP JUMPDEST PUSH1 0x0 DUP5 DUP5 ADD MSTORE POP POP POP POP JUMP JUMPDEST PUSH1 0x0 PUSH1 0x1F NOT PUSH1 0x1F DUP4 ADD AND SWAP1 POP SWAP2 SWAP1 POP JUMP JUMPDEST PUSH1 0x0 PUSH3 0x1DD DUP3 PUSH3 0x177 JUMP JUMPDEST PUSH3 0x1E9 DUP2 DUP6 PUSH3 0x182 JUMP JUMPDEST SWAP4 POP PUSH3 0x1FB DUP2 DUP6 PUSH1 0x20 DUP7 ADD PUSH3 0x193 JUMP JUMPDEST PUSH3 0x206 DUP2 PUSH3 0x1BF JUMP JUMPDEST DUP5 ADD SWAP2 POP POP SWAP3 SWAP2 POP POP JUMP JUMPDEST PUSH1 0x0 PUSH1 0x20 DUP3 ADD SWAP1 POP DUP2 DUP2 SUB PUSH1 0x0 DUP4 ADD MSTORE PUSH3 0x22D DUP2 DUP5 PUSH3 0x1D0 JUMP JUMPDEST SWAP1 POP SWAP3 SWAP2 POP POP JUMP JUMPDEST PUSH1 0x80 MLOAD PUSH1 0xA0 MLOAD PUSH2 0x1D09 PUSH3 0x269 PUSH1 0x0 CODECOPY PUSH1 0x0 PUSH2 0x479 ADD MSTORE PUSH1 0x0 DUP2 DUP2 PUSH2 0x40F ADD MSTORE DUP2 DUP2 PUSH2 0x71A ADD MSTORE PUSH2 0x857 ADD MSTORE PUSH2 0x1D09 PUSH1 0x0 RETURN INVALID PUSH1 0x80 PUSH1 0x40 MSTORE PUSH1 0x4 CALLDATASIZE LT PUSH2 0xF7 JUMPI PUSH1 0x0 CALLDATALOAD PUSH1 0xE0 SHR DUP1 PUSH4 0xA0CF0AEA GT PUSH2 0x8A JUMPI DUP1 PUSH4 0xEB11AF93 GT PUSH2 0x59 JUMPI DUP1 PUSH4 0xEB11AF93 EQ PUSH2 0x32A JUMPI DUP1 PUSH4 0xEDD146CC EQ PUSH2 0x367 JUMPI DUP1 PUSH4 0xEF2920FC EQ PUSH2 0x390 JUMPI DUP1 PUSH4 0xF5B0DFB7 EQ PUSH2 0x3AC JUMPI PUSH2 0xFE JUMP JUMPDEST DUP1 PUSH4 0xA0CF0AEA EQ PUSH2 0x26E JUMPI DUP1 PUSH4 0xB2B878D0 EQ PUSH2 0x299 JUMPI DUP1 PUSH4 0xD9CAED12 EQ PUSH2 0x2D6 JUMPI DUP1 PUSH4 0xDF868ED3 EQ PUSH2 0x2FF JUMPI PUSH2 0xFE JUMP JUMPDEST DUP1 PUSH4 0x42FDA9C7 GT PUSH2 0xC6 JUMPI DUP1 PUSH4 0x42FDA9C7 EQ PUSH2 0x1B2 JUMPI DUP1 PUSH4 0x44469F98 EQ PUSH2 0x1DD JUMPI DUP1 PUSH4 0x4AB4BA42 EQ PUSH2 0x206 JUMPI DUP1 PUSH4 0x4D31D087 EQ PUSH2 0x231 JUMPI PUSH2 0xFE JUMP JUMPDEST DUP1 PUSH4 0xA6F0EE9 EQ PUSH2 0x103 JUMPI DUP1 PUSH4 0x15CC481E EQ PUSH2 0x12C JUMPI DUP1 PUSH4 0x2BBE0CAE EQ PUSH2 0x157 JUMPI DUP1 PUSH4 0x38FFF2D0 EQ PUSH2 0x187 JUMPI PUSH2 0xFE JUMP JUMPDEST CALLDATASIZE PUSH2 0xFE JUMPI STOP JUMPDEST PUSH1 0x0 DUP1 REVERT JUMPDEST CALLVALUE DUP1 ISZERO PUSH2 0x10F JUMPI PUSH1 0x0 DUP1 REVERT JUMPDEST POP PUSH2 0x12A PUSH1 0x4 DUP1 CALLDATASIZE SUB DUP2 ADD SWAP1 PUSH2 0x125 SWAP2 SWAP1 PUSH2 0xF60 JUMP JUMPDEST PUSH2 0x3D5 JUMP JUMPDEST STOP JUMPDEST CALLVALUE DUP1 ISZERO PUSH2 0x138 JUMPI PUSH1 0x0 DUP1 REVERT JUMPDEST POP PUSH2 0x141 PUSH2 0x40B JUMP JUMPDEST PUSH1 0x40 MLOAD PUSH2 0x14E SWAP2 SWAP1 PUSH2 0x104A JUMP JUMPDEST PUSH1 0x40 MLOAD DUP1 SWAP2 SUB SWAP1 RETURN JUMPDEST PUSH2 0x171 PUSH1 0x4 DUP1 CALLDATASIZE SUB DUP2 ADD SWAP1 PUSH2 0x16C SWAP2 SWAP1 PUSH2 0x1065 JUMP JUMPDEST PUSH2 0x433 JUMP JUMPDEST PUSH1 0x40 MLOAD PUSH2 0x17E SWAP2 SWAP1 PUSH2 0x10D0 JUMP JUMPDEST PUSH1 0x40 MLOAD DUP1 SWAP2 SUB SWAP1 RETURN JUMPDEST CALLVALUE DUP1 ISZERO PUSH2 0x193 JUMPI PUSH1 0x0 DUP1 REVERT JUMPDEST POP PUSH2 0x19C PUSH2 0x46B JUMP JUMPDEST PUSH1 0x40 MLOAD PUSH2 0x1A9 SWAP2 SWAP1 PUSH2 0x1104 JUMP JUMPDEST PUSH1 0x40 MLOAD DUP1 SWAP2 SUB SWAP1 RETURN JUMPDEST CALLVALUE DUP1 ISZERO PUSH2 0x1BE JUMPI PUSH1 0x0 DUP1 REVERT JUMPDEST POP PUSH2 0x1C7 PUSH2 0x475 JUMP JUMPDEST PUSH1 0x40 MLOAD PUSH2 0x1D4 SWAP2 SWAP1 PUSH2 0x1138 JUMP JUMPDEST PUSH1 0x40 MLOAD DUP1 SWAP2 SUB SWAP1 RETURN JUMPDEST CALLVALUE DUP1 ISZERO PUSH2 0x1E9 JUMPI PUSH1 0x0 DUP1 REVERT JUMPDEST POP PUSH2 0x204 PUSH1 0x4 DUP1 CALLDATASIZE SUB DUP2 ADD SWAP1 PUSH2 0x1FF SWAP2 SWAP1 PUSH2 0x1242 JUMP JUMPDEST PUSH2 0x49D JUMP JUMPDEST STOP JUMPDEST CALLVALUE DUP1 ISZERO PUSH2 0x212 JUMPI PUSH1 0x0 DUP1 REVERT JUMPDEST POP PUSH2 0x21B PUSH2 0x4E0 JUMP JUMPDEST PUSH1 0x40 MLOAD PUSH2 0x228 SWAP2 SWAP1 PUSH2 0x1104 JUMP JUMPDEST PUSH1 0x40 MLOAD DUP1 SWAP2 SUB SWAP1 RETURN JUMPDEST CALLVALUE DUP1 ISZERO PUSH2 0x23D JUMPI PUSH1 0x0 DUP1 REVERT JUMPDEST POP PUSH2 0x258 PUSH1 0x4 DUP1 CALLDATASIZE SUB DUP2 ADD SWAP1 PUSH2 0x253 SWAP2 SWAP1 PUSH2 0x12CD JUMP JUMPDEST PUSH2 0x4EA JUMP JUMPDEST PUSH1 0x40 MLOAD PUSH2 0x265 SWAP2 SWAP1 PUSH2 0x1315 JUMP JUMPDEST PUSH1 0x40 MLOAD DUP1 SWAP2 SUB SWAP1 RETURN JUMPDEST CALLVALUE DUP1 ISZERO PUSH2 0x27A JUMPI PUSH1 0x0 DUP1 REVERT JUMPDEST POP PUSH2 0x283 PUSH2 0x4FC JUMP JUMPDEST PUSH1 0x40 MLOAD PUSH2 0x290 SWAP2 SWAP1 PUSH2 0x10D0 JUMP JUMPDEST PUSH1 0x40 MLOAD DUP1 SWAP2 SUB SWAP1 RETURN JUMPDEST CALLVALUE DUP1 ISZERO PUSH2 0x2A5 JUMPI PUSH1 0x0 DUP1 REVERT JUMPDEST POP PUSH2 0x2C0 PUSH1 0x4 DUP1 CALLDATASIZE SUB DUP2 ADD SWAP1 PUSH2 0x2BB SWAP2 SWAP1 PUSH2 0x1411 JUMP JUMPDEST PUSH2 0x514 JUMP JUMPDEST PUSH1 0x40 MLOAD PUSH2 0x2CD SWAP2 SWAP1 PUSH2 0x1585 JUMP JUMPDEST PUSH1 0x40 MLOAD DUP1 SWAP2 SUB SWAP1 RETURN JUMPDEST CALLVALUE DUP1 ISZERO PUSH2 0x2E2 JUMPI PUSH1 0x0 DUP1 REVERT JUMPDEST POP PUSH2 0x2FD PUSH1 0x4 DUP1 CALLDATASIZE SUB DUP2 ADD SWAP1 PUSH2 0x2F8 SWAP2 SWAP1 PUSH2 0x15A7 JUMP JUMPDEST PUSH2 0x62E JUMP JUMPDEST STOP JUMPDEST CALLVALUE DUP1 ISZERO PUSH2 0x30B JUMPI PUSH1 0x0 DUP1 REVERT JUMPDEST POP PUSH2 0x314 PUSH2 0x649 JUMP JUMPDEST PUSH1 0x40 MLOAD PUSH2 0x321 SWAP2 SWAP1 PUSH2 0x1315 JUMP JUMPDEST PUSH1 0x40 MLOAD DUP1 SWAP2 SUB SWAP1 RETURN JUMPDEST CALLVALUE DUP1 ISZERO PUSH2 0x336 JUMPI PUSH1 0x0 DUP1 REVERT JUMPDEST POP PUSH2 0x351 PUSH1 0x4 DUP1 CALLDATASIZE SUB DUP2 ADD SWAP1 PUSH2 0x34C SWAP2 SWAP1 PUSH2 0x12CD JUMP JUMPDEST PUSH2 0x658 JUMP JUMPDEST PUSH1 0x40 MLOAD PUSH2 0x35E SWAP2 SWAP1 PUSH2 0x1671 JUMP JUMPDEST PUSH1 0x40 MLOAD DUP1 SWAP2 SUB SWAP1 RETURN JUMPDEST CALLVALUE DUP1 ISZERO PUSH2 0x373 JUMPI PUSH1 0x0 DUP1 REVERT JUMPDEST POP PUSH2 0x38E PUSH1 0x4 DUP1 CALLDATASIZE SUB DUP2 ADD SWAP1 PUSH2 0x389 SWAP2 SWAP1 PUSH2 0x168C JUMP JUMPDEST PUSH2 0x66A JUMP JUMPDEST STOP JUMPDEST PUSH2 0x3AA PUSH1 0x4 DUP1 CALLDATASIZE SUB DUP2 ADD SWAP1 PUSH2 0x3A5 SWAP2 SWAP1 PUSH2 0x1065 JUMP JUMPDEST PUSH2 0x6B0 JUMP JUMPDEST STOP JUMPDEST CALLVALUE DUP1 ISZERO PUSH2 0x3B8 JUMPI PUSH1 0x0 DUP1 REVERT JUMPDEST POP PUSH2 0x3D3 PUSH1 0x4 DUP1 CALLDATASIZE SUB DUP2 ADD SWAP1 PUSH2 0x3CE SWAP2 SWAP1 PUSH2 0x16E8 JUMP JUMPDEST PUSH2 0x6E2 JUMP JUMPDEST STOP JUMPDEST PUSH2 0x3DD PUSH2 0x718 JUMP JUMPDEST PUSH2 0x3E5 PUSH2 0x79F JUMP JUMPDEST PUSH2 0x3F0 DUP4 DUP4 DUP4 PUSH2 0x7DD JUMP JUMPDEST PUSH2 0x3FB DUP4 DUP4 DUP4 PUSH2 0x7E2 JUMP JUMPDEST PUSH2 0x406 DUP4 DUP4 DUP4 PUSH2 0x814 JUMP JUMPDEST POP POP POP JUMP JUMPDEST PUSH1 0x0 PUSH32 0x0 SWAP1 POP SWAP1 JUMP JUMPDEST PUSH1 0x0 PUSH2 0x43D PUSH2 0x718 JUMP JUMPDEST PUSH2 0x445 PUSH2 0x79F JUMP JUMPDEST PUSH2 0x44F DUP4 DUP4 PUSH2 0x819 JUMP JUMPDEST PUSH2 0x459 DUP4 DUP4 PUSH2 0x81D JUMP JUMPDEST SWAP1 POP PUSH2 0x465 DUP4 DUP4 PUSH2 0x851 JUMP JUMPDEST SWAP3 SWAP2 POP POP JUMP JUMPDEST PUSH1 0x0 PUSH1 0x1 SLOAD SWAP1 POP SWAP1 JUMP JUMPDEST PUSH1 0x0 PUSH32 0x0 SWAP1 POP SWAP1 JUMP JUMPDEST CALLER PUSH2 0x4A7 DUP2 PUSH2 0x855 JUMP JUMPDEST PUSH1 0x0 DUP5 DUP5 DUP5 PUSH1 0x40 MLOAD PUSH1 0x20 ADD PUSH2 0x4BE SWAP4 SWAP3 SWAP2 SWAP1 PUSH2 0x1873 JUMP JUMPDEST PUSH1 0x40 MLOAD PUSH1 0x20 DUP2 DUP4 SUB SUB DUP2 MSTORE SWAP1 PUSH1 0x40 MSTORE SWAP1 POP PUSH2 0x4D9 DUP2 CALLER PUSH2 0x92C JUMP JUMPDEST POP POP POP POP POP JUMP JUMPDEST PUSH1 0x0 PUSH1 0x2 SLOAD SWAP1 POP SWAP1 JUMP JUMPDEST PUSH1 0x0 PUSH2 0x4F5 DUP3 PUSH2 0xA8C JUMP JUMPDEST SWAP1 POP SWAP2 SWAP1 POP JUMP JUMPDEST PUSH20 0xEEEEEEEEEEEEEEEEEEEEEEEEEEEEEEEEEEEEEEEE DUP2 JUMP JUMPDEST PUSH1 0x60 PUSH1 0x0 DUP4 MLOAD SWAP1 POP DUP3 MLOAD DUP2 EQ PUSH2 0x556 JUMPI PUSH1 0x40 MLOAD PUSH32 0x7B49805600000000000000000000000000000000000000000000000000000000 DUP2 MSTORE PUSH1 0x4 ADD PUSH1 0x40 MLOAD DUP1 SWAP2 SUB SWAP1 REVERT JUMPDEST PUSH1 0x0 DUP2 PUSH8 0xFFFFFFFFFFFFFFFF DUP2 GT ISZERO PUSH2 0x572 JUMPI PUSH2 0x571 PUSH2 0xD0A JUMP JUMPDEST JUMPDEST PUSH1 0x40 MLOAD SWAP1 DUP1 DUP3 MSTORE DUP1 PUSH1 0x20 MUL PUSH1 0x20 ADD DUP3 ADD PUSH1 0x40 MSTORE DUP1 ISZERO PUSH2 0x5AB JUMPI DUP2 PUSH1 0x20 ADD JUMPDEST PUSH2 0x598 PUSH2 0xCB0 JUMP JUMPDEST DUP2 MSTORE PUSH1 0x20 ADD SWAP1 PUSH1 0x1 SWAP1 SUB SWAP1 DUP2 PUSH2 0x590 JUMPI SWAP1 POP JUMPDEST POP SWAP1 POP PUSH1 0x0 JUMPDEST DUP3 DUP2 LT ISZERO PUSH2 0x622 JUMPI PUSH2 0x5F7 DUP7 DUP3 DUP2 MLOAD DUP2 LT PUSH2 0x5CF JUMPI PUSH2 0x5CE PUSH2 0x18B8 JUMP JUMPDEST JUMPDEST PUSH1 0x20 MUL PUSH1 0x20 ADD ADD MLOAD DUP7 DUP4 DUP2 MLOAD DUP2 LT PUSH2 0x5EA JUMPI PUSH2 0x5E9 PUSH2 0x18B8 JUMP JUMPDEST JUMPDEST PUSH1 0x20 MUL PUSH1 0x20 ADD ADD MLOAD PUSH2 0xAC0 JUMP JUMPDEST DUP3 DUP3 DUP2 MLOAD DUP2 LT PUSH2 0x60A JUMPI PUSH2 0x609 PUSH2 0x18B8 JUMP JUMPDEST JUMPDEST PUSH1 0x20 MUL PUSH1 0x20 ADD ADD DUP2 SWAP1 MSTORE POP DUP1 DUP1 PUSH1 0x1 ADD SWAP2 POP POP PUSH2 0x5B1 JUMP JUMPDEST POP DUP1 SWAP3 POP POP POP SWAP3 SWAP2 POP POP JUMP JUMPDEST CALLER PUSH2 0x638 DUP2 PUSH2 0x855 JUMP JUMPDEST PUSH2 0x643 DUP5 DUP5 DUP5 PUSH2 0xAFA JUMP JUMPDEST POP POP POP POP JUMP JUMPDEST PUSH1 0x0 PUSH2 0x653 PUSH2 0xB61 JUMP JUMPDEST SWAP1 POP SWAP1 JUMP JUMPDEST PUSH1 0x0 PUSH2 0x663 DUP3 PUSH2 0xB77 JUMP JUMPDEST SWAP1 POP SWAP2 SWAP1 POP JUMP JUMPDEST PUSH2 0x673 DUP3 PUSH2 0xBAB JUMP JUMPDEST PUSH32 0x91EFA3D50FECCDE0D0D202F8AE5C41CA0B2BE614CEBCB2BD2F4B019396E6568A DUP3 DUP3 PUSH1 0x40 MLOAD PUSH2 0x6A4 SWAP3 SWAP2 SWAP1 PUSH2 0x1966 JUMP JUMPDEST PUSH1 0x40 MLOAD DUP1 SWAP2 SUB SWAP1 LOG1 POP POP JUMP JUMPDEST PUSH2 0x6B8 PUSH2 0x718 JUMP JUMPDEST PUSH2 0x6C0 PUSH2 0x79F JUMP JUMPDEST PUSH2 0x6CA DUP3 DUP3 PUSH2 0xC33 JUMP JUMPDEST PUSH2 0x6D4 DUP3 DUP3 PUSH2 0x92C JUMP JUMPDEST PUSH2 0x6DE DUP3 DUP3 PUSH2 0xC37 JUMP JUMPDEST POP POP JUMP JUMPDEST PUSH2 0x6EA PUSH2 0x718 JUMP JUMPDEST PUSH2 0x6F3 DUP2 PUSH2 0xC3B JUMP JUMPDEST DUP1 PUSH1 0x2 PUSH1 0x0 DUP3 DUP3 SLOAD PUSH2 0x705 SWAP2 SWAP1 PUSH2 0x19C5 JUMP JUMPDEST SWAP3 POP POP DUP2 SWAP1 SSTORE POP PUSH2 0x715 DUP2 PUSH2 0xC3E JUMP JUMPDEST POP JUMP JUMPDEST PUSH32 0x0 PUSH20 0xFFFFFFFFFFFFFFFFFFFFFFFFFFFFFFFFFFFFFFFF AND CALLER PUSH20 0xFFFFFFFFFFFFFFFFFFFFFFFFFFFFFFFFFFFFFFFF AND EQ PUSH2 0x79D JUMPI PUSH1 0x40 MLOAD PUSH32 0x75FD2B100000000000000000000000000000000000000000000000000000000 DUP2 MSTORE PUSH1 0x4 ADD PUSH1 0x40 MLOAD DUP1 SWAP2 SUB SWAP1 REVERT JUMPDEST JUMP JUMPDEST PUSH1 0x0 PUSH1 0x1 SLOAD SUB PUSH2 0x7DB JUMPI PUSH1 0x40 MLOAD PUSH32 0x3DA3F98C00000000000000000000000000000000000000000000000000000000 DUP2 MSTORE PUSH1 0x4 ADD PUSH1 0x40 MLOAD DUP1 SWAP2 SUB SWAP1 REVERT JUMPDEST JUMP JUMPDEST POP POP POP JUMP JUMPDEST PUSH1 0x40 MLOAD PUSH32 0x1569426800000000000000000000000000000000000000000000000000000000 DUP2 MSTORE PUSH1 0x4 ADD PUSH1 0x40 MLOAD DUP1 SWAP2 SUB SWAP1 REVERT JUMPDEST POP POP POP JUMP JUMPDEST POP POP JUMP JUMPDEST PUSH1 0x0 PUSH1 0x40 MLOAD PUSH32 0x1569426800000000000000000000000000000000000000000000000000000000 DUP2 MSTORE PUSH1 0x4 ADD PUSH1 0x40 MLOAD DUP1 SWAP2 SUB SWAP1 REVERT JUMPDEST POP POP JUMP JUMPDEST PUSH32 0x0 PUSH20 0xFFFFFFFFFFFFFFFFFFFFFFFFFFFFFFFFFFFFFFFF AND PUSH4 0x29E40D4B PUSH1 0x1 SLOAD DUP4 PUSH1 0x40 MLOAD DUP4 PUSH4 0xFFFFFFFF AND PUSH1 0xE0 SHL DUP2 MSTORE PUSH1 0x4 ADD PUSH2 0x8B2 SWAP3 SWAP2 SWAP1 PUSH2 0x19F9 JUMP JUMPDEST PUSH1 0x20 PUSH1 0x40 MLOAD DUP1 DUP4 SUB DUP2 DUP7 GAS STATICCALL ISZERO DUP1 ISZERO PUSH2 0x8CF JUMPI RETURNDATASIZE PUSH1 0x0 DUP1 RETURNDATACOPY RETURNDATASIZE PUSH1 0x0 REVERT JUMPDEST POP POP POP POP PUSH1 0x40 MLOAD RETURNDATASIZE PUSH1 0x1F NOT PUSH1 0x1F DUP3 ADD AND DUP3 ADD DUP1 PUSH1 0x40 MSTORE POP DUP2 ADD SWAP1 PUSH2 0x8F3 SWAP2 SWAP1 PUSH2 0x1A4E JUMP JUMPDEST PUSH2 0x929 JUMPI PUSH1 0x40 MLOAD PUSH32 0x75FD2B100000000000000000000000000000000000000000000000000000000 DUP2 MSTORE PUSH1 0x4 ADD PUSH1 0x40 MLOAD DUP1 SWAP2 SUB SWAP1 REVERT JUMPDEST POP JUMP JUMPDEST DUP1 PUSH2 0x936 DUP2 PUSH2 0x855 JUMP JUMPDEST PUSH1 0x0 DUP1 PUSH1 0x0 DUP6 DUP1 PUSH1 0x20 ADD SWAP1 MLOAD DUP2 ADD SWAP1 PUSH2 0x94F SWAP2 SWAP1 PUSH2 0x1C11 JUMP JUMPDEST SWAP3 POP SWAP3 POP SWAP3 POP PUSH1 0x0 DUP4 MLOAD SWAP1 POP PUSH1 0x0 DUP2 SUB PUSH2 0x995 JUMPI PUSH1 0x40 MLOAD PUSH32 0xFB76571500000000000000000000000000000000000000000000000000000000 DUP2 MSTORE PUSH1 0x4 ADD PUSH1 0x40 MLOAD DUP1 SWAP2 SUB SWAP1 REVERT JUMPDEST DUP3 MLOAD DUP2 EQ PUSH2 0x9CF JUMPI PUSH1 0x40 MLOAD PUSH32 0xFB76571500000000000000000000000000000000000000000000000000000000 DUP2 MSTORE PUSH1 0x4 ADD PUSH1 0x40 MLOAD DUP1 SWAP2 SUB SWAP1 REVERT JUMPDEST PUSH1 0x0 JUMPDEST DUP2 DUP2 LT ISZERO PUSH2 0xA82 JUMPI PUSH1 0x0 DUP5 DUP3 DUP2 MLOAD DUP2 LT PUSH2 0x9EF JUMPI PUSH2 0x9EE PUSH2 0x18B8 JUMP JUMPDEST JUMPDEST PUSH1 0x20 MUL PUSH1 0x20 ADD ADD MLOAD SWAP1 POP PUSH1 0x0 DUP7 DUP4 DUP2 MLOAD DUP2 LT PUSH2 0xA0E JUMPI PUSH2 0xA0D PUSH2 0x18B8 JUMP JUMPDEST JUMPDEST PUSH1 0x20 MUL PUSH1 0x20 ADD ADD MLOAD SWAP1 POP PUSH2 0xA23 DUP6 DUP3 DUP5 PUSH2 0xAFA JUMP JUMPDEST DUP1 PUSH20 0xFFFFFFFFFFFFFFFFFFFFFFFFFFFFFFFFFFFFFFFF AND PUSH32 0x463FFC2CF8B1596445C417388ED30E53EB67CF6668CB2BE7F0ADDF8A78C8441B DUP4 DUP8 DUP13 PUSH1 0x40 MLOAD PUSH2 0xA6D SWAP4 SWAP3 SWAP2 SWAP1 PUSH2 0x1C9C JUMP JUMPDEST PUSH1 0x40 MLOAD DUP1 SWAP2 SUB SWAP1 LOG2 DUP3 PUSH1 0x1 ADD SWAP3 POP POP POP PUSH2 0x9D2 JUMP JUMPDEST POP POP POP POP POP POP POP POP JUMP JUMPDEST PUSH1 0x0 PUSH1 0x40 MLOAD PUSH32 0x1569426800000000000000000000000000000000000000000000000000000000 DUP2 MSTORE PUSH1 0x4 ADD PUSH1 0x40 MLOAD DUP1 SWAP2 SUB SWAP1 REVERT JUMPDEST PUSH2 0xAC8 PUSH2 0xCB0 JUMP JUMPDEST PUSH1 0x40 MLOAD PUSH32 0x1569426800000000000000000000000000000000000000000000000000000000 DUP2 MSTORE PUSH1 0x4 ADD PUSH1 0x40 MLOAD DUP1 SWAP2 SUB SWAP1 REVERT JUMPDEST PUSH20 0xEEEEEEEEEEEEEEEEEEEEEEEEEEEEEEEEEEEEEEEE PUSH20 0xFFFFFFFFFFFFFFFFFFFFFFFFFFFFFFFFFFFFFFFF AND DUP4 PUSH20 0xFFFFFFFFFFFFFFFFFFFFFFFFFFFFFFFFFFFFFFFF AND SUB PUSH2 0xB50 JUMPI PUSH2 0xB4B DUP3 DUP3 PUSH2 0xC41 JUMP JUMPDEST PUSH2 0xB5C JUMP JUMPDEST PUSH2 0xB5B DUP4 DUP4 DUP4 PUSH2 0xC61 JUMP JUMPDEST JUMPDEST POP POP POP JUMP JUMPDEST PUSH1 0x0 DUP1 PUSH1 0x0 SWAP1 SLOAD SWAP1 PUSH2 0x100 EXP SWAP1 DIV PUSH1 0xFF AND SWAP1 POP SWAP1 JUMP JUMPDEST PUSH1 0x0 PUSH1 0x40 MLOAD PUSH32 0x1569426800000000000000000000000000000000000000000000000000000000 DUP2 MSTORE PUSH1 0x4 ADD PUSH1 0x40 MLOAD DUP1 SWAP2 SUB SWAP1 REVERT JUMPDEST PUSH2 0xBB3 PUSH2 0x718 JUMP JUMPDEST PUSH1 0x0 PUSH1 0x1 SLOAD EQ PUSH2 0xBEF JUMPI PUSH1 0x40 MLOAD PUSH32 0x439A74C900000000000000000000000000000000000000000000000000000000 DUP2 MSTORE PUSH1 0x4 ADD PUSH1 0x40 MLOAD DUP1 SWAP2 SUB SWAP1 REVERT JUMPDEST PUSH1 0x0 DUP2 SUB PUSH2 0xC29 JUMPI PUSH1 0x40 MLOAD PUSH32 0x7FCCE2A900000000000000000000000000000000000000000000000000000000 DUP2 MSTORE PUSH1 0x4 ADD PUSH1 0x40 MLOAD DUP1 SWAP2 SUB SWAP1 REVERT JUMPDEST DUP1 PUSH1 0x1 DUP2 SWAP1 SSTORE POP POP JUMP JUMPDEST POP POP JUMP JUMPDEST POP POP JUMP JUMPDEST POP JUMP JUMPDEST POP JUMP JUMPDEST PUSH1 0x0 DUP1 PUSH1 0x0 DUP1 DUP5 DUP7 GAS CALL PUSH2 0xC5D JUMPI PUSH4 0xB12D13EB PUSH1 0x0 MSTORE PUSH1 0x4 PUSH1 0x1C REVERT JUMPDEST POP POP JUMP JUMPDEST DUP2 PUSH1 0x14 MSTORE DUP1 PUSH1 0x34 MSTORE PUSH16 0xA9059CBB000000000000000000000000 PUSH1 0x0 MSTORE PUSH1 0x20 PUSH1 0x0 PUSH1 0x44 PUSH1 0x10 PUSH1 0x0 DUP8 GAS CALL RETURNDATASIZE ISZERO PUSH1 0x1 PUSH1 0x0 MLOAD EQ OR AND PUSH2 0xCA6 JUMPI PUSH4 0x90B8EC18 PUSH1 0x0 MSTORE PUSH1 0x4 PUSH1 0x1C REVERT JUMPDEST PUSH1 0x0 PUSH1 0x34 MSTORE POP POP POP JUMP JUMPDEST PUSH1 0x40 MLOAD DUP1 PUSH1 0x40 ADD PUSH1 0x40 MSTORE DUP1 PUSH1 0x0 PUSH20 0xFFFFFFFFFFFFFFFFFFFFFFFFFFFFFFFFFFFFFFFF AND DUP2 MSTORE PUSH1 0x20 ADD PUSH1 0x0 DUP2 MSTORE POP SWAP1 JUMP JUMPDEST PUSH1 0x0 PUSH1 0x40 MLOAD SWAP1 POP SWAP1 JUMP JUMPDEST PUSH1 0x0 DUP1 REVERT JUMPDEST PUSH1 0x0 DUP1 REVERT JUMPDEST PUSH1 0x0 DUP1 REVERT JUMPDEST PUSH1 0x0 PUSH1 0x1F NOT PUSH1 0x1F DUP4 ADD AND SWAP1 POP SWAP2 SWAP1 POP JUMP JUMPDEST PUSH32 0x4E487B7100000000000000000000000000000000000000000000000000000000 PUSH1 0x0 MSTORE PUSH1 0x41 PUSH1 0x4 MSTORE PUSH1 0x24 PUSH1 0x0 REVERT JUMPDEST PUSH2 0xD42 DUP3 PUSH2 0xCF9 JUMP JUMPDEST DUP2 ADD DUP2 DUP2 LT PUSH8 0xFFFFFFFFFFFFFFFF DUP3 GT OR ISZERO PUSH2 0xD61 JUMPI PUSH2 0xD60 PUSH2 0xD0A JUMP JUMPDEST JUMPDEST DUP1 PUSH1 0x40 MSTORE POP POP POP JUMP JUMPDEST PUSH1 0x0 PUSH2 0xD74 PUSH2 0xCE0 JUMP JUMPDEST SWAP1 POP PUSH2 0xD80 DUP3 DUP3 PUSH2 0xD39 JUMP JUMPDEST SWAP2 SWAP1 POP JUMP JUMPDEST PUSH1 0x0 PUSH8 0xFFFFFFFFFFFFFFFF DUP3 GT ISZERO PUSH2 0xDA0 JUMPI PUSH2 0xD9F PUSH2 0xD0A JUMP JUMPDEST JUMPDEST PUSH1 0x20 DUP3 MUL SWAP1 POP PUSH1 0x20 DUP2 ADD SWAP1 POP SWAP2 SWAP1 POP JUMP JUMPDEST PUSH1 0x0 DUP1 REVERT JUMPDEST PUSH1 0x0 PUSH20 0xFFFFFFFFFFFFFFFFFFFFFFFFFFFFFFFFFFFFFFFF DUP3 AND SWAP1 POP SWAP2 SWAP1 POP JUMP JUMPDEST PUSH1 0x0 PUSH2 0xDE1 DUP3 PUSH2 0xDB6 JUMP JUMPDEST SWAP1 POP SWAP2 SWAP1 POP JUMP JUMPDEST PUSH2 0xDF1 DUP2 PUSH2 0xDD6 JUMP JUMPDEST DUP2 EQ PUSH2 0xDFC JUMPI PUSH1 0x0 DUP1 REVERT JUMPDEST POP JUMP JUMPDEST PUSH1 0x0 DUP2 CALLDATALOAD SWAP1 POP PUSH2 0xE0E DUP2 PUSH2 0xDE8 JUMP JUMPDEST SWAP3 SWAP2 POP POP JUMP JUMPDEST PUSH1 0x0 PUSH2 0xE27 PUSH2 0xE22 DUP5 PUSH2 0xD85 JUMP JUMPDEST PUSH2 0xD6A JUMP JUMPDEST SWAP1 POP DUP1 DUP4 DUP3 MSTORE PUSH1 0x20 DUP3 ADD SWAP1 POP PUSH1 0x20 DUP5 MUL DUP4 ADD DUP6 DUP2 GT ISZERO PUSH2 0xE4A JUMPI PUSH2 0xE49 PUSH2 0xDB1 JUMP JUMPDEST JUMPDEST DUP4 JUMPDEST DUP2 DUP2 LT ISZERO PUSH2 0xE73 JUMPI DUP1 PUSH2 0xE5F DUP9 DUP3 PUSH2 0xDFF JUMP JUMPDEST DUP5 MSTORE PUSH1 0x20 DUP5 ADD SWAP4 POP POP PUSH1 0x20 DUP2 ADD SWAP1 POP PUSH2 0xE4C JUMP JUMPDEST POP POP POP SWAP4 SWAP3 POP POP POP JUMP JUMPDEST PUSH1 0x0 DUP3 PUSH1 0x1F DUP4 ADD SLT PUSH2 0xE92 JUMPI PUSH2 0xE91 PUSH2 0xCF4 JUMP JUMPDEST JUMPDEST DUP2 CALLDATALOAD PUSH2 0xEA2 DUP5 DUP3 PUSH1 0x20 DUP7 ADD PUSH2 0xE14 JUMP JUMPDEST SWAP2 POP POP SWAP3 SWAP2 POP POP JUMP JUMPDEST PUSH1 0x0 DUP1 REVERT JUMPDEST PUSH1 0x0 PUSH8 0xFFFFFFFFFFFFFFFF DUP3 GT ISZERO PUSH2 0xECB JUMPI PUSH2 0xECA PUSH2 0xD0A JUMP JUMPDEST JUMPDEST PUSH2 0xED4 DUP3 PUSH2 0xCF9 JUMP JUMPDEST SWAP1 POP PUSH1 0x20 DUP2 ADD SWAP1 POP SWAP2 SWAP1 POP JUMP JUMPDEST DUP3 DUP2 DUP4 CALLDATACOPY PUSH1 0x0 DUP4 DUP4 ADD MSTORE POP POP POP JUMP JUMPDEST PUSH1 0x0 PUSH2 0xF03 PUSH2 0xEFE DUP5 PUSH2 0xEB0 JUMP JUMPDEST PUSH2 0xD6A JUMP JUMPDEST SWAP1 POP DUP3 DUP2 MSTORE PUSH1 0x20 DUP2 ADD DUP5 DUP5 DUP5 ADD GT ISZERO PUSH2 0xF1F JUMPI PUSH2 0xF1E PUSH2 0xEAB JUMP JUMPDEST JUMPDEST PUSH2 0xF2A DUP5 DUP3 DUP6 PUSH2 0xEE1 JUMP JUMPDEST POP SWAP4 SWAP3 POP POP POP JUMP JUMPDEST PUSH1 0x0 DUP3 PUSH1 0x1F DUP4 ADD SLT PUSH2 0xF47 JUMPI PUSH2 0xF46 PUSH2 0xCF4 JUMP JUMPDEST JUMPDEST DUP2 CALLDATALOAD PUSH2 0xF57 DUP5 DUP3 PUSH1 0x20 DUP7 ADD PUSH2 0xEF0 JUMP JUMPDEST SWAP2 POP POP SWAP3 SWAP2 POP POP JUMP JUMPDEST PUSH1 0x0 DUP1 PUSH1 0x0 PUSH1 0x60 DUP5 DUP7 SUB SLT ISZERO PUSH2 0xF79 JUMPI PUSH2 0xF78 PUSH2 0xCEA JUMP JUMPDEST JUMPDEST PUSH1 0x0 DUP5 ADD CALLDATALOAD PUSH8 0xFFFFFFFFFFFFFFFF DUP2 GT ISZERO PUSH2 0xF97 JUMPI PUSH2 0xF96 PUSH2 0xCEF JUMP JUMPDEST JUMPDEST PUSH2 0xFA3 DUP7 DUP3 DUP8 ADD PUSH2 0xE7D JUMP JUMPDEST SWAP4 POP POP PUSH1 0x20 DUP5 ADD CALLDATALOAD PUSH8 0xFFFFFFFFFFFFFFFF DUP2 GT ISZERO PUSH2 0xFC4 JUMPI PUSH2 0xFC3 PUSH2 0xCEF JUMP JUMPDEST JUMPDEST PUSH2 0xFD0 DUP7 DUP3 DUP8 ADD PUSH2 0xF32 JUMP JUMPDEST SWAP3 POP POP PUSH1 0x40 PUSH2 0xFE1 DUP7 DUP3 DUP8 ADD PUSH2 0xDFF JUMP JUMPDEST SWAP2 POP POP SWAP3 POP SWAP3 POP SWAP3 JUMP JUMPDEST PUSH1 0x0 DUP2 SWAP1 POP SWAP2 SWAP1 POP JUMP JUMPDEST PUSH1 0x0 PUSH2 0x1010 PUSH2 0x100B PUSH2 0x1006 DUP5 PUSH2 0xDB6 JUMP JUMPDEST PUSH2 0xFEB JUMP JUMPDEST PUSH2 0xDB6 JUMP JUMPDEST SWAP1 POP SWAP2 SWAP1 POP JUMP JUMPDEST PUSH1 0x0 PUSH2 0x1022 DUP3 PUSH2 0xFF5 JUMP JUMPDEST SWAP1 POP SWAP2 SWAP1 POP JUMP JUMPDEST PUSH1 0x0 PUSH2 0x1034 DUP3 PUSH2 0x1017 JUMP JUMPDEST SWAP1 POP SWAP2 SWAP1 POP JUMP JUMPDEST PUSH2 0x1044 DUP2 PUSH2 0x1029 JUMP JUMPDEST DUP3 MSTORE POP POP JUMP JUMPDEST PUSH1 0x0 PUSH1 0x20 DUP3 ADD SWAP1 POP PUSH2 0x105F PUSH1 0x0 DUP4 ADD DUP5 PUSH2 0x103B JUMP JUMPDEST SWAP3 SWAP2 POP POP JUMP JUMPDEST PUSH1 0x0 DUP1 PUSH1 0x40 DUP4 DUP6 SUB SLT ISZERO PUSH2 0x107C JUMPI PUSH2 0x107B PUSH2 0xCEA JUMP JUMPDEST JUMPDEST PUSH1 0x0 DUP4 ADD CALLDATALOAD PUSH8 0xFFFFFFFFFFFFFFFF DUP2 GT ISZERO PUSH2 0x109A JUMPI PUSH2 0x1099 PUSH2 0xCEF JUMP JUMPDEST JUMPDEST PUSH2 0x10A6 DUP6 DUP3 DUP7 ADD PUSH2 0xF32 JUMP JUMPDEST SWAP3 POP POP PUSH1 0x20 PUSH2 0x10B7 DUP6 DUP3 DUP7 ADD PUSH2 0xDFF JUMP JUMPDEST SWAP2 POP POP SWAP3 POP SWAP3 SWAP1 POP JUMP JUMPDEST PUSH2 0x10CA DUP2 PUSH2 0xDD6 JUMP JUMPDEST DUP3 MSTORE POP POP JUMP JUMPDEST PUSH1 0x0 PUSH1 0x20 DUP3 ADD SWAP1 POP PUSH2 0x10E5 PUSH1 0x0 DUP4 ADD DUP5 PUSH2 0x10C1 JUMP JUMPDEST SWAP3 SWAP2 POP POP JUMP JUMPDEST PUSH1 0x0 DUP2 SWAP1 POP SWAP2 SWAP1 POP JUMP JUMPDEST PUSH2 0x10FE DUP2 PUSH2 0x10EB JUMP JUMPDEST DUP3 MSTORE POP POP JUMP JUMPDEST PUSH1 0x0 PUSH1 0x20 DUP3 ADD SWAP1 POP PUSH2 0x1119 PUSH1 0x0 DUP4 ADD DUP5 PUSH2 0x10F5 JUMP JUMPDEST SWAP3 SWAP2 POP POP JUMP JUMPDEST PUSH1 0x0 DUP2 SWAP1 POP SWAP2 SWAP1 POP JUMP JUMPDEST PUSH2 0x1132 DUP2 PUSH2 0x111F JUMP JUMPDEST DUP3 MSTORE POP POP JUMP JUMPDEST PUSH1 0x0 PUSH1 0x20 DUP3 ADD SWAP1 POP PUSH2 0x114D PUSH1 0x0 DUP4 ADD DUP5 PUSH2 0x1129 JUMP JUMPDEST SWAP3 SWAP2 POP POP JUMP JUMPDEST PUSH1 0x0 PUSH8 0xFFFFFFFFFFFFFFFF DUP3 GT ISZERO PUSH2 0x116E JUMPI PUSH2 0x116D PUSH2 0xD0A JUMP JUMPDEST JUMPDEST PUSH1 0x20 DUP3 MUL SWAP1 POP PUSH1 0x20 DUP2 ADD SWAP1 POP SWAP2 SWAP1 POP JUMP JUMPDEST PUSH2 0x1188 DUP2 PUSH2 0x10EB JUMP JUMPDEST DUP2 EQ PUSH2 0x1193 JUMPI PUSH1 0x0 DUP1 REVERT JUMPDEST POP JUMP JUMPDEST PUSH1 0x0 DUP2 CALLDATALOAD SWAP1 POP PUSH2 0x11A5 DUP2 PUSH2 0x117F JUMP JUMPDEST SWAP3 SWAP2 POP POP JUMP JUMPDEST PUSH1 0x0 PUSH2 0x11BE PUSH2 0x11B9 DUP5 PUSH2 0x1153 JUMP JUMPDEST PUSH2 0xD6A JUMP JUMPDEST SWAP1 POP DUP1 DUP4 DUP3 MSTORE PUSH1 0x20 DUP3 ADD SWAP1 POP PUSH1 0x20 DUP5 MUL DUP4 ADD DUP6 DUP2 GT ISZERO PUSH2 0x11E1 JUMPI PUSH2 0x11E0 PUSH2 0xDB1 JUMP JUMPDEST JUMPDEST DUP4 JUMPDEST DUP2 DUP2 LT ISZERO PUSH2 0x120A JUMPI DUP1 PUSH2 0x11F6 DUP9 DUP3 PUSH2 0x1196 JUMP JUMPDEST DUP5 MSTORE PUSH1 0x20 DUP5 ADD SWAP4 POP POP PUSH1 0x20 DUP2 ADD SWAP1 POP PUSH2 0x11E3 JUMP JUMPDEST POP POP POP SWAP4 SWAP3 POP POP POP JUMP JUMPDEST PUSH1 0x0 DUP3 PUSH1 0x1F DUP4 ADD SLT PUSH2 0x1229 JUMPI PUSH2 0x1228 PUSH2 0xCF4 JUMP JUMPDEST JUMPDEST DUP2 CALLDATALOAD PUSH2 0x1239 DUP5 DUP3 PUSH1 0x20 DUP7 ADD PUSH2 0x11AB JUMP JUMPDEST SWAP2 POP POP SWAP3 SWAP2 POP POP JUMP JUMPDEST PUSH1 0x0 DUP1 PUSH1 0x0 PUSH1 0x60 DUP5 DUP7 SUB SLT ISZERO PUSH2 0x125B JUMPI PUSH2 0x125A PUSH2 0xCEA JUMP JUMPDEST JUMPDEST PUSH1 0x0 DUP5 ADD CALLDATALOAD PUSH8 0xFFFFFFFFFFFFFFFF DUP2 GT ISZERO PUSH2 0x1279 JUMPI PUSH2 0x1278 PUSH2 0xCEF JUMP JUMPDEST JUMPDEST PUSH2 0x1285 DUP7 DUP3 DUP8 ADD PUSH2 0xE7D JUMP JUMPDEST SWAP4 POP POP PUSH1 0x20 DUP5 ADD CALLDATALOAD PUSH8 0xFFFFFFFFFFFFFFFF DUP2 GT ISZERO PUSH2 0x12A6 JUMPI PUSH2 0x12A5 PUSH2 0xCEF JUMP JUMPDEST JUMPDEST PUSH2 0x12B2 DUP7 DUP3 DUP8 ADD PUSH2 0x1214 JUMP JUMPDEST SWAP3 POP POP PUSH1 0x40 PUSH2 0x12C3 DUP7 DUP3 DUP8 ADD PUSH2 0xDFF JUMP JUMPDEST SWAP2 POP POP SWAP3 POP SWAP3 POP SWAP3 JUMP JUMPDEST PUSH1 0x0 PUSH1 0x20 DUP3 DUP5 SUB SLT ISZERO PUSH2 0x12E3 JUMPI PUSH2 0x12E2 PUSH2 0xCEA JUMP JUMPDEST JUMPDEST PUSH1 0x0 PUSH2 0x12F1 DUP5 DUP3 DUP6 ADD PUSH2 0xDFF JUMP JUMPDEST SWAP2 POP POP SWAP3 SWAP2 POP POP JUMP JUMPDEST PUSH1 0x0 DUP2 ISZERO ISZERO SWAP1 POP SWAP2 SWAP1 POP JUMP JUMPDEST PUSH2 0x130F DUP2 PUSH2 0x12FA JUMP JUMPDEST DUP3 MSTORE POP POP JUMP JUMPDEST PUSH1 0x0 PUSH1 0x20 DUP3 ADD SWAP1 POP PUSH2 0x132A PUSH1 0x0 DUP4 ADD DUP5 PUSH2 0x1306 JUMP JUMPDEST SWAP3 SWAP2 POP POP JUMP JUMPDEST PUSH1 0x0 PUSH8 0xFFFFFFFFFFFFFFFF DUP3 GT ISZERO PUSH2 0x134B JUMPI PUSH2 0x134A PUSH2 0xD0A JUMP JUMPDEST JUMPDEST PUSH1 0x20 DUP3 MUL SWAP1 POP PUSH1 0x20 DUP2 ADD SWAP1 POP SWAP2 SWAP1 POP JUMP JUMPDEST PUSH1 0x0 PUSH2 0x136F PUSH2 0x136A DUP5 PUSH2 0x1330 JUMP JUMPDEST PUSH2 0xD6A JUMP JUMPDEST SWAP1 POP DUP1 DUP4 DUP3 MSTORE PUSH1 0x20 DUP3 ADD SWAP1 POP PUSH1 0x20 DUP5 MUL DUP4 ADD DUP6 DUP2 GT ISZERO PUSH2 0x1392 JUMPI PUSH2 0x1391 PUSH2 0xDB1 JUMP JUMPDEST JUMPDEST DUP4 JUMPDEST DUP2 DUP2 LT ISZERO PUSH2 0x13D9 JUMPI DUP1 CALLDATALOAD PUSH8 0xFFFFFFFFFFFFFFFF DUP2 GT ISZERO PUSH2 0x13B7 JUMPI PUSH2 0x13B6 PUSH2 0xCF4 JUMP JUMPDEST JUMPDEST DUP1 DUP7 ADD PUSH2 0x13C4 DUP10 DUP3 PUSH2 0xF32 JUMP JUMPDEST DUP6 MSTORE PUSH1 0x20 DUP6 ADD SWAP5 POP POP POP PUSH1 0x20 DUP2 ADD SWAP1 POP PUSH2 0x1394 JUMP JUMPDEST POP POP POP SWAP4 SWAP3 POP POP POP JUMP JUMPDEST PUSH1 0x0 DUP3 PUSH1 0x1F DUP4 ADD SLT PUSH2 0x13F8 JUMPI PUSH2 0x13F7 PUSH2 0xCF4 JUMP JUMPDEST JUMPDEST DUP2 CALLDATALOAD PUSH2 0x1408 DUP5 DUP3 PUSH1 0x20 DUP7 ADD PUSH2 0x135C JUMP JUMPDEST SWAP2 POP POP SWAP3 SWAP2 POP POP JUMP JUMPDEST PUSH1 0x0 DUP1 PUSH1 0x40 DUP4 DUP6 SUB SLT ISZERO PUSH2 0x1428 JUMPI PUSH2 0x1427 PUSH2 0xCEA JUMP JUMPDEST JUMPDEST PUSH1 0x0 DUP4 ADD CALLDATALOAD PUSH8 0xFFFFFFFFFFFFFFFF DUP2 GT ISZERO PUSH2 0x1446 JUMPI PUSH2 0x1445 PUSH2 0xCEF JUMP JUMPDEST JUMPDEST PUSH2 0x1452 DUP6 DUP3 DUP7 ADD PUSH2 0xE7D JUMP JUMPDEST SWAP3 POP POP PUSH1 0x20 DUP4 ADD CALLDATALOAD PUSH8 0xFFFFFFFFFFFFFFFF DUP2 GT ISZERO PUSH2 0x1473 JUMPI PUSH2 0x1472 PUSH2 0xCEF JUMP JUMPDEST JUMPDEST PUSH2 0x147F DUP6 DUP3 DUP7 ADD PUSH2 0x13E3 JUMP JUMPDEST SWAP2 POP POP SWAP3 POP SWAP3 SWAP1 POP JUMP JUMPDEST PUSH1 0x0 DUP2 MLOAD SWAP1 POP SWAP2 SWAP1 POP JUMP JUMPDEST PUSH1 0x0 DUP3 DUP3 MSTORE PUSH1 0x20 DUP3 ADD SWAP1 POP SWAP3 SWAP2 POP POP JUMP JUMPDEST PUSH1 0x0 DUP2 SWAP1 POP PUSH1 0x20 DUP3 ADD SWAP1 POP SWAP2 SWAP1 POP JUMP JUMPDEST PUSH2 0x14BE DUP2 PUSH2 0xDD6 JUMP JUMPDEST DUP3 MSTORE POP POP JUMP JUMPDEST PUSH2 0x14CD DUP2 PUSH2 0x10EB JUMP JUMPDEST DUP3 MSTORE POP POP JUMP JUMPDEST PUSH1 0x40 DUP3 ADD PUSH1 0x0 DUP3 ADD MLOAD PUSH2 0x14E9 PUSH1 0x0 DUP6 ADD DUP3 PUSH2 0x14B5 JUMP JUMPDEST POP PUSH1 0x20 DUP3 ADD MLOAD PUSH2 0x14FC PUSH1 0x20 DUP6 ADD DUP3 PUSH2 0x14C4 JUMP JUMPDEST POP POP POP POP JUMP JUMPDEST PUSH1 0x0 PUSH2 0x150E DUP4 DUP4 PUSH2 0x14D3 JUMP JUMPDEST PUSH1 0x40 DUP4 ADD SWAP1 POP SWAP3 SWAP2 POP POP JUMP JUMPDEST PUSH1 0x0 PUSH1 0x20 DUP3 ADD SWAP1 POP SWAP2 SWAP1 POP JUMP JUMPDEST PUSH1 0x0 PUSH2 0x1532 DUP3 PUSH2 0x1489 JUMP JUMPDEST PUSH2 0x153C DUP2 DUP6 PUSH2 0x1494 JUMP JUMPDEST SWAP4 POP PUSH2 0x1547 DUP4 PUSH2 0x14A5 JUMP JUMPDEST DUP1 PUSH1 0x0 JUMPDEST DUP4 DUP2 LT ISZERO PUSH2 0x1578 JUMPI DUP2 MLOAD PUSH2 0x155F DUP9 DUP3 PUSH2 0x1502 JUMP JUMPDEST SWAP8 POP PUSH2 0x156A DUP4 PUSH2 0x151A JUMP JUMPDEST SWAP3 POP POP PUSH1 0x1 DUP2 ADD SWAP1 POP PUSH2 0x154B JUMP JUMPDEST POP DUP6 SWAP4 POP POP POP POP SWAP3 SWAP2 POP POP JUMP JUMPDEST PUSH1 0x0 PUSH1 0x20 DUP3 ADD SWAP1 POP DUP2 DUP2 SUB PUSH1 0x0 DUP4 ADD MSTORE PUSH2 0x159F DUP2 DUP5 PUSH2 0x1527 JUMP JUMPDEST SWAP1 POP SWAP3 SWAP2 POP POP JUMP JUMPDEST PUSH1 0x0 DUP1 PUSH1 0x0 PUSH1 0x60 DUP5 DUP7 SUB SLT ISZERO PUSH2 0x15C0 JUMPI PUSH2 0x15BF PUSH2 0xCEA JUMP JUMPDEST JUMPDEST PUSH1 0x0 PUSH2 0x15CE DUP7 DUP3 DUP8 ADD PUSH2 0xDFF JUMP JUMPDEST SWAP4 POP POP PUSH1 0x20 PUSH2 0x15DF DUP7 DUP3 DUP8 ADD PUSH2 0xDFF JUMP JUMPDEST SWAP3 POP POP PUSH1 0x40 PUSH2 0x15F0 DUP7 DUP3 DUP8 ADD PUSH2 0x1196 JUMP JUMPDEST SWAP2 POP POP SWAP3 POP SWAP3 POP SWAP3 JUMP JUMPDEST PUSH32 0x4E487B7100000000000000000000000000000000000000000000000000000000 PUSH1 0x0 MSTORE PUSH1 0x21 PUSH1 0x4 MSTORE PUSH1 0x24 PUSH1 0x0 REVERT JUMPDEST PUSH1 0x7 DUP2 LT PUSH2 0x163A JUMPI PUSH2 0x1639 PUSH2 0x15FA JUMP JUMPDEST JUMPDEST POP JUMP JUMPDEST PUSH1 0x0 DUP2 SWAP1 POP PUSH2 0x164B DUP3 PUSH2 0x1629 JUMP JUMPDEST SWAP2 SWAP1 POP JUMP JUMPDEST PUSH1 0x0 PUSH2 0x165B DUP3 PUSH2 0x163D JUMP JUMPDEST SWAP1 POP SWAP2 SWAP1 POP JUMP JUMPDEST PUSH2 0x166B DUP2 PUSH2 0x1650 JUMP JUMPDEST DUP3 MSTORE POP POP JUMP JUMPDEST PUSH1 0x0 PUSH1 0x20 DUP3 ADD SWAP1 POP PUSH2 0x1686 PUSH1 0x0 DUP4 ADD DUP5 PUSH2 0x1662 JUMP JUMPDEST SWAP3 SWAP2 POP POP JUMP JUMPDEST PUSH1 0x0 DUP1 PUSH1 0x40 DUP4 DUP6 SUB SLT ISZERO PUSH2 0x16A3 JUMPI PUSH2 0x16A2 PUSH2 0xCEA JUMP JUMPDEST JUMPDEST PUSH1 0x0 PUSH2 0x16B1 DUP6 DUP3 DUP7 ADD PUSH2 0x1196 JUMP JUMPDEST SWAP3 POP POP PUSH1 0x20 DUP4 ADD CALLDATALOAD PUSH8 0xFFFFFFFFFFFFFFFF DUP2 GT ISZERO PUSH2 0x16D2 JUMPI PUSH2 0x16D1 PUSH2 0xCEF JUMP JUMPDEST JUMPDEST PUSH2 0x16DE DUP6 DUP3 DUP7 ADD PUSH2 0xF32 JUMP JUMPDEST SWAP2 POP POP SWAP3 POP SWAP3 SWAP1 POP JUMP JUMPDEST PUSH1 0x0 PUSH1 0x20 DUP3 DUP5 SUB SLT ISZERO PUSH2 0x16FE JUMPI PUSH2 0x16FD PUSH2 0xCEA JUMP JUMPDEST JUMPDEST PUSH1 0x0 PUSH2 0x170C DUP5 DUP3 DUP6 ADD PUSH2 0x1196 JUMP JUMPDEST SWAP2 POP POP SWAP3 SWAP2 POP POP JUMP JUMPDEST PUSH1 0x0 DUP2 MLOAD SWAP1 POP SWAP2 SWAP1 POP JUMP JUMPDEST PUSH1 0x0 DUP3 DUP3 MSTORE PUSH1 0x20 DUP3 ADD SWAP1 POP SWAP3 SWAP2 POP POP JUMP JUMPDEST PUSH1 0x0 DUP2 SWAP1 POP PUSH1 0x20 DUP3 ADD SWAP1 POP SWAP2 SWAP1 POP JUMP JUMPDEST PUSH1 0x0 PUSH2 0x174D DUP4 DUP4 PUSH2 0x14B5 JUMP JUMPDEST PUSH1 0x20 DUP4 ADD SWAP1 POP SWAP3 SWAP2 POP POP JUMP JUMPDEST PUSH1 0x0 PUSH1 0x20 DUP3 ADD SWAP1 POP SWAP2 SWAP1 POP JUMP JUMPDEST PUSH1 0x0 PUSH2 0x1771 DUP3 PUSH2 0x1715 JUMP JUMPDEST PUSH2 0x177B DUP2 DUP6 PUSH2 0x1720 JUMP JUMPDEST SWAP4 POP PUSH2 0x1786 DUP4 PUSH2 0x1731 JUMP JUMPDEST DUP1 PUSH1 0x0 JUMPDEST DUP4 DUP2 LT ISZERO PUSH2 0x17B7 JUMPI DUP2 MLOAD PUSH2 0x179E DUP9 DUP3 PUSH2 0x1741 JUMP JUMPDEST SWAP8 POP PUSH2 0x17A9 DUP4 PUSH2 0x1759 JUMP JUMPDEST SWAP3 POP POP PUSH1 0x1 DUP2 ADD SWAP1 POP PUSH2 0x178A JUMP JUMPDEST POP DUP6 SWAP4 POP POP POP POP SWAP3 SWAP2 POP POP JUMP JUMPDEST PUSH1 0x0 DUP2 MLOAD SWAP1 POP SWAP2 SWAP1 POP JUMP JUMPDEST PUSH1 0x0 DUP3 DUP3 MSTORE PUSH1 0x20 DUP3 ADD SWAP1 POP SWAP3 SWAP2 POP POP JUMP JUMPDEST PUSH1 0x0 DUP2 SWAP1 POP PUSH1 0x20 DUP3 ADD SWAP1 POP SWAP2 SWAP1 POP JUMP JUMPDEST PUSH1 0x0 PUSH2 0x17FC DUP4 DUP4 PUSH2 0x14C4 JUMP JUMPDEST PUSH1 0x20 DUP4 ADD SWAP1 POP SWAP3 SWAP2 POP POP JUMP JUMPDEST PUSH1 0x0 PUSH1 0x20 DUP3 ADD SWAP1 POP SWAP2 SWAP1 POP JUMP JUMPDEST PUSH1 0x0 PUSH2 0x1820 DUP3 PUSH2 0x17C4 JUMP JUMPDEST PUSH2 0x182A DUP2 DUP6 PUSH2 0x17CF JUMP JUMPDEST SWAP4 POP PUSH2 0x1835 DUP4 PUSH2 0x17E0 JUMP JUMPDEST DUP1 PUSH1 0x0 JUMPDEST DUP4 DUP2 LT ISZERO PUSH2 0x1866 JUMPI DUP2 MLOAD PUSH2 0x184D DUP9 DUP3 PUSH2 0x17F0 JUMP JUMPDEST SWAP8 POP PUSH2 0x1858 DUP4 PUSH2 0x1808 JUMP JUMPDEST SWAP3 POP POP PUSH1 0x1 DUP2 ADD SWAP1 POP PUSH2 0x1839 JUMP JUMPDEST POP DUP6 SWAP4 POP POP POP POP SWAP3 SWAP2 POP POP JUMP JUMPDEST PUSH1 0x0 PUSH1 0x60 DUP3 ADD SWAP1 POP DUP2 DUP2 SUB PUSH1 0x0 DUP4 ADD MSTORE PUSH2 0x188D DUP2 DUP7 PUSH2 0x1766 JUMP JUMPDEST SWAP1 POP DUP2 DUP2 SUB PUSH1 0x20 DUP4 ADD MSTORE PUSH2 0x18A1 DUP2 DUP6 PUSH2 0x1815 JUMP JUMPDEST SWAP1 POP PUSH2 0x18B0 PUSH1 0x40 DUP4 ADD DUP5 PUSH2 0x10C1 JUMP JUMPDEST SWAP5 SWAP4 POP POP POP POP JUMP JUMPDEST PUSH32 0x4E487B7100000000000000000000000000000000000000000000000000000000 PUSH1 0x0 MSTORE PUSH1 0x32 PUSH1 0x4 MSTORE PUSH1 0x24 PUSH1 0x0 REVERT JUMPDEST PUSH1 0x0 DUP2 MLOAD SWAP1 POP SWAP2 SWAP1 POP JUMP JUMPDEST PUSH1 0x0 DUP3 DUP3 MSTORE PUSH1 0x20 DUP3 ADD SWAP1 POP SWAP3 SWAP2 POP POP JUMP JUMPDEST PUSH1 0x0 JUMPDEST DUP4 DUP2 LT ISZERO PUSH2 0x1921 JUMPI DUP1 DUP3 ADD MLOAD DUP2 DUP5 ADD MSTORE PUSH1 0x20 DUP2 ADD SWAP1 POP PUSH2 0x1906 JUMP JUMPDEST PUSH1 0x0 DUP5 DUP5 ADD MSTORE POP POP POP POP JUMP JUMPDEST PUSH1 0x0 PUSH2 0x1938 DUP3 PUSH2 0x18E7 JUMP JUMPDEST PUSH2 0x1942 DUP2 DUP6 PUSH2 0x18F2 JUMP JUMPDEST SWAP4 POP PUSH2 0x1952 DUP2 DUP6 PUSH1 0x20 DUP7 ADD PUSH2 0x1903 JUMP JUMPDEST PUSH2 0x195B DUP2 PUSH2 0xCF9 JUMP JUMPDEST DUP5 ADD SWAP2 POP POP SWAP3 SWAP2 POP POP JUMP JUMPDEST PUSH1 0x0 PUSH1 0x40 DUP3 ADD SWAP1 POP PUSH2 0x197B PUSH1 0x0 DUP4 ADD DUP6 PUSH2 0x10F5 JUMP JUMPDEST DUP2 DUP2 SUB PUSH1 0x20 DUP4 ADD MSTORE PUSH2 0x198D DUP2 DUP5 PUSH2 0x192D JUMP JUMPDEST SWAP1 POP SWAP4 SWAP3 POP POP POP JUMP JUMPDEST PUSH32 0x4E487B7100000000000000000000000000000000000000000000000000000000 PUSH1 0x0 MSTORE PUSH1 0x11 PUSH1 0x4 MSTORE PUSH1 0x24 PUSH1 0x0 REVERT JUMPDEST PUSH1 0x0 PUSH2 0x19D0 DUP3 PUSH2 0x10EB JUMP JUMPDEST SWAP2 POP PUSH2 0x19DB DUP4 PUSH2 0x10EB JUMP JUMPDEST SWAP3 POP DUP3 DUP3 ADD SWAP1 POP DUP1 DUP3 GT ISZERO PUSH2 0x19F3 JUMPI PUSH2 0x19F2 PUSH2 0x1996 JUMP JUMPDEST JUMPDEST SWAP3 SWAP2 POP POP JUMP JUMPDEST PUSH1 0x0 PUSH1 0x40 DUP3 ADD SWAP1 POP PUSH2 0x1A0E PUSH1 0x0 DUP4 ADD DUP6 PUSH2 0x10F5 JUMP JUMPDEST PUSH2 0x1A1B PUSH1 0x20 DUP4 ADD DUP5 PUSH2 0x10C1 JUMP JUMPDEST SWAP4 SWAP3 POP POP POP JUMP JUMPDEST PUSH2 0x1A2B DUP2 PUSH2 0x12FA JUMP JUMPDEST DUP2 EQ PUSH2 0x1A36 JUMPI PUSH1 0x0 DUP1 REVERT JUMPDEST POP JUMP JUMPDEST PUSH1 0x0 DUP2 MLOAD SWAP1 POP PUSH2 0x1A48 DUP2 PUSH2 0x1A22 JUMP JUMPDEST SWAP3 SWAP2 POP POP JUMP JUMPDEST PUSH1 0x0 PUSH1 0x20 DUP3 DUP5 SUB SLT ISZERO PUSH2 0x1A64 JUMPI PUSH2 0x1A63 PUSH2 0xCEA JUMP JUMPDEST JUMPDEST PUSH1 0x0 PUSH2 0x1A72 DUP5 DUP3 DUP6 ADD PUSH2 0x1A39 JUMP JUMPDEST SWAP2 POP POP SWAP3 SWAP2 POP POP JUMP JUMPDEST PUSH1 0x0 DUP2 MLOAD SWAP1 POP PUSH2 0x1A8A DUP2 PUSH2 0xDE8 JUMP JUMPDEST SWAP3 SWAP2 POP POP JUMP JUMPDEST PUSH1 0x0 PUSH2 0x1AA3 PUSH2 0x1A9E DUP5 PUSH2 0xD85 JUMP JUMPDEST PUSH2 0xD6A JUMP JUMPDEST SWAP1 POP DUP1 DUP4 DUP3 MSTORE PUSH1 0x20 DUP3 ADD SWAP1 POP PUSH1 0x20 DUP5 MUL DUP4 ADD DUP6 DUP2 GT ISZERO PUSH2 0x1AC6 JUMPI PUSH2 0x1AC5 PUSH2 0xDB1 JUMP JUMPDEST JUMPDEST DUP4 JUMPDEST DUP2 DUP2 LT ISZERO PUSH2 0x1AEF JUMPI DUP1 PUSH2 0x1ADB DUP9 DUP3 PUSH2 0x1A7B JUMP JUMPDEST DUP5 MSTORE PUSH1 0x20 DUP5 ADD SWAP4 POP POP PUSH1 0x20 DUP2 ADD SWAP1 POP PUSH2 0x1AC8 JUMP JUMPDEST POP POP POP SWAP4 SWAP3 POP POP POP JUMP JUMPDEST PUSH1 0x0 DUP3 PUSH1 0x1F DUP4 ADD SLT PUSH2 0x1B0E JUMPI PUSH2 0x1B0D PUSH2 0xCF4 JUMP JUMPDEST JUMPDEST DUP2 MLOAD PUSH2 0x1B1E DUP5 DUP3 PUSH1 0x20 DUP7 ADD PUSH2 0x1A90 JUMP JUMPDEST SWAP2 POP POP SWAP3 SWAP2 POP POP JUMP JUMPDEST PUSH1 0x0 DUP2 MLOAD SWAP1 POP PUSH2 0x1B36 DUP2 PUSH2 0x117F JUMP JUMPDEST SWAP3 SWAP2 POP POP JUMP JUMPDEST PUSH1 0x0 PUSH2 0x1B4F PUSH2 0x1B4A DUP5 PUSH2 0x1153 JUMP JUMPDEST PUSH2 0xD6A JUMP JUMPDEST SWAP1 POP DUP1 DUP4 DUP3 MSTORE PUSH1 0x20 DUP3 ADD SWAP1 POP PUSH1 0x20 DUP5 MUL DUP4 ADD DUP6 DUP2 GT ISZERO PUSH2 0x1B72 JUMPI PUSH2 0x1B71 PUSH2 0xDB1 JUMP JUMPDEST JUMPDEST DUP4 JUMPDEST DUP2 DUP2 LT ISZERO PUSH2 0x1B9B JUMPI DUP1 PUSH2 0x1B87 DUP9 DUP3 PUSH2 0x1B27 JUMP JUMPDEST DUP5 MSTORE PUSH1 0x20 DUP5 ADD SWAP4 POP POP PUSH1 0x20 DUP2 ADD SWAP1 POP PUSH2 0x1B74 JUMP JUMPDEST POP POP POP SWAP4 SWAP3 POP POP POP JUMP JUMPDEST PUSH1 0x0 DUP3 PUSH1 0x1F DUP4 ADD SLT PUSH2 0x1BBA JUMPI PUSH2 0x1BB9 PUSH2 0xCF4 JUMP JUMPDEST JUMPDEST DUP2 MLOAD PUSH2 0x1BCA DUP5 DUP3 PUSH1 0x20 DUP7 ADD PUSH2 0x1B3C JUMP JUMPDEST SWAP2 POP POP SWAP3 SWAP2 POP POP JUMP JUMPDEST PUSH1 0x0 PUSH2 0x1BDE DUP3 PUSH2 0xDB6 JUMP JUMPDEST SWAP1 POP SWAP2 SWAP1 POP JUMP JUMPDEST PUSH2 0x1BEE DUP2 PUSH2 0x1BD3 JUMP JUMPDEST DUP2 EQ PUSH2 0x1BF9 JUMPI PUSH1 0x0 DUP1 REVERT JUMPDEST POP JUMP JUMPDEST PUSH1 0x0 DUP2 MLOAD SWAP1 POP PUSH2 0x1C0B DUP2 PUSH2 0x1BE5 JUMP JUMPDEST SWAP3 SWAP2 POP POP JUMP JUMPDEST PUSH1 0x0 DUP1 PUSH1 0x0 PUSH1 0x60 DUP5 DUP7 SUB SLT ISZERO PUSH2 0x1C2A JUMPI PUSH2 0x1C29 PUSH2 0xCEA JUMP JUMPDEST JUMPDEST PUSH1 0x0 DUP5 ADD MLOAD PUSH8 0xFFFFFFFFFFFFFFFF DUP2 GT ISZERO PUSH2 0x1C48 JUMPI PUSH2 0x1C47 PUSH2 0xCEF JUMP JUMPDEST JUMPDEST PUSH2 0x1C54 DUP7 DUP3 DUP8 ADD PUSH2 0x1AF9 JUMP JUMPDEST SWAP4 POP POP PUSH1 0x20 DUP5 ADD MLOAD PUSH8 0xFFFFFFFFFFFFFFFF DUP2 GT ISZERO PUSH2 0x1C75 JUMPI PUSH2 0x1C74 PUSH2 0xCEF JUMP JUMPDEST JUMPDEST PUSH2 0x1C81 DUP7 DUP3 DUP8 ADD PUSH2 0x1BA5 JUMP JUMPDEST SWAP3 POP POP PUSH1 0x40 PUSH2 0x1C92 DUP7 DUP3 DUP8 ADD PUSH2 0x1BFC JUMP JUMPDEST SWAP2 POP POP SWAP3 POP SWAP3 POP SWAP3 JUMP JUMPDEST PUSH1 0x0 PUSH1 0x60 DUP3 ADD SWAP1 POP PUSH2 0x1CB1 PUSH1 0x0 DUP4 ADD DUP7 PUSH2 0x10F5 JUMP JUMPDEST PUSH2 0x1CBE PUSH1 0x20 DUP4 ADD DUP6 PUSH2 0x10C1 JUMP JUMPDEST PUSH2 0x1CCB PUSH1 0x40 DUP4 ADD DUP5 PUSH2 0x10C1 JUMP JUMPDEST SWAP5 SWAP4 POP POP POP POP JUMP INVALID LOG2 PUSH5 0x6970667358 0x22 SLT KECCAK256 PUSH23 0x93D36B316BD35C3CBBBFD1E310897B7DB4B795FF1CB46C LOG4 CALLDATACOPY SELFDESTRUCT SWAP6 SWAP3 MOD 0xAB 0x49 PUSH5 0x736F6C6343 STOP ADDMOD SGT STOP CALLER "
		},
		"gasEstimates": {
			"creation": {
				"codeDepositCost": "1486600",
				"executionCost": "infinite",
				"totalCost": "infinite"
			},
			"external": {
				"NATIVE()": "401",
				"allocate(address[],uint256[],address)": "infinite",
				"allocate(bytes,address)": "infinite",
				"distribute(address[],bytes,address)": "infinite",
				"getAllo()": "infinite",
				"getPayouts(address[],bytes[])": "infinite",
				"getPoolAmount()": "2504",
				"getPoolId()": "2527",
				"getRecipientStatus(address)": "535",
				"getStrategyId()": "infinite",
				"increasePoolAmount(uint256)": "infinite",
				"initialize(uint256,bytes)": "infinite",
				"isPoolActive()": "2603",
				"isValidAllocator(address)": "602",
				"registerRecipient(bytes,address)": "infinite",
				"withdraw(address,address,uint256)": "infinite"
			},
			"internal": {
				"_allocate(bytes memory,address)": "infinite",
				"_distribute(address[] memory,bytes memory,address)": "infinite",
				"_getPayout(address,bytes memory)": "infinite",
				"_getRecipientStatus(address)": "infinite",
				"_isValidAllocator(address)": "infinite",
				"_registerRecipient(bytes memory,address)": "infinite"
			}
		},
		"methodIdentifiers": {
			"NATIVE()": "a0cf0aea",
			"allocate(address[],uint256[],address)": "44469f98",
			"allocate(bytes,address)": "ef2920fc",
			"distribute(address[],bytes,address)": "0a6f0ee9",
			"getAllo()": "15cc481e",
			"getPayouts(address[],bytes[])": "b2b878d0",
			"getPoolAmount()": "4ab4ba42",
			"getPoolId()": "38fff2d0",
			"getRecipientStatus(address)": "eb11af93",
			"getStrategyId()": "42fda9c7",
			"increasePoolAmount(uint256)": "f5b0dfb7",
			"initialize(uint256,bytes)": "edd146cc",
			"isPoolActive()": "df868ed3",
			"isValidAllocator(address)": "4d31d087",
			"registerRecipient(bytes,address)": "2bbe0cae",
			"withdraw(address,address,uint256)": "d9caed12"
		}
	},
	"abi": [
		{
			"inputs": [
				{
					"internalType": "address",
					"name": "_allo",
					"type": "address"
				}
			],
			"stateMutability": "nonpayable",
			"type": "constructor"
		},
		{
			"inputs": [],
			"name": "ALLOCATION_ACTIVE",
			"type": "error"
		},
		{
			"inputs": [],
			"name": "ALLOCATION_NOT_ACTIVE",
			"type": "error"
		},
		{
			"inputs": [],
			"name": "ALLOCATION_NOT_ENDED",
			"type": "error"
		},
		{
			"inputs": [],
			"name": "ALREADY_INITIALIZED",
			"type": "error"
		},
		{
			"inputs": [],
			"name": "AMOUNT_MISMATCH",
			"type": "error"
		},
		{
			"inputs": [],
			"name": "ANCHOR_ERROR",
			"type": "error"
		},
		{
			"inputs": [],
			"name": "ARRAY_MISMATCH",
			"type": "error"
		},
		{
			"inputs": [],
			"name": "INPUT_LENGTH_MISMATCH",
			"type": "error"
		},
		{
			"inputs": [],
			"name": "INVALID",
			"type": "error"
		},
		{
			"inputs": [],
			"name": "INVALID_ADDRESS",
			"type": "error"
		},
		{
			"inputs": [],
			"name": "INVALID_FEE",
			"type": "error"
		},
		{
			"inputs": [],
			"name": "INVALID_METADATA",
			"type": "error"
		},
		{
			"inputs": [],
			"name": "INVALID_REGISTRATION",
			"type": "error"
		},
		{
			"inputs": [],
			"name": "IS_APPROVED_STRATEGY",
			"type": "error"
		},
		{
			"inputs": [],
			"name": "MISMATCH",
			"type": "error"
		},
		{
			"inputs": [],
			"name": "NONCE_NOT_AVAILABLE",
			"type": "error"
		},
		{
			"inputs": [],
			"name": "NON_ZERO_VALUE",
			"type": "error"
		},
		{
			"inputs": [],
			"name": "NOOP",
			"type": "error"
		},
		{
			"inputs": [],
			"name": "NOT_APPROVED_STRATEGY",
			"type": "error"
		},
		{
			"inputs": [],
			"name": "NOT_ENOUGH_FUNDS",
			"type": "error"
		},
		{
			"inputs": [],
			"name": "NOT_IMPLEMENTED",
			"type": "error"
		},
		{
			"inputs": [],
			"name": "NOT_INITIALIZED",
			"type": "error"
		},
		{
			"inputs": [],
			"name": "NOT_PENDING_OWNER",
			"type": "error"
		},
		{
			"inputs": [],
			"name": "POOL_ACTIVE",
			"type": "error"
		},
		{
			"inputs": [],
			"name": "POOL_INACTIVE",
			"type": "error"
		},
		{
			"inputs": [],
			"name": "RECIPIENT_ALREADY_ACCEPTED",
			"type": "error"
		},
		{
			"inputs": [
				{
					"internalType": "address",
					"name": "recipientId",
					"type": "address"
				}
			],
			"name": "RECIPIENT_ERROR",
			"type": "error"
		},
		{
			"inputs": [],
			"name": "RECIPIENT_NOT_ACCEPTED",
			"type": "error"
		},
		{
			"inputs": [],
			"name": "REGISTRATION_ACTIVE",
			"type": "error"
		},
		{
			"inputs": [],
			"name": "REGISTRATION_NOT_ACTIVE",
			"type": "error"
		},
		{
			"inputs": [],
			"name": "UNAUTHORIZED",
			"type": "error"
		},
		{
			"inputs": [],
			"name": "ZERO_ADDRESS",
			"type": "error"
		},
		{
			"anonymous": false,
			"inputs": [
				{
					"indexed": true,
					"internalType": "address",
					"name": "recipientId",
					"type": "address"
				},
				{
					"indexed": false,
					"internalType": "uint256",
					"name": "amount",
					"type": "uint256"
				},
				{
					"indexed": false,
					"internalType": "address",
					"name": "token",
					"type": "address"
				},
				{
					"indexed": false,
					"internalType": "address",
					"name": "sender",
					"type": "address"
				}
			],
			"name": "Allocated",
			"type": "event"
		},
		{
			"anonymous": false,
			"inputs": [
				{
					"indexed": true,
					"internalType": "address",
					"name": "recipientId",
					"type": "address"
				},
				{
					"indexed": false,
					"internalType": "address",
					"name": "recipientAddress",
					"type": "address"
				},
				{
					"indexed": false,
					"internalType": "uint256",
					"name": "amount",
					"type": "uint256"
				},
				{
					"indexed": false,
					"internalType": "address",
					"name": "sender",
					"type": "address"
				}
			],
			"name": "Distributed",
			"type": "event"
		},
		{
			"anonymous": false,
			"inputs": [
				{
					"indexed": false,
					"internalType": "uint256",
					"name": "poolId",
					"type": "uint256"
				},
				{
					"indexed": false,
					"internalType": "bytes",
					"name": "data",
					"type": "bytes"
				}
			],
			"name": "Initialized",
			"type": "event"
		},
		{
			"anonymous": false,
			"inputs": [
				{
					"indexed": false,
					"internalType": "bool",
					"name": "active",
					"type": "bool"
				}
			],
			"name": "PoolActive",
			"type": "event"
		},
		{
			"anonymous": false,
			"inputs": [
				{
					"indexed": true,
					"internalType": "address",
					"name": "recipientId",
					"type": "address"
				},
				{
					"indexed": false,
					"internalType": "bytes",
					"name": "data",
					"type": "bytes"
				},
				{
					"indexed": false,
					"internalType": "address",
					"name": "sender",
					"type": "address"
				}
			],
			"name": "Registered",
			"type": "event"
		},
		{
			"inputs": [],
			"name": "NATIVE",
			"outputs": [
				{
					"internalType": "address",
					"name": "",
					"type": "address"
				}
			],
			"stateMutability": "view",
			"type": "function"
		},
		{
			"inputs": [
				{
					"internalType": "address[]",
					"name": "_recipientIds",
					"type": "address[]"
				},
				{
					"internalType": "uint256[]",
					"name": "_amounts",
					"type": "uint256[]"
				},
				{
					"internalType": "address",
					"name": "_token",
					"type": "address"
				}
			],
			"name": "allocate",
			"outputs": [],
			"stateMutability": "nonpayable",
			"type": "function"
		},
		{
			"inputs": [
				{
					"internalType": "bytes",
					"name": "_data",
					"type": "bytes"
				},
				{
					"internalType": "address",
					"name": "_sender",
					"type": "address"
				}
			],
			"name": "allocate",
			"outputs": [],
			"stateMutability": "payable",
			"type": "function"
		},
		{
			"inputs": [
				{
					"internalType": "address[]",
					"name": "_recipientIds",
					"type": "address[]"
				},
				{
					"internalType": "bytes",
					"name": "_data",
					"type": "bytes"
				},
				{
					"internalType": "address",
					"name": "_sender",
					"type": "address"
				}
			],
			"name": "distribute",
			"outputs": [],
			"stateMutability": "nonpayable",
			"type": "function"
		},
		{
			"inputs": [],
			"name": "getAllo",
			"outputs": [
				{
					"internalType": "contract IAllo",
					"name": "",
					"type": "address"
				}
			],
			"stateMutability": "view",
			"type": "function"
		},
		{
			"inputs": [
				{
					"internalType": "address[]",
					"name": "_recipientIds",
					"type": "address[]"
				},
				{
					"internalType": "bytes[]",
					"name": "_data",
					"type": "bytes[]"
				}
			],
			"name": "getPayouts",
			"outputs": [
				{
					"components": [
						{
							"internalType": "address",
							"name": "recipientAddress",
							"type": "address"
						},
						{
							"internalType": "uint256",
							"name": "amount",
							"type": "uint256"
						}
					],
					"internalType": "struct IStrategy.PayoutSummary[]",
					"name": "",
					"type": "tuple[]"
				}
			],
			"stateMutability": "view",
			"type": "function"
		},
		{
			"inputs": [],
			"name": "getPoolAmount",
			"outputs": [
				{
					"internalType": "uint256",
					"name": "",
					"type": "uint256"
				}
			],
			"stateMutability": "view",
			"type": "function"
		},
		{
			"inputs": [],
			"name": "getPoolId",
			"outputs": [
				{
					"internalType": "uint256",
					"name": "",
					"type": "uint256"
				}
			],
			"stateMutability": "view",
			"type": "function"
		},
		{
			"inputs": [
				{
					"internalType": "address",
					"name": "_recipientId",
					"type": "address"
				}
			],
			"name": "getRecipientStatus",
			"outputs": [
				{
					"internalType": "enum IStrategy.Status",
					"name": "",
					"type": "uint8"
				}
			],
			"stateMutability": "view",
			"type": "function"
		},
		{
			"inputs": [],
			"name": "getStrategyId",
			"outputs": [
				{
					"internalType": "bytes32",
					"name": "",
					"type": "bytes32"
				}
			],
			"stateMutability": "view",
			"type": "function"
		},
		{
			"inputs": [
				{
					"internalType": "uint256",
					"name": "_amount",
					"type": "uint256"
				}
			],
			"name": "increasePoolAmount",
			"outputs": [],
			"stateMutability": "nonpayable",
			"type": "function"
		},
		{
			"inputs": [
				{
					"internalType": "uint256",
					"name": "_poolId",
					"type": "uint256"
				},
				{
					"internalType": "bytes",
					"name": "_data",
					"type": "bytes"
				}
			],
			"name": "initialize",
			"outputs": [],
			"stateMutability": "nonpayable",
			"type": "function"
		},
		{
			"inputs": [],
			"name": "isPoolActive",
			"outputs": [
				{
					"internalType": "bool",
					"name": "",
					"type": "bool"
				}
			],
			"stateMutability": "view",
			"type": "function"
		},
		{
			"inputs": [
				{
					"internalType": "address",
					"name": "_allocator",
					"type": "address"
				}
			],
			"name": "isValidAllocator",
			"outputs": [
				{
					"internalType": "bool",
					"name": "",
					"type": "bool"
				}
			],
			"stateMutability": "view",
			"type": "function"
		},
		{
			"inputs": [
				{
					"internalType": "bytes",
					"name": "_data",
					"type": "bytes"
				},
				{
					"internalType": "address",
					"name": "_sender",
					"type": "address"
				}
			],
			"name": "registerRecipient",
			"outputs": [
				{
					"internalType": "address",
					"name": "recipientId",
					"type": "address"
				}
			],
			"stateMutability": "payable",
			"type": "function"
		},
		{
			"inputs": [
				{
					"internalType": "address",
					"name": "_token",
					"type": "address"
				},
				{
					"internalType": "address",
					"name": "_recipient",
					"type": "address"
				},
				{
					"internalType": "uint256",
					"name": "_amount",
					"type": "uint256"
				}
			],
			"name": "withdraw",
			"outputs": [],
			"stateMutability": "nonpayable",
			"type": "function"
		},
		{
			"stateMutability": "payable",
			"type": "receive"
		}
	]
}